S0110000536D6172744C6F636B2E7372656383
S11300005CC0000084C0000082C0000080C000000A
S11300100C94060D7CC000007AC0000078C000007B
S113002076C0000074C0000072C0000070C0000000
S11300306EC000006CC000006AC0000068C0000010
S113004066C0000064C0000062C0000060C0000020
S11300505EC000005CC000005AC0000058C0000030
S113006056C0000054C0000052C0000050C0000040
S11300704EC000004CC000004AC0000048C0000050
S113008046C0000044C0000042C00000B901EF01B6
S113009025025B029102C702FD02330369039F0339
S11300A0D4031F087808D1082A098309DC09350A12
S11300B08E0AE70A400B990BFA0D11241FBECFEFED
S11300C0D0E4DEBFCDBF15E0A0E0B1E0E0E8F0E2AF
S11300D000E00BBF02C007900D92AE34B107D9F710
S11300E029E0AEE4B5E001C01D92AF37B207E1F7F5
S11300F010E0CDE5D0E004C02197FE010E94351048
S1130100CC35D107C9F70E94E50D0C943E1078CF89
S1130110CF93DF93EC01E881F9810190F081E02D28
S11301200995E881F9810088F189E02DCE010995CE
S1130130DF91CF910895DC0114962D913C91159790
S11301402F5F3F4F233031052CF415963C932E93AB
S1130150149703C0FC0115821482DC01ED91FC911B
S11301600088F189E02D09950895DC0114962D91FC
S11301703C911597215031092AF015963C932E9302
S1130180149705C022E030E0FC0135832483DC01B0
S1130190ED91FC910088F189E02D09950895DC0129
S11301A014962D913C9115972115310521F021309C
S11301B0310571F008951092000121E020937C052F
S11301C0DC01ED91FC910480F581E02D0995089501
S11301D01092000121E020937B05DC01ED91FC915C
S11301E00480F581E02D0995089508950895CF932D
S11301F0DF93EC01E881F9810190F081E02D09950C
S1130200E881F9810088F189E02DCE010995DF911B
S1130210CF910895DC0116962D913C9117972F5F8D
S11302203F4F2B3031052CF417963C932E931697A1
S113023003C0FC0117821682DC01ED91FC91008859
S1130240F189E02D09950895DC0116962D913C91D4
S11302501797215031092AF017963C932E9316973D
S113026005C02AE030E0FC0137832683DC01ED91F0
S1130270FC910088F189E02D099508950895CF93A4
S1130280DF93EC01E881F9810190F081E02D09957B
S1130290E881F9810088F189E02DCE010995DF918B
S11302A0CF910895DC0114962D913C9115972F5F01
S11302B03F4F253031052CF415963C932E9314971B
S11302C003C0FC0115821482DC01ED91FC910088CD
S11302D0F189E02D09950895DC0114962D913C9146
S11302E01597215031092AF015963C932E931497B3
S11302F005C024E030E0FC0135832483DC01ED916A
S1130300FC910088F189E02D09950895DC0114968B
S11303102D913C9115972330310531F4ED91FC91E9
S11303200484F585E02D09950895CF93DF93EC01BE
S1130330E881F9810480F581E02D09951D821C82F4
S1130340DF91CF9108950895AF92BF92CF92DF923B
S1130350EF92FF920F931F93CF93DF93EC01EE8103
S1130360FF81EB30F10508F025C2EA5BFF4F0C94E6
S113037035108C819D8101969D838C8318161906F6
S11303800CF018C26E0188E0C80ED11CE12CF12CCF
S113039056014A895B894E5F5F4FF6016191719105
S11303A06F0108E010E021E030E08DE795E00E9465
S11303B01E0F4A895B8941505109F50160817181A1
S11303C021E030E08DE795E00E941E0FFFEFEF1A69
S11303D0FF0A8C819D81E816F906D4F2EBC18C8169
S11303E09D8101969D838C83181619060CF0E2C139
S11303F06E0188E0C80ED11CE12CF12C56014A890B
S11304005B894E5F5F4FF601619171916F0108E066
S113041010E021E030E08DE795E00E941E0F4A894C
S11304205B8941505109F5016081718121E030E01F
S11304308DE795E00E941E0FFFEFEF1AFF0A8C81F3
S11304409D81E816F906D4F2B5C18C819D8101968F
S11304509D838C83181619060CF0ACC16E0188E0DC
S1130460C80ED11CE12CF12C56014A895B894E5FE0
S11304705F4FF601619171916F0108E010E021E096
S113048030E08DE795E00E941E0F4A895B89415058
S11304905109F5016081718121E030E08DE795E03B
S11304A00E941E0FFFEFEF1AFF0A8C819D81E81650
S11304B0F906D4F27FC18C819D8101969D838C8342
S11304C0181619060CF076C16E0188E0C80ED11C0E
S11304D0E12CF12C56014A895B894E5F5F4FF6018E
S11304E0619171916F0108E010E021E030E08DE747
S11304F095E00E941E0F4A895B8941505109F5011C
S11305006081718121E030E08DE795E00E941E0F4B
S1130510FFEFEF1AFF0A8C819D81E816F906D4F2E9
S113052049C18C819D8101969D838C83181619067F
S11305300CF040C16E0188E0C80ED11CE12CF12CF6
S113054056014A895B894E5F5F4FF6016191719153
S11305506F0108E010E021E030E08DE795E00E94B3
S11305601E0F4A895B8941505109F50160817181EF
S113057021E030E08DE795E00E941E0FFFEFEF1AB7
S1130580FF0A8C819D81E816F906D4F213C18C818F
S11305909D8101969D838C83181619060CF00AC15F
S11305A06E0188E0C80ED11CE12CF12C56014A8959
S11305B05B894E5F5F4FF601619171916F0108E0B5
S11305C010E021E030E08DE795E00E941E0F4A899B
S11305D05B8941505109F5016081718121E030E06E
S11305E08DE795E00E941E0FFFEFEF1AFF0A8C8142
S11305F09D81E816F906D4F2DDC08C819D810196B7
S11306009D838C83181619060CF0D4C06E0188E003
S1130610C80ED11CE12CF12C56014A895B894E5F2E
S11306205F4FF601619171916F0108E010E021E0E4
S113063030E08DE795E00E941E0F4A895B894150A6
S11306405109F5016081718121E030E08DE795E089
S11306500E941E0FFFEFEF1AFF0A8C819D81E8169E
S1130660F906D4F2A7C08C819D8101969D838C8369
S1130670181619060CF09EC06E0188E0C80ED11C35
S1130680E12CF12C56014A895B894E5F5F4FF601DC
S1130690619171916F0108E010E021E030E08DE795
S11306A095E00E941E0F4A895B8941505109F5016A
S11306B06081718121E030E08DE795E00E941E0F9A
S11306C0FFEFEF1AFF0A8C819D81E816F906D4F238
S11306D071C08C819D8101969D838C8318161906A7
S11306E00CF068C06E0188E0C80ED11CE12CF12C1E
S11306F056014A895B894E5F5F4FF60161917191A2
S11307006F0108E010E021E030E08DE795E00E9401
S11307101E0F4A895B8941505109F501608171813D
S113072021E030E08DE795E00E941E0FFFEFEF1A05
S1130730FF0A8C819D81E816F906D4F23BC08C81B6
S11307409D8101969D838C83181619069CF56E0174
S113075088E0C80ED11CE12CF12C56014A895B8932
S11307604E5F5F4FF601619171916F0108E010E0F7
S113077021E030E08DE795E00E941E0F4A895B89F5
S113078041505109F5016081718121E030E08DE72C
S113079095E00E941E0FFFEFEF1AFF0A8C819D81E6
S11307A0E816F906D4F206C0E881F9810484F585D7
S11307B0E02D09958C819D8105976CF081E08093F3
S11307C0000110927C05E881F9810480F581E02D17
S11307D0CE01099509C01F821E82E881F981008833
S11307E0F189E02DCE010995DF91CF911F910F91F1
S11307F0FF90EF90DF90CF90BF90AF9008950F934C
S11308001F93CF93DF93EC014A895B89EC81FD81CF
S11308103496EE0FFF1FE80FF91F6081718108E025
S113082010E021E030E08DE795E00E941E0F4A8938
S11308305B894E5F5F4FEC81FD813496EE0FFF1FA5
S1130840EC0FFD1F6081718121E030E08DE795E0C0
S11308500E941E0F4A895B8941505109EC81FD8138
S11308603496EE0FFF1FEC0FFD1F6081718121E0B4
S113087030E08DE795E00E941E0F8C819D810197E9
S11308809D838C8399237CF410927C0581E0809372
S11308900001E881F9810480F581E02DCE010995FC
S11308A01D821C8207C0E881F9810088F189E02D4E
S11308B0CE010995DF91CF911F910F910895EF9289
S11308C0FF920F931F93CF93DF93EC0190917B05DD
S11308D0992309F465C38C819D818130910509F4C4
S11308E056C11CF4892B49F05BC38230910509F48D
S11308F06CC2039709F433C353C34E855F8508E084
S113090010E020E130E060E070E08DE795E00E94C7
S11309101E0F4E855F85EC81FD813396EE0FFF1F20
S1130920EC0FFD1F608171810F2EF9E2EF2EF1E0D3
S1130930FF2EF02D21E030E08DE795E00E946D0F51
S11309404E855F85EC81FD813396EE0FFF1FEC0F22
S1130950FD1F60817181685F7F4F0F2EF1E6EF2EDE
S1130960F1E0FF2EF02D21E030E08DE795E00E94CC
S11309706D0F4E855F85EC81FD813396EE0FFF1F71
S1130980EC0FFD1F60817181605F7F4F0F2EF1E2DC
S1130990EF2EF1E0FF2EF02D21E030E08DE795E021
S11309A00E946D0F4E855F85EC81FD813396EE0FBD
S11309B0FF1FEC0FFD1F60817181605E7F4F0F2E62
S11309C0F9E7EF2EF1E0FF2EF02D21E030E08DE786
S11309D095E00E946D0F4E855F85EC81FD81339615
S11309E0EE0FFF1FEC0FFD1F60817181685D7F4F6B
S11309F00F2EF1E3EF2EF1E0FF2EF02D21E030E099
S1130A008DE795E00E946D0F4E855F85EC81FD8139
S1130A103396EE0FFF1FEC0FFD1F60817181605D47
S1130A207F4F0F2EF9E4EF2EF1E0FF2EF02D21E0A1
S1130A3030E08DE795E00E946D0F4E855F85EC8177
S1130A40FD813396EE0FFF1FEC0FFD1F6081718156
S1130A50685C7F4F0F2EF9E5EF2EF1E0FF2EF02DAD
S1130A6021E030E08DE795E00E946D0F4E855F85B3
S1130A70EC81FD813396EE0FFF1FEC0FFD1F6081AB
S1130A807181605C7F4F0F2EF1E5EF2EF1E0FF2EB8
S1130A90F02D21E030E08DE795E00E946D0F4E854A
S1130AA05F85EC81FD813396EE0FFF1FEC0FFD1F78
S1130AB060817181685B7F4F0F2EF1E2EF2EF1E0D0
S1130AC0FF2EF02D21E030E08DE795E00E946D0FC0
S1130AD04E855F85EC81FD813396EE0FFF1FEC0F91
S1130AE0FD1F60817181605B7F4F0F2EF1E4EF2E5B
S1130AF0F1E0FF2EF02D21E030E08DE795E00E943B
S1130B006D0F4E855F85EC81FD813396EE0FFF1FDF
S1130B10EC0FFD1F60817181685A7F4F0F2EF1E643
S1130B20EF2EF1E0FF2EF02D21E030E08DE795E08F
S1130B300E946D0F4E855F85EC81FD813396EE0F2B
S1130B40FF1FEC0FFD1F60817181605A7F4F0F2ED4
S1130B50F9E2EF2EF1E0FF2EF02D21E030E08DE7F9
S1130B6095E00E946D0F4E855F858C819D81039673
S1130B70880F991FC80FD91F6881798168597F4FE1
S1130B8021E030E08DE795E00E946D0F09C24E85AB
S1130B905F8508E010E020E130E060E070E08DE780
S1130BA095E00E941E0F4E855F85EC81FD81339692
S1130BB0EE0FFF1FEC0FFD1F608171810F2EF1E31B
S1130BC0EF2EF1E0FF2EF02D21E030E08DE795E0EF
S1130BD00E946D0F4E855F85EC81FD813396EE0F8B
S1130BE0FF1FEC0FFD1F60817181685F7F4F0F2E27
S1130BF0F1E6EF2EF1E0FF2EF02D21E030E08DE75D
S1130C0095E00E946D0F4E855F85EC81FD813396E2
S1130C10EE0FFF1FEC0FFD1F60817181605F7F4F3E
S1130C200F2EF9E2EF2EF1E0FF2EF02D21E030E05F
S1130C308DE795E00E946D0F4E855F85EC81FD8107
S1130C403396EE0FFF1FEC0FFD1F60817181685E0C
S1130C507F4F0F2EF1E6EF2EF1E0FF2EF02D21E075
S1130C6030E08DE795E00E946D0F4E855F85EC8145
S1130C70FD813396EE0FFF1FEC0FFD1F6081718124
S1130C80605E7F4F0F2EF1E2EF2EF1E0FF2EF02D8C
S1130C9021E030E08DE795E00E946D0F4E855F8581
S1130CA0EC81FD813396EE0FFF1FEC0FFD1F608179
S1130CB07181605D7F4F0F2EF9E6EF2EF1E0FF2E7C
S1130CC0F02D21E030E08DE795E00E946D0F4E8518
S1130CD05F85EC81FD813396EE0FFF1FEC0FFD1F46
S1130CE060817181685C7F4F0F2EF1E6EF2EF1E099
S1130CF0FF2EF02D21E030E08DE795E00E946D0F8E
S1130D004E855F85EC81FD813396EE0FFF1FEC0F5E
S1130D10FD1F60817181605C7F4F0F2EF9E1EF2E22
S1130D20F1E0FF2EF02D21E030E08DE795E00E9408
S1130D306D0F4E855F85EC81FD813396EE0FFF1FAD
S1130D40EC0FFD1F60817181685B7F4F0F2EF9E40A
S1130D50EF2EF1E0FF2EF02D21E030E08DE795E05D
S1130D600E946D0F4E855F85EC81FD813396EE0FF9
S1130D70FF1FEC0FFD1F60817181605B7F4F0F2EA1
S1130D80F1E7EF2EF1E0FF2EF02D21E030E08DE7CA
S1130D9095E00E946D0F4E855F858C819D81039641
S1130DA0880F991FC80FD91F68817981685A7F4FAE
S1130DB00F2EF1E6EF2EF1E0FF2EF02D21E030E0D2
S1130DC08DE795E00E946D0FEBC04E855F8508E0CE
S1130DD010E020E130E060E070E08DE795E00E94F3
S1130DE01E0F4E855F85EC81FD813396EE0FFF1F4C
S1130DF0EC0FFD1F608171810F2EF1E8EF2EF1E001
S1130E00FF2EF02D21E030E08DE795E00E946D0F7C
S1130E104E855F85EC81FD813396EE0FFF1FEC0F4D
S1130E20FD1F60817181685F7F4F0F2EF9E6EF2E01
S1130E30F1E0FF2EF02D21E030E08DE795E00E94F7
S1130E406D0F4E855F85EC81FD813396EE0FFF1F9C
S1130E50EC0FFD1F60817181605F7F4F21E030E006
S1130E608DE795E00E946D0F4E855F85EC81FD81D5
S1130E703396EE0FFF1FEC0FFD1F60817181605EE2
S1130E807F4F0F2EF9E3EF2EF1E0FF2EF02D21E03E
S1130E9030E08DE795E00E946D0F4E855F85EC8113
S1130EA0FD813396EE0FFF1FEC0FFD1F60817181F2
S1130EB0685D7F4F0F2EF1E1EF2EF1E0FF2EF02D54
S1130EC021E030E08DE795E00E946D0F4E855F854F
S1130ED0EC81FD813396EE0FFF1FEC0FFD1F608147
S1130EE07181605D7F4F0F2EF1E4EF2EF1E0FF2E54
S1130EF0F02D21E030E08DE795E0EFD74E855F855A
S1130F00EC81FD813396EE0FFF1FEC0FFD1F608116
S1130F107181685C7F4F0F2EF1E6EF2EF1E0FF2E1A
S1130F20F02D21E030E08DE795E0D7D74E855F8541
S1130F308C819D810396880F991FC80FD91F6881E2
S1130F407981605C7F4F0F2EF1E3EF2EF1E0FF2EED
S1130F50F02D21E030E08DE795E0BFD721C04E852C
S1130F605F8508E010E020E130E060E070E08DE7AC
S1130F7095E064D74E855F858C819D810396880FAB
S1130F80991FC80FD91F688179810F2EF1E0EF2EC8
S1130F90F1E0FF2EF02D22E030E08DE795E09DD7C3
S1130FA0DF91CF911F910F91FF90EF900895EF92F1
S1130FB0FF920F931F93CF93DF93EC014E855F85D0
S1130FC04E5F5F4F0F2EF9E2EF2EF2E0FF2EF02D71
S1130FD008E010E022E030E068E370E08DE795E09F
S1130FE07CD74E855F85425051090F2EF9E3EF2ED1
S1130FF0F2E0FF2EF02D22E030E068E370E08DE7B0
S113100095E06BD7DF91CF911F910F91FF90EF90F7
S11310100895EF92FF920F931F93CF93DF93EC0108
S113102090917C05992309F4DCC3EE81FF81EB30B8
S1131030F10508F0D6C3EF5AFF4F0C9435104A89D6
S11310405B89EC81FD813496EE0FFF1FEC0FFD1FD1
S11310506081718108E010E021E030E08DE795E0E7
S1131060EDD64A895B89EC81FD813496EE0FFF1F32
S1131070EC0FFD1F608171810F2EF1EFEF2EF4E074
S1131080FF2EF02D21E030E08DE795E026D74A8948
S11310905B894E5F5F4FEC81FD813496EE0FFF1F3D
S11310A0EC0FFD1F608171810F2EF9E8EF2EF4E043
S11310B0FF2EF02D21E030E08DE795E00ED74A8930
S11310C05B89415051098C819D810496880F991F39
S11310D0C80FD91F688179810F2EF1E9EF2EF4E052
S11310E0FF2EF02D21E030E08DE795E0F6D679C3B0
S11310F04A895B89EC81FD813496EE0FFF1FEC0F6A
S1131100FD1F6081718108E010E021E030E08DE78F
S113111095E094D64A895B89EC81FD813496EE0F83
S1131120FF1FEC0FFD1F608171810F2EF9EEEF2E72
S1131130F4E0FF2EF02D21E030E08DE795E0CDD6F0
S11311404A895B894E5F5F4FEC81FD813496EE0FD7
S1131150FF1FEC0FFD1F608171810F2EF9E8EF2E48
S1131160F4E0FF2EF02D21E030E08DE795E0B5D6D8
S11311704A895B89415051098C819D810496880F6D
S1131180991FC80FD91F688179810F2EF1E9EF2EBD
S1131190F4E0FF2EF02D21E030E08DE795E09DD6C0
S11311A020C34A895B89EC81FD813496EE0FFF1FD1
S11311B0EC0FFD1F6081718108E010E021E030E058
S11311C08DE795E03BD64A895B89EC81FD813496B5
S11311D0EE0FFF1FEC0FFD1F608171810F2EF1EEEA
S11311E0EF2EF4E0FF2EF02D21E030E08DE795E0C6
S11311F074D64A895B894E5F5F4FEC81FD813496DA
S1131200EE0FFF1FEC0FFD1F608171810F2EF9E8B7
S1131210EF2EF4E0FF2EF02D21E030E08DE795E095
S11312205CD64A895B89415051098C819D81049621
S1131230880F991FC80FD91F688179810F2EF1E992
S1131240EF2EF4E0FF2EF02D21E030E08DE795E065
S113125044D6C7C24A895B89EC81FD813496EE0F7E
S1131260FF1FEC0FFD1F6081718108E010E021E099
S113127030E08DE795E0E2D54A895B89EC81FD8118
S11312803496EE0FFF1FEC0FFD1F608171810F2E4E
S1131290F9EDEF2EF4E0FF2EF02D21E030E08DE7A4
S11312A095E01BD64A895B894E5F5F4FEC81FD81D7
S11312B03496EE0FFF1FEC0FFD1F608171810F2E1E
S11312C0F9E8EF2EF4E0FF2EF02D21E030E08DE779
S11312D095E003D64A895B89415051098C819D81EF
S11312E00496880F991FC80FD91F688179810F2E22
S11312F0F1E9EF2EF4E0FF2EF02D21E030E08DE750
S113130095E0EBD56EC24A895B89EC81FD81349608
S1131310EE0FFF1FEC0FFD1F6081718108E010E0EC
S113132021E030E08DE795E089D54A895B89EC813D
S1131330FD813496EE0FFF1FEC0FFD1F608171815C
S11313400F2EF1EDEF2EF4E0FF2EF02D21E030E032
S11313508DE795E0C2D54A895B894E5F5F4FEC818A
S1131360FD813496EE0FFF1FEC0FFD1F608171812C
S11313700F2EF9E8EF2EF4E0FF2EF02D21E030E0FF
S11313808DE795E0AAD54A895B89415051098C8142
S11313909D810496880F991FC80FD91F6881798190
S11313A00F2EF1E9EF2EF4E0FF2EF02D21E030E0D6
S11313B08DE795E092D515C24A895B89EC81FD8160
S11313C03496EE0FFF1FEC0FFD1F6081718108E062
S11313D010E021E030E08DE795E030D54A895B8963
S11313E0EC81FD813496EE0FFF1FEC0FFD1F608131
S11313F071810F2EF9ECEF2EF4E0FF2EF02D21E099
S113140030E08DE795E069D54A895B894E5F5F4F8F
S1131410EC81FD813496EE0FFF1FEC0FFD1F608100
S113142071810F2EF9E8EF2EF4E0FF2EF02D21E06C
S113143030E08DE795E051D54A895B8941505109E7
S11314408C819D810496880F991FC80FD91F6881CC
S113145079810F2EF1E9EF2EF4E0FF2EF02D21E03B
S113146030E08DE795E039D5BCC14A895B89EC81D0
S1131470FD813496EE0FFF1FEC0FFD1F608171811B
S113148008E010E021E030E08DE795E0D7D44A8908
S11314905B89EC81FD813496EE0FFF1FEC0FFD1F7D
S11314A0608171810F2EF1ECEF2EF4E0FF2EF02D10
S11314B021E030E08DE795E010D54A895B894E5FE5
S11314C05F4FEC81FD813496EE0FFF1FEC0FFD1F83
S11314D0608171810F2EF9E8EF2EF4E0FF2EF02DDC
S11314E021E030E08DE795E0F8D44A895B894150EA
S11314F051098C819D810496880F991FC80FD91FAB
S1131500688179810F2EF1E9EF2EF4E0FF2EF02DA2
S113151021E030E08DE795E0E0D463C14A895B893E
S1131520EC81FD813496EE0FFF1FEC0FFD1F6081EF
S1131530718108E010E021E030E08DE795E07ED491
S11315404A895B89EC81FD813496EE0FFF1FEC0F15
S1131550FD1F608171810F2EF9EBEF2EF4E0FF2E59
S1131560F02D21E030E08DE795E0B7D44A895B891E
S11315704E5F5F4FEC81FD813496EE0FFF1FEC0F41
S1131580FD1F608171810F2EF9E8EF2EF4E0FF2E2C
S1131590F02D21E030E08DE795E09FD44A895B8906
S11315A0415051098C819D810496880F991FC80F61
S11315B0D91F688179810F2EF1E9EF2EF4E0FF2E17
S11315C0F02D21E030E08DE795E087D40AC14A8907
S11315D05B89EC81FD813496EE0FFF1FEC0FFD1F3C
S11315E06081718108E010E021E030E08DE795E052
S11315F025D44A895B89EC81FD813496EE0FFF1F67
S1131600EC0FFD1F608171810F2EF1EBEF2EF4E0E2
S1131610FF2EF02D21E030E08DE795E05ED44A897D
S11316205B894E5F5F4FEC81FD813496EE0FFF1FA7
S1131630EC0FFD1F608171810F2EF9E8EF2EF4E0AD
S1131640FF2EF02D21E030E08DE795E046D44A8965
S11316505B89415051098C819D810496880F991FA3
S1131660C80FD91F688179810F2EF1E9EF2EF4E0BC
S1131670FF2EF02D21E030E08DE795E02ED4B1C0AF
S11316804A895B89EC81FD813496EE0FFF1FEC0FD4
S1131690FD1F6081718108E010E021E030E08DE7FA
S11316A095E0CCD34A895B89EC81FD813496EE0FB9
S11316B0FF1FEC0FFD1F608171810F2EF9EAEF2EE1
S11316C0F4E0FF2EF02D21E030E08DE795E005D425
S11316D04A895B894E5F5F4FEC81FD813496EE0F42
S11316E0FF1FEC0FFD1F608171810F2EF9E8EF2EB3
S11316F0F4E0FF2EF02D21E030E08DE795E0EDD30E
S11317004A895B89415051098C819D810496880FD7
S1131710991FC80FD91F688179810F2EF1E9EF2E27
S1131720F4E0FF2EF02D21E030E08DE795E0D5D3F5
S113173058C04A895B89EC81FD813496EE0FFF1F06
S1131740EC0FFD1F6081718108E010E021E030E0C2
S11317508DE795E073D34A895B89EC81FD813496EA
S1131760EE0FFF1FEC0FFD1F608171810F2EF9E951
S1131770EF2EF4E0FF2EF02D21E030E08DE795E030
S1131780ACD34A895B894E5F5F4FEC81FD8134960F
S1131790EE0FFF1FEC0FFD1F608171810F2EF9E822
S11317A0EF2EF4E0FF2EF02D21E030E08DE795E000
S11317B094D34A895B89415051098C819D81049657
S11317C0880F991FC80FD91F688179810F2EF1E9FD
S11317D0EF2EF4E0FF2EF02D21E030E08DE795E0D0
S11317E07CD3DF91CF911F910F91FF90EF900895DB
S11317F0EF92FF920F931F93CF93DF93EC014A89EB
S11318005B894F5F5F4F688579850F2EF1EAEF2E74
S1131810F4E0FF2EF02D08E010E021E030E08DE749
S113182095E05BD34A895B894F5F5F4F6A857B850F
S113183021E030E08DE795E050D34A895B894F5F22
S11318405F4F6C857D8521E030E08DE795E045D3E1
S11318504A895B894F5F5F4F6E857F8521E030E069
S11318608DE795E03AD34A895B894F5F5F4F68897A
S1131870798921E030E08DE795E02FD3DF91CF9196
S11318801F910F91FF90EF900895EF92FF920F93A5
S11318901F93FC018481958181309105C1F18230CF
S11318A0910509F44FC0892B09F066C000E210E0ED
S11318B024E030E042E050E062E370E08DE795E040
S11318C0BDD280917A05882381F00F2EF9E5EF2EA1
S11318D0F2E0FF2EF02D24E030E042E050E062E33D
S11318E070E08DE795E0F9D247C00F2EF9EEEF2EA8
S11318F0F2E0FF2EF02D00E210E024E030E042E0C0
S113190050E062E370E08DE795E0E7D235C000E295
S113191010E024E030E042E050E062E370E08DE764
S113192095E08CD20F2EF9EFEF2EF3E0FF2EF02D81
S113193024E030E042E050E062E370E08DE795E0BF
S1131940CCD21AC000E210E024E030E042E050E0E3
S113195062E370E08DE795E071D20F2EF9E6EF2E89
S1131960F3E0FF2EF02D24E030E042E050E062E3AB
S113197070E08DE795E0B1D21F910F91FF90EF9049
S11319800895EF92FF920F931F930F2EF9E4EF2E19
S1131990F2E0FF2EF02D00E110E021E030E043E022
S11319A050E06EE170E08DE795E097D20F2EF9EDEF
S11319B0EF2EF2E0FF2EF02D21E030E043E050E086
S11319C06AE670E08DE795E088D21F910F91FF9051
S11319D0EF900895FC011582148210927B0581E03A
S11319E0809300018DE795E098C10895FC0115826C
S11319F0148210927C0581E0809300018DE795E0CC
S1131A008CC108958DE795E088C108951F920F92C7
S1131A100FB60F9211240BB60F92EF92FF920F9311
S1131A201F932F933F934F935F936F937F938F9362
S1131A309F93AF93BF93EF93FF93F89480B1811179
S1131A401BC008E010E021E030E042E050E068E034
S1131A5070E08DE795E0F2D10F2EF9EEEF2EF4E071
S1131A60FF2EF02D21E030E042E050E068E070E02D
S1131A708DE795E032D21AC008E010E021E030E0B2
S1131A8042E050E068E070E08DE795E0D7D10F2E9A
S1131A90F1EFEF2EF4E0FF2EF02D21E030E042E0F4
S1131AA050E068E070E08DE795E017D27894FF91FC
S1131AB0EF91BF91AF919F918F917F916F915F91C2
S1131AC04F913F912F911F910F91FF90EF900F90A5
S1131AD00BBE0F900FBE0F901F901895EF92FF92C0
S1131AE00F931F93CF93DF93EC0188819981892B06
S1131AF089F40F2EF9E0EF2EF2E0FF2EF02D08E02E
S1131B0010E024E030E040E050E060E670E08DE773
S1131B1095E0E3D188819981019789F40F2EF9EE3C
S1131B20EF2EF1E0FF2EF02D08E010E024E030E08D
S1131B3040E050E060E670E08DE795E0CED188812A
S1131B409981029789F40F2EF9ECEF2EF1E0FF2E24
S1131B50F02D08E010E024E030E040E050E060E6E2
S1131B6070E08DE795E0B9D188819981039789F474
S1131B700F2EF9EAEF2EF1E0FF2EF02D08E010E031
S1131B8024E030E040E050E060E670E08DE795E06E
S1131B90A4D188819981049789F40F2EF9E8EF2E56
S1131BA0F1E0FF2EF02D08E010E024E030E040E00A
S1131BB050E060E670E08DE795E08FD1DF91CF9142
S1131BC01F910F91FF90EF9008958DE795E08CD0D1
S1131BD011B812B880E88AB98BB98CE380936B0092
S1131BE0E8E6F0E080818160808378948DE795E079
S1131BF07BD0FBCF0F931F93CF93DF938EE799E0B6
S1131C0019D260E08DE795E08FD0CAE6D5E08BE38A
S1131C1095E0998388831D821C8288E0E9EFF4E0D3
S1131C20A0E7B5E001900D928A95E1F784E090E099
S1131C309F878E87C6E5D5E085E295E09983888302
S1131C401D821C821F821E828AE0E1E0F5E0AEE57F
S1131C50B5E001900D928A95E1F782E090E09B8BCC
S1131C608A8BE0E5F5E08FE095E09183808315822F
S1131C70148214B88FEF85B983B1082F017010E076
S1131C80C801199901961A9901961B990196909386
S1131C904F0580934E058EE495E020DFDF91CF91D0
S1131CA01F910F91089580E88093BB0084E880938E
S1131CB0BC00ECEBF0E080818823ECF76093BB0080
S1131CC084E88093BC00ECEBF0E080818823ECF79F
S1131CD008956093BB0084E88093BC00ECEBF0E0D3
S1131CE080818823ECF70895EF92FF920F931F935E
S1131CF0CF93DF938C01EC017C018CEFF81A69918E
S1131D0070E0C801E6DFCE15DF05C9F7DF91CF919A
S1131D101F910F91FF90EF900895FC019C5F119229
S1131D20E817F907E1F708950F931F93CF93DF9313
S1131D30EC018C011C5FC8017DD1C8017CD1C801B4
S1131D408BD1C8017DD168EA70E0CE01ACDF6FE3CE
S1131D5070E0CE01A8DF63ED70E0CE01A4DF60E0A7
S1131D6070E0CE01A0DF60E470E0CE019CDF61EAA8
S1131D7070E0CE0198DF68EC70E0CE0194DF6AED8C
S1131D8070E0CE0190DF62E170E0CE018CDF61E8AB
S1131D9070E0CE0188DF6FEF70E0CE0184DF64EA8B
S1131DA070E0CE0180DF66EA70E0CE017CDF65ED95
S1131DB070E0CE0178DF60E870E0CE0174DF6DE89A
S1131DC070E0CE0170DF64E170E0CE016CDF6FEA99
S1131DD070E0CE0168DF60E270E0CE0164DF60E0B5
S1131DE070E0CE0160DF61E270E0CE015CDF60E0B4
S1131DF070E0CE0158DF6FE770E0CE0154DF62E29D
S1131E0070E0CE0150DF60E070E0CE014CDF67E0AF
S1131E1070E0CE0148DF80E48093BB0084E88093C7
S1131E20BC00CE017ADF60E070E0CE0152DFCE016B
S1131E305BDFDF91CF911F910F910895CF92DF92D5
S1131E40EF92FF920F931F93CF93DF93EC017B01EB
S1131E506A01B90110161106BCF520E030E0AB01AF
S1131E60440F551F440F551F440F551F4E0D5F1D42
S1131E701616170624F5C90133230CF40796959515
S1131E80879595958795959587958C0D9D1D969528
S1131E90982F882797958795FC01EE0DFF1DEC0F71
S1131EA0FD1F840F951F8C0F9D1FDF011896119243
S1131EB0EA17FB07E1F7FD018A179B07B1F72F5FCC
S1131EC03F4F02171307A1F6DF91CF911F910F9196
S1131ED0FF90EF90DF90CF9008952F923F924F9212
S1131EE05F926F927F928F929F92AF92BF92CF92A6
S1131EF0DF92EF92FF920F931F93CF93DF9300D063
S1131F0000D000D0CDB7DEB79E838D833A0129017E
S1131F101801101611060CF074C03C832B838E2C10
S1131F209F2CC12CD12C0F2EF7E0AF2EB12CF02D0D
S1131F30C901880F991F880F991F880F991F9B014A
S1131F40280F391F3A832983141415040CF04EC04A
S1131F50C60187709078992324F40197886F9F6F46
S1131F6001968501081B190B7601DD201CF497E00E
S1131F70E90EF11CF594E794F594E794F594E7944D
S1131F80E60CF71CF694FE2CEE24F794E794AB01D0
S1131F904E0D5F1D2D813E81420F531F89819A8111
S1131FA0E80EF91EE20EF31ED401FA0120E030E03F
S1131FB08C9190E0022E02C0880F991F0A94E2F7D8
S1131FC080789927002E02C0959587950A94E2F7A8
S1131FD09081892B81932F5F3F4F2830310541F742
S1131FE0485F5F4F11964E155F05F9F63FEFC31A30
S1131FF0D30A8B819C81880E991E2C143D0409F010
S1132000A3CF26960FB6F894DEBF0FBECDBFDF91E7
S1132010CF911F910F91FF90EF90DF90CF90BF90E1
S1132020AF909F908F907F906F905F904F903F9074
S11320302F90089508951092B8001092B900089551
S113204088E78093BB0084E88093BC00ECEBF0E06D
S113205080818823ECF7089584EA8093BC00ECEB3C
S1132060F0E080818823ECF70895EE0FFF1F002431
S1132070001C0BBE0790F691E02D0994F894FFCF55
S113208001010003E003F0011818180E7003C000EA
S113209000004242425A5A24000042424224241878
S11320A000007E181818181800003E403C02027CFC
S11320B000007C42427C444200003C664242663C52
S11320C000004262524A464200003C181818183C6C
S11320D0000042427E42424200003E604040663E72
S11320E000007E407E40407E0000784442424478B6
S11320F000003E604040603E00007C427C42427CE6
S11321000000183C667E6666003FFFFFFC2000006E
S1132110042F0000042F0000042F0000042F0000EF
S113212004200000043FFFFFFC3FFFFFFC200000F1
S1132130042F7800042F7800042F7800042F7800EF
S113214004200000043FFFFFFC3FFFFFFC200000D1
S1132150042F7BC0042F7BC0042F7BC0042F7BC0C3
S113216004200000043FFFFFFC3FFFFFFC200000B1
S1132170042F7BDE042F7BDE042F7BDE042F7BDE2B
S113218004200000043FFFFFFC3FFFFFFC20000091
S1132190042F7BDEF42F7BDEF42F7BDEF42F7BDE3B
S11321A0F4200000043FFFFFFCFFFF7FFE3FFC1F05
S11321B0F80FF007E003C00180018003C007E00FBF
S11321C0F01FF83FFC7FFEFFFF0103070F1F3F7F57
S11321D0FFFF7F3F1F0F0703010000000000018085
S11321E0000007E000001C380000700E0000E0074B
S11321F00001C0038001C0038001C0038001C0034B
S11322008001C0038001C0038000800380000003BC
S1132210800000038003FFFFC003FFFFC003FFFF34
S1132220C003FE7FC003FC3FC003FC3FC003FE7F2E
S1132230C003FE7FC003FC7FC003FE7FC003FFFF1B
S1132240C003FFFFC0000000000000000000000009
S113225000000000000000000080C0E0F0F8FCFE78
S1132260FFFFFEFCF8F0E0C080000000000000006A
S1132270000000000000000000000180000007E0F2
S113228000001C380000700E0000E0070001C003CD
S11322908001C0038001C0038001C0038001C0032A
S11322A08001C0038003FFFFC003FFFFC003FFFFE3
S11322B0C003FE7FC003FC3FC003FC3FC003FE7F9E
S11322C0C003FE7FC003FC7FC003FE7FC003FFFF8B
S11322D0C003FFFFC0000000000000000000000079
S11322E000000000000000000000000000000000EA
S11322F000000FF000000FF000000FF000000FF0DE
S113230000000FF000000FF000000FF000000FF0CD
S11323100000000000000000000007E0000007E0EB
S1132320000007E0000007E0000007E0000007E00D
S1132330000007E0000007E0000007E0000007E0FD
S1132340000007E0000007E0000007E0000007E0ED
S1132350000007E0000007E0000007E0000007E0DD
S11323600000FFFF0000FFFF0000FFFF0000FFFF71
S1132370000000000000000000000180000003C015
S1132380000007E0001E0FF0781F9E79F81FFC3F45
S1132390F81FE007F80F0000F80E07E070060E7053
S11323A060061818600C300C301C6186383CC3C3BE
S11323B03C7987E19EF18E719FF18E719F7987E15F
S11323C09E3CC3C33C1C6186380C300C3006181884
S11323D060060E70600E07E0700F0000F81FE00743
S11323E0F81FFC3FF81F9E79F81E0FF0780007E0F5
S11323F0000003C000000000000000000000000016
S113240000000000000001800000FF7E3C18000076
S113241000183C7EFF0000000000207E7E2606009F
S11324200000007E0000000000003C24243C043C2A
S113243000003C243C24243C00003C0408102020E0
S113244000003C203C24243C00003C203C04043C90
S113245000002424243C040400003C043C04043C08
S113246000003C040418303C000018380808083CFC
S113247000003C242424243C00080010001C0038E4
S1132480000C0024003C0054006C0000000000C15B
S11324900C8800020D9B00B500CF00F500F6004546
S11324A00C00000000F80BF700F60C0A012401A44C
S11324B001FF033E01090800000000D7073F01EABD
S11124C00C52016C0186019501A3015F04001A
S9030000FC
