S0110000536D6172744C6F636B2E7372656383
S113000046C000006BC0000069C0000067C000006B
S113001053C1000063C0000061C000005FC0000065
S11300205DC000005BC0000059C0000057C0000064
S113003055C0000053C0000051C000004FC0000074
S11300404DC000004BC0000049C0000047C0000084
S113005045C0000043C0000041C000003FC0000094
S11300603DC000003BC0000039C0000037C00000A4
S113007035C0000033C0000031C000002FC00000B4
S11300802DC000002BC0000029C00000170411245B
S11300901FBECFEFD0E4DEBFCDBF13E0A0E0B1E0E0
S11300A0E6E6FCE000E00BBF02C007900D92A63B21
S11300B0B107D9F727E0A6EBB3E001C01D92A63C37
S11300C0B207E1F710E0C7E4D0E003C02197FE01D6
S11300D0BFD5C634D107D1F707D3C3C591CF08958F
S11300E0DC0114962D913C9115972F5F3F4F2330DF
S11300F031052CF415963C932E93149703C0FC0100
S113010015821482DC01ED91FC910088F189E02DC7
S113011009950895DC0114962D913C911597215071
S113012031092AF015963C932E93149705C022E0CA
S113013030E0FC0135832483DC01ED91FC910088DF
S1130140F189E02D09950895DC0114962D913C91D7
S113015015972130310561F02230310589F0232BC8
S1130160B1F4ED91FC910480F581E02D0995089599
S1130170DC01ED91FC910480F581E02D0995089551
S1130180DC01ED91FC910480F581E02D0995089541
S113019008950895EF92FF920F931F930F2EF0EBA3
S11301A0EF2EF1E0FF2EF02D00E110E021E030E031
S11301B043E050E06EE170E084EC93E081D40F2ED4
S11301C0F0ECEF2EF1E0FF2EF02D21E030E043E0E3
S11301D050E06AE670E084EC93E072D41F910F91D2
S11301E0FF90EF900895EF92FF920F931F93FC01FD
S11301F0848195818130910509F182309105C9F19D
S1130200892B09F050C000E210E024E030E042E025
S113021050E062E370E084EC93E003D40F2EF0ED41
S1130220EF2EF1E0FF2EF02D24E030E042E050E02C
S113023062E370E084EC93E043D435C000E210E064
S113024024E030E042E050E062E370E084EC93E0CC
S1130250E8D30F2EF0EEEF2EF2E0FF2EF02D24E087
S113026030E042E050E062E370E084EC93E028D4B4
S11302701AC000E210E024E030E042E050E062E323
S113028070E084EC93E0CDD30F2EF0E5EF2EF2E096
S1130290FF2EF02D24E030E042E050E062E370E015
S11302A084EC93E00DD41F910F91FF90EF9008958B
S11302B084EC93E025C308951F920F920FB60F921A
S11302C011248F939F93F89490B181E0943009F0B6
S11302D080E09091BD03981718F481E08093BD03EA
S11302E090B181E0983009F080E09091BC039817B8
S11302F018F481E08093BC0390B181E0903109F05F
S113030080E09091BB03981718F481E08093BB03BD
S113031090B181E0903209F080E09091BA0398178F
S113032018F481E08093BA0390B181E0983109F028
S113033080E09091B903981718F481E08093B90391
S113034090B181E0943209F080E09091B80398175D
S113035018F481E08093B80378949F918F910F9063
S11303600FBE0F901F901895EF92FF920F931F935B
S1130370CF935091BD039091BC0381E0392F38276E
S11303802091BB03622F6827B32FB623752F7B23DD
S1130390C091BA03AC2FA72351F08093B903F52F72
S11303A0F8278C279F239223C91750F01AC181E0A4
S11303B0F52FF8279F238C27422F4923C41740F495
S11303C091E09093B803A091B90340E0E1E062C0EA
S11303D0E091B80351E04E2F4527A091B903582F5F
S11303E054237523A717B0F508E010E021E030E0AE
S11303F040E050E060E070E084EC93E012D30F2E14
S1130400F8E9EF2EF3E0FF2EF02D21E030E040E09C
S113041050E060E070E084EC93E052D38091C2033A
S11304209091C30301972AF09093C3038093C2036E
S113043006C082E090E09093C3038093C203E091EE
S1130440BE03F091BF030088F189E02D8EEB93E0A9
S11304500995BAC0982396239423A917D8F408E0E1
S113046010E021E030E040E050E060E070E084EC37
S113047093E0D7D20F2EF0E9EF2EF3E0FF2EF02D0C
S113048021E030E040E050E060E070E084EC93E094
S113049017D39AC03F23982F942329232323A217E9
S11304A0D8F408E010E021E030E040E050E060E003
S11304B070E084EC93E0B5D20F2EF8E8EF2EF3E071
S11304C0FF2EF02D21E030E040E050E060E070E0ED
S11304D084EC93E0F5D278C06C2364233623A3170D
S11304E0B0F508E010E021E030E040E050E060E0EA
S11304F070E084EC93E095D20F2EF0E8EF2EF3E059
S1130500FF2EF02D21E030E040E050E060E070E0AC
S113051084EC93E0D5D28091C2039091C3030196F9
S1130520833091052CF49093C3038093C20304C0D9
S11305301092C3031092C203E091BE03F091BF0373
S11305400088F189E02D8EEB93E009953DC08F235F
S1130550E823AE17D8F408E010E021E030E040E0F2
S113056050E060E070E084EC93E05BD20F2EF8E79B
S1130570EF2EF3E0FF2EF02D21E030E040E050E0DC
S113058060E070E084EC93E09BD21EC04B23E1F06A
S1130590AA23D1F008E010E021E030E040E050E090
S11305A060E070E084EC93E03CD20F2EF0E7EF2E95
S11305B0F3E0FF2EF02D21E030E040E050E060E079
S11305C070E084EC93E07CD21092BD031092BC03E3
S11305D01092BB031092BA031092B9031092B8039D
S11305E006C0E091B80391E04E2F492753CFCF9135
S11305F01F910F91FF90EF900895EF92FF920F9348
S11306001F93CF93DF93EC0188819981892B89F41F
S11306100F2EF0E9EF2EF1E0FF2EF02D08E010E0B0
S113062024E030E040E050E060E670E084EC93E0E9
S113063047D288819981019789F40F2EF0E7EF2E34
S1130640F1E0FF2EF02D08E010E024E030E040E07F
S113065050E060E670E084EC93E032D288819981C6
S1130660029789F40F2EF0E5EF2EF1E0FF2EF02D26
S113067008E010E024E030E040E050E060E670E0A4
S113068084EC93E01DD288819981039789F40F2E1D
S1130690F0E3EF2EF1E0FF2EF02D08E010E024E06F
S11306A030E040E050E060E670E084EC93E008D293
S11306B088819981049789F40F2EF0E1EF2EF1E0FF
S11306C0FF2EF02D08E010E024E030E040E050E0A0
S11306D060E670E084EC93E0F3D1DF91CF911F9159
S11306E00F91FF90EF90089584EC93E0F0D011B84F
S11306F012B88CE380936B00E8E6F0E080818160BF
S11307008083789483B18170C82F80E0D82FCE0184
S1130710199901961A9901961B9901969093B7031A
S11307208093B603892B89F40F2EF0E9EF2EF1E0C4
S1130730FF2EF02D08E010E024E030E040E050E02F
S113074060E670E084EC93E0BBD18091B6039091B5
S1130750B703019789F40F2EF0E7EF2EF1E0FF2E97
S1130760F02D08E010E024E030E040E050E060E6E6
S113077070E084EC93E0A4D18091B6039091B70328
S1130780029789F40F2EF0E5EF2EF1E0FF2EF02D05
S113079008E010E024E030E040E050E060E670E083
S11307A084EC93E08DD18091B6039091B7030397C5
S11307B089F40F2EF0E3EF2EF1E0FF2EF02D08E088
S11307C010E024E030E040E050E060E670E084ECCB
S11307D093E076D18091B6039091B703049789F49E
S11307E00F2EF0E1EF2EF1E0FF2EF02D08E010E0E7
S11307F024E030E040E050E060E670E084EC93E018
S11308005FD10F2EF0E0EF2EF1E0FF2EF02D08E087
S113081010E022E030E040E050E060E570E084EC7D
S113082093E04ED184EC93E052D09EDD6BCFCF9316
S1130830DF9385EC97E0F1D160E084EC93E067D03E
S1130840EEEBF3E084EA93E09183808315821482D3
S1130850CF01A0DC8EEB93E0C6DC14B88FE085B941
S113086083B18170C82F80E0D82FCE0119990196E9
S11308701A9901961B9901969093B7038093B60336
S113088086EB93E0BADEDF91CF91089580E8809300
S1130890BB0084E88093BC00ECEBF0E0808188230B
S11308A0ECF76093BB0084E88093BC00ECEBF0E0D1
S11308B080818823ECF708956093BB0084E88093DB
S11308C0BC00ECEBF0E080818823ECF70895EF9214
S11308D0FF920F931F93CF93DF938C01EC017C0164
S11308E08CEFF81A699170E0C801E6DFCE15DF05D8
S11308F0C9F7DF91CF911F910F91FF90EF90089569
S1130900FC019C5F1192E817F907E1F708950F9332
S11309101F93CF93DF93EC018C011C5FC8017DD141
S1130920C8017CD1C8018BD1C8017DD168EA70E0CF
S1130930CE01ACDF6FE370E0CE01A8DF63ED70E0C1
S1130940CE01A4DF60E070E0CE01A0DF60E470E0DF
S1130950CE019CDF61EA70E0CE0198DF68EC70E0C4
S1130960CE0194DF6AED70E0CE0190DF62E170E0C9
S1130970CE018CDF61E870E0CE0188DF6FEF70E0BC
S1130980CE0184DF64EA70E0CE0180DF66EA70E0C5
S1130990CE017CDF65ED70E0CE0178DF60E870E0C9
S11309A0CE0174DF6DE870E0CE0170DF64E170E0C9
S11309B0CE016CDF6FEA70E0CE0168DF60E270E0C8
S11309C0CE0164DF60E070E0CE0160DF61E270E0E0
S11309D0CE015CDF60E070E0CE0158DF6FE770E0CD
S11309E0CE0154DF62E270E0CE0150DF60E070E0DF
S11309F0CE014CDF67E070E0CE0148DF80E48093F5
S1130A00BB0084E88093BC00CE017ADF60E070E034
S1130A10CE0152DFCE015BDFDF91CF911F910F91A9
S1130A200895CF92DF92EF92FF920F931F93CF938B
S1130A30DF93EC017B016A01B90110161106BCF5C4
S1130A4020E030E0AB01440F551F440F551F440F05
S1130A50551F4E0D5F1D1616170624F5C9013323C5
S1130A600CF4079695958795959587959595879513
S1130A708C0D9D1D9695982F882797958795FC0139
S1130A80EE0DFF1DEC0FFD1F840F951F8C0F9D1F96
S1130A90DF0118961192EA17FB07E1F7FD018A17A7
S1130AA09B07B1F72F5F3F4F02171307A1F6DF91A2
S1130AB0CF911F910F91FF90EF90DF90CF90089509
S1130AC02F923F924F925F926F927F928F929F925A
S1130AD0AF92BF92CF92DF92EF92FF920F931F9348
S1130AE0CF93DF9300D000D000D0CDB7DEB79E8384
S1130AF08D833A0129011801101611060CF074C0F7
S1130B003C832B838E2C9F2CC12CD12C0F2EF7E0F1
S1130B10AF2EB12CF02DC901880F991F880F991F92
S1130B20880F991F9B01280F391F3A8329831414B6
S1130B3015040CF04EC0C60187709078992324F4F4
S1130B400197886F9F6F01968501081B190B760129
S1130B50DD201CF497E0E90EF11CF594E794F5947C
S1130B60E794F594E794E60CF71CF694FE2CEE2437
S1130B70F794E794AB014E0D5F1D2D813E81420F2A
S1130B80531F89819A81E80EF91EE20EF31ED401E7
S1130B90FA0120E030E08C9190E0022E02C0880F30
S1130BA0991F0A94E2F780789927002E02C0959540
S1130BB087950A94E2F79081892B81932F5F3F4FA9
S1130BC02830310541F7485F5F4F11964E155F0598
S1130BD0F9F63FEFC31AD30A8B819C81880E991EC4
S1130BE02C143D0409F0A3CF26960FB6F894DEBF6B
S1130BF00FBECDBFDF91CF911F910F91FF90EF906A
S1130C00DF90CF90BF90AF909F908F907F906F9028
S1130C105F904F903F902F90089508951092B800E0
S1130C201092B900089588E78093BB0084E880930C
S1130C30BC00ECEBF0E080818823ECF7089584EAB3
S1130C408093BC00ECEBF0E080818823ECF70895FE
S1130C50EE0FFF1F0024001C0BBE0790F691E02D41
S1090C600994F894FFCF93
S1130C66E000A00AAE04AA0AAAE0AAA0AAAEEEAEC2
S1130C763FFFFFFC200000042F0000042F000004A7
S1130C862F0000042F000004200000043FFFFFFC97
S1130C963FFFFFFC200000042F7800042F78000497
S1130CA62F7800042F780004200000043FFFFFFC87
S1130CB63FFFFFFC200000042F7BC0042F7BC004F1
S1130CC62F7BC0042F7BC004200000043FFFFFFCE1
S1130CD63FFFFFFC200000042F7BDE042F7BDE0495
S1130CE62F7BDE042F7BDE04200000043FFFFFFC85
S1130CF63FFFFFFC200000042F7BDEF42F7BDEF495
S1130D062F7BDEF42F7BDEF4200000043FFFFFFC84
S1130D160103070F1F3F7FFFFF7F3F1F0F070301DD
S1130D2680C0E0F0F8FCFEFFFFFEFCF8F0E0C080B7
S1130D3600000000000000000000000000000000A9
S1130D46000180000007E000001C380000700E005F
S1130D5600E0070001C0038001C0038001C00380D6
S1130D6601C0038001C0038001C0038003FFFFC0EC
S1130D7603FFFFC003FFFFC003FE7FC003FC3FC0A9
S1130D8603FC3FC003FE7FC003FE7FC003FC7FC09D
S1130D9603FE7FC003FFFFC003FFFFC00000000087
S1130DA60000000000000000000000000000000039
S1130DB60000000000000000000FF000000FF0002B
S1130DC6000FF000000FF000000FF000000FF0001D
S1130DD6000FF000000FF00000000000000000000B
S1130DE60007E0000007E0000007E0000007E0005D
S1130DF60007E0000007E0000007E0000007E0004D
S1130E060007E0000007E0000007E0000007E0003C
S1130E160007E0000007E0000007E0000007E0002C
S1130E260007E0000007E00000FFFF0000FFFF00EE
S1130E3600FFFF0000FFFF000000000000000000AC
S1130E46000180000003C0000007E0001E0FF078D8
S1130E561F9E79F81FFC3FF81FE007F80F0000F803
S1130E660E07E070060E7060061818600C300C3021
S1130E761C6186383CC3C33C7987E19EF18E719F21
S1130E86F18E719F7987E19E3CC3C33C1C61863811
S1130E960C300C3006181860060E70600E07E070F1
S1130EA60F0000F81FE007F81FFC3FF81F9E79F8B3
S1130EB61E0FF0780007E0000003C00000000000E9
S1130EC60000000000000000000000000001800097
S1130ED6003C203C04043C00002424243C0404007C
S1130EE6003C043C04043C00003C040418303C0070
S1130EF60018380808083C00003C242424243C003C
S1130F0600000000CA006F00580170008A00A400A7
S1090F16C800C900F3004D
S9030000FC
