:100000007DC00000A5C00000A3C00000A1C000008A
:100010000C941C169DC000009BC0000099C00000FD
:1000200097C0000095C0000093C0000091C0000080
:100030008FC000000C94402A8BC0000089C00000D3
:1000400087C0000085C0000083C0000081C00000A0
:100050000C94092A7DC000007BC0000079C000001C
:1000600077C0000075C0000073C0000071C00000C0
:100070006FC000006DC000006BC0000069C00000D0
:1000800067C0000065C0000063C00000C2021F031B
:100090007C03D90336049304F0044D05AA05070632
:1000A0006406280B360B570B860BC30B0E0C670C24
:1000B000CE0C430DC60D570E120F6F0FCC0F29102B
:1000C0008610E31040119D11FA115712B4122C132F
:1000D00062139813CE1304143A147014A614DC148B
:1000E00012154815AE24EE242E256E25AE25EE25DC
:1000F0002E266E26AE26EE262E27263711241FBE6C
:10010000CFEFD0E4DEBFCDBF16E0A0E0B1E0EAE87B
:10011000F3E700E00BBF02C007900D92AA34B107CD
:10012000D9F72BE0AAE4B6E001C01D92A834B207CB
:10013000E1F710E0CEE7D0E004C02197FE010E9475
:10014000BA39CD37D107C9F70E94E62A0C94C339D2
:1001500057CF0895CF93DF93EC01E881F9810190A7
:10016000F081E02D0995E881F9810088F189E02D81
:10017000CE010995DF91CF910895DC01ED91FC91BD
:100180000480F581E02D09950895DC01ED91FC9145
:100190000480F581E02D09950895DC01ED91FC9135
:1001A0000480F581E02D09950895DC01ED91FC9125
:1001B0000480F581E02D099508950895EF92FF924E
:1001C0000F931F93CF93DF93EC01909141079923F5
:1001D00009F4AEC14885598508E010E020E130E01F
:1001E00060E070E086E497E00E94A3384885598576
:1001F0006C817D810F2EFBE9EF2EF1E0FF2EF02DBB
:1002000021E030E086E497E00E94F2384885598585
:100210006C817D81685F7F4F0F2EFBEAEF2EF1E04E
:10022000FF2EF02D21E030E086E497E00E94F238C6
:10023000488559856C817D81605F7F4F0F2EF3EF7C
:10024000EF2EF1E0FF2EF02D21E030E086E497E084
:100250000E94F238488559856C817D81685E7F4FA8
:100260000F2EF3E9EF2EF1E0FF2EF02D21E030E02C
:1002700086E497E00E94F238488559856C817D813B
:10028000605E7F4F0F2EFBE7EF2EF1E0FF2EF02D8B
:1002900021E030E086E497E00E94F23848855985F5
:1002A0006C817D81685D7F4F0F2EFBE1EF2EF2E0C8
:1002B000FF2EF02D21E030E086E497E00E94F23836
:1002C000488559856C817D81605D7F4F0F2EF3EAF3
:1002D000EF2EF1E0FF2EF02D21E030E086E497E0F4
:1002E0000E94F238488559856C817D81685C7F4F1A
:1002F0000F2EFBEFEF2EF1E0FF2EF02D21E030E08E
:1003000086E497E00E94F238488559856C817D81AA
:10031000685B7F4F0F2EF3E8EF2EF1E0FF2EF02DFC
:1003200021E030E086E497E00E94F2384885598564
:100330006C817D81605B7F4F0F2EFBEFEF2EF1E034
:10034000FF2EF02D21E030E086E497E00E94F238A5
:10035000488559856C817D81685A7F4F0F2EF3EA5D
:10036000EF2EF1E0FF2EF02D21E030E086E497E063
:100370000E94F238488559856C817D81605A7F4F93
:100380000F2EFBE9EF2EF1E0FF2EF02D21E030E003
:1003900086E497E00E94F238488559856C817D811A
:1003A00068597F4F0F2EFBEDEF2EF1E0FF2EF02D61
:1003B00021E030E086E497E00E94F23848855985D4
:1003C0006C817D8160597F4F0F2EFBEAEF2EF1E0AB
:1003D000FF2EF02D21E030E086E497E00E94F23815
:1003E000488559856C817D8168587F4F0F2EF3EBCE
:1003F000EF2EF1E0FF2EF02D21E030E086E497E0D3
:100400000E94F238488559854F5F5F4F20E130E008
:1004100060E070E086E497E00E94A3384885598543
:100420004F5F5F4F6E817F810F2EFBE9EF2EF5E06E
:10043000FF2EF02D21E030E086E497E00E94F238B4
:10044000488559854F5F5F4F6E817F81685F7F4F21
:100450000F2EF3E6EF2EF1E0FF2EF02D21E030E03D
:1004600086E497E00E94F238488559854F5F5F4FD8
:100470006E817F81605F7F4F0F2EF3E9EF2EF5E0F5
:10048000FF2EF02D21E030E086E497E00E94F23864
:10049000488559854F5F5F4F6E817F81605E7F4FDA
:1004A0000F2EF3E1EF2EF2E0FF2EF02D21E030E0F1
:1004B00086E497E00E94F238488559854F5F5F4F88
:1004C0006E817F81685D7F4F0F2EFBEFEF2EF1E095
:1004D000FF2EF02D21E030E086E497E00E94F23814
:1004E000488559854F5F5F4F6E817F81605D7F4F8B
:1004F0000F2EF3E9EF2EF1E0FF2EF02D21E030E09A
:1005000086E497E00E94F238488559854F5F5F4F37
:100510006E817F81685C7F4F0F2EFBE1EF2EF2E052
:10052000FF2EF02D21E030E086E497E00E94F238C3
:10053000DF91CF911F910F91FF90EF900895FC01F3
:10054000138212821092410781E08093430786E470
:1005500097E00C940F380895EF92FF920F931F933A
:10056000CF93DF93EC0190914507992309F408C4D8
:10057000EA81FB81EB30F10508F002C4EA5BFF4F32
:100580000C94BA394E855F85E881F9813296EE0F79
:10059000FF1FEC0FFD1F6081718108E010E021E07A
:1005A00030E086E497E00E94A3384E855F85E881BD
:1005B000F9813296EE0FFF1FEC0FFD1F60817181F4
:1005C0000F2EFBE9EF2EF5E0FF2EF02D21E030E0BD
:1005D00086E497E00E94F2384E855F854E5F5F4F5C
:1005E000E881F9813296EE0FFF1FEC0FFD1F60814D
:1005F00071810F2EF3E3EF2EF5E0FF2EF02D21E0B9
:1006000030E086E497E00E94F2384E855F854150E5
:100610005109888199810296880F991FC80FD91FA7
:10062000688179810F2EFBE3EF2EF5E0FF2EF02D90
:1006300021E030E086E497E00E94F238A1C34E85C5
:100640005F85E881F9813296EE0FFF1FEC0FFD1FE9
:100650006081718108E010E021E030E086E497E0FD
:100660000E94A3384E855F85E881F9813296EE0FAE
:10067000FF1FEC0FFD1F608171810F2EF3E9EF2E3C
:10068000F5E0FF2EF02D21E030E086E497E00E94B7
:10069000F2384E855F854E5F5F4FE881F981329673
:1006A000EE0FFF1FEC0FFD1F608171810F2EF3E332
:1006B000EF2EF5E0FF2EF02D21E030E086E497E00C
:1006C0000E94F2384E855F85415051098881998199
:1006D0000296880F991FC80FD91F688179810F2E44
:1006E000FBE3EF2EF5E0FF2EF02D21E030E086E475
:1006F00097E00E94F23844C34E855F85E881F98116
:100700003296EE0FFF1FEC0FFD1F6081718108E034
:1007100010E021E030E086E497E00E94A3384E85A7
:100720005F85E881F9813296EE0FFF1FEC0FFD1F08
:10073000608171810F2EFBE8EF2EF5E0FF2EF02D8A
:1007400021E030E086E497E00E94F2384E855F8534
:100750004E5F5F4FE881F9813296EE0FFF1FEC0F7D
:10076000FD1F608171810F2EF3E3EF2EF5E0FF2E68
:10077000F02D21E030E086E497E00E94F2384E85CB
:100780005F8541505109888199810296880F991F90
:10079000C80FD91F688179810F2EFBE3EF2EF5E09A
:1007A000FF2EF02D21E030E086E497E00E94F23841
:1007B000E7C24E855F85E881F9813296EE0FFF1F13
:1007C000EC0FFD1F6081718108E010E021E030E056
:1007D00086E497E00E94A3384E855F85E881F98121
:1007E0003296EE0FFF1FEC0FFD1F608171810F2EFF
:1007F000F3E8EF2EF5E0FF2EF02D21E030E086E467
:1008000097E00E94F2384E855F854E5F5F4FE8812A
:10081000F9813296EE0FFF1FEC0FFD1F6081718191
:100820000F2EF3E3EF2EF5E0FF2EF02D21E030E068
:1008300086E497E00E94F2384E855F854150510969
:10084000888199810296880F991FC80FD91F6881E6
:1008500079810F2EFBE3EF2EF5E0FF2EF02D21E046
:1008600030E086E497E00E94F2388AC24E855F85C8
:10087000E881F9813296EE0FFF1FEC0FFD1F6081BA
:10088000718108E010E021E030E086E497E00E940A
:10089000A3384E855F85E881F9813296EE0FFF1F00
:1008A000EC0FFD1F608171810F2EFBE7EF2EF5E04D
:1008B000FF2EF02D21E030E086E497E00E94F23830
:1008C0004E855F854E5F5F4FE881F9813296EE0F6E
:1008D000FF1FEC0FFD1F608171810F2EF3E3EF2EE0
:1008E000F5E0FF2EF02D21E030E086E497E00E9455
:1008F000F2384E855F854150510988819981029671
:10090000880F991FC80FD91F688179810F2EFBE3CB
:10091000EF2EF5E0FF2EF02D21E030E086E497E0A9
:100920000E94F2382DC24E855F85E881F9813296AA
:10093000EE0FFF1FEC0FFD1F6081718108E010E0DA
:1009400021E030E086E497E00E94A3384E855F8581
:10095000E881F9813296EE0FFF1FEC0FFD1F6081D9
:1009600071810F2EF3E7EF2EF5E0FF2EF02D21E041
:1009700030E086E497E00E94F2384E855F854E5F56
:100980005F4FE881F9813296EE0FFF1FEC0FFD1FDC
:10099000608171810F2EF3E3EF2EF5E0FF2EF02D35
:1009A00021E030E086E497E00E94F2384E855F85D2
:1009B00041505109888199810296880F991FC80F6B
:1009C000D91F688179810F2EFBE3EF2EF5E0FF2E12
:1009D000F02D21E030E086E497E00E94F238D0C1AB
:1009E0004E855F85E881F9813296EE0FFF1FEC0F8F
:1009F000FD1F6081718108E010E021E030E086E4B5
:100A000097E00E94A3384E855F85E881F981329690
:100A1000EE0FFF1FEC0FFD1F608171810F2EFBE6B3
:100A2000EF2EF5E0FF2EF02D21E030E086E497E098
:100A30000E94F2384E855F854E5F5F4FE881F981F5
:100A40003296EE0FFF1FEC0FFD1F608171810F2E9C
:100A5000F3E3EF2EF5E0FF2EF02D21E030E086E409
:100A600097E00E94F2384E855F8541505109888198
:100A700099810296880F991FC80FD91F68817981C3
:100A80000F2EFBE3EF2EF5E0FF2EF02D21E030E0FE
:100A900086E497E00E94F23873C14E855F85E88155
:100AA000F9813296EE0FFF1FEC0FFD1F60817181FF
:100AB00008E010E021E030E086E497E00E94A338EF
:100AC0004E855F85E881F9813296EE0FFF1FEC0FAE
:100AD000FD1F608171810F2EF3E6EF2EF5E0FF2EF2
:100AE000F02D21E030E086E497E00E94F2384E8558
:100AF0005F854E5F5F4FE881F9813296EE0FFF1FF1
:100B0000EC0FFD1F608171810F2EF3E3EF2EF5E0F6
:100B1000FF2EF02D21E030E086E497E00E94F238CD
:100B20004E855F8541505109888199810296880FD1
:100B3000991FC80FD91F688179810F2EFBE3EF2E13
:100B4000F5E0FF2EF02D21E030E086E497E00E94F2
:100B5000F23816C14E855F85E881F9813296EE0F35
:100B6000FF1FEC0FFD1F6081718108E010E021E0A4
:100B700030E086E497E00E94A3384E855F85E881E7
:100B8000F9813296EE0FFF1FEC0FFD1F608171811E
:100B90000F2EFBE5EF2EF5E0FF2EF02D21E030E0EB
:100BA00086E497E00E94F2384E855F854E5F5F4F86
:100BB000E881F9813296EE0FFF1FEC0FFD1F608177
:100BC00071810F2EF3E3EF2EF5E0FF2EF02D21E0E3
:100BD00030E086E497E00E94F2384E855F85415010
:100BE0005109888199810296880F991FC80FD91FD2
:100BF000688179810F2EFBE3EF2EF5E0FF2EF02DBB
:100C000021E030E086E497E00E94F238B9C04E85DA
:100C10005F85E881F9813296EE0FFF1FEC0FFD1F13
:100C20006081718108E010E021E030E086E497E027
:100C30000E94A3384E855F85E881F9813296EE0FD8
:100C4000FF1FEC0FFD1F608171810F2EF3E5EF2E6A
:100C5000F5E0FF2EF02D21E030E086E497E00E94E1
:100C6000F2384E855F854E5F5F4FE881F98132969D
:100C7000EE0FFF1FEC0FFD1F608171810F2EF3E35C
:100C8000EF2EF5E0FF2EF02D21E030E086E497E036
:100C90000E94F2384E855F854150510988819981C3
:100CA0000296880F991FC80FD91F688179810F2E6E
:100CB000FBE3EF2EF5E0FF2EF02D21E030E086E49F
:100CC00097E00E94F2385CC04E855F85E881F9812B
:100CD0003296EE0FFF1FEC0FFD1F6081718108E05F
:100CE00010E021E030E086E497E00E94A3384E85D2
:100CF0005F85E881F9813296EE0FFF1FEC0FFD1F33
:100D0000608171810F2EF3E4EF2EF5E0FF2EF02DC0
:100D100021E030E086E497E00E94F2384E855F855E
:100D20004E5F5F4FE881F9813296EE0FFF1FEC0FA7
:100D3000FD1F608171810F2EF3E3EF2EF5E0FF2E92
:100D4000F02D21E030E086E497E00E94F2384E85F5
:100D50005F8541505109888199810296880F991FBA
:100D6000C80FD91F688179810F2EFBE3EF2EF5E0C4
:100D7000FF2EF02D21E030E086E497E00E94F2386B
:100D8000DF91CF911F910F91FF90EF900895EF9217
:100D9000FF920F931F93CF93DF93EC019091420743
:100DA000992309F42EC34A855B8508E010E020E111
:100DB00030E060E070E086E497E00E94A3384A8566
:100DC0005B856A817B810F2EFBE8EF2EF1E0FF2E21
:100DD000F02D21E030E086E497E00E94F2384A8569
:100DE0005B856A817B81685F7F4F0F2EF3EDEF2E6D
:100DF000F1E0FF2EF02D21E030E086E497E00E9444
:100E0000F2384A855B856A817B81605F7F4F0F2E58
:100E1000F3EBEF2EF1E0FF2EF02D21E030E086E441
:100E200097E00E94F2384A855B856A817B81685E23
:100E30007F4F0F2EFBEAEF2EF1E0FF2EF02D21E089
:100E400030E086E497E00E94F2384A855B856A814B
:100E50007B81605E7F4F0F2EF3E1EF2EF2E0FF2EDD
:100E6000F02D21E030E086E497E00E94F2384A85D8
:100E70005B856A817B81685D7F4F0F2EFBE8EF2EDB
:100E8000F1E0FF2EF02D21E030E086E497E00E94B3
:100E9000F2384A855B856A817B81605D7F4F0F2ECA
:100EA000F3E9EF2EF1E0FF2EF02D21E030E086E4B3
:100EB00097E00E94F2384A855B856A817B81685C95
:100EC0007F4F0F2EFBEAEF2EF1E0FF2EF02D21E0F9
:100ED00030E086E497E00E94F2384A855B856A81BB
:100EE0007B81605C7F4F0F2EF3E8EF2EF1E0FF2E49
:100EF000F02D21E030E086E497E00E94F2384A8548
:100F00005B856A817B81685B7F4F0F2EFBE9EF2E4B
:100F1000F1E0FF2EF02D21E030E086E497E00E9422
:100F2000F2384A855B856A817B81605B7F4F0F2E3B
:100F3000FBECEF2EF1E0FF2EF02D21E030E086E417
:100F400097E00E94F2384A855B856A817B81685A06
:100F50007F4F0F2EFBE1EF2EF2E0FF2EF02D21E070
:100F600030E086E497E00E94F2384A855B856A812A
:100F70007B81605A7F4F0F2EF3E7EF2EF1E0FF2EBB
:100F8000F02D21E030E086E497E00E94F2384A85B7
:100F90005B856A817B8168597F4F0F2EFBE1EF2EC5
:100FA000F2E0FF2EF02D21E030E086E497E00E9491
:100FB000F2384A855B854F5F5F4F20E130E060E0AB
:100FC00070E086E497E00E94A3384A855B854F5F16
:100FD0005F4F6C817D810F2EFBE6EF2EF5E0FF2E3B
:100FE000F02D21E030E086E497E00E94F2384A8557
:100FF0005B854F5F5F4F6C817D81685F7F4F21E034
:1010000030E086E497E00E94F2384A855B854F5FC6
:101010005F4F6C817D81685E7F4F21E030E086E428
:1010200097E00E94F2384A855B854F5F5F4F6C8185
:101030007D81605E7F4F0F2EF3E5EF2EF5E0FF2EF2
:10104000F02D21E030E086E497E00E94F2384A85F6
:101050005B854E5F5F4F20E130E060E070E086E44A
:1010600097E00E94A3384A855B854E5F5F4F6E8193
:101070007F810F2EF3E0EF2EF2E0FF2EF02D21E026
:1010800030E086E497E00E94F2384A855B854E5F47
:101090005F4F6E817F81685F7F4F0F2EFBEBEF2EDE
:1010A000F1E0FF2EF02D21E030E086E497E00E9491
:1010B000F2384A855B854E5F5F4F6E817F81605F4E
:1010C0007F4F0F2EFBEDEF2EF1E0FF2EF02D21E0F4
:1010D00030E086E497E00E94F2384A855B854E5FF7
:1010E0005F4F6E817F81685E7F4F0F2EF3E9EF2E99
:1010F000F1E0FF2EF02D21E030E086E497E00E9441
:10110000F2384A855B854E5F5F4F6E817F81605EFE
:101110007F4F0F2EF3EAEF2EF1E0FF2EF02D21E0AE
:1011200030E086E497E00E94F2384A855B854E5FA6
:101130005F4F6E817F81685D7F4F0F2EF3E7EF2E4B
:10114000F1E0FF2EF02D21E030E086E497E00E94F0
:10115000F2384A855B854E5F5F4F6E817F81685CA8
:101160007F4F0F2EF3E0EF2EF2E0FF2EF02D21E067
:1011700030E086E497E00E94F2384A855B854E5F56
:101180005F4F6E817F81605C7F4F0F2EFBE8EF2EFB
:10119000F1E0FF2EF02D21E030E086E497E00E94A0
:1011A000F2384A855B854E5F5F4F6E817F81685B59
:1011B0007F4F0F2EF3E1EF2EF2E0FF2EF02D21E016
:1011C00030E086E497E00E94F2384A855B854E5F06
:1011D0005F4F6E817F81605B7F4F0F2EFBEDEF2EA7
:1011E000F1E0FF2EF02D21E030E086E497E00E9450
:1011F000F2384A855B854E5F5F4F6E817F81685A0A
:101200007F4F0F2EF3EBEF2EF1E0FF2EF02D21E0BC
:1012100030E086E497E00E94F2384A855B854E5FB5
:101220005F4F6E817F81605A7F4F0F2EFBE1EF2E63
:10123000F2E0FF2EF02D21E030E086E497E00E94FE
:10124000F2384A855B854D5F5F4F20E130E060E01A
:1012500070E086E497E00E94A3384A855B854D5F85
:101260005F4F688579850F2EFBE5EF2EF5E0FF2EA9
:10127000F02D21E030E086E497E00E94F2384A85C4
:101280005B854D5F5F4F68857985685F7F4F0F2E67
:10129000F3E5EF2EF5E0FF2EF02D21E030E086E4BF
:1012A00097E00E94F2384A855B854D5F5F4F688505
:1012B0007985605F7F4F0F2EFBE8EF2EF5E0FF2E64
:1012C000F02D21E030E086E497E00E94F2384A8574
:1012D0005B854D5F5F4F68857985685E7F4F0F2E18
:1012E000FBE6EF2EF5E0FF2EF02D21E030E086E466
:1012F00097E00E94F2384A855B854D5F5F4F6885B5
:101300007985605E7F4F0F2EFBE9EF2EF5E0FF2E13
:10131000F02D21E030E086E497E00E94F2384A8523
:101320005B854D5F5F4F68857985685D7F4F0F2EC8
:10133000F3E6EF2EF5E0FF2EF02D21E030E086E41D
:1013400097E00E94F2384A855B854D5F5F4F688564
:101350007985605D7F4F0F2EF3E7EF2EF5E0FF2ECE
:10136000F02D21E030E086E497E00E94F2384A85D3
:101370005B854D5F5F4F68857985685C7F4F21E0B5
:1013800030E086E497E00E94F2384A855B854D5F45
:101390005F4F68857985605C7F4F0F2EF3E6EF2EF7
:1013A000F5E0FF2EF02D21E030E086E497E00E948A
:1013B000F2384A855B854D5F5F4F68857985685B4C
:1013C0007F4F0F2EFBE8EF2EF5E0FF2EF02D21E0F2
:1013D00030E086E497E00E94F2384A855B854D5FF5
:1013E0005F4F68857985605B7F4F0F2EF3E7EF2EA7
:1013F000F5E0FF2EF02D21E030E086E497E00E943A
:10140000F238DF91CF911F910F91FF90EF900895E7
:10141000EF92FF920F931F93CF93DF93EC014A85D6
:101420005B854150510908E010E020E130E060E0C8
:1014300070E086E497E00E94A3384A855B854150BE
:1014400051096E817F810F2EFBE9EF2EF1E0FF2E17
:10145000F02D21E030E086E497E00E94F2384A85E2
:101460005B85415051096E817F81685F7F4F0F2EF0
:10147000FBEFEF2EF1E0FF2EF02D21E030E086E4CF
:1014800097E00E94F2384A855B85415051096E8190
:101490007F81605F7F4F0F2EF3E9EF2EF1E0FF2E8B
:1014A000F02D21E030E086E497E00E94F2384A8592
:1014B0005B85415051096E817F81605E7F4F0F2EA9
:1014C000F3E1EF2EF2E0FF2EF02D21E030E086E494
:1014D00097E00E94F2384A855B85415051096E8140
:1014E0007F81685D7F4F0F2EF3EAEF2EF1E0FF2E34
:1014F000F02D21E030E086E497E00E94F2384A8542
:101500005B85415051096E817F81605D7F4F0F2E59
:10151000FBEDEF2EF1E0FF2EF02D21E030E086E430
:1015200097E00E94F2384A855B85415051096E81EF
:101530007F81685C7F4F0F2EFBEEEF2EF1E0FF2ED8
:10154000F02D21E030E086E497E00E94F2384A85F1
:101550005B85415051096E817F81605C7F4F0F2E0A
:10156000F3EEEF2EF1E0FF2EF02D21E030E086E4E7
:1015700097E00E94F2384A855B85415051096E819F
:101580007F81685B7F4F0F2EF3E9EF2EF1E0FF2E96
:10159000F02D21E030E086E497E00E94F2384A85A1
:1015A0005B85415051096E817F81605B7F4F0F2EBB
:1015B000F3EBEF2EF1E0FF2EF02D21E030E086E49A
:1015C00097E00E94F2384A855B85415051096E814F
:1015D0007F81685A7F4F0F2EFBEFEF2EF1E0FF2E39
:1015E000F02D21E030E086E497E00E94F2384A8551
:1015F0005B85415051096E817F81605A7F4F0F2E6C
:10160000FBE9EF2EF1E0FF2EF02D21E030E086E443
:1016100097E00E94F2384A855B85415051096E81FE
:101620007F8168597F4F21E030E086E497E00E9497
:10163000F23880913E07882309F4D7C3E881F98105
:10164000EB30F10508F0D1C3EF5AFF4F0C94BA39D3
:101650004A855B854F5F5F4F6885798500E110E0C3
:101660002AE030E086E497E00E94A3384A855B8553
:101670004F5F5F4F6885798500E110E02AE030E038
:1016800086E497E00E94A3384A855B854F5F5F4FF1
:10169000688579850F2EF3E0EF2EF1E0FF2EF02D17
:1016A00021E030E086E497E00E94F2389EC34A854C
:1016B0005B854F5F5F4F6885798500E110E02AE028
:1016C00030E086E497E00E94A3384A855B854F5F4F
:1016D0005F4F688579850F2EF3E0EF2EF1E0FF2E46
:1016E000F02D21E030E086E497E00E94F2384A8550
:1016F0005B854F5F5F4F68857985685F7F4F21E02D
:1017000030E086E497E00E94F2386FC34A855B853B
:101710004F5F5F4F6885798500E110E02AE030E097
:1017200086E497E00E94A3384A855B854F5F5F4F50
:10173000688579850F2EF3E0EF2EF1E0FF2EF02D76
:1017400021E030E086E497E00E94F2384A855B852C
:101750004F5F5F4F68857985685F7F4F21E030E09C
:1017600086E497E00E94F2384A855B854F5F5F4FC1
:1017700068857985605F7F4F21E030E086E497E0FF
:101780000E94F23832C34A855B854F5F5F4F6885A0
:10179000798500E110E02AE030E086E497E00E94DD
:1017A000A3384A855B854F5F5F4F688579850F2E2B
:1017B000F3E0EF2EF1E0FF2EF02D21E030E086E4A3
:1017C00097E00E94F2384A855B854F5F5F4F6885DE
:1017D0007985685F7F4F21E030E086E497E00E94E2
:1017E000F2384A855B854F5F5F4F68857985605F1A
:1017F0007F4F21E030E086E497E00E94F2384A858E
:101800005B854F5F5F4F68857985685E7F4F21E01C
:1018100030E086E497E00E94F238E7C24A855B85B3
:101820004F5F5F4F6885798500E110E02AE030E086
:1018300086E497E00E94A3384A855B854F5F5F4F3F
:10184000688579850F2EF3E0EF2EF1E0FF2EF02D65
:1018500021E030E086E497E00E94F2384A855B851B
:101860004F5F5F4F68857985685F7F4F21E030E08B
:1018700086E497E00E94F2384A855B854F5F5F4FB0
:1018800068857985605F7F4F21E030E086E497E0EE
:101890000E94F2384A855B854F5F5F4F6885798586
:1018A000685E7F4F21E030E086E497E00E94F238E6
:1018B0004A855B854F5F5F4F68857985605E7F4FA6
:1018C00021E030E086E497E00E94F2388EC24A853B
:1018D0005B854F5F5F4F6885798500E110E02AE006
:1018E00030E086E497E00E94A3384A855B854F5F2D
:1018F0005F4F688579850F2EF3E0EF2EF1E0FF2E24
:10190000F02D21E030E086E497E00E94F2384A852D
:101910005B854F5F5F4F68857985685F7F4F21E00A
:1019200030E086E497E00E94F2384A855B854F5F9D
:101930005F4F68857985605F7F4F21E030E086E406
:1019400097E00E94F2384A855B854F5F5F4F68855C
:101950007985685E7F4F21E030E086E497E00E9461
:10196000F2384A855B854F5F5F4F68857985605E99
:101970007F4F21E030E086E497E00E94F2384A850C
:101980005B854F5F5F4F68857985685D7F4F21E09C
:1019900030E086E497E00E94F23827C24A855B85F2
:1019A0004F5F5F4F6885798500E110E02AE030E005
:1019B00086E497E00E94A3384A855B854F5F5F4FBE
:1019C000688579850F2EF3E0EF2EF1E0FF2EF02DE4
:1019D00021E030E086E497E00E94F2384A855B859A
:1019E0004F5F5F4F68857985685F7F4F21E030E00A
:1019F00086E497E00E94F2384A855B854F5F5F4F2F
:101A000068857985605F7F4F21E030E086E497E06C
:101A10000E94F2384A855B854F5F5F4F6885798504
:101A2000685E7F4F21E030E086E497E00E94F23864
:101A30004A855B854F5F5F4F68857985605E7F4F24
:101A400021E030E086E497E00E94F2384A855B8529
:101A50004F5F5F4F68857985685D7F4F21E030E09B
:101A600086E497E00E94F2384A855B854F5F5F4FBE
:101A700068857985605D7F4F21E030E086E497E0FE
:101A80000E94F238B2C14A855B854F5F5F4F68851F
:101A9000798500E110E02AE030E086E497E00E94DA
:101AA000A3384A855B854F5F5F4F688579850F2E28
:101AB000F3E0EF2EF1E0FF2EF02D21E030E086E4A0
:101AC00097E00E94F2384A855B854F5F5F4F6885DB
:101AD0007985685F7F4F21E030E086E497E00E94DF
:101AE000F2384A855B854F5F5F4F68857985605F17
:101AF0007F4F21E030E086E497E00E94F2384A858B
:101B00005B854F5F5F4F68857985685E7F4F21E019
:101B100030E086E497E00E94F2384A855B854F5FAB
:101B20005F4F68857985605E7F4F21E030E086E415
:101B300097E00E94F2384A855B854F5F5F4F68856A
:101B40007985685D7F4F21E030E086E497E00E9470
:101B5000F2384A855B854F5F5F4F68857985605DA8
:101B60007F4F21E030E086E497E00E94F2384A851A
:101B70005B854F5F5F4F68857985685C7F4F21E0AB
:101B800030E086E497E00E94F2382FC14A855B85F9
:101B90004F5F5F4F6885798500E110E02AE030E013
:101BA00086E497E00E94A3384A855B854F5F5F4FCC
:101BB000688579850F2EF3E0EF2EF1E0FF2EF02DF2
:101BC00021E030E086E497E00E94F2384A855B85A8
:101BD0004F5F5F4F68857985685F7F4F21E030E018
:101BE00086E497E00E94F2384A855B854F5F5F4F3D
:101BF00068857985605F7F4F21E030E086E497E07B
:101C00000E94F2384A855B854F5F5F4F6885798512
:101C1000685E7F4F21E030E086E497E00E94F23872
:101C20004A855B854F5F5F4F68857985605E7F4F32
:101C300021E030E086E497E00E94F2384A855B8537
:101C40004F5F5F4F68857985685D7F4F21E030E0A9
:101C500086E497E00E94F2384A855B854F5F5F4FCC
:101C600068857985605D7F4F21E030E086E497E00C
:101C70000E94F2384A855B854F5F5F4F68857985A2
:101C8000685C7F4F21E030E086E497E00E94F23804
:101C90004A855B854F5F5F4F68857985605C7F4FC4
:101CA00021E030E086E497E00E94F2389EC04A8549
:101CB0005B854F5F5F4F6885798500E110E02AE022
:101CC00030E086E497E00E94A3384A855B854F5F49
:101CD0005F4F688579850F2EF3E0EF2EF1E0FF2E40
:101CE000F02D21E030E086E497E00E94F2384A854A
:101CF0005B854F5F5F4F68857985685F7F4F21E027
:101D000030E086E497E00E94F2384A855B854F5FB9
:101D10005F4F68857985605F7F4F21E030E086E422
:101D200097E00E94F2384A855B854F5F5F4F688578
:101D30007985685E7F4F21E030E086E497E00E947D
:101D4000F2384A855B854F5F5F4F68857985605EB5
:101D50007F4F21E030E086E497E00E94F2384A8528
:101D60005B854F5F5F4F68857985685D7F4F21E0B8
:101D700030E086E497E00E94F2384A855B854F5F49
:101D80005F4F68857985605D7F4F21E030E086E4B4
:101D900097E00E94F2384A855B854F5F5F4F688508
:101DA0007985685C7F4F21E030E086E497E00E940F
:101DB000F2384A855B854F5F5F4F68857985605C47
:101DC0007F4F21E030E086E497E00E94F2384A85B8
:101DD0005B854F5F5F4F68857985685B7F4F21E04A
:101DE00030E086E497E00E94F238DF91CF911F91B6
:101DF0000F91FF90EF900895EF92FF920F931F9332
:101E0000CF93DF93EC0190914007992309F408C424
:101E1000EA81FB81EB30F10508F002C4E45AFF4F80
:101E20000C94BA394A8D5B8DE881F9813296EE0FB8
:101E3000FF1FEC0FFD1F6081718108E010E021E0C1
:101E400030E086E497E00E94A3384A8D5B8DE881FC
:101E5000F9813296EE0FFF1FEC0FFD1F608171813B
:101E60000F2EFBE9EF2EF5E0FF2EF02D21E030E004
:101E700086E497E00E94F2384A8D5B8D4E5F5F4F9B
:101E8000E881F9813296EE0FFF1FEC0FFD1F608194
:101E900071810F2EF3E3EF2EF5E0FF2EF02D21E000
:101EA00030E086E497E00E94F2384A8D5B8D415025
:101EB0005109888199810296880F991FC80FD91FEF
:101EC000688179810F2EFBE3EF2EF5E0FF2EF02DD8
:101ED00021E030E086E497E00E94F238A1C34A8D09
:101EE0005B8DE881F9813296EE0FFF1FEC0FFD1F2D
:101EF0006081718108E010E021E030E086E497E045
:101F00000E94A3384A8D5B8DE881F9813296EE0FED
:101F1000FF1FEC0FFD1F608171810F2EF3E9EF2E83
:101F2000F5E0FF2EF02D21E030E086E497E00E94FE
:101F3000F2384A8D5B8D4E5F5F4FE881F9813296B2
:101F4000EE0FFF1FEC0FFD1F608171810F2EF3E379
:101F5000EF2EF5E0FF2EF02D21E030E086E497E053
:101F60000E94F2384A8D5B8D4150510988819981D8
:101F70000296880F991FC80FD91F688179810F2E8B
:101F8000FBE3EF2EF5E0FF2EF02D21E030E086E4BC
:101F900097E00E94F23844C34A8D5B8DE881F98155
:101FA0003296EE0FFF1FEC0FFD1F6081718108E07C
:101FB00010E021E030E086E497E00E94A3384A8DEB
:101FC0005B8DE881F9813296EE0FFF1FEC0FFD1F4C
:101FD000608171810F2EFBE8EF2EF5E0FF2EF02DD2
:101FE00021E030E086E497E00E94F2384A8D5B8D74
:101FF0004E5F5F4FE881F9813296EE0FFF1FEC0FC5
:10200000FD1F608171810F2EF3E3EF2EF5E0FF2EAF
:10201000F02D21E030E086E497E00E94F2384A8D0E
:102020005B8D41505109888199810296880F991FD3
:10203000C80FD91F688179810F2EFBE3EF2EF5E0E1
:10204000FF2EF02D21E030E086E497E00E94F23888
:10205000E7C24A8D5B8DE881F9813296EE0FFF1F52
:10206000EC0FFD1F6081718108E010E021E030E09D
:1020700086E497E00E94A3384A8D5B8DE881F98160
:102080003296EE0FFF1FEC0FFD1F608171810F2E46
:10209000F3E8EF2EF5E0FF2EF02D21E030E086E4AE
:1020A00097E00E94F2384A8D5B8D4E5F5F4FE8816A
:1020B000F9813296EE0FFF1FEC0FFD1F60817181D9
:1020C0000F2EF3E3EF2EF5E0FF2EF02D21E030E0B0
:1020D00086E497E00E94F2384A8D5B8D41505109A9
:1020E000888199810296880F991FC80FD91F68812E
:1020F00079810F2EFBE3EF2EF5E0FF2EF02D21E08E
:1021000030E086E497E00E94F2388AC24A8D5B8D07
:10211000E881F9813296EE0FFF1FEC0FFD1F608101
:10212000718108E010E021E030E086E497E00E9451
:10213000A3384A8D5B8DE881F9813296EE0FFF1F3F
:10214000EC0FFD1F608171810F2EFBE7EF2EF5E094
:10215000FF2EF02D21E030E086E497E00E94F23877
:102160004A8D5B8D4E5F5F4FE881F9813296EE0FAD
:10217000FF1FEC0FFD1F608171810F2EF3E3EF2E27
:10218000F5E0FF2EF02D21E030E086E497E00E949C
:10219000F2384A8D5B8D41505109888199810296B0
:1021A000880F991FC80FD91F688179810F2EFBE313
:1021B000EF2EF5E0FF2EF02D21E030E086E497E0F1
:1021C0000E94F2382DC24A8D5B8DE881F9813296EA
:1021D000EE0FFF1FEC0FFD1F6081718108E010E022
:1021E00021E030E086E497E00E94A3384A8D5B8DC1
:1021F000E881F9813296EE0FFF1FEC0FFD1F608121
:1022000071810F2EF3E7EF2EF5E0FF2EF02D21E088
:1022100030E086E497E00E94F2384A8D5B8D4E5F95
:102220005F4FE881F9813296EE0FFF1FEC0FFD1F23
:10223000608171810F2EF3E3EF2EF5E0FF2EF02D7C
:1022400021E030E086E497E00E94F2384A8D5B8D11
:1022500041505109888199810296880F991FC80FB2
:10226000D91F688179810F2EFBE3EF2EF5E0FF2E59
:10227000F02D21E030E086E497E00E94F238D0C1F2
:102280004A8D5B8DE881F9813296EE0FFF1FEC0FCE
:10229000FD1F6081718108E010E021E030E086E4FC
:1022A00097E00E94A3384A8D5B8DE881F9813296D0
:1022B000EE0FFF1FEC0FFD1F608171810F2EFBE6FB
:1022C000EF2EF5E0FF2EF02D21E030E086E497E0E0
:1022D0000E94F2384A8D5B8D4E5F5F4FE881F98135
:1022E0003296EE0FFF1FEC0FFD1F608171810F2EE4
:1022F000F3E3EF2EF5E0FF2EF02D21E030E086E451
:1023000097E00E94F2384A8D5B8D415051098881D7
:1023100099810296880F991FC80FD91F688179810A
:102320000F2EFBE3EF2EF5E0FF2EF02D21E030E045
:1023300086E497E00E94F23873C14A8D5B8DE88194
:10234000F9813296EE0FFF1FEC0FFD1F6081718146
:1023500008E010E021E030E086E497E00E94A33836
:102360004A8D5B8DE881F9813296EE0FFF1FEC0FED
:10237000FD1F608171810F2EF3E6EF2EF5E0FF2E39
:10238000F02D21E030E086E497E00E94F2384A8D9B
:102390005B8D4E5F5F4FE881F9813296EE0FFF1F34
:1023A000EC0FFD1F608171810F2EF3E3EF2EF5E03E
:1023B000FF2EF02D21E030E086E497E00E94F23815
:1023C0004A8D5B8D41505109888199810296880F11
:1023D000991FC80FD91F688179810F2EFBE3EF2E5B
:1023E000F5E0FF2EF02D21E030E086E497E00E943A
:1023F000F23816C14A8D5B8DE881F9813296EE0F75
:10240000FF1FEC0FFD1F6081718108E010E021E0EB
:1024100030E086E497E00E94A3384A8D5B8DE88126
:10242000F9813296EE0FFF1FEC0FFD1F6081718165
:102430000F2EFBE5EF2EF5E0FF2EF02D21E030E032
:1024400086E497E00E94F2384A8D5B8D4E5F5F4FC5
:10245000E881F9813296EE0FFF1FEC0FFD1F6081BE
:1024600071810F2EF3E3EF2EF5E0FF2EF02D21E02A
:1024700030E086E497E00E94F2384A8D5B8D41504F
:102480005109888199810296880F991FC80FD91F19
:10249000688179810F2EFBE3EF2EF5E0FF2EF02D02
:1024A00021E030E086E497E00E94F238B9C04A8D1E
:1024B0005B8DE881F9813296EE0FFF1FEC0FFD1F57
:1024C0006081718108E010E021E030E086E497E06F
:1024D0000E94A3384A8D5B8DE881F9813296EE0F18
:1024E000FF1FEC0FFD1F608171810F2EF3E5EF2EB2
:1024F000F5E0FF2EF02D21E030E086E497E00E9429
:10250000F2384A8D5B8D4E5F5F4FE881F9813296DC
:10251000EE0FFF1FEC0FFD1F608171810F2EF3E3A3
:10252000EF2EF5E0FF2EF02D21E030E086E497E07D
:102530000E94F2384A8D5B8D415051098881998102
:102540000296880F991FC80FD91F688179810F2EB5
:10255000FBE3EF2EF5E0FF2EF02D21E030E086E4E6
:1025600097E00E94F2385CC04A8D5B8DE881F9816A
:102570003296EE0FFF1FEC0FFD1F6081718108E0A6
:1025800010E021E030E086E497E00E94A3384A8D15
:102590005B8DE881F9813296EE0FFF1FEC0FFD1F76
:1025A000608171810F2EF3E4EF2EF5E0FF2EF02D08
:1025B00021E030E086E497E00E94F2384A8D5B8D9E
:1025C0004E5F5F4FE881F9813296EE0FFF1FEC0FEF
:1025D000FD1F608171810F2EF3E3EF2EF5E0FF2EDA
:1025E000F02D21E030E086E497E00E94F2384A8D39
:1025F0005B8D41505109888199810296880F991FFE
:10260000C80FD91F688179810F2EFBE3EF2EF5E00B
:10261000FF2EF02D21E030E086E497E00E94F238B2
:10262000DF91CF911F910F91FF90EF900895AF929E
:10263000BF92CF92DF92EF92FF920F931F93CF93AF
:10264000DF93EC01EA81FB81EB30F10508F074C205
:10265000E959FF4F0C94BA39888199810196998381
:102660008883181619060CF067C26E0184E0C80E44
:10267000D11CE12CF12C56014A8D5B8D4E5F5F4FD2
:10268000F601619171916F0108E010E021E030E006
:1026900086E497E00E94A3384A8D5B8D4150510932
:1026A000F5016081718121E030E086E497E00E94CD
:1026B000A338FFEFEF1AFF0A88819981E816F9061F
:1026C000D4F23AC288819981019699838883181639
:1026D00019060CF031C26E0184E0C80ED11CE12C49
:1026E000F12C56014A8D5B8D4E5F5F4FF601619173
:1026F00071916F0108E010E021E030E086E497E09E
:102700000E94A3384A8D5B8D41505109F5016081CB
:10271000718121E030E086E497E00E94A338FFEF6A
:10272000EF1AFF0A88819981E816F906D4F204C2EB
:1027300088819981019699838883181619060CF06F
:10274000FBC16E0184E0C80ED11CE12CF12C5601B6
:102750004A8D5B8D4E5F5F4FF601619171916F0104
:1027600008E010E021E030E086E497E00E94A33822
:102770004A8D5B8D41505109F5016081718121E0E5
:1027800030E086E497E00E94A338FFEFEF1AFF0ADB
:1027900088819981E816F906D4F2CEC188819981A1
:1027A000019699838883181619060CF0C5C16E012D
:1027B00084E0C80ED11CE12CF12C56014A8D5B8DB2
:1027C0004E5F5F4FF601619171916F0108E010E07B
:1027D00021E030E086E497E00E94A3384A8D5B8DCB
:1027E00041505109F5016081718121E030E086E4BA
:1027F00097E00E94A338FFEFEF1AFF0A88819981C2
:10280000E816F906D4F298C18881998101969983D6
:102810008883181619060CF08FC16E0184E0C80E6B
:10282000D11CE12CF12C56014A8D5B8D4E5F5F4F20
:10283000F601619171916F0108E010E021E030E054
:1028400086E497E00E94A3384A8D5B8D4150510980
:10285000F5016081718121E030E086E497E00E941B
:10286000A338FFEFEF1AFF0A88819981E816F9066D
:10287000D4F262C188819981019699838883181660
:1028800019060CF059C16E0184E0C80ED11CE12C70
:10289000F12C56014A8D5B8D4E5F5F4FF6016191C1
:1028A00071916F0108E010E021E030E086E497E0EC
:1028B0000E94A3384A8D5B8D41505109F50160811A
:1028C000718121E030E086E497E00E94A338FFEFB9
:1028D000EF1AFF0A88819981E816F906D4F22CC113
:1028E00088819981019699838883181619060CF0BE
:1028F00023C16E0184E0C80ED11CE12CF12C5601DD
:102900004A8D5B8D4E5F5F4FF601619171916F0152
:1029100008E010E021E030E086E497E00E94A33870
:102920004A8D5B8D41505109F5016081718121E033
:1029300030E086E497E00E94A338FFEFEF1AFF0A29
:1029400088819981E816F906D4F2F6C088819981C8
:10295000019699838883181619060CF0EDC06E0154
:1029600084E0C80ED11CE12CF12C56014A8D5B8D00
:102970004E5F5F4FF601619171916F0108E010E0C9
:1029800021E030E086E497E00E94A3384A8D5B8D19
:1029900041505109F5016081718121E030E086E408
:1029A00097E00E94A338FFEFEF1AFF0A8881998110
:1029B000E816F906D4F2C0C08881998101969983FE
:1029C0008883181619060CF0B7C06E0184E0C80E93
:1029D000D11CE12CF12C56014A8D5B8D4E5F5F4F6F
:1029E000F601619171916F0108E010E021E030E0A3
:1029F00086E497E00E94A3384A8D5B8D41505109CF
:102A0000F5016081718121E030E086E497E00E9469
:102A1000A338FFEFEF1AFF0A88819981E816F906BB
:102A2000D4F28AC088819981019699838883181687
:102A300019060CF081C06E0184E0C80ED11CE12C97
:102A4000F12C56014A8D5B8D4E5F5F4FF60161910F
:102A500071916F0108E010E021E030E086E497E03A
:102A60000E94A3384A8D5B8D41505109F501608168
:102A7000718121E030E086E497E00E94A338FFEF07
:102A8000EF1AFF0A88819981E816F906D4F254C03A
:102A90004A8D5B8DE881F9813296EE0FFF1FE80FBA
:102AA000F91F6081718108E010E021E030E086E4E8
:102AB00097E00E94A3384A8D5B8D4E5F5F4FE8819F
:102AC000F9813296EE0FFF1FEC0FFD1F60817181BF
:102AD00021E030E086E497E00E94A3384A8D5B8DC8
:102AE00041505109E881F9813296EE0FFF1FEC0F3A
:102AF000FD1F6081718121E030E086E497E00E9453
:102B0000A33888819981019799838883992394F4C4
:102B1000198218821B821A821092400781E08093EA
:102B2000440786E497E00E940F381982188280E0FB
:102B300090E015C0CE0160D9888199818B309105D4
:102B400074F0198218821B821A821092400781E069
:102B50008093440786E497E00E940F3862C01B828E
:102B60001A8220914007222309F45BC04A8D5B8DB5
:102B7000FC013296EE0FFF1FEC0FFD1F608171818B
:102B800008E010E021E030E086E497E00E94A338FE
:102B90004A8D5B8DE881F9813296EE0FFF1FEC0FB5
:102BA000FD1F608171810F2EFBE9EF2EF5E0FF2EF6
:102BB000F02D21E030E086E497E00E94F2384A8D63
:102BC0005B8D4E5F5F4FE881F9813296EE0FFF1FFC
:102BD000EC0FFD1F608171810F2EF3E3EF2EF5E006
:102BE000FF2EF02D21E030E086E497E00E94F238DD
:102BF0004A8D5B8D41505109888199810296880FD9
:102C0000991FC80FD91F688179810F2EFBE3EF2E22
:102C1000F5E0FF2EF02D21E030E086E497E00E9401
:102C2000F238DF91CF911F910F91FF90EF90DF90DD
:102C3000CF90BF90AF9008951F920F920FB60F9252
:102C400011248F939F9380B182FB992790F981E0A3
:102C500089279091BD06981718F481E08093BD06EE
:102C600080B183FB992790F981E089279091BC0678
:102C7000981718F481E08093BC0680B1829581702A
:102C800091E089279091BF06981718F481E080930E
:102C9000BF0680B185FB992790F981E08927909143
:102CA000BE06981718F481E08093BE069F918F911D
:102CB0000F900FBE0F901F901895AF92BF92CF92BA
:102CC000DF92EF92FF920F931F93CF93DF932FE347
:102CD0008DE093E0215080409040E1F700C000007B
:102CE000F8943091BF068091BE0641E0282F24273A
:102CF0009091BD064927A22FA423532F5A23B091A8
:102D0000BC06FB2FF52361F051E05093BB0635273D
:102D10007B2F752783238923B81750F00C945629ED
:102D200071E0372783237B27F92FF823BF1740F45F
:102D300081E08093BA06F091BB0660E0E1E0DBC67B
:102D4000E091BA0661E06E27F091BB06C72FC6235B
:102D50005C23F51708F07FC6809145078823B1F002
:102D600080910A0790910B0701972AF090930B0727
:102D700080930A0706C08AE090E090930B07809347
:102D80000A0788E097E00E94AC0255C680910001D6
:102D9000882309F48AC0809106079091070701975C
:102DA000909307078093060799233CF482E090E014
:102DB00090930707809306075BC081309105D9F196
:102DC0008230910509F454C0892B09F034C600E221
:102DD00010E024E030E042E050E062E370E086E49E
:102DE00097E00E94A33880913B07811111C00F2EFC
:102DF000F3E0EF2EF3E0FF2EF02D24E030E042E090
:102E000050E062E370E086E497E00E94F23813C677
:102E10000F2EF3E9EF2EF3E0FF2EF02D00E210E08D
:102E200024E030E042E050E062E370E086E497E0C6
:102E30000E94F23800C600E210E024E030E042E0F8
:102E400050E062E370E086E497E00E94A3380F2E22
:102E5000F3EAEF2EF4E0FF2EF02D24E030E042E024
:102E600050E062E370E086E497E00E94F238E3C548
:102E700000E210E024E030E042E050E062E370E085
:102E800086E497E00E94A3380F2EF3E1EF2EF4E0E2
:102E9000FF2EF02D24E030E042E050E062E370E0ED
:102EA00086E497E00E94F238C6C5809144078823E3
:102EB00009F44FC38091180790911907019712F0F8
:102EC0000C945C2983E090E0909319078093180795
:102ED0001BC3C8E1D7E04A855B8508E010E020E12C
:102EE00030E060E070E086E497E00E94A3384A8515
:102EF0005B85E881F981EE0FFF1FE65EF84F608188
:102F000071810F2EFBE9EF2EF1E0FF2EF02D21E075
:102F100030E086E497E00E94F2384A855B85E881DC
:102F2000F981EE0FFF1FE65EF84F60817181685FE7
:102F30007F4F0F2EFBEFEF2EF1E0FF2EF02D21E063
:102F400030E086E497E00E94F2384A855B85E881AC
:102F5000F981EE0FFF1FE65EF84F60817181605FBF
:102F60007F4F0F2EF3E9EF2EF1E0FF2EF02D21E041
:102F700030E086E497E00E94F2384A855B85E8817C
:102F8000F981EE0FFF1FE65EF84F60817181605E90
:102F90007F4F0F2EF3E1EF2EF2E0FF2EF02D21E018
:102FA00030E086E497E00E94F2384A855B85E8814C
:102FB000F981EE0FFF1FE65EF84F60817181685D59
:102FC0007F4F0F2EF3EAEF2EF1E0FF2EF02D21E0E0
:102FD00030E086E497E00E94F2384A855B85E8811C
:102FE000F981EE0FFF1FE65EF84F60817181605D31
:102FF0007F4F0F2EFBEDEF2EF1E0FF2EF02D21E0A5
:1030000030E086E497E00E94F2384A855B85E881EB
:10301000F981EE0FFF1FE65EF84F60817181685CF9
:103020007F4F0F2EFBEEEF2EF1E0FF2EF02D21E073
:1030300030E086E497E00E94F2384A855B85E881BB
:10304000F981EE0FFF1FE65EF84F60817181605CD1
:103050007F4F0F2EF3EEEF2EF1E0FF2EF02D21E04B
:1030600030E086E497E00E94F2384A855B85E8818B
:10307000F981EE0FFF1FE65EF84F60817181685B9A
:103080007F4F0F2EF3E9EF2EF1E0FF2EF02D21E020
:1030900030E086E497E00E94F2384A855B85E8815B
:1030A000F981EE0FFF1FE65EF84F60817181605B72
:1030B0007F4F0F2EF3EBEF2EF1E0FF2EF02D21E0EE
:1030C00030E086E497E00E94F2384A855B85E8812B
:1030D000F981EE0FFF1FE65EF84F60817181685A3B
:1030E0007F4F0F2EFBEFEF2EF1E0FF2EF02D21E0B2
:1030F00030E086E497E00E94F2384A855B85E881FB
:10310000F981EE0FFF1FE65EF84F60817181605A12
:103110007F4F0F2EFBE9EF2EF1E0FF2EF02D21E087
:1031200030E086E497E00E94F2384A855B85E881CA
:10313000F981EE0FFF1FE65EF84F608171816859DB
:103140007F4F21E030E086E497E00E94F23873C4BC
:10315000C8E1D7E04A855B8508E010E020E130E077
:1031600060E070E086E497E00E94A3384A855B85C2
:10317000E881F981EE0FFF1FE65EF84F60817181F3
:103180000F2EF3EAEF2EF1E0FF2EF02D21E030E0DC
:1031900086E497E00E94F2384A855B85E881F981F0
:1031A000EE0FFF1FE65EF84F60817181685F7F4F11
:1031B0000F2EFBEFEF2EF1E0FF2EF02D21E030E09F
:1031C00086E497E00E94F2384A855B85E881F981C0
:1031D000EE0FFF1FE65EF84F60817181605F7F4FE9
:1031E0000F2EFBE9EF2EF1E0FF2EF02D21E030E075
:1031F00086E497E00E94F2384A855B85E881F98190
:10320000EE0FFF1FE65EF84F60817181685E7F4FB1
:103210000F2EFBEFEF2EF1E0FF2EF02D21E030E03E
:1032200086E497E00E94F2384A855B85E881F9815F
:10323000EE0FFF1FE65EF84F60817181605E7F4F89
:103240000F2EF3E9EF2EF1E0FF2EF02D21E030E01C
:1032500086E497E00E94F2384A855B85E881F9812F
:10326000EE0FFF1FE65EF84F60817181605D7F4F5A
:103270000F2EF3E0EF2EF2E0FF2EF02D21E030E0F4
:1032800086E497E00E94F2384A855B85E881F981FF
:10329000EE0FFF1FE65EF84F60817181685C7F4F23
:1032A0000F2EFBEFEF2EF1E0FF2EF02D21E030E0AE
:1032B00086E497E00E94F2384A855B85E881F981CF
:1032C000EE0FFF1FE65EF84F60817181605C7F4FFB
:1032D0000F2EF3E8EF2EF1E0FF2EF02D21E030E08D
:1032E00086E497E00E94F2384A855B85E881F9819F
:1032F000EE0FFF1FE65EF84F60817181685B7F4FC4
:103300000F2EFBEDEF2EF1E0FF2EF02D21E030E04F
:1033100086E497E00E94F2384A855B85E881F9816E
:10332000EE0FFF1FE65EF84F60817181605B7F4F9B
:103330000F2EFBE0EF2EF2E0FF2EF02D21E030E02B
:1033400086E497E00E94F2384A855B85E881F9813E
:10335000EE0FFF1FE65EF84F60817181685A7F4F64
:103360000F2EFBEFEF2EF1E0FF2EF02D21E030E0ED
:1033700086E497E00E94F2385EC3C8E1D7E04A8550
:103380005B8508E010E020E130E060E070E086E47A
:1033900097E00E94A3384A855B85E881F981EE0FAA
:1033A000FF1FE65EF84F608171810F2EFBE1EF2E6B
:1033B000F2E0FF2EF02D21E030E086E497E00E945D
:1033C000F2384A855B85E881F981EE0FFF1FE65EE2
:1033D000F84F60817181685F7F4F0F2EF3E0EF2E11
:1033E000F2E0FF2EF02D21E030E086E497E00E942D
:1033F000F2384A855B85E881F981EE0FFF1FE65EB2
:10340000F84F60817181605F7F4F21E030E086E49A
:1034100097E00E94F2384A855B85E881F981EE0FDA
:10342000FF1FE65EF84F60817181605E7F4F0F2E57
:10343000FBEAEF2EF1E0FF2EF02D21E030E086E4F4
:1034400097E00E94F2384A855B85E881F981EE0FAA
:10345000FF1FE65EF84F60817181685D7F4F0F2E20
:10346000FBE7EF2EF1E0FF2EF02D21E030E086E4C7
:1034700097E00E94F2384A855B85E881F981EE0F7A
:10348000FF1FE65EF84F60817181605D7F4F0F2EF8
:10349000F3EBEF2EF1E0FF2EF02D21E030E086E49B
:1034A00097E00E94F2384A855B85E881F981EE0F4A
:1034B000FF1FE65EF84F60817181685C7F4F0F2EC1
:1034C000FBEFEF2EF1E0FF2EF02D21E030E086E45F
:1034D00097E00E94F2384A855B85E881F981EE0F1A
:1034E000FF1FE65EF84F60817181605C7F4F0F2E99
:1034F000F3EAEF2EF1E0FF2EF02D21E030E086E43C
:1035000097E00E94F23897C2C8E1D7E04A855B8510
:1035100008E010E020E130E060E070E086E497E051
:103520000E94A3384A855B85E881F981EE0FFF1F71
:10353000E65EF84F608171810F2EF3E1EF2EF1E02E
:10354000FF2EF02D22E030E086E497E00E94F23872
:1035500072C280914307882309F4FEC18091240739
:1035600090912507019712F00C94772982E090E062
:103570009093250780932407CAC1C4E2D7E0488509
:10358000598508E010E020E130E060E070E086E47A
:1035900097E00E94A33848855985E881F981EE0FAC
:1035A000FF1FEA5DF84F608171810F2EF3E0EF2E6F
:1035B000F2E0FF2EF02D21E030E086E497E00E945B
:1035C000F23848855985E881F981EE0FFF1FEA5DE1
:1035D000F84F60817181685F7F4F0F2EFBEFEF2EF8
:1035E000F1E0FF2EF02D21E030E086E497E00E942C
:1035F000F23848855985E881F981EE0FFF1FEA5DB1
:10360000F84F60817181605F7F4F0F2EF3E8EF2EDE
:10361000F1E0FF2EF02D21E030E086E497E00E94FB
:10362000F23848855985E881F981EE0FFF1FEA5D80
:10363000F84F60817181685E7F4F0F2EFBEDEF2E9A
:10364000F1E0FF2EF02D21E030E086E497E00E94CB
:10365000F23848855985E881F981EE0FFF1FEA5D50
:10366000F84F60817181605E7F4F0F2EFBE0EF2E7F
:10367000F2E0FF2EF02D21E030E086E497E00E949A
:10368000F23848855985E881F981EE0FFF1FEA5D20
:10369000F84F60817181685D7F4F0F2EFBEFEF2E39
:1036A000F1E0FF2EF02D21E030E086E497E00E946B
:1036B000F23848855985E881F981EE0FFF1FEA5DF0
:1036C000F84F60817181685C7F4F0F2EFBEDEF2E0C
:1036D000F1E0FF2EF02D21E030E086E497E00E943B
:1036E000F23848855985E881F981EE0FFF1FEA5DC0
:1036F000F84F60817181605C7F4F0F2EF3EBEF2EEE
:10370000F1E0FF2EF02D21E030E086E497E00E940A
:10371000F23848855985E881F981EE0FFF1FEA5D8F
:10372000F84F60817181685B7F4F0F2EF3EFEF2EB2
:10373000F1E0FF2EF02D21E030E086E497E00E94DA
:10374000F23848855985E881F981EE0FFF1FEA5D5F
:10375000F84F60817181605B7F4F0F2EFBEAEF2E87
:10376000F1E0FF2EF02D21E030E086E497E00E94AA
:10377000F23861C1C4E2D7E04885598508E010E01D
:1037800020E130E060E070E086E497E00E94A3383A
:1037900048855985E881F981EE0FFF1FEA5DF84FF2
:1037A000608171810F2EFBE8EF2EF1E0FF2EF02DEE
:1037B00021E030E086E497E00E94F23848855985A0
:1037C000E881F981EE0FFF1FEA5DF84F608171819A
:1037D000685F7F4F0F2EFBE9EF2EF1E0FF2EF02DFB
:1037E00021E030E086E497E00E94F2384885598570
:1037F000E881F981EE0FFF1FEA5DF84F608171816A
:10380000605F7F4F0F2EFBEFEF2EF1E0FF2EF02DCC
:1038100021E030E086E497E00E94F238488559853F
:10382000E881F981EE0FFF1FEA5DF84F6081718139
:10383000685E7F4F0F2EF3EAEF2EF1E0FF2EF02DA2
:1038400021E030E086E497E00E94F238488559850F
:10385000E881F981EE0FFF1FEA5DF84F6081718109
:10386000685D7F4F0F2EFBEDEF2EF1E0FF2EF02D68
:1038700021E030E086E497E00E94F23848855985DF
:10388000E881F981EE0FFF1FEA5DF84F60817181D9
:10389000605D7F4F0F2EF3EBEF2EF1E0FF2EF02D4A
:1038A00021E030E086E497E00E94F23848855985AF
:1038B000E881F981EE0FFF1FEA5DF84F60817181A9
:1038C000685C7F4F0F2EF3EFEF2EF1E0FF2EF02D0F
:1038D00021E030E086E497E00E94F238488559857F
:1038E000E881F981EE0FFF1FEA5DF84F6081718179
:1038F000605C7F4F0F2EFBEAEF2EF1E0FF2EF02DE4
:1039000021E030E086E497E00E94F23894C0C4E2FF
:10391000D7E04885598508E010E020E130E060E01C
:1039200070E086E497E00E94A33848855985E881D5
:10393000F981EE0FFF1FEA5DF84F608171810F2E54
:10394000F3E1EF2EF1E0FF2EF02D22E030E086E4EF
:1039500097E00E94F2386FC080914207882371F08F
:103960001092FB061092FA061092420781E08093B3
:10397000430786E497E00E940F385DC080914107BD
:10398000882371F01092F3061092F206109241070C
:1039900081E08093430786E497E00E940F384BC094
:1039A000809140078823B1F08091C2069091C306B0
:1039B00001972AF09093C3068093C20606C08AE05E
:1039C00090E09093C3068093C20680EC96E00E943C
:1039D000FC0E31C080913F07882351F010923F07C1
:1039E00081E08093440786E497E00E940F3823C06B
:1039F00080913E078823F9F08091E4069091E506D6
:103A00000197181619062CF49093E5068093E406A6
:103A100006C081E090E09093E5068093E40684EE92
:103A200096E00E94080A8091E4069091E506909342
:103A300002018093010181E080933907809138076A
:103A4000882311F40C9448291092380781E0809360
:103A500000010C944829872384238623F81708F053
:103A60004AC08091450781112FC0809100018111CA
:103A70002BC080914407811127C080914307811199
:103A800023C080914207882371F01092FB061092A8
:103A9000FA061092420781E08093430786E497E09C
:103AA0000E940F3811C080914107882369F010925D
:103AB000F3061092F2061092410781E080934307CB
:103AC00086E497E00E940F3880913B07811103C084
:103AD00081E080933C0781E080933907809138072B
:103AE000882311F40C9448291092380781E08093C0
:103AF00000010C9448292323872F8623982392239F
:103B0000F91708F04AC08091450781112FC08091B4
:103B1000000181112BC080914407811127C0809141
:103B20004307811123C080914207882371F01092CE
:103B3000FB061092FA061092420781E08093430739
:103B400086E497E00E940F3811C0809141078823D6
:103B500069F01092F3061092F2061092410781E08C
:103B60008093430786E497E00E940F3880913B07DB
:103B7000811103C081E080933C0781E08093390785
:103B800080913807882311F40C9448291092380743
:103B900081E0809300010C9448294B234623242381
:103BA000F21708F077C6809145078823B1F080911D
:103BB0000A0790910B0701968B3091052CF4909396
:103BC0000B0780930A0704C010920B0710920A0794
:103BD00088E097E00E94AC024FC6809100018823E4
:103BE00009F489C080910607909107070196909388
:103BF000070780930607833091052CF01092070782
:103C0000109206070AC081309105D9F182309105E2
:103C100009F454C0892B09F02FC600E210E024E01B
:103C200030E042E050E062E370E086E497E00E941A
:103C3000A33880913B07811111C00F2EF3E0EF2EC6
:103C4000F3E0FF2EF02D24E030E042E050E062E3AC
:103C500070E086E497E00E94F2380EC60F2EF3E97A
:103C6000EF2EF3E0FF2EF02D00E210E024E030E034
:103C700042E050E062E370E086E497E00E94F238B0
:103C8000FBC500E210E024E030E042E050E062E3F7
:103C900070E086E497E00E94A3380F2EF3EAEF2E3F
:103CA000F4E0FF2EF02D24E030E042E050E062E34B
:103CB00070E086E497E00E94F238DEC500E210E092
:103CC00024E030E042E050E062E370E086E497E018
:103CD0000E94A3380F2EF3E1EF2EF4E0FF2EF02D1B
:103CE00024E030E042E050E062E370E086E497E0F8
:103CF0000E94F238C1C580914407882309F44EC35D
:103D0000809118079091190701968430910514F459
:103D10000C948B291092190710921807C8E1D7E06C
:103D20004A855B8508E010E020E130E060E070E06B
:103D300086E497E00E94A3384A855B85E881F98193
:103D4000EE0FFF1FE65EF84F608171810F2EFBE9D9
:103D5000EF2EF1E0FF2EF02D21E030E086E497E039
:103D60000E94F2384A855B85E881F981EE0FFF1FDA
:103D7000E65EF84F60817181685F7F4F0F2EFBEF29
:103D8000EF2EF1E0FF2EF02D21E030E086E497E009
:103D90000E94F2384A855B85E881F981EE0FFF1FAA
:103DA000E65EF84F60817181605F7F4F0F2EF3E90F
:103DB000EF2EF1E0FF2EF02D21E030E086E497E0D9
:103DC0000E94F2384A855B85E881F981EE0FFF1F7A
:103DD000E65EF84F60817181605E7F4F0F2EF3E1E8
:103DE000EF2EF2E0FF2EF02D21E030E086E497E0A8
:103DF0000E94F2384A855B85E881F981EE0FFF1F4A
:103E0000E65EF84F60817181685D7F4F0F2EF3EAA7
:103E1000EF2EF1E0FF2EF02D21E030E086E497E078
:103E20000E94F2384A855B85E881F981EE0FFF1F19
:103E3000E65EF84F60817181605D7F4F0F2EFBED74
:103E4000EF2EF1E0FF2EF02D21E030E086E497E048
:103E50000E94F2384A855B85E881F981EE0FFF1FE9
:103E6000E65EF84F60817181685C7F4F0F2EFBEE3C
:103E7000EF2EF1E0FF2EF02D21E030E086E497E018
:103E80000E94F2384A855B85E881F981EE0FFF1FB9
:103E9000E65EF84F60817181605C7F4F0F2EF3EE1C
:103EA000EF2EF1E0FF2EF02D21E030E086E497E0E8
:103EB0000E94F2384A855B85E881F981EE0FFF1F89
:103EC000E65EF84F60817181685B7F4F0F2EF3E9EA
:103ED000EF2EF1E0FF2EF02D21E030E086E497E0B8
:103EE0000E94F2384A855B85E881F981EE0FFF1F59
:103EF000E65EF84F60817181605B7F4F0F2EF3EBC0
:103F0000EF2EF1E0FF2EF02D21E030E086E497E087
:103F10000E94F2384A855B85E881F981EE0FFF1F28
:103F2000E65EF84F60817181685A7F4F0F2EFBEF7C
:103F3000EF2EF1E0FF2EF02D21E030E086E497E057
:103F40000E94F2384A855B85E881F981EE0FFF1FF8
:103F5000E65EF84F60817181605A7F4F0F2EFBE95A
:103F6000EF2EF1E0FF2EF02D21E030E086E497E027
:103F70000E94F2384A855B85E881F981EE0FFF1FC8
:103F8000E65EF84F6081718168597F4F21E030E033
:103F900086E497E00E94F2386FC4C8E1D7E04A8512
:103FA0005B8508E010E020E130E060E070E086E44E
:103FB00097E00E94A3384A855B85E881F981EE0F7E
:103FC000FF1FE65EF84F608171810F2EF3EAEF2E3E
:103FD000F1E0FF2EF02D21E030E086E497E00E9432
:103FE000F2384A855B85E881F981EE0FFF1FE65EB6
:103FF000F84F60817181685F7F4F0F2EFBEFEF2ECE
:10400000F1E0FF2EF02D21E030E086E497E00E9401
:10401000F2384A855B85E881F981EE0FFF1FE65E85
:10402000F84F60817181605F7F4F0F2EFBE9EF2EAB
:10403000F1E0FF2EF02D21E030E086E497E00E94D1
:10404000F2384A855B85E881F981EE0FFF1FE65E55
:10405000F84F60817181685E7F4F0F2EFBEFEF2E6E
:10406000F1E0FF2EF02D21E030E086E497E00E94A1
:10407000F2384A855B85E881F981EE0FFF1FE65E25
:10408000F84F60817181605E7F4F0F2EF3E9EF2E54
:10409000F1E0FF2EF02D21E030E086E497E00E9471
:1040A000F2384A855B85E881F981EE0FFF1FE65EF5
:1040B000F84F60817181605D7F4F0F2EF3E0EF2E2E
:1040C000F2E0FF2EF02D21E030E086E497E00E9440
:1040D000F2384A855B85E881F981EE0FFF1FE65EC5
:1040E000F84F60817181685C7F4F0F2EFBEFEF2EE0
:1040F000F1E0FF2EF02D21E030E086E497E00E9411
:10410000F2384A855B85E881F981EE0FFF1FE65E94
:10411000F84F60817181605C7F4F0F2EF3E8EF2EC6
:10412000F1E0FF2EF02D21E030E086E497E00E94E0
:10413000F2384A855B85E881F981EE0FFF1FE65E64
:10414000F84F60817181685B7F4F0F2EFBEDEF2E82
:10415000F1E0FF2EF02D21E030E086E497E00E94B0
:10416000F2384A855B85E881F981EE0FFF1FE65E34
:10417000F84F60817181605B7F4F0F2EFBE0EF2E67
:10418000F2E0FF2EF02D21E030E086E497E00E947F
:10419000F2384A855B85E881F981EE0FFF1FE65E04
:1041A000F84F60817181685A7F4F0F2EFBEFEF2E21
:1041B000F1E0FF2EF02D21E030E086E497E00E9450
:1041C000F2385AC3C8E1D7E04A855B8508E010E0C1
:1041D00020E130E060E070E086E497E00E94A338E0
:1041E0004A855B85E881F981EE0FFF1FE65EF84F97
:1041F000608171810F2EFBE1EF2EF2E0FF2EF02D9A
:1042000021E030E086E497E00E94F2384A855B8541
:10421000E881F981EE0FFF1FE65EF84F6081718142
:10422000685F7F4F0F2EF3E0EF2EF2E0FF2EF02DB0
:1042300021E030E086E497E00E94F2384A855B8511
:10424000E881F981EE0FFF1FE65EF84F6081718112
:10425000605F7F4F21E030E086E497E00E94F23813
:104260004A855B85E881F981EE0FFF1FE65EF84F16
:1042700060817181605E7F4F0F2EFBEAEF2EF1E0CF
:10428000FF2EF02D21E030E086E497E00E94F23826
:104290004A855B85E881F981EE0FFF1FE65EF84FE6
:1042A00060817181685D7F4F0F2EFBE7EF2EF1E09B
:1042B000FF2EF02D21E030E086E497E00E94F238F6
:1042C0004A855B85E881F981EE0FFF1FE65EF84FB6
:1042D00060817181605D7F4F0F2EF3EBEF2EF1E077
:1042E000FF2EF02D21E030E086E497E00E94F238C6
:1042F0004A855B85E881F981EE0FFF1FE65EF84F86
:1043000060817181685C7F4F0F2EFBEFEF2EF1E033
:10431000FF2EF02D21E030E086E497E00E94F23895
:104320004A855B85E881F981EE0FFF1FE65EF84F55
:1043300060817181605C7F4F0F2EF3EAEF2EF1E018
:10434000FF2EF02D21E030E086E497E00E94F23865
:1043500093C2C8E1D7E04A855B8508E010E020E120
:1043600030E060E070E086E497E00E94A3384A8580
:104370005B85E881F981EE0FFF1FE65EF84F6081F3
:1043800071810F2EF3E1EF2EF1E0FF2EF02D22E0F0
:1043900030E086E497E00E94F2386EC280914307D5
:1043A000882309F4FCC18091240790912507019688
:1043B000833091050CF4C7C710922507109224078B
:1043C000C4E2D7E04885598508E010E020E130E0FC
:1043D00060E070E086E497E00E94A3384885598544
:1043E000E881F981EE0FFF1FEA5DF84F608171816E
:1043F0000F2EF3E0EF2EF2E0FF2EF02D21E030E063
:1044000086E497E00E94F23848855985E881F98171
:10441000EE0FFF1FEA5DF84F60817181685F7F4F8B
:104420000F2EFBEFEF2EF1E0FF2EF02D21E030E01C
:1044300086E497E00E94F23848855985E881F98141
:10444000EE0FFF1FEA5DF84F60817181605F7F4F63
:104450000F2EF3E8EF2EF1E0FF2EF02D21E030E0FB
:1044600086E497E00E94F23848855985E881F98111
:10447000EE0FFF1FEA5DF84F60817181685E7F4F2C
:104480000F2EFBEDEF2EF1E0FF2EF02D21E030E0BE
:1044900086E497E00E94F23848855985E881F981E1
:1044A000EE0FFF1FEA5DF84F60817181605E7F4F04
:1044B0000F2EFBE0EF2EF2E0FF2EF02D21E030E09A
:1044C00086E497E00E94F23848855985E881F981B1
:1044D000EE0FFF1FEA5DF84F60817181685D7F4FCD
:1044E0000F2EFBEFEF2EF1E0FF2EF02D21E030E05C
:1044F00086E497E00E94F23848855985E881F98181
:10450000EE0FFF1FEA5DF84F60817181685C7F4F9D
:104510000F2EFBEDEF2EF1E0FF2EF02D21E030E02D
:1045200086E497E00E94F23848855985E881F98150
:10453000EE0FFF1FEA5DF84F60817181605C7F4F75
:104540000F2EF3EBEF2EF1E0FF2EF02D21E030E007
:1045500086E497E00E94F23848855985E881F98120
:10456000EE0FFF1FEA5DF84F60817181685B7F4F3E
:104570000F2EF3EFEF2EF1E0FF2EF02D21E030E0D3
:1045800086E497E00E94F23848855985E881F981F0
:10459000EE0FFF1FEA5DF84F60817181605B7F4F16
:1045A0000F2EFBEAEF2EF1E0FF2EF02D21E030E0A0
:1045B00086E497E00E94F2385FC1C4E2D7E0488504
:1045C000598508E010E020E130E060E070E086E42A
:1045D00097E00E94A33848855985E881F981EE0F5C
:1045E000FF1FEA5DF84F608171810F2EFBE8EF2E0F
:1045F000F1E0FF2EF02D21E030E086E497E00E940C
:10460000F23848855985E881F981EE0FFF1FEA5D90
:10461000F84F60817181685F7F4F0F2EFBE9EF2EAD
:10462000F1E0FF2EF02D21E030E086E497E00E94DB
:10463000F23848855985E881F981EE0FFF1FEA5D60
:10464000F84F60817181605F7F4F0F2EFBEFEF2E7F
:10465000F1E0FF2EF02D21E030E086E497E00E94AB
:10466000F23848855985E881F981EE0FFF1FEA5D30
:10467000F84F60817181685E7F4F0F2EF3EAEF2E55
:10468000F1E0FF2EF02D21E030E086E497E00E947B
:10469000F23848855985E881F981EE0FFF1FEA5D00
:1046A000F84F60817181685D7F4F0F2EFBEDEF2E1B
:1046B000F1E0FF2EF02D21E030E086E497E00E944B
:1046C000F23848855985E881F981EE0FFF1FEA5DD0
:1046D000F84F60817181605D7F4F0F2EF3EBEF2EFD
:1046E000F1E0FF2EF02D21E030E086E497E00E941B
:1046F000F23848855985E881F981EE0FFF1FEA5DA0
:10470000F84F60817181685C7F4F0F2EF3EFEF2EC1
:10471000F1E0FF2EF02D21E030E086E497E00E94EA
:10472000F23848855985E881F981EE0FFF1FEA5D6F
:10473000F84F60817181605C7F4F0F2EFBEAEF2E96
:10474000F1E0FF2EF02D21E030E086E497E00E94BA
:10475000F23892C0C4E2D7E04885598508E010E0FD
:1047600020E130E060E070E086E497E00E94A3384A
:1047700048855985E881F981EE0FFF1FEA5DF84F02
:10478000608171810F2EF3E1EF2EF1E0FF2EF02D0D
:1047900022E030E086E497E00E94F2386DC080911C
:1047A0004207882371F01092FB061092FA061092CD
:1047B000420781E08093430786E497E00E940F3828
:1047C0005BC080914107882371F01092F30610922C
:1047D000F2061092410781E08093430786E497E058
:1047E0000E940F3849C0809140078823B1F0809122
:1047F000C2069091C30601968B3091052CF49093DC
:10480000C3068093C20604C01092C3061092C2066B
:1048100080EC96E00E94FC0E2FC080913F07882319
:1048200041F081E08093380710923F070C9400001C
:1048300023C080913E078823F9F08091E40690918F
:10484000E50601968C3091052CF49093E506809353
:10485000E40606C08BE090E09093E5068093E406C2
:1048600084EE96E00E94080A8091E4069091E506A5
:10487000909302018093010181E080933907809138
:104880003807882309F404C51092380781E0809323
:104890000001FEC43723E323FE1708F048C08091CF
:1048A000450781112FC08091000181112BC080919B
:1048B0004407811127C080914307811123C0809153
:1048C0004207882371F01092FB061092FA061092AC
:1048D000420781E08093430786E497E00E940F3807
:1048E00011C080914107882369F01092F30610925D
:1048F000F2061092410781E08093430786E497E037
:104900000E940F3880913B07811103C081E08093A2
:104910003C0781E08093390780913807882309F4A8
:10492000B7C41092380781E080930001B1C46A23B4
:1049300009F4AEC4FF2309F4ABC480914507882372
:1049400009F4A8C3E0910A07F0910B07EB30F105D9
:1049500008F0D9C2EE58FF4F0C94BA39E8E0F7E0FE
:1049600080819181019691838083181619060CF03D
:10497000CAC20F2EFCE0CF2EF7E0DF2EF02DE12C87
:10498000F12CEF0156014E855F854E5F5F4FF601BA
:10499000619171916F0108E010E021E030E086E460
:1049A00097E00E94A3384E855F8541505109F5017B
:1049B0006081718121E030E086E497E00E94A338B5
:1049C00088819981FC01E35DF84F2A812083FFEF04
:1049D000EF1AFF0AE816F906ACF295C2E8E0F7E034
:1049E00080819181019691838083181619060CF0BD
:1049F0008AC20F2EFCE0CF2EF7E0DF2EF02DE12C47
:104A0000F12CEF0156014E855F854E5F5F4FF60139
:104A1000619171916F0108E010E021E030E086E4DF
:104A200097E00E94A3384E855F8541505109F501FA
:104A30006081718121E030E086E497E00E94A33834
:104A400088819981FC01E35DF84F2A812083FFEF83
:104A5000EF1AFF0AE816F906ACF255C2E8E0F7E0F3
:104A600080819181019691838083181619060CF03C
:104A70004AC20F2EFCE0CF2EF7E0DF2EF02DE12C06
:104A8000F12CEF0156014E855F854E5F5F4FF601B9
:104A9000619171916F0108E010E021E030E086E45F
:104AA00097E00E94A3384E855F8541505109F5017A
:104AB0006081718121E030E086E497E00E94A338B4
:104AC00088819981FC01E35DF84F2A812083FFEF03
:104AD000EF1AFF0AE816F906ACF215C2E8E0F7E0B3
:104AE00080819181019691838083181619060CF0BC
:104AF0000AC20F2EFCE0CF2EF7E0DF2EF02DE12CC6
:104B0000F12CEF0156014E855F854E5F5F4FF60138
:104B1000619171916F0108E010E021E030E086E4DE
:104B200097E00E94A3384E855F8541505109F501F9
:104B30006081718121E030E086E497E00E94A33833
:104B400088819981FC01E35DF84F2A812083FFEF82
:104B5000EF1AFF0AE816F906ACF2D5C1E8E0F7E073
:104B600080819181019691838083181619060CF03B
:104B7000CAC10F2EFCE0CF2EF7E0DF2EF02DE12C86
:104B8000F12CEF0156014E855F854E5F5F4FF601B8
:104B9000619171916F0108E010E021E030E086E45E
:104BA00097E00E94A3384E855F8541505109F50179
:104BB0006081718121E030E086E497E00E94A338B3
:104BC00088819981FC01E35DF84F2A812083FFEF02
:104BD000EF1AFF0AE816F906ACF295C1E8E0F7E033
:104BE00080819181019691838083181619060CF0BB
:104BF0008AC10F2EFCE0CF2EF7E0DF2EF02DE12C46
:104C0000F12CEF0156014E855F854E5F5F4FF60137
:104C1000619171916F0108E010E021E030E086E4DD
:104C200097E00E94A3384E855F8541505109F501F8
:104C30006081718121E030E086E497E00E94A33832
:104C400088819981FC01E35DF84F2A812083FFEF81
:104C5000EF1AFF0AE816F906ACF255C1E8E0F7E0F2
:104C600080819181019691838083181619060CF03A
:104C70004AC10F2EFCE0CF2EF7E0DF2EF02DE12C05
:104C8000F12CEF0156014E855F854E5F5F4FF601B7
:104C9000619171916F0108E010E021E030E086E45D
:104CA00097E00E94A3384E855F8541505109F50178
:104CB0006081718121E030E086E497E00E94A338B2
:104CC00088819981FC01E35DF84F2A812083FFEF01
:104CD000EF1AFF0AE816F906ACF215C1E8E0F7E0B2
:104CE00080819181019691838083181619060CF0BA
:104CF0000AC10F2EFCE0CF2EF7E0DF2EF02DE12CC5
:104D0000F12CEF0156014E855F854E5F5F4FF60136
:104D1000619171916F0108E010E021E030E086E4DC
:104D200097E00E94A3384E855F8541505109F501F7
:104D30006081718121E030E086E497E00E94A33831
:104D400088819981FC01E35DF84F2A812083FFEF80
:104D5000EF1AFF0AE816F906ACF2D5C0E8E0F7E072
:104D600080819181019691838083181619060CF039
:104D7000CAC00F2EFCE0CF2EF7E0DF2EF02DE12C85
:104D8000F12CEF0156014E855F854E5F5F4FF601B6
:104D9000619171916F0108E010E021E030E086E45C
:104DA00097E00E94A3384E855F8541505109F50177
:104DB0006081718121E030E086E497E00E94A338B1
:104DC00088819981FC01E35DF84F2A812083FFEF00
:104DD000EF1AFF0AE816F906ACF295C0E8E0F7E032
:104DE00080819181019691838083181619060CF0B9
:104DF0008AC00F2EFCE0CF2EF7E0DF2EF02DE12C45
:104E0000F12CEF0156014E855F854E5F5F4FF60135
:104E1000619171916F0108E010E021E030E086E4DB
:104E200097E00E94A3384E855F8541505109F501F6
:104E30006081718121E030E086E497E00E94A33830
:104E400088819981FC01E35DF84F2A812083FFEF7F
:104E5000EF1AFF0AE816F906ACF255C0C8E0D7E031
:104E60004E855F85E881F981EE0FFF1FE45FF84F03
:104E70006081718108E010E021E030E086E497E095
:104E80000E94A3384E855F854E5F5F4FE881F981B0
:104E9000EE0FFF1FE45FF84F6081718121E030E089
:104EA00086E497E00E94A3384E855F854150510902
:104EB000E881F981EE0FFF1FE45FF84F6081718197
:104EC00021E030E086E497E00E94A3388881998150
:104ED000019799838883992394F41092450781E080
:104EE00080930001198218821B821A8286E497E05F
:104EF0000E940F381982188280E090E068C088E034
:104F000097E00E94AC0280910807909109078530D4
:104F100091050CF45CC080913B0781111EC0A3E396
:104F2000B7E0EEE2F7E080818C93818111968C935B
:104F30001197828112968C931297838113968C938A
:104F40001397848114968C9310821182128213829B
:104F5000148281E080933B072AC091E020913307BF
:104F600080912E07281390E081E030913407209142
:104F70002F07321380E0982381E03091350720918C
:104F80003007321380E0982381E03091360720917A
:104F90003107321380E0892351F081E020913707F7
:104FA00090913207291380E0811110923B0781E034
:104FB0008093000110924507E8E0F7E0118210822B
:104FC0001382128286E497E00E940F3855C1109236
:104FD0000B0710920A0720914507222309F44CC1C0
:104FE000C8E0D7E04E855F85880F991FFC01E45F1C
:104FF000F84F6081718108E010E021E030E086E444
:1050000097E00E94A3384E855F85E881F981EE0F15
:10501000FF1FE45FF84F608171810F2EFBE9EF2ED7
:10502000F5E0FF2EF02D21E030E086E497E00E94CD
:10503000F2384E855F854E5F5F4FE881F981EE0F54
:10504000FF1FE45FF84F608171810F2EF3E3EF2EB5
:10505000F5E0FF2EF02D21E030E086E497E00E949D
:10506000F2384E855F8541505109E881F981EE0F94
:10507000FF1FE45FF84F608171810F2EFBE3EF2E7D
:10508000F5E0FF2EF02D21E030E086E497E00E946D
:10509000F238F2C080910001882359F1809106070F
:1050A000909107078130910581F082309105B9F028
:1050B000892B09F0E1C01092000181E0809345073F
:1050C00086E497E00E940F38D7C01092000181E07B
:1050D0008093440786E497E00E940F38CDC0109279
:1050E000000181E08093430786E497E00E940F3837
:1050F000C3C080914407882309F43FC080911807FA
:105100009091190781309105A1F01CF4892B39F099
:10511000B3C082309105B9F00397F9F0ADC0109299
:10512000440781E080933E0786E497E00E940F38B1
:10513000A3C01092440781E080933F0786E497E084
:105140000E940F3899C01092440781E08093400775
:1051500086E497E00E940F388FC0C8E1D7E019823B
:1051600018821092440781E08093000186E497E062
:105170000E940F38198218827FC0809143078823CC
:1051800089F180912407909125078130910581F064
:1051900082309105B9F0892B09F06EC01092430757
:1051A00081E08093410786E497E00E940F3864C055
:1051B0001092430781E08093420786E497E00E94C3
:1051C0000F385AC0C4E2D7E0198218821092430700
:1051D00081E08093000186E497E00E940F381982F5
:1051E00018824AC080914207882371F01092FB0612
:1051F0001092FA061092420781E08093430786E4FA
:1052000097E00E940F3838C080914107882371F0E1
:105210001092F3061092F2061092410781E08093FB
:10522000430786E497E00E940F3826C0809140072C
:10523000882329F080EC96E00E9417131DC080910E
:105240003F07811119C080913E078823A9F0E4EE41
:10525000F6E08081918190930201809301010C948A
:1052600000001182108281E08093440710923E0773
:1052700086E497E00E940F3881E08093390780919F
:105280003807882329F01092380781E080930001C5
:105290001092BF061092BE061092BD061092BC0678
:1052A0001092BB061092BA0678945DC0E091BA06DF
:1052B00061E06E270C947B1D90931907809318076B
:1052C0008130910511F40C94A81834F4892B11F451
:1052D0000C9469170C941B1D8230910511F40C94E9
:1052E000BD19039711F00C941B1D0C94841A909314
:1052F0002507809324078130910511F40C94BA1B83
:105300008230910511F40C94871C892B11F40C94B4
:10531000BD1A0C941B1D90931907809318078130B8
:10532000910511F40C94CD1F2CF4892B09F0A4CA1B
:105330000C948E1E8230910511F40C94E220039798
:1053400009F407C899CA90932507809324078130F0
:10535000910509F432C98230910509F4FBC9892B02
:1053600009F08ACA2DC8DF91CF911F910F91FF904C
:10537000EF90DF90CF90BF90AF900895E0ECF0E019
:10538000908195FFFDCF8093C6000895CF93DF9362
:10539000EC018881882329F02196F0DF8991811121
:1053A000FCCFDF91CF91089583E18093C4001092E8
:1053B000C500E1ECF0E080818869808386E080931D
:1053C000C20087EA91E60197F1F700C0000087EE7E
:1053D00095E0DCDF8DE0D2DF87EA91E60197F1F717
:1053E00000C000008AEE95E0D1DF8DE0C7DF87EADC
:1053F00091E60197F1F700C000008FEE95E0C6DF5F
:105400008DE0BCDF87EA91E60197F1F700C000006C
:1054100008951F920F920FB60F9211240BB60F92A0
:105420002F938F939F93AF93BF93EF93FF93E0ECF2
:10543000F0E080818823ECF7E1ECF0E0808180836C
:1054400080915006909151062091C600DC01AE5A21
:10545000B94F2C930196909351068093500680810A
:1054600080698083FF91EF91BF91AF919F918F9160
:105470002F910F900BBE0F900FBE0F901F9018959D
:105480001F920F920FB60F9211240BB60F920F932B
:105490001F932F933F934F935F936F937F938F93BC
:1054A0009F93AF93BF93EF93FF9380913C07882323
:1054B000D1F180914C0690914D068436910534F4DB
:1054C000019690934D0680934C0633C080914E0612
:1054D000882381F008E010E021E030E040E050E077
:1054E00068E070E086E497E00E94A3381BB8109251
:1054F0003C070EC008E010E021E030E040E050E062
:1055000068E070E086E497E00E94A33880E88BB9F9
:1055100090914E0681E0892780934E0610924D06A9
:1055200010924C0606C084E690E090934D0680935E
:105530004C0680913A07811128C080914A069091CB
:105540004B068233910594F4019690934B06809319
:105550004A0608E010E021E030E040E050E060E181
:1055600070E086E497E00E94A3380FC008E010E0E6
:1055700021E030E040E050E060E170E086E497E058
:105580000E94A33881E080933A07809139078823ED
:1055900041F010924B0610924A0610923907109271
:1055A0003A07FF91EF91BF91AF919F918F917F91BA
:1055B0006F915F914F913F912F911F910F910F909C
:1055C0000BBE0F900FBE0F901F90189578940F2E62
:1055D000F3E2EF2EF1E0FF2EF02D00E110E024E0E9
:1055E00030E042E050E060E370E086E497E00E9443
:1055F000F2380F2EF3ECEF2EF1E0FF2EF02D08E045
:1056000010E021E030E046E050E068E170E086E440
:1056100097E00E94F2380F2EFBEAEF2EF1E0FF2E0A
:10562000F02D21E030E046E050E060E270E086E4FA
:1056300097E00E94F2380F2EFBE1EF2EF2E0FF2EF2
:10564000F02D21E030E046E050E068E270E086E4D2
:1056500097E00E94F2380F2EF3E0EF2EF2E0FF2EDB
:10566000F02D21E030E046E050E060E370E086E4B9
:1056700097E00E94F2380F2EFBEDEF2EF1E0FF2EA7
:10568000F02D21E030E046E050E068E370E086E491
:1056900097E00E94F2380F2EF3EBEF2EF1E0FF2E91
:1056A000F02D21E030E046E050E060E470E086E478
:1056B00097E00E94F2380F2EFBEEEF2EF1E0FF2E66
:1056C000F02D21E030E046E050E068E470E086E450
:1056D00097E00E94F2380F2EF3E6EF2EF1E0FF2E56
:1056E000F02D21E030E046E050E060E570E086E437
:1056F00097E00E94F23821E030E046E050E068E5B3
:1057000070E086E497E00E94F23821E030E046E065
:1057100050E060E670E086E497E00E94F23886E4AC
:1057200097E00E94F63786E497E00E940F3880E801
:105730008AB9E8E6F0E08081816080838CE3809321
:105740006B00109280008DE0809381008FEF90E0DD
:105750009093890080938800EFE6F0E0808182607A
:10576000808382E086BB2FE78DE89BE52150804057
:105770009040E1F700C0000017DEA3E2B4EF1197FC
:10578000F1F700C000000F2EF0EC6F2E712CF02D01
:1057900055245394412CAA24A394B12C0F2EF4E247
:1057A0002F2EF7E03F2EF02D0F2EF8E18F2EF7E091
:1057B0009F2EF02DC8E0D7E078948091500690910C
:1057C0005106F3013081252D181619060CF0242DF1
:1057D000222309F453C033230CF450C02091B606A1
:1057E0003091B706821B930B0497B4F1952DF90104
:1057F000EE5AF94F81818D3409F0942D852DF901F0
:10580000EE5AF94F4281443509F0842D9823852DB5
:10581000F901EE5AF94F4081433409F0842D892370
:10582000D9F0F901EE5AF94F852D9381993409F099
:10583000842D882389F050924F06B0925106A09291
:1058400050068FEF9FEF9093B7068093B606809136
:105850003B07852580933B078091B6069091B7065C
:1058600001969093B7068093B6068091500690916A
:1058700051060197909351068093500680915006EF
:1058800090915106892B21F41092B7061092B6061A
:105890000E945D1680914507882309F444C04E8517
:1058A0005F854F5F5F4F6C817D810F2EFBE4EF2E94
:1058B000F5E0FF2EF02D08E010E0950186E497E07A
:1058C0000E94F2384E855F854F5F5F4F6E817F810A
:1058D000950186E497E00E94F2384E855F854F5F20
:1058E0005F4F68857985950186E497E00E94F238DC
:1058F0004E855F854F5F5F4F6A857B85950186E4A6
:1059000097E00E94F2384E855F854F5F5F4F6C8550
:105910007D85950186E497E00E94F238CE010E94D1
:10592000AC020C94913680910001882309F4A1C047
:105930000F2EF3EFEF2EF2E0FF2EF02D00E110E03E
:10594000950143E050E066E170E086E497E00E9454
:10595000F2380F2EF3E8EF2EF3E0FF2EF02D950135
:1059600043E050E066E670E086E497E00E94F2389B
:10597000809106079091070781309105F1F18230FF
:10598000910509F458C0892B11F00C94913600E26E
:1059900010E024E030E042E050E062E370E086E4B2
:1059A00097E00E94A33880913B07811112C00F2E0F
:1059B000F3E0EF2EF3E0FF2EF02D24E030E042E0A4
:1059C00050E062E370E086E497E00E94F2380C94C5
:1059D00091360F2EF3E9EF2EF3E0FF2EF02D00E2CB
:1059E00010E024E030E042E050E062E370E086E462
:1059F00097E00E94F2380C94913600E210E024E027
:105A000030E042E050E062E370E086E497E00E941C
:105A1000A3380F2EF3EAEF2EF4E0FF2EF02D24E052
:105A200030E042E050E062E370E086E497E00E94FC
:105A3000F2380C94913600E210E024E030E042E0CD
:105A400050E062E370E086E497E00E94A3380F2EF6
:105A5000F3E1EF2EF4E0FF2EF02D24E030E042E001
:105A600050E062E370E086E497E00E94F2380C9424
:105A7000913680914407882309F4B5C3D4011A965E
:105A80004D915C911B974E5F5F4F0F2EF3EDEF2E04
:105A9000F2E0FF2EF02D08E010E022E030E068E3B5
:105AA00070E086E497E00E94F238F4014285538565
:105AB000425051090F2EF3EEEF2EF2E0FF2EF02DA3
:105AC00022E030E068E370E086E497E00E94F2387C
:105AD00080914407882311F40C949136D4018D9160
