S0110000536D6172744C6F636B2E7372656383
S113000067C000008FC000008DC000008BC00000DE
S11300100C94520D87C0000085C0000083C000000E
S113002081C000007FC000007DC000007BC00000D4
S113003079C0000077C0000075C0000073C00000E4
S113004071C000006FC000006DC000006BC00000F4
S113005069C0000067C0000065C0000063C0000004
S113006061C000005FC000005DC000005BC0000014
S113007059C0000057C0000055C0000053C0000024
S113008051C000004FC000004DC00000C401FA017F
S1130090300266029C02D20208033E037403AA03E0
S11300A0DF0331088E08EB084809A509020A5F0A34
S11300B0BC0A190B760BD30B0C0F450F7E0FB70F31
S11300C0F00F291062109B10D4100D11451140142B
S11300D011241FBECFEFD0E4DEBFCDBF15E0A0E0FA
S11300E0B1E0ECE0FDE200E00BBF02C007900D922E
S11300F0AE35B107D9F729E0AEE5B5E001C01D92F0
S1130100A539B207E1F710E0C8E6D0E004C02197B2
S1130110FE010E947B16C736D107C9F70E942B1334
S11301200C9484166DCFCF93DF93EC01E881F981B1
S11301300190F081E02D0995E881F9810088F18929
S1130140E02DCE010995DF91CF910895DC0114963D
S11301502D913C9115972F5F3F4F233031052CF49F
S113016015963C932E93149703C0FC0115821482B8
S1130170DC01ED91FC910088F189E02D0995089549
S1130180DC0114962D913C911597215031092AF0E8
S113019015963C932E93149705C022E030E0FC01A1
S11301A035832483DC01ED91FC910088F189E02DF5
S11301B009950895DC0114962D913C91159721150C
S11301C0310521F02130310571F0089510920001BC
S11301D021E020939205DC01ED91FC910480F581EE
S11301E0E02D099508951092000121E020939105D6
S11301F0DC01ED91FC910480F581E02D09950895D1
S113020008950895CF93DF93EC01E881F98101907B
S1130210F081E02D0995E881F9810088F189E02DCC
S1130220CE010995DF91CF910895DC0116962D91A9
S11302303C9117972F5F3F4F2B3031052CF41796C5
S11302403C932E93169703C0FC0117821682DC019F
S1130250ED91FC910088F189E02D09950895DC0168
S113026016962D913C911797215031092AF0179633
S11302703C932E93169705C02AE030E0FC013783A7
S11302802683DC01ED91FC910088F189E02D09952C
S113029008950895CF93DF93EC01E881F9810190EB
S11302A0F081E02D0995E881F9810088F189E02D3C
S11302B0CE010995DF91CF910895DC0114962D911B
S11302C03C9115972F5F3F4F253031052CF415963F
S11302D03C932E93149703C0FC0115821482DC0115
S11302E0ED91FC910088F189E02D09950895DC01D8
S11302F014962D913C911597215031092AF01596A9
S11303003C932E93149705C024E030E0FC01358320
S11303102483DC01ED91FC910088F189E02D09959D
S11303200895DC0114962D913C91159723303105E5
S113033031F4ED91FC910484F585E02D099508953F
S1130340CF93DF93EC01E881F9810480F581E02DFE
S113035009951D821C82DF91CF9108950895AF9273
S1130360BF92CF92DF92EF92FF920F931F93CF939E
S1130370DF93EC01EE81FF81EB30F10508F025C23B
S1130380EA5BFF4F0C947B168C819D8101969D83C3
S11303908C83181619060CF018C26E0188E0C80E7A
S11303A0D11CE12CF12C56014A895B894E5F5F4FC9
S11303B0F601619171916F0108E010E021E030E0F5
S11303C083E995E00E9464154A895B89415051098B
S11303D0F5016081718121E030E083E995E00E94BC
S11303E06415FFEFEF1AFF0A8C819D81E816F90668
S11303F0D4F2EBC18C819D8101969D838C83181668
S113040019060CF0E2C16E0188E0C80ED11CE12C83
S1130410F12C56014A895B894E5F5F4FF601619169
S113042071916F0108E010E021E030E083E995E08C
S11304300E9464154A895B8941505109F501608124
S1130440718121E030E083E995E00E946415FFEFBB
S1130450EF1AFF0A8C819D81E816F906D4F2B5C122
S11304608C819D8101969D838C83181619060CF04E
S1130470ACC16E0188E0C80ED11CE12CF12C5601F0
S11304804A895B894E5F5F4FF601619171916F01FB
S113049008E010E021E030E083E995E00E94641573
S11304A04A895B8941505109F5016081718121E0DC
S11304B030E083E995E00E946415FFEFEF1AFF0A2C
S11304C08C819D81E816F906D4F27FC18C819D81CF
S11304D001969D838C83181619060CF076C16E0163
S11304E088E0C80ED11CE12CF12C56014A895B89A5
S11304F04E5F5F4FF601619171916F0108E010E06A
S113050021E030E083E995E00E9464154A895B8923
S113051041505109F5016081718121E030E083E9A6
S113052095E00E946415FFEFEF1AFF0A8C819D810C
S1130530E816F906D4F249C18C819D8101969D8308
S11305408C83181619060CF040C16E0188E0C80EA1
S1130550D11CE12CF12C56014A895B894E5F5F4F17
S1130560F601619171916F0108E010E021E030E043
S113057083E995E00E9464154A895B8941505109D9
S1130580F5016081718121E030E083E995E00E940A
S11305906415FFEFEF1AFF0A8C819D81E816F906B6
S11305A0D4F213C18C819D8101969D838C8318168E
S11305B019060CF00AC16E0188E0C80ED11CE12CAA
S11305C0F12C56014A895B894E5F5F4FF6016191B8
S11305D071916F0108E010E021E030E083E995E0DB
S11305E00E9464154A895B8941505109F501608173
S11305F0718121E030E083E995E00E946415FFEF0A
S1130600EF1AFF0A8C819D81E816F906D4F2DDC049
S11306108C819D8101969D838C83181619060CF09C
S1130620D4C06E0188E0C80ED11CE12CF12C560117
S11306304A895B894E5F5F4FF601619171916F0149
S113064008E010E021E030E083E995E00E946415C1
S11306504A895B8941505109F5016081718121E02A
S113066030E083E995E00E946415FFEFEF1AFF0A7A
S11306708C819D81E816F906D4F2A7C08C819D81F6
S113068001969D838C83181619060CF09EC06E018A
S113069088E0C80ED11CE12CF12C56014A895B89F3
S11306A04E5F5F4FF601619171916F0108E010E0B8
S11306B021E030E083E995E00E9464154A895B8972
S11306C041505109F5016081718121E030E083E9F5
S11306D095E00E946415FFEFEF1AFF0A8C819D815B
S11306E0E816F906D4F271C08C819D8101969D8330
S11306F08C83181619060CF068C06E0188E0C80EC9
S1130700D11CE12CF12C56014A895B894E5F5F4F65
S1130710F601619171916F0108E010E021E030E091
S113072083E995E00E9464154A895B894150510927
S1130730F5016081718121E030E083E995E00E9458
S11307406415FFEFEF1AFF0A8C819D81E816F90604
S1130750D4F23BC08C819D8101969D838C831816B5
S113076019069CF56E0188E0C80ED11CE12CF12C11
S113077056014A895B894E5F5F4FF6016191719121
S11307806F0108E010E021E030E083E995E00E9489
S113079064154A895B8941505109F5016081718171
S11307A021E030E083E995E00E946415FFEFEF1A41
S11307B0FF0A8C819D81E816F906D4F206C0E8810F
S11307C0F9810484F585E02D09958C819D81059737
S11307D06CF081E08093000110929205E881F98128
S11307E00480F581E02DCE01099509C01F821E8287
S11307F0E881F9810088F189E02DCE010995DF9126
S1130800CF911F910F91FF90EF90DF90CF90BF9009
S1130810AF9008950F931F93CF93DF93EC014A8910
S11308205B89EC81FD813496EE0FFF1FE80FF91F01
S11308306081718108E010E021E030E083E995E017
S11308400E9464154A895B894E5F5F4FEC81FD818C
S11308503496EE0FFF1FEC0FFD1F6081718121E0C4
S113086030E083E995E00E9464154A895B89415030
S11308705109EC81FD813496EE0FFF1FEC0FFD1F33
S11308806081718121E030E083E995E00E94641584
S11308908C819D8101979D838C8399237CF4109294
S11308A0920581E080930001E881F9810480F5815B
S11308B0E02DCE0109951D821C8207C0E881F981D3
S11308C00088F189E02DCE010995DF91CF911F9128
S11308D00F910895EF92FF920F931F93CF93DF939D
S11308E0EC0190919105992309F46AC38C819D814F
S11308F08130910509F456C11CF4892B49F060C379
S11309008230910509F46CC2039709F436C358C3C5
S11309104E855F8508E010E020E130E060E070E0A3
S113092083E995E00E9464154E855F85EC81FD8125
S11309303396EE0FFF1FEC0FFD1F608171810F2EA8
S1130940F9E2EF2EF1E0FF2EF02D21E030E083E913
S113095095E00E94B3154E855F85EC81FD81339649
S1130960EE0FFF1FEC0FFD1F60817181685F7F4FE9
S11309700F2EF1E6EF2EF1E0FF2EF02D21E030E016
S113098083E995E00E94B3154E855F85EC81FD8176
S11309903396EE0FFF1FEC0FFD1F60817181605FC6
S11309A07F4F0F2EF1E2EF2EF1E0FF2EF02D21E02C
S11309B030E083E995E00E94B3154E855F85EC81B4
S11309C0FD813396EE0FFF1FEC0FFD1F60817181D7
S11309D0605E7F4F0F2EF9E7EF2EF1E0FF2EF02D32
S11309E021E030E083E995E00E94B3154E855F85F0
S11309F0EC81FD813396EE0FFF1FEC0FFD1F60812C
S1130A007181685D7F4F0F2EF1E3EF2EF1E0FF2E31
S1130A10F02D21E030E083E995E00E94B3154E8586
S1130A205F85EC81FD813396EE0FFF1FEC0FFD1FF8
S1130A3060817181605D7F4F0F2EF9E4EF2EF1E04C
S1130A40FF2EF02D21E030E083E995E00E94B315FC
S1130A504E855F85EC81FD813396EE0FFF1FEC0F11
S1130A60FD1F60817181685C7F4F0F2EF9E5EF2EC9
S1130A70F1E0FF2EF02D21E030E083E995E00E94C3
S1130A80B3154E855F85EC81FD813396EE0FFF1F14
S1130A90EC0FFD1F60817181605C7F4F0F2EF1E5CB
S1130AA0EF2EF1E0FF2EF02D21E030E083E995E018
S1130AB00E94B3154E855F85EC81FD813396EE0F60
S1130AC0FF1FEC0FFD1F60817181685B7F4F0F2E4C
S1130AD0F1E2EF2EF1E0FF2EF02D21E030E083E98A
S1130AE095E00E94B3154E855F85EC81FD813396B8
S1130AF0EE0FFF1FEC0FFD1F60817181605B7F4F64
S1130B000F2EF1E4EF2EF1E0FF2EF02D21E030E086
S1130B1083E995E00E94B3154E855F85EC81FD81E4
S1130B203396EE0FFF1FEC0FFD1F60817181685A31
S1130B307F4F0F2EF1E6EF2EF1E0FF2EF02D21E096
S1130B4030E083E995E00E94B3154E855F85EC8122
S1130B50FD813396EE0FFF1FEC0FFD1F6081718145
S1130B60605A7F4F0F2EF9E2EF2EF1E0FF2EF02DA9
S1130B7021E030E083E995E00E94B3154E855F855E
S1130B808C819D810396880F991FC80FD91F688196
S1130B90798168597F4F21E030E083E995E00E9434
S1130BA0B3150EC24E855F8508E010E020E130E009
S1130BB060E070E083E995E00E9464154E855F85EE
S1130BC0EC81FD813396EE0FFF1FEC0FFD1F60815A
S1130BD071810F2EF1E3EF2EF1E0FF2EF02D21E0D5
S1130BE030E083E995E00E94B3154E855F85EC8182
S1130BF0FD813396EE0FFF1FEC0FFD1F60817181A5
S1130C00685F7F4F0F2EF1E6EF2EF1E0FF2EF02DFF
S1130C1021E030E083E995E00E94B3154E855F85BD
S1130C20EC81FD813396EE0FFF1FEC0FFD1F6081F9
S1130C307181605F7F4F0F2EF9E2EF2EF1E0FF2EFE
S1130C40F02D21E030E083E995E00E94B3154E8554
S1130C505F85EC81FD813396EE0FFF1FEC0FFD1FC6
S1130C6060817181685E7F4F0F2EF1E6EF2EF1E017
S1130C70FF2EF02D21E030E083E995E00E94B315CA
S1130C804E855F85EC81FD813396EE0FFF1FEC0FDF
S1130C90FD1F60817181605E7F4F0F2EF1E2EF2EA8
S1130CA0F1E0FF2EF02D21E030E083E995E00E9491
S1130CB0B3154E855F85EC81FD813396EE0FFF1FE2
S1130CC0EC0FFD1F60817181605D7F4F0F2EF9E68F
S1130CD0EF2EF1E0FF2EF02D21E030E083E995E0E6
S1130CE00E94B3154E855F85EC81FD813396EE0F2E
S1130CF0FF1FEC0FFD1F60817181685C7F4F0F2E19
S1130D00F1E6EF2EF1E0FF2EF02D21E030E083E953
S1130D1095E00E94B3154E855F85EC81FD81339685
S1130D20EE0FFF1FEC0FFD1F60817181605C7F4F30
S1130D300F2EF9E1EF2EF1E0FF2EF02D21E030E04F
S1130D4083E995E00E94B3154E855F85EC81FD81B2
S1130D503396EE0FFF1FEC0FFD1F60817181685BFE
S1130D607F4F0F2EF9E4EF2EF1E0FF2EF02D21E05E
S1130D7030E083E995E00E94B3154E855F85EC81F0
S1130D80FD813396EE0FFF1FEC0FFD1F6081718113
S1130D90605B7F4F0F2EF1E7EF2EF1E0FF2EF02D79
S1130DA021E030E083E995E00E94B3154E855F852C
S1130DB08C819D810396880F991FC80FD91F688164
S1130DC07981685A7F4F0F2EF1E6EF2EF1E0FF2E66
S1130DD0F02D21E030E083E995E00E94B315F0C0E6
S1130DE04E855F8508E010E020E130E060E070E0CF
S1130DF083E995E00E9464154E855F85EC81FD8151
S1130E003396EE0FFF1FEC0FFD1F608171810F2ED3
S1130E10F1E8EF2EF1E0FF2EF02D21E030E083E940
S1130E2095E00E94B3154E855F85EC81FD81339674
S1130E30EE0FFF1FEC0FFD1F60817181685F7F4F14
S1130E400F2EF9E6EF2EF1E0FF2EF02D21E030E039
S1130E5083E995E00E94B3154E855F85EC81FD81A1
S1130E603396EE0FFF1FEC0FFD1F60817181605FF1
S1130E707F4F21E030E083E995E00E94B3154E8571
S1130E805F85EC81FD813396EE0FFF1FEC0FFD1F94
S1130E9060817181605E7F4F0F2EF9E3EF2EF1E0E8
S1130EA0FF2EF02D21E030E083E995E00E94B31598
S1130EB04E855F85EC81FD813396EE0FFF1FEC0FAD
S1130EC0FD1F60817181685D7F4F0F2EF1E1EF2E70
S1130ED0F1E0FF2EF02D21E030E083E995E00E945F
S1130EE0B3154E855F85EC81FD813396EE0FFF1FB0
S1130EF0EC0FFD1F60817181605D7F4F0F2EF1E467
S1130F00EF2EF1E0FF2EF02D21E030E083E995E0B3
S1130F100E94B3154E855F85EC81FD813396EE0FFB
S1130F20FF1FEC0FFD1F60817181685C7F4F0F2EE6
S1130F30F1E6EF2EF1E0FF2EF02D21E030E083E921
S1130F4095E00E94B3154E855F858C819D81039643
S1130F50880F991FC80FD91F68817981605C7F4F02
S1130F600F2EF1E3EF2EF1E0FF2EF02D21E030E023
S1130F7083E995E00E94B31523C04E855F8508E0A0
S1130F8010E020E130E060E070E083E995E00E9449
S1130F9064154E855F858C819D810396880F991F0A
S1130FA0C80FD91F688179810F2EF1E0EF2EF1E08F
S1130FB0FF2EF02D22E030E083E995E00E94B31586
S1130FC0DF91CF911F910F91FF90EF900895EF92D1
S1130FD0FF920F931F93CF93DF93EC014E855F85B0
S1130FE04E5F5F4F0F2EF9E3EF2EF2E0FF2EF02D50
S1130FF008E010E022E030E068E370E083E995E087
S11310000E94B3154E855F85425051090F2EF9E4B5
S1131010EF2EF2E0FF2EF02D22E030E068E370E0E6
S113102083E995E00E94B315DF91CF911F910F9151
S1131030FF90EF900895EF92FF920F931F93CF9339
S1131040DF93EC0190919205992309F408C4EE8191
S1131050FF81EB30F10508F002C4EF5AFF4F0C9406
S11310607B164A895B89EC81FD813496EE0FFF1F64
S1131070EC0FFD1F6081718108E010E021E030E099
S113108083E995E00E9464154A895B89EC81FD81BE
S11310903496EE0FFF1FEC0FFD1F608171810F2E40
S11310A0F1E0EF2EF5E0FF2EF02D21E030E083E9B2
S11310B095E00E94B3154A895B894E5F5F4FEC81CE
S11310C0FD813496EE0FFF1FEC0FFD1F60817181CF
S11310D00F2EF9E9EF2EF4E0FF2EF02D21E030E0A1
S11310E083E995E00E94B3154A895B89415051090F
S11310F08C819D810496880F991FC80FD91F688120
S113110079810F2EF1EAEF2EF4E0FF2EF02D21E08D
S113111030E083E995E00E94B315A1C34A895B8955
S1131120EC81FD813496EE0FFF1FEC0FFD1F6081F3
S1131130718108E010E021E030E083E995E00E944D
S113114064154A895B89EC81FD813496EE0FFF1F9B
S1131150EC0FFD1F608171810F2EF9EFEF2EF4E08B
S1131160FF2EF02D21E030E083E995E00E94B315D5
S11311704A895B894E5F5F4FEC81FD813496EE0FA7
S1131180FF1FEC0FFD1F608171810F2EF9E9EF2E17
S1131190F4E0FF2EF02D21E030E083E995E00E9499
S11311A0B3154A895B89415051098C819D8104960C
S11311B0880F991FC80FD91F688179810F2EF1EA12
S11311C0EF2EF4E0FF2EF02D21E030E083E995E0EE
S11311D00E94B31544C34A895B89EC81FD8134962E
S11311E0EE0FFF1FEC0FFD1F6081718108E010E01E
S11311F021E030E083E995E00E9464154A895B8927
S1131200EC81FD813496EE0FFF1FEC0FFD1F608112
S113121071810F2EF1EFEF2EF4E0FF2EF02D21E07F
S113122030E083E995E00E94B3154A895B894E5FFB
S11312305F4FEC81FD813496EE0FFF1FEC0FFD1F15
S1131240608171810F2EF9E9EF2EF4E0FF2EF02D6D
S113125021E030E083E995E00E94B3154A895B8977
S1131260415051098C819D810496880F991FC80FA4
S1131270D91F688179810F2EF1EAEF2EF4E0FF2E59
S1131280F02D21E030E083E995E00E94B315E7C238
S11312904A895B89EC81FD813496EE0FFF1FEC0FC8
S11312A0FD1F6081718108E010E021E030E083E9F6
S11312B095E00E9464154A895B89EC81FD8134962E
S11312C0EE0FFF1FEC0FFD1F608171810F2EF9EEF1
S11312D0EF2EF4E0FF2EF02D21E030E083E995E0DD
S11312E00E94B3154A895B894E5F5F4FEC81FD8193
S11312F03496EE0FFF1FEC0FFD1F608171810F2EDE
S1131300F9E9EF2EF4E0FF2EF02D21E030E083E93F
S113131095E00E94B3154A895B89415051098C813B
S11313209D810496880F991FC80FD91F6881798100
S11313300F2EF1EAEF2EF4E0FF2EF02D21E030E045
S113134083E995E00E94B3158AC24A895B89EC81DE
S1131350FD813496EE0FFF1FEC0FFD1F608171813C
S113136008E010E021E030E083E995E00E94641594
S11313704A895B89EC81FD813496EE0FFF1FEC0FE7
S1131380FD1F608171810F2EF1EEEF2EF4E0FF2E30
S1131390F02D21E030E083E995E00E94B3154A89FD
S11313A05B894E5F5F4FEC81FD813496EE0FFF1F2A
S11313B0EC0FFD1F608171810F2EF9E9EF2EF4E02F
S11313C0FF2EF02D21E030E083E995E00E94B31573
S11313D04A895B89415051098C819D810496880F0B
S11313E0991FC80FD91F688179810F2EF1EAEF2E5A
S11313F0F4E0FF2EF02D21E030E083E995E00E9437
S1131400B3152DC24A895B89EC81FD813496EE0FB8
S1131410FF1FEC0FFD1F6081718108E010E021E0E7
S113142030E083E995E00E9464154A895B89EC8188
S1131430FD813496EE0FFF1FEC0FFD1F608171815B
S11314400F2EF9EDEF2EF4E0FF2EF02D21E030E029
S113145083E995E00E94B3154A895B894E5F5F4F2B
S1131460EC81FD813496EE0FFF1FEC0FFD1F6081B0
S113147071810F2EF9E9EF2EF4E0FF2EF02D21E01B
S113148030E083E995E00E94B3154A895B894150B5
S113149051098C819D810496880F991FC80FD91F0B
S11314A0688179810F2EF1EAEF2EF4E0FF2EF02D02
S11314B021E030E083E995E00E94B315D0C14A8968
S11314C05B89EC81FD813496EE0FFF1FEC0FFD1F4D
S11314D06081718108E010E021E030E083E995E06B
S11314E00E9464154A895B89EC81FD813496EE0F74
S11314F0FF1FEC0FFD1F608171810F2EF1EDEF2EA8
S1131500F4E0FF2EF02D21E030E083E995E00E9425
S1131510B3154A895B894E5F5F4FEC81FD81349638
S1131520EE0FFF1FEC0FFD1F608171810F2EF9E993
S1131530EF2EF4E0FF2EF02D21E030E083E995E07A
S11315400E94B3154A895B89415051098C819D8160
S11315500496880F991FC80FD91F688179810F2EAF
S1131560F1EAEF2EF4E0FF2EF02D21E030E083E9E4
S113157095E00E94B31573C14A895B89EC81FD81B2
S11315803496EE0FFF1FEC0FFD1F6081718108E0A0
S113159010E021E030E083E995E00E9464154A8977
S11315A05B89EC81FD813496EE0FFF1FEC0FFD1F6C
S11315B0608171810F2EF9ECEF2EF4E0FF2EF02DF7
S11315C021E030E083E995E00E94B3154A895B8904
S11315D04E5F5F4FEC81FD813496EE0FFF1FEC0FE1
S11315E0FD1F608171810F2EF9E9EF2EF4E0FF2ECB
S11315F0F02D21E030E083E995E00E94B3154A899B
S11316005B89415051098C819D810496880F991FF3
S1131610C80FD91F688179810F2EF1EAEF2EF4E00B
S1131620FF2EF02D21E030E083E995E00E94B31510
S113163016C14A895B89EC81FD813496EE0FFF1F48
S1131640EC0FFD1F6081718108E010E021E030E0C3
S113165083E995E00E9464154A895B89EC81FD81E8
S11316603496EE0FFF1FEC0FFD1F608171810F2E6A
S1131670F1ECEF2EF4E0FF2EF02D21E030E083E9D1
S113168095E00E94B3154A895B894E5F5F4FEC81F8
S1131690FD813496EE0FFF1FEC0FFD1F60817181F9
S11316A00F2EF9E9EF2EF4E0FF2EF02D21E030E0CB
S11316B083E995E00E94B3154A895B894150510939
S11316C08C819D810496880F991FC80FD91F68814A
S11316D079810F2EF1EAEF2EF4E0FF2EF02D21E0B8
S11316E030E083E995E00E94B315B9C04A895B896B
S11316F0EC81FD813496EE0FFF1FEC0FFD1F60811E
S1131700718108E010E021E030E083E995E00E9477
S113171064154A895B89EC81FD813496EE0FFF1FC5
S1131720EC0FFD1F608171810F2EF9EBEF2EF4E0B9
S1131730FF2EF02D21E030E083E995E00E94B315FF
S11317404A895B894E5F5F4FEC81FD813496EE0FD1
S1131750FF1FEC0FFD1F608171810F2EF9E9EF2E41
S1131760F4E0FF2EF02D21E030E083E995E00E94C3
S1131770B3154A895B89415051098C819D81049636
S1131780880F991FC80FD91F688179810F2EF1EA3C
S1131790EF2EF4E0FF2EF02D21E030E083E995E018
S11317A00E94B3155CC04A895B89EC81FD81349643
S11317B0EE0FFF1FEC0FFD1F6081718108E010E048
S11317C021E030E083E995E00E9464154A895B8951
S11317D0EC81FD813496EE0FFF1FEC0FFD1F60813D
S11317E071810F2EF9EAEF2EF4E0FF2EF02D21E0A7
S11317F030E083E995E00E94B3154A895B894E5F26
S11318005F4FEC81FD813496EE0FFF1FEC0FFD1F3F
S1131810608171810F2EF9E9EF2EF4E0FF2EF02D97
S113182021E030E083E995E00E94B3154A895B89A1
S1131830415051098C819D810496880F991FC80FCE
S1131840D91F688179810F2EF1EAEF2EF4E0FF2E83
S1131850F02D21E030E083E995E00E94B315DF919B
S1131860CF911F910F91FF90EF900895EF92FF9207
S11318700F931F93CF93DF93EC014A895B894F5FEA
S11318805F4F688579850F2EF1EBEF2EF4E0FF2E84
S1131890F02D08E010E021E030E083E995E00E94BB
S11318A0B3154A895B894F5F5F4F6A857B8521E069
S11318B030E083E995E00E94B3154A895B894F5F64
S11318C05F4F6C857D8521E030E083E995E00E94DF
S11318D0B3154A895B894F5F5F4F6E857F8521E031
S11318E030E083E995E00E94B3154A895B894F5F34
S11318F05F4F6889798921E030E083E995E00E94AF
S1131900B315DF91CF911F910F91FF90EF90089540
S1131910EF92FF920F931F93FC0184819581813094
S11319209105D9F18230910509F454C0892B09F04D
S11319306DC000E210E024E030E042E050E062E3F9
S113194070E083E995E00E946415809190058823F6
S113195089F00F2EF9E6EF2EF2E0FF2EF02D24E0B1
S113196030E042E050E062E370E083E995E00E94F9
S1131970B3154CC00F2EF9EFEF2EF2E0FF2EF02D31
S113198000E210E024E030E042E050E062E370E086
S113199083E995E00E94B31539C000E210E024E029
S11319A030E042E050E062E370E083E995E00E94B9
S11319B064150F2EF9E0EF2EF4E0FF2EF02D24E055
S11319C030E042E050E062E370E083E995E00E9499
S11319D0B3151CC000E210E024E030E042E050E027
S11319E062E370E083E995E00E9464150F2EF9E745
S11319F0EF2EF3E0FF2EF02D24E030E042E050E043
S1131A0062E370E083E995E00E94B3151F910F91A2
S1131A10FF90EF900895EF92FF920F931F930F2E74
S1131A20F9E5EF2EF2E0FF2EF02D00E110E021E0C9
S1131A3030E043E050E06EE170E083E995E00E941D
S1131A40B3150F2EF9EEEF2EF2E0FF2EF02D21E06C
S1131A5030E043E050E06AE670E083E995E00E94FC
S1131A60B3151F910F91FF90EF900895FC0115821B
S1131A7014821092910581E08093000183E995E03E
S1131A8092C70895FC01158214821092920581E098
S1131A908093000183E995E086C7089583E995E082
S1131AA082C708951F920F920FB60F9211240BB69E
S1131AB00F92EF92FF920F931F932F933F934F93A5
S1131AC05F936F937F938F939F93AF93BF93EF93A2
S1131AD0FF93F89480B182FB992790F981E08927DC
S1131AE0909165059817F0F408E010E021E030E0EB
S1131AF040E050E060E070E083E995E0E5D70F2E28
S1131B00F9EFEF2EF4E0FF2EF02D21E030E040E07D
S1131B1050E060E070E083E995E00E94B31581E055
S1131B208093650580B183FB992790F981E089272B
S1131B30909164059817E8F408E010E021E030E0A3
S1131B4040E050E060E070E083E995E0BDD70F2EFF
S1131B50F1EFEF2EF4E0FF2EF02D21E030E040E035
S1131B6050E060E070E083E995E0FDD781E0809388
S1131B70640580B18295817091E089279091630515
S1131B809817E8F408E010E021E030E040E050E08D
S1131B9060E070E083E995E097D70F2EF9EEEF2E21
S1131BA0F4E0FF2EF02D21E030E040E050E060E072
S1131BB070E083E995E0D7D781E08093630580B135
S1131BC085FB992790F981E0892790916205981700
S1131BD0E8F408E010E021E030E040E050E060E0AC
S1131BE070E083E995E070D70F2EF1EEEF2EF4E06C
S1131BF0FF2EF02D21E030E040E050E060E070E0A6
S1131C0083E995E0B0D781E0809362057894FF91F1
S1131C10EF91BF91AF919F918F917F916F915F9160
S1131C204F913F912F911F910F91FF90EF900F9043
S1131C300BBE0F900FBE0F901F901895AF92BF92DE
S1131C40CF92DF92EF92FF920F931F93CF93DF9384
S1131C50509165059091640581E0392F38272091D2
S1131C606305622F6827A32FA623752F7A23B091CB
S1131C706205FB2FF72349F08093610558278B27D2
S1131C8095239223B91748F05FC481E05827952320
S1131C908B27422F4923B41740F491E090936005B9
S1131CA0F091610540E0E1E062C3E091600541E04C
S1131CB04E27F0916105C82FC4237C23F71708F041
S1131CC07BC008E010E021E030E040E050E060E05C
S1131CD070E083E995E0F8D60F2EF1E0EF2EF5E001
S1131CE0FF2EF02D21E030E040E050E060E070E0B5
S1131CF083E995E038D7809192058823E1F08091BB
S1131D0072059091730501972AF09093730580935F
S1131D10720506C08AE090E0909373058093720583
S1131D20E0916C05F0916D050088F189E02D8CE659
S1131D3095E00995FCC3809100018823E1F080912E
S1131D406A0590916B0501972AF090936B05809337
S1131D506A0506C082E090E090936B0580936A0563
S1131D60E0916605F09167050088F189E02D86E62B
S1131D7095E00995DCC380919105882309F4D7C3C4
S1131D80809184059091850501972AF090938505AB
S1131D908093840506C084E090E090938505809349
S1131DA08405E0918005F09181050088F189E02D9A
S1131DB080E895E00995BBC3982396239423F917EB
S1131DC008F0D5C208E010E021E030E040E050E047
S1131DD060E070E083E995E077D60F2EF9EFEF2EFF
S1131DE0F4E0FF2EF02D21E030E040E050E060E030
S1131DF070E083E995E0B7D680919205882309F4D1
S1131E0072C2E0917205F0917305EB30F10508F0B0
S1131E1046C2E45AFF4F6FC7ECE6F5E08481958132
S1131E20019695838483181619060CF038C20F2E78
S1131E30F4E7CF2EF5E0DF2EF02DE12CF12CEF01AD
S1131E4056014A895B894E5F5F4FF601619171913A
S1131E506F0108E010E021E030E083E995E034D63A
S1131E604A895B8941505109F5016081718121E002
S1131E7030E083E995E028D6FFEFEF1AFF0A8C8162
S1131E809D81E816F906E4F20AC2ECE6F5E08481E5
S1131E909581019695838483181619060CF0FFC169
S1131EA00F2EF4E7CF2EF5E0DF2EF02DE12CF12CF0
S1131EB0EF0156014A895B894E5F5F4FF6016191DC
S1131EC071916F0108E010E021E030E083E995E0D2
S1131ED0FBD54A895B8941505109F50160817181C3
S1131EE021E030E083E995E0EFD5FFEFEF1AFF0A38
S1131EF08C819D81E816F906E4F2D1C1ECE6F5E0A7
S1131F0084819581019695838483181619060CF0B3
S1131F10C6C10F2EF4E7CF2EF5E0DF2EF02DE12C15
S1131F20F12CEF0156014A895B894E5F5F4FF60140
S1131F30619171916F0108E010E021E030E083E9E4
S1131F4095E0C2D54A895B8941505109F501608108
S1131F50718121E030E083E995E0B6D5FFEFEF1A17
S1131F60FF0A8C819D81E816F906E4F298C1ECE63B
S1131F70F5E084819581019695838483181619066A
S1131F800CF08DC10F2EF4E7CF2EF5E0DF2EF02DEF
S1131F90E12CF12CEF0156014A895B894E5F5F4FBA
S1131FA0F601619171916F0108E010E021E030E0E9
S1131FB083E995E089D54A895B8941505109F50146
S1131FC06081718121E030E083E995E07DD5FFEF08
S1131FD0EF1AFF0A8C819D81E816F906E4F25FC1CD
S1131FE0ECE6F5E084819581019695838483181647
S1131FF019060CF054C10F2EF4E7CF2EF5E0DF2EB6
S1132000F02DE12CF12CEF0156014A895B894E5FDA
S11320105F4FF601619171916F0108E010E021E0DA
S113202030E083E995E050D54A895B8941505109F4
S1132030F5016081718121E030E083E995E044D5C8
S1132040FFEFEF1AFF0A8C819D81E816F906E4F28E
S113205026C1ECE6F5E0848195810196958384831D
S1132060181619060CF01BC10F2EF4E7CF2EF5E05D
S1132070DF2EF02DE12CF12CEF0156014A895B890A
S11320804E5F5F4FF601619171916F0108E010E0BE
S113209021E030E083E995E017D54A895B89415016
S11320A05109F5016081718121E030E083E995E017
S11320B00BD5FFEFEF1AFF0A8C819D81E816F90614
S11320C0E4F2EDC0ECE6F5E0848195810196958318
S11320D08483181619060CF0E2C00F2EF4E7CF2EF5
S11320E0F5E0DF2EF02DE12CF12CEF0156014A89A9
S11320F05B894E5F5F4FF601619171916F0108E05A
S113210010E021E030E083E995E0DED44A895B8980
S113211041505109F5016081718121E030E083E98A
S113212095E0D2D4FFEFEF1AFF0A8C819D81E81667
S1132130F906E4F2B4C0ECE6F5E0848195810196F9
S113214095838483181619060CF0A9C00F2EF4E7A2
S1132150CF2EF5E0DF2EF02DE12CF12CEF0156010E
S11321604A895B894E5F5F4FF601619171916F01FE
S113217008E010E021E030E083E995E0A5D44A8945
S11321805B8941505109F5016081718121E030E0A2
S113219083E995E099D4FFEFEF1AFF0A8C819D81C2
S11321A0E816F906E4F27BC0ECE6F5E0848195815B
S11321B0019695838483181619060CF070C00F2EAF
S11321C0F4E7CF2EF5E0DF2EF02DE12CF12CEF011A
S11321D056014A895B894E5F5F4FF60161917191A7
S11321E06F0108E010E021E030E083E995E06CD471
S11321F04A895B8941505109F5016081718121E06F
S113220030E083E995E060D4FFEFEF1AFF0A8C8198
S11322109D81E816F906E4F242C0ECE6F5E084811B
S1132220958101969583848318161906C4F50F2E9B
S1132230F4E7CF2EF5E0DF2EF02DE12CF12CEF01A9
S113224056014A895B894E5F5F4FF6016191719136
S11322506F0108E010E021E030E083E995E034D438
S11322604A895B8941505109F5016081718121E0FE
S113227030E083E995E028D4FFEFEF1AFF0A8C8160
S11322809D81E816F906E4F20AC0E0916C05F0912C
S11322906D050484F585E02D8CE695E00995809123
S11322A0700590917105059784F081E08093000199
S11322B010929205E0916C05F0916D050480F58112
S11322C0E02D8CE695E0099532C1ECE6F5E0178245
S11322D016820190F081E02D0088F189E02D8CE6D2
S11322E095E0099524C180910001882349F18091EA
S11322F06A0590916B05009719F0019789F017C151
S11323001092000181E080939205E0916605F091BE
S113231067050480F581E02D86E695E0099507C1FF
S11323201092000181E080939105E0916605F0919F
S113233067050480F581E02D86E695E00995F7C0F0
S113234080919105882309F4F2C0809184059091CD
S11323508505039709F0EBC0E0918005F0918105B4
S11323600484F585E02D80E895E00995E0C03523E7
S1132370982F942329232323F217D8F408E010E09C
S113238021E030E040E050E060E070E083E995E077
S11323909BD30F2EF1EFEF2EF4E0FF2EF02D21E072
S11323A030E040E050E060E070E083E995E0DBD3AA
S11323B0BEC06B2364233623F31708F07BC008E008
S11323C010E021E030E040E050E060E070E083E9BC
S11323D095E07AD30F2EF9EEEF2EF4E0FF2EF02DD8
S11323E021E030E040E050E060E070E083E995E017
S11323F0BAD3809192058823E1F08091720590917F
S1132400730501968B3091052CF49093730580939A
S1132410720504C01092730510927205E0916C0568
S1132420F0916D050088F189E02D8CE695E0099521
S11324307EC0809100018823E1F080916A0590912B
S11324406B050196833091052CF490936B05809372
S11324506A0504C010926B0510926A05E091660546
S1132460F09167050088F189E02D86E695E00995ED
S11324705EC080919105882309F459C08091840538
S1132480909185050196853091052CF490938505EE
S11324908093840504C01092850510928405E09110
S11324A08005F09181050088F189E02D80E895E0B0
S11324B009953DC05823E523FE17D8F408E010E041
S11324C021E030E040E050E060E070E083E995E036
S11324D0FBD20F2EF1EEEF2EF4E0FF2EF02D21E0D3
S11324E030E040E050E060E070E083E995E03BD309
S11324F01EC04A23E1F0FF23D1F008E010E021E000
S113250030E040E050E060E070E083E995E0DCD248
S11325100F2EF9EDEF2EF4E0FF2EF02D21E030E048
S113252040E050E060E070E083E995E01CD3109255
S1132530650510926405109263051092620510926D
S113254061051092600505C0E091600541E04E27E9
S11325500ECFDF91CF911F910F91FF90EF90DF90FD
S1132560CF90BF90AF900895EF92FF920F931F9377
S1132570CF93DF93EC0188819981892B89F40F2E05
S1132580F9E1EF2EF2E0FF2EF02D08E010E024E058
S113259030E040E050E060E670E083E995E0E3D2AB
S11325A088819981019789F40F2EF9EFEF2EF1E0DC
S11325B0FF2EF02D08E010E024E030E040E050E091
S11325C060E670E083E995E0CED288819981029734
S11325D089F40F2EF9EDEF2EF1E0FF2EF02D08E037
S11325E010E024E030E040E050E060E670E083E991
S11325F095E0B9D288819981039789F40F2EF9EB7C
S1132600EF2EF1E0FF2EF02D08E010E024E030E0A2
S113261040E050E060E670E083E995E0A4D2888170
S11326209981049789F40F2EF9E9EF2EF1E0FF2E3A
S1132630F02D08E010E024E030E040E050E060E6F7
S113264070E083E995E08FD2DF91CF911F910F91D4
S1132650FF90EF90089583E995E08CD111B812B8FA
S113266080E88AB91BB88CE380936B00E8E6F0E05D
S11326708081816080830F2EF0E88F2EF5E09F2EFD
S1132680F02D6894772477F80F2EF6E6AF2EF5E058
S1132690BF2EF02D0F2EFCE6CF2EF5E0DF2EF02D11
S11326A07894CCDA80919205882391F0D601ED914B
S11326B0FC910190F081E02DC6010995D601ED91C0
S11326C0FC910088F189E02DC60109951BB83EC034
S11326D080910001882391F0D501ED91FC91019046
S11326E0F081E02DC5010995D501ED91FC9100889B
S11326F0F189E02DC50109951BB828C08091910589
S1132700882321F1D401ED91FC910190F081E02D19
S1132710C4010995D401ED91FC910088F189E02D63
S1132720C40109957BB8BFE322E48FE0B150204097
S11327308040E1F700C000001BB89FE3ADE0B3E0C8
S11327409150A040B040E1F700C0000083B1817017
S1132750C82F20E0D22FCE01199901961A9901961B
S11327601B99019690935F0580935E05892B89F4EC
S11327700F2EF9E1EF2EF2E0FF2EF02D08E010E02D
S113278024E030E040E050E060E670E083E995E06A
S1132790EAD180915E0590915F05019789F40F2E2F
S11327A0F9EFEF2EF1E0FF2EF02D08E010E024E029
S11327B030E040E050E060E670E083E995E0D3D19A
S11327C080915E0590915F05029789F40F2EF9EDD3
S11327D0EF2EF1E0FF2EF02D08E010E024E030E0D1
S11327E040E050E060E670E083E995E0BCD1809180
S11327F05E0590915F05039789F40F2EF9EBEF2E98
S1132800F1E0FF2EF02D08E010E024E030E040E09D
S113281050E060E670E083E995E0A5D180915E0523
S113282090915F05049789F40F2EF9E9EF2EF1E0FA
S1132830FF2EF02D08E010E024E030E040E050E00E
S113284060E670E083E995E08ED10F2EF9E8EF2E73
S1132850F1E0FF2EF02D08E010E022E030E040E04F
S113286050E060E570E083E995E07DD183E995E08F
S113287081D087EA91E60197F1F700C0000010CFFC
S11328800F931F93CF93DF9384E999E019D260E00B
S113289083E995E08FD0C0E8D5E08BE495E0998397
S11328A088831D821C8288E0E9E0F5E0A6E8B5E0B3
S11328B001900D928A95E1F784E090E09F878E87DE
S11328C0CCE6D5E085E395E0998388831D821C825C
S11328D01F821E828AE0E1E1F5E0A4E7B5E0019001
S11328E00D928A95E1F782E090E09B8B8A8BE6E675
S11328F0F5E08FE195E0918380831582148214B80A
S11329008FEF85B983B1082F017010E0C8011999C0
S113291001961A9901961B99019690935F058093ED
S11329205E058EE595E020DEDF91CF911F910F913A
S1132930089580E88093BB0084E88093BC00ECEBAE
S1132940F0E080818823ECF76093BB0084E88093F7
S1132950BC00ECEBF0E080818823ECF708956093F1
S1132960BB0084E88093BC00ECEBF0E0808188231A
S1132970ECF70895EF92FF920F931F93CF93DF9399
S11329808C01EC017C018CEFF81A699170E0C801AC
S1132990E6DFCE15DF05C9F7DF91CF911F910F91C7
S11329A0FF90EF900895FC019C5F1192E817F907DE
S11329B0E1F708950F931F93CF93DF93EC018C01FC
S11329C01C5FC8017DD1C8017CD1C8018BD1C8016D
S11329D07DD168EA70E0CE01ACDF6FE370E0CE0138
S11329E0A8DF63ED70E0CE01A4DF60E070E0CE010B
S11329F0A0DF60E470E0CE019CDF61EA70E0CE010C
S1132A0098DF68EC70E0CE0194DF6AED70E0CE01EF
S1132A1090DF62E170E0CE018CDF61E870E0CE010E
S1132A2088DF6FEF70E0CE0184DF64EA70E0CE01EE
S1132A3080DF66EA70E0CE017CDF65ED70E0CE01F8
S1132A4078DF60E870E0CE0174DF6DE870E0CE01FD
S1132A5070DF64E170E0CE016CDF6FEA70E0CE01FC
S1132A6068DF60E270E0CE0164DF60E070E0CE0118
S1132A7060DF61E270E0CE015CDF60E070E0CE0117
S1132A8058DF6FE770E0CE0154DF62E270E0CE0100
S1132A9050DF60E070E0CE014CDF67E070E0CE0113
S1132AA048DF80E48093BB0084E88093BC00CE01BF
S1132AB07ADF60E070E0CE0152DFCE015BDFDF91B0
S1132AC0CF911F910F910895CF92DF92EF92FF92D1
S1132AD00F931F93CF93DF93EC017B016A01B9013C
S1132AE010161106BCF520E030E0AB01440F551F71
S1132AF0440F551F440F551F4E0D5F1D1616170624
S1132B0024F5C90133230CF407969595879595957B
S1132B108795959587958C0D9D1D9695982F88275B
S1132B2097958795FC01EE0DFF1DEC0FFD1F840F9B
S1132B30951F8C0F9D1FDF0118961192EA17FB0752
S1132B40E1F7FD018A179B07B1F72F5F3F4F02178B
S1132B501307A1F6DF91CF911F910F91FF90EF9092
S1132B60DF90CF9008952F923F924F925F926F9291
S1132B707F928F929F92AF92BF92CF92DF92EF9209
S1132B80FF920F931F93CF93DF9300D000D000D018
S1132B90CDB7DEB79E838D833A0129011801101643
S1132BA011060CF074C03C832B838E2C9F2CC12CFB
S1132BB0D12C0F2EF7E0AF2EB12CF02DC901880FC8
S1132BC0991F880F991F880F991F9B01280F391F80
S1132BD03A832983141415040CF04EC0C60187707F
S1132BE09078992324F40197886F9F6F019685014B
S1132BF0081B190B7601DD201CF497E0E90EF11C8B
S1132C00F594E794F594E794F594E794E60CF71CAF
S1132C10F694FE2CEE24F794E794AB014E0D5F1D61
S1132C202D813E81420F531F89819A81E80EF91E3E
S1132C30E20EF31ED401FA0120E030E08C9190E022
S1132C40022E02C0880F991F0A94E2F78078992710
S1132C50002E02C0959587950A94E2F79081892BFE
S1132C6081932F5F3F4F2830310541F7485F5F4F15
S1132C7011964E155F05F9F63FEFC31AD30A8B81FF
S1132C809C81880E991E2C143D0409F0A3CF26962E
S1132C900FB6F894DEBF0FBECDBFDF91CF911F9169
S1132CA00F91FF90EF90DF90CF90BF90AF909F90E7
S1132CB08F907F906F905F904F903F902F900895EA
S1132CC008951092B8001092B900089588E780938F
S1132CD0BB0084E88093BC00ECEBF0E080818823A7
S1132CE0ECF7089584EA8093BC00ECEBF0E080817B
S1132CF08823ECF70895EE0FFF1F0024001C0BBE81
S10F2D000790F691E02D0994F894FFCFA1
S1132D0C01010003E003F0011818180E7003C00051
S1132D1C00004242425A5A240000424242242418DF
S1132D2C00007E181818181800003E403C02027C63
S1132D3C00007C42427C444200003C664242663CB9
S1132D4C00004262524A464200003C181818183CD3
S1132D5C000042427E42424200003E604040663ED9
S1132D6C00007E407E40407E00007844424244781D
S1132D7C00003E604040603E00007C427C42427C4D
S1132D8C0000183C667E666600E000A00AAE04AA49
S1132D9C0AAAE0AAA0AAAEEEAE3FFFFFFC200000F8
S1132DAC042F0000042F0000042F0000042F000047
S1132DBC04200000043FFFFFFC3FFFFFFC20000049
S1132DCC042F7800042F7800042F7800042F780047
S1132DDC04200000043FFFFFFC3FFFFFFC20000029
S1132DEC042F7BC0042F7BC0042F7BC0042F7BC01B
S1132DFC04200000043FFFFFFC3FFFFFFC20000009
S1132E0C042F7BDE042F7BDE042F7BDE042F7BDE82
S1132E1C04200000043FFFFFFC3FFFFFFC200000E8
S1132E2C042F7BDEF42F7BDEF42F7BDEF42F7BDE92
S1132E3CF4200000043FFFFFFCFFFF7FFE3FFC1F5C
S1132E4CF80FF007E003C00180018003C007E00F16
S1132E5CF01FF83FFC7FFEFFFF0103070F1F3F7FAE
S1132E6CFFFF7F3F1F0F07030100000000000180DC
S1132E7C000007E000001C380000700E0000E007A2
S1132E8C0001C0038001C0038001C0038001C003A2
S1132E9C8001C0038001C003800080038000000314
S1132EAC800000038003FFFFC003FFFFC003FFFF8C
S1132EBCC003FE7FC003FC3FC003FC3FC003FE7F86
S1132ECCC003FE7FC003FC7FC003FE7FC003FFFF73
S1132EDCC003FFFFC0000000000000000000000061
S1132EEC00000000000000000080C0E0F0F8FCFED0
S1132EFCFFFFFEFCF8F0E0C08000000000000000C2
S1132F0C000000000000000000000180000007E049
S1132F1C00001C380000700E0000E0070001C00324
S1132F2C8001C0038001C0038001C0038001C00381
S1132F3C8001C0038003FFFFC003FFFFC003FFFF3A
S1132F4CC003FE7FC003FC3FC003FC3FC003FE7FF5
S1132F5CC003FE7FC003FC7FC003FE7FC003FFFFE2
S1132F6CC003FFFFC00000000000000000000000D0
S1132F7C0000000000000000000000000000000041
S1132F8C00000FF000000FF000000FF000000FF035
S1132F9C00000FF000000FF000000FF000000FF025
S1132FAC0000000000000000000007E0000007E043
S1132FBC000007E0000007E0000007E0000007E065
S1132FCC000007E0000007E0000007E0000007E055
S1132FDC000007E0000007E0000007E0000007E045
S1132FEC000007E0000007E0000007E0000007E035
S1132FFC0000FFFF0000FFFF0000FFFF0000FFFFC9
S113300C000000000000000000000180000003C06C
S113301C000007E0001E0FF0781F9E79F81FFC3F9C
S113302CF81FE007F80F0000F80E07E070060E70AA
S113303C60061818600C300C301C6186383CC3C315
S113304C3C7987E19EF18E719FF18E719F7987E1B6
S113305C9E3CC3C33C1C6186380C300C30061818DB
S113306C60060E70600E07E0700F0000F81FE0079A
S113307CF81FFC3FF81F9E79F81E0FF0780007E04C
S113308C000003C00000000000000000000000006D
S113309C00000000000001800000FF7E3C180000CE
S11330AC00183C7EFF0000000000207E7E260600F7
S11330BC0000007E0000000000003C24243C043C82
S11330CC00003C243C24243C00003C040810202038
S11330DC00003C203C24243C00003C203C04043CE8
S11330EC00002424243C040400003C043C04043C60
S11330FC00003C040418303C000018380808083C54
S113310C00003C242424243C00080010001C00383B
S113311C000C0024003C0054006C00000000000B68
S113312C0D93004E0DA600C000DA000001010188C9
S113313C0C00000000360C0201420D15012F01AFEA
S113314C010A0449011B0800000000E7074A013684
S111315C0D5D0177019101A001AE016A04002E
S9030000FC
