:1000000067C000008FC000008DC000008BC00000E2
:100010000C94231087C0000085C0000083C000003E
:1000200081C000007FC000007DC000007BC00000D8
:1000300079C0000077C0000075C0000073C00000E8
:1000400071C000006FC000006DC000006BC00000F8
:1000500069C0000067C0000065C0000063C0000008
:1000600061C000005FC000005DC000005BC0000018
:1000700059C0000057C0000055C0000053C0000028
:1000800051C000004FC000004DC0000036026C029D
:10009000A202D8020E0344037A03B003E6031C0451
:1000A0005104F20A4F0BAC0B090C660CC30C200D6B
:1000B0007D0DDA0D370E940E41137A13B313EC1342
:1000C00025145E149714D014091542157A153018AA
:1000D00011241FBECFEFD0E4DEBFCDBF15E0A0E0FE
:1000E000B1E0E2E1F5E300E00BBF02C007900D9242
:1000F000A83CB107D9F72AE0A8ECB5E001C01D92F1
:10010000AE30B207E1F710E0C8E6D0E004C02197B6
:10011000FE010E947E1AC736D107C9F70E94CA168F
:100120000C94871A6DCFCF93DF93EC01E881F981AE
:100130000190F081E02D0995E881F9810088F1892D
:10014000E02DCE010995DF91CF910895DC01149641
:100150002D913C9115972F5F3F4F233031052CF4A3
:1001600015963C932E93149703C0FC0115821482BC
:10017000DC01ED91FC910088F189E02D099508954D
:10018000DC0114962D913C911597215031092AF0EC
:1001900015963C932E93149705C022E030E0FC01A5
:1001A00035832483DC01ED91FC910088F189E02DF9
:1001B00009950895DC0114962D913C9115972130F5
:1001C000310589F022303105D9F0232B29F5109221
:1001D000000121E020930B06ED91FC910480F58154
:1001E000E02D099508951092000121E020930A0660
:1001F000DC01ED91FC910480F581E02D09950895D5
:100200001092000121E020930906DC01ED91FC91A0
:100210000480F581E02D0995089508950895CF9300
:10022000DF93EC01E881F9810190F081E02D0995DF
:10023000E881F9810088F189E02DCE010995DF91EF
:10024000CF910895DC0116962D913C9117972F5F61
:100250003F4F2B3031052CF417963C932E93169775
:1002600003C0FC0117821682DC01ED91FC9100882D
:10027000F189E02D09950895DC0116962D913C91A8
:100280001797215031092AF017963C932E93169711
:1002900005C02AE030E0FC0137832683DC01ED91C4
:1002A000FC910088F189E02D099508950895CF9378
:1002B000DF93EC01E881F9810190F081E02D09954F
:1002C000E881F9810088F189E02DCE010995DF915F
:1002D000CF910895DC0114962D913C9115972F5FD5
:1002E0003F4F243031052CF415963C932E931497F0
:1002F00003C0FC0115821482DC01ED91FC910088A1
:10030000F189E02D09950895DC0114962D913C9119
:100310001597215031092AF015963C932E93149786
:1003200005C023E030E0FC0135832483DC01ED913E
:10033000FC910088F189E02D09950895DC0114965F
:100340002D913C9115972330310531F4ED91FC91BD
:100350000484F585E02D09950895CF93DF93EC0192
:10036000E881F9810480F581E02D09951D821C82C8
:10037000DF91CF9108950895CF93DF93EC01E88149
:10038000F9810190F081E02D0995E881F9810088DB
:10039000F189E02DCE010995DF91CF910895DC011F
:1003A00014962D913C9115972F5F3F4F23303105C7
:1003B0002CF415963C932E93149703C0FC011582E0
:1003C0001482DC01ED91FC910088F189E02D099502
:1003D0000895DC0114962D913C9115972150310917
:1003E0002AF015963C932E93149705C022E030E036
:1003F000FC0135832483DC01ED91FC910088F189B7
:10040000E02D09950895DC0114962D913C911597E6
:100410002230310531F4ED91FC910484F585E02D15
:1004200009950895CF93DF93EC01E881F981048069
:10043000F581E02D09951D821C82DF91CF910895F1
:100440000895AF92BF92CF92DF92EF92FF920F93F7
:100450001F93CF93DF93EC01EE81FF81EB30F10529
:1004600008F025C2EA5BFF4F0C947E1A8C819D81B7
:1004700001969D838C83181619060CF018C26E0124
:1004800088E0C80ED11CE12CF12C56014A895B8909
:100490004E5F5F4FF601619171916F0108E010E0CE
:1004A00021E030E08CE096E00E9467194A895B8980
:1004B00041505109F5016081718121E030E08CE00B
:1004C00096E00E946719FFEFEF1AFF0A8C819D8169
:1004D000E816F906D4F2EBC18C819D8101969D83CB
:1004E0008C83181619060CF0E2C16E0188E0C80E64
:1004F000D11CE12CF12C56014A895B894E5F5F4F7C
:10050000F601619171916F0108E010E021E030E0A7
:100510008CE096E00E9467194A895B894150510935
:10052000F5016081718121E030E08CE096E00E946D
:100530006719FFEFEF1AFF0A8C819D81E816F90613
:10054000D4F2B5C18C819D8101969D838C83181650
:1005500019060CF0ACC16E0188E0C80ED11CE12C6C
:10056000F12C56014A895B894E5F5F4FF60161911C
:1005700071916F0108E010E021E030E08CE096E03E
:100580000E9467194A895B8941505109F5016081D0
:10059000718121E030E08CE096E00E946719FFEF66
:1005A000EF1AFF0A8C819D81E816F906D4F27FC10B
:1005B0008C819D8101969D838C83181619060CF001
:1005C00076C16E0188E0C80ED11CE12CF12C5601D9
:1005D0004A895B894E5F5F4FF601619171916F01AE
:1005E00008E010E021E030E08CE096E00E9467191E
:1005F0004A895B8941505109F5016081718121E08F
:1006000030E08CE096E00E946719FFEFEF1AFF0AD6
:100610008C819D81E816F906D4F249C18C819D81B7
:1006200001969D838C83181619060CF040C16E014B
:1006300088E0C80ED11CE12CF12C56014A895B8957
:100640004E5F5F4FF601619171916F0108E010E01C
:1006500021E030E08CE096E00E9467194A895B89CE
:1006600041505109F5016081718121E030E08CE059
:1006700096E00E946719FFEFEF1AFF0A8C819D81B7
:10068000E816F906D4F213C18C819D8101969D83F1
:100690008C83181619060CF00AC16E0188E0C80E8A
:1006A000D11CE12CF12C56014A895B894E5F5F4FCA
:1006B000F601619171916F0108E010E021E030E0F6
:1006C0008CE096E00E9467194A895B894150510984
:1006D000F5016081718121E030E08CE096E00E94BC
:1006E0006719FFEFEF1AFF0A8C819D81E816F90662
:1006F000D4F2DDC08C819D8101969D838C83181678
:1007000019060CF0D4C06E0188E0C80ED11CE12C93
:10071000F12C56014A895B894E5F5F4FF60161916A
:1007200071916F0108E010E021E030E08CE096E08C
:100730000E9467194A895B8941505109F50160811E
:10074000718121E030E08CE096E00E946719FFEFB4
:10075000EF1AFF0A8C819D81E816F906D4F2A7C032
:100760008C819D8101969D838C83181619060CF04F
:100770009EC06E0188E0C80ED11CE12CF12C560100
:100780004A895B894E5F5F4FF601619171916F01FC
:1007900008E010E021E030E08CE096E00E9467196C
:1007A0004A895B8941505109F5016081718121E0DD
:1007B00030E08CE096E00E946719FFEFEF1AFF0A25
:1007C0008C819D81E816F906D4F271C08C819D81DF
:1007D00001969D838C83181619060CF068C06E0173
:1007E00088E0C80ED11CE12CF12C56014A895B89A6
:1007F0004E5F5F4FF601619171916F0108E010E06B
:1008000021E030E08CE096E00E9467194A895B891C
:1008100041505109F5016081718121E030E08CE0A7
:1008200096E00E946719FFEFEF1AFF0A8C819D8105
:10083000E816F906D4F23BC08C819D8101969D8318
:100840008C83181619069CF56E0188E0C80ED11C21
:10085000E12CF12C56014A895B894E5F5F4FF6010E
:10086000619171916F0108E010E021E030E08CE0CF
:1008700096E00E9467194A895B8941505109F50148
:100880006081718121E030E08CE096E00E94671980
:10089000FFEFEF1AFF0A8C819D81E816F906D4F26A
:1008A00006C0E881F9810484F585E02D09958C81E5
:1008B0009D8105976CF081E08093000110920B06FA
:1008C000E881F9810480F581E02DCE01099509C008
:1008D0001F821E82E881F9810088F189E02DCE0116
:1008E0000995DF91CF911F910F91FF90EF90DF90CD
:1008F000CF90BF90AF9008950F931F93CF93DF9346
:10090000EC014A895B89EC81FD813496EE0FFF1F73
:10091000E80FF91F6081718108E010E021E030E00C
:100920008CE096E00E9467194A895B894E5F5F4FB1
:10093000EC81FD813496EE0FFF1FEC0FFD1F6081EF
:10094000718121E030E08CE096E00E9467194A89CD
:100950005B8941505109EC81FD813496EE0FFF1FF8
:10096000EC0FFD1F6081718121E030E08CE096E0AA
:100970000E9467198C819D8101979D838C839923A7
:100980007CF410920B0681E080930001E881F981EC
:100990000480F581E02DCE0109951D821C8207C0DF
:1009A000E881F9810088F189E02DCE010995DF9178
:1009B000CF911F910F910895EF92FF920F931F9384
:1009C000CF93DF93EC0190910906992309F408C2B3
:1009D0008C819D818130910509F40CC18230910593
:1009E00009F4DBC1892B09F0FBC14C855D8508E06A
:1009F00010E020E130E060E070E08CE096E00E94E2
:100A000067194C855D85EC81FD813396EE0FFF1FE4
:100A1000EC0FFD1F608171810F2EF9E7EF2EF1E0E1
:100A2000FF2EF02D21E030E08CE096E00E94B61918
:100A30004C855D85EC81FD813396EE0FFF1FEC0F39
:100A4000FD1F60817181685F7F4F0F2EF1E7EF2EF0
:100A5000F1E0FF2EF02D21E030E08CE096E00E94E6
:100A6000B6194C855D85EC81FD813396EE0FFF1F35
:100A7000EC0FFD1F60817181605F7F4F0F2EF9E1E8
:100A8000EF2EF1E0FF2EF02D21E030E08CE096E03B
:100A90000E94B6194C855D85EC81FD813396EE0F81
:100AA000FF1FEC0FFD1F60817181685E7F4F0F2E6D
:100AB000F1E5EF2EF1E0FF2EF02D21E030E08CE0AB
:100AC00096E00E94B6194C855D85EC81FD813396D8
:100AD000EE0FFF1FEC0FFD1F60817181605E7F4F85
:100AE0000F2EF1E8EF2EF1E0FF2EF02D21E030E0A7
:100AF0008CE096E00E94B6194C855D85EC81FD8105
:100B00003396EE0FFF1FEC0FFD1F60817181685D52
:100B10007F4F0F2EF1E7EF2EF1E0FF2EF02D21E0B9
:100B200030E08CE096E00E94B6194C855D85EC8142
:100B3000FD813396EE0FFF1FEC0FFD1F6081718169
:100B4000685C7F4F0F2EF1E5EF2EF1E0FF2EF02DC8
:100B500021E030E08CE096E00E94B6194C855D857E
:100B6000EC81FD813396EE0FFF1FEC0FFD1F6081BE
:100B70007181605C7F4F0F2EF9E4EF2EF1E0FF2EC4
:100B8000F02D21E030E08CE096E00E94B6194C8513
:100B90005D85EC81FD813396EE0FFF1FEC0FFD1F8D
:100BA00060817181685B7F4F0F2EF9E6EF2EF1E0D7
:100BB000FF2EF02D21E030E08CE096E00E94B61987
:100BC0004C855D858C819D810396880F991FC80F88
:100BD000D91F68817981605B7F4F0F2EF1E4EF2E82
:100BE000F1E0FF2EF02D21E030E08CE096E00E9455
:100BF000B619F6C04C855D8508E010E020E130E0D4
:100C000060E070E08CE096E00E9467194C855D859D
:100C1000EC81FD813396EE0FFF1FEC0FFD1F60810D
:100C200071810F2EF1E2EF2EF1E0FF2EF02D21E089
:100C300030E08CE096E00E94B6194C855D85EC8131
:100C4000FD813396EE0FFF1FEC0FFD1F6081718158
:100C5000685F7F4F0F2EF1E3EF2EF1E0FF2EF02DB6
:100C600021E030E08CE096E00E94B6194C855D856D
:100C7000EC81FD813396EE0FFF1FEC0FFD1F6081AD
:100C80007181605F7F4F0F2EF1E7EF2EF1E0FF2EB5
:100C9000F02D21E030E08CE096E00E94B6194C8502
:100CA0005D85EC81FD813396EE0FFF1FEC0FFD1F7C
:100CB00060817181685E7F4F0F2EF9E3EF2EF1E0C6
:100CC000FF2EF02D21E030E08CE096E00E94B61976
:100CD0004C855D85EC81FD813396EE0FFF1FEC0F97
:100CE000FD1F60817181685D7F4F0F2EF1E5EF2E52
:100CF000F1E0FF2EF02D21E030E08CE096E00E9444
:100D0000B6194C855D85EC81FD813396EE0FFF1F92
:100D1000EC0FFD1F60817181605D7F4F0F2EF9E444
:100D2000EF2EF1E0FF2EF02D21E030E08CE096E098
:100D30000E94B6194C855D85EC81FD813396EE0FDE
:100D4000FF1FEC0FFD1F60817181685C7F4F0F2ECC
:100D5000F9E6EF2EF1E0FF2EF02D21E030E08CE0FF
:100D600096E00E94B6194C855D858C819D81039625
:100D7000880F991FC80FD91F68817981605C7F4FE8
:100D80000F2EF1E4EF2EF1E0FF2EF02D21E030E008
:100D90008CE096E00E94B61923C04C855D8508E082
:100DA00010E020E130E060E070E08CE096E00E942E
:100DB00067194C855D858C819D810396880F991FED
:100DC000C80FD91F688179810F2EF1E0EF2EF1E075
:100DD000FF2EF02D22E030E08CE096E00E94B61964
:100DE000DF91CF911F910F91FF90EF900895EF92B7
:100DF000FF920F931F93CF93DF93EC014C855D859A
:100E00004E5F5F4F0F2EF9E4EF2EF2E0FF2EF02D34
:100E100008E010E022E030E068E370E08CE096E06B
:100E20000E94B6194C855D85425051090F2EF9E597
:100E3000EF2EF2E0FF2EF02D22E030E068E370E0CC
:100E40008CE096E00E94B619DF91CF911F910F912F
:100E5000FF90EF900895EF92FF920F931F93CF931F
:100E6000DF93EC0190910A06992309F46AC38C81FF
:100E70009D818130910509F456C11CF4892B49F0FC
:100E800060C38230910509F46CC2039709F436C33C
:100E900058C34E855F8508E010E020E130E060E057
:100EA00070E08CE096E00E9467194E855F85EC81CA
:100EB000FD813396EE0FFF1FEC0FFD1F60817181E6
:100EC0000F2EF1E3EF2EF1E0FF2EF02D21E030E0C8
:100ED0008CE096E00E94B6194E855F85EC81FD811D
:100EE0003396EE0FFF1FEC0FFD1F60817181685F6D
:100EF0007F4F0F2EF1E7EF2EF1E0FF2EF02D21E0D6
:100F000030E08CE096E00E94B6194E855F85EC815A
:100F1000FD813396EE0FFF1FEC0FFD1F6081718185
:100F2000605F7F4F0F2EF9E2EF2EF1E0FF2EF02DE4
:100F300021E030E08CE096E00E94B6194E855F8596
:100F4000EC81FD813396EE0FFF1FEC0FFD1F6081DA
:100F50007181605E7F4F0F2EF9E8EF2EF1E0FF2EDA
:100F6000F02D21E030E08CE096E00E94B6194E852D
:100F70005F85EC81FD813396EE0FFF1FEC0FFD1FA7
:100F800060817181685D7F4F0F2EF9E3EF2EF1E0F4
:100F9000FF2EF02D21E030E08CE096E00E94B619A3
:100FA0004E855F85EC81FD813396EE0FFF1FEC0FC0
:100FB000FD1F60817181605D7F4F0F2EF1E5EF2E87
:100FC000F1E0FF2EF02D21E030E08CE096E00E9471
:100FD000B6194E855F85EC81FD813396EE0FFF1FBC
:100FE000EC0FFD1F60817181685C7F4F0F2EF1E671
:100FF000EF2EF1E0FF2EF02D21E030E08CE096E0C6
:101000000E94B6194E855F85EC81FD813396EE0F07
:10101000FF1FEC0FFD1F60817181605C7F4F0F2E01
:10102000F9E5EF2EF1E0FF2EF02D21E030E08CE02D
:1010300096E00E94B6194E855F85EC81FD8133965E
:10104000EE0FFF1FEC0FFD1F60817181685B7F4F0A
:101050000F2EF9E2EF2EF1E0FF2EF02D21E030E02F
:101060008CE096E00E94B6194E855F85EC81FD818B
:101070003396EE0FFF1FEC0FFD1F60817181605BE7
:101080007F4F0F2EF9E4EF2EF1E0FF2EF02D21E03F
:1010900030E08CE096E00E94B6194E855F85EC81C9
:1010A000FD813396EE0FFF1FEC0FFD1F60817181F4
:1010B000685A7F4F0F2EF1E7EF2EF1E0FF2EF02D53
:1010C00021E030E08CE096E00E94B6194E855F8505
:1010D000EC81FD813396EE0FFF1FEC0FFD1F608149
:1010E0007181605A7F4F0F2EF1E3EF2EF1E0FF2E5A
:1010F000F02D21E030E08CE096E00E94B6194E859C
:101100005F858C819D810396880F991FC80FD91F19
:101110006881798168597F4F21E030E08CE096E06A
:101120000E94B6190EC24E855F8508E010E020E1EE
:1011300030E060E070E08CE096E00E9467194E8538
:101140005F85EC81FD813396EE0FFF1FEC0FFD1FD5
:10115000608171810F2EF9E3EF2EF1E0FF2EF02D6B
:1011600021E030E08CE096E00E94B6194E855F8564
:10117000EC81FD813396EE0FFF1FEC0FFD1F6081A8
:101180007181685F7F4F0F2EF1E7EF2EF1E0FF2EA8
:10119000F02D21E030E08CE096E00E94B6194E85FB
:1011A0005F85EC81FD813396EE0FFF1FEC0FFD1F75
:1011B00060817181605F7F4F0F2EF1E3EF2EF1E0D0
:1011C000FF2EF02D21E030E08CE096E00E94B61971
:1011D0004E855F85EC81FD813396EE0FFF1FEC0F8E
:1011E000FD1F60817181685E7F4F0F2EF1E7EF2E4A
:1011F000F1E0FF2EF02D21E030E08CE096E00E943F
:10120000B6194E855F85EC81FD813396EE0FFF1F89
:10121000EC0FFD1F60817181605E7F4F0F2EF9E240
:10122000EF2EF1E0FF2EF02D21E030E08CE096E093
:101230000E94B6194E855F85EC81FD813396EE0FD5
:10124000FF1FEC0FFD1F60817181605D7F4F0F2ECE
:10125000F9E7EF2EF1E0FF2EF02D21E030E08CE0F9
:1012600096E00E94B6194E855F85EC81FD8133962C
:10127000EE0FFF1FEC0FFD1F60817181685C7F4FD7
:101280000F2EF1E7EF2EF1E0FF2EF02D21E030E000
:101290008CE096E00E94B6194E855F85EC81FD8159
:1012A0003396EE0FFF1FEC0FFD1F60817181605CB4
:1012B0007F4F0F2EF9E1EF2EF1E0FF2EF02D21E010
:1012C00030E08CE096E00E94B6194E855F85EC8197
:1012D000FD813396EE0FFF1FEC0FFD1F60817181C2
:1012E000685B7F4F0F2EF1E5EF2EF1E0FF2EF02D22
:1012F00021E030E08CE096E00E94B6194E855F85D3
:10130000EC81FD813396EE0FFF1FEC0FFD1F608116
:101310007181605B7F4F0F2EF1E8EF2EF1E0FF2E21
:10132000F02D21E030E08CE096E00E94B6194E8569
:101330005F858C819D810396880F991FC80FD91FE7
:1013400068817981685A7F4F0F2EF1E7EF2EF1E027
:10135000FF2EF02D21E030E08CE096E00E94B619DF
:10136000F0C04E855F8508E010E020E130E060E0ED
:1013700070E08CE096E00E9467194E855F85EC81F5
:10138000FD813396EE0FFF1FEC0FFD1F6081718111
:101390000F2EF1E9EF2EF1E0FF2EF02D21E030E0ED
:1013A0008CE096E00E94B6194E855F85EC81FD8148
:1013B0003396EE0FFF1FEC0FFD1F60817181685F98
:1013C0007F4F0F2EF9E7EF2EF1E0FF2EF02D21E0F9
:1013D00030E08CE096E00E94B6194E855F85EC8186
:1013E000FD813396EE0FFF1FEC0FFD1F60817181B1
:1013F000605F7F4F21E030E08CE096E00E94B619FC
:101400004E855F85EC81FD813396EE0FFF1FEC0F5B
:10141000FD1F60817181605E7F4F0F2EF1E4EF2E22
:10142000F1E0FF2EF02D21E030E08CE096E00E940C
:10143000B6194E855F85EC81FD813396EE0FFF1F57
:10144000EC0FFD1F60817181685D7F4F0F2EF1E110
:10145000EF2EF1E0FF2EF02D21E030E08CE096E061
:101460000E94B6194E855F85EC81FD813396EE0FA3
:10147000FF1FEC0FFD1F60817181605D7F4F0F2E9C
:10148000F9E4EF2EF1E0FF2EF02D21E030E08CE0CA
:1014900096E00E94B6194E855F85EC81FD813396FA
:1014A000EE0FFF1FEC0FFD1F60817181685C7F4FA5
:1014B0000F2EF1E7EF2EF1E0FF2EF02D21E030E0CE
:1014C0008CE096E00E94B6194E855F858C819D81E7
:1014D0000396880F991FC80FD91F68817981605CB6
:1014E0007F4F0F2EF9E3EF2EF1E0FF2EF02D21E0DC
:1014F00030E08CE096E00E94B61923C04E855F85EF
:1015000008E010E020E130E060E070E08CE096E080
:101510000E9467194E855F858C819D810396880F97
:10152000991FC80FD91F688179810F2EF1E0EF2E26
:10153000F1E0FF2EF02D22E030E08CE096E00E94FA
:10154000B619DF91CF911F910F91FF90EF90089501
:10155000EF92FF920F931F93CF93DF93EC014E8591
:101560005F854E5F5F4F0F2EF9E4EF2EF2E0FF2E06
:10157000F02D08E010E022E030E068E370E08CE05D
:1015800096E00E94B6194E855F85425051090F2E94
:10159000F9E5EF2EF2E0FF2EF02D22E030E068E3D7
:1015A00070E08CE096E00E94B619DF91CF911F9118
:1015B0000F91FF90EF900895EF92FF920F931F937A
:1015C000CF93DF93EC0190910B06992309F408C4A3
:1015D000EE81FF81EB30F10508F002C4EF5AFF4FB6
:1015E0000C947E1A4A895B89EC81FD813496EE0F5A
:1015F000FF1FEC0FFD1F6081718108E010E021E00A
:1016000030E08CE096E00E9467194A895B89EC81A2
:10161000FD813496EE0FFF1FEC0FFD1F608171817D
:101620000F2EF1E1EF2EF5E0FF2EF02D21E030E05E
:101630008CE096E00E94B6194A895B894E5F5F4F45
:10164000EC81FD813496EE0FFF1FEC0FFD1F6081D2
:1016500071810F2EF9EAEF2EF4E0FF2EF02D21E03C
:1016600030E08CE096E00E94B6194A895B894150CF
:1016700051098C819D810496880F991FC80FD91F2D
:10168000688179810F2EF1EBEF2EF4E0FF2EF02D23
:1016900021E030E08CE096E00E94B619A1C34A89AF
:1016A0005B89EC81FD813496EE0FFF1FEC0FFD1F6F
:1016B0006081718108E010E021E030E08CE096E08C
:1016C0000E9467194A895B89EC81FD813496EE0F8F
:1016D000FF1FEC0FFD1F608171810F2EF9E0EF2ECF
:1016E000F5E0FF2EF02D21E030E08CE096E00E9446
:1016F000B6194A895B894E5F5F4FEC81FD81349654
:10170000EE0FFF1FEC0FFD1F608171810F2EF9EAB4
:10171000EF2EF4E0FF2EF02D21E030E08CE096E09B
:101720000E94B6194A895B89415051098C819D817B
:101730000496880F991FC80FD91F688179810F2ED1
:10174000F1EBEF2EF4E0FF2EF02D21E030E08CE005
:1017500096E00E94B61944C34A895B89EC81FD81F9
:101760003496EE0FFF1FEC0FFD1F6081718108E0C2
:1017700010E021E030E08CE096E00E9467194A8991
:101780005B89EC81FD813496EE0FFF1FEC0FFD1F8E
:10179000608171810F2EF1E0EF2EF5E0FF2EF02D2C
:1017A00021E030E08CE096E00E94B6194A895B891E
:1017B0004E5F5F4FEC81FD813496EE0FFF1FEC0F03
:1017C000FD1F608171810F2EF9EAEF2EF4E0FF2EEC
:1017D000F02D21E030E08CE096E00E94B6194A89B5
:1017E0005B89415051098C819D810496880F991F16
:1017F000C80FD91F688179810F2EF1EBEF2EF4E02D
:10180000FF2EF02D21E030E08CE096E00E94B6192A
:10181000E7C24A895B89EC81FD813496EE0FFF1F98
:10182000EC0FFD1F6081718108E010E021E030E0E5
:101830008CE096E00E9467194A895B89EC81FD8102
:101840003496EE0FFF1FEC0FFD1F608171810F2E8C
:10185000F9EFEF2EF4E0FF2EF02D21E030E08CE0E8
:1018600096E00E94B6194A895B894E5F5F4FEC8112
:10187000FD813496EE0FFF1FEC0FFD1F608171811B
:101880000F2EF9EAEF2EF4E0FF2EF02D21E030E0EC
:101890008CE096E00E94B6194A895B894150510953
:1018A0008C819D810496880F991FC80FD91F68816C
:1018B00079810F2EF1EBEF2EF4E0FF2EF02D21E0D9
:1018C00030E08CE096E00E94B6198AC24A895B89B2
:1018D000EC81FD813496EE0FFF1FEC0FFD1F608140
:1018E000718108E010E021E030E08CE096E00E9499
:1018F00067194A895B89EC81FD813496EE0FFF1FE1
:10190000EC0FFD1F608171810F2EF1EFEF2EF4E0DF
:10191000FF2EF02D21E030E08CE096E00E94B61919
:101920004A895B894E5F5F4FEC81FD813496EE0FF3
:10193000FF1FEC0FFD1F608171810F2EF9EAEF2E62
:10194000F4E0FF2EF02D21E030E08CE096E00E94E4
:10195000B6194A895B89415051098C819D81049651
:10196000880F991FC80FD91F688179810F2EF1EB5D
:10197000EF2EF4E0FF2EF02D21E030E08CE096E039
:101980000E94B6192DC24A895B89EC81FD8134968B
:10199000EE0FFF1FEC0FFD1F6081718108E010E06A
:1019A00021E030E08CE096E00E9467194A895B896B
:1019B000EC81FD813496EE0FFF1FEC0FFD1F60815F
:1019C00071810F2EF9EEEF2EF4E0FF2EF02D21E0C5
:1019D00030E08CE096E00E94B6194A895B894E5F40
:1019E0005F4FEC81FD813496EE0FFF1FEC0FFD1F62
:1019F000608171810F2EF9EAEF2EF4E0FF2EF02DB9
:101A000021E030E08CE096E00E94B6194A895B89BB
:101A1000415051098C819D810496880F991FC80FF0
:101A2000D91F688179810F2EF1EBEF2EF4E0FF2EA4
:101A3000F02D21E030E08CE096E00E94B619D0C194
:101A40004A895B89EC81FD813496EE0FFF1FEC0F14
:101A5000FD1F6081718108E010E021E030E08CE042
:101A600096E00E9467194A895B89EC81FD81349672
:101A7000EE0FFF1FEC0FFD1F608171810F2EF1EE45
:101A8000EF2EF4E0FF2EF02D21E030E08CE096E028
:101A90000E94B6194A895B894E5F5F4FEC81FD81D8
:101AA0003496EE0FFF1FEC0FFD1F608171810F2E2A
:101AB000F9EAEF2EF4E0FF2EF02D21E030E08CE08B
:101AC00096E00E94B6194A895B89415051098C8180
:101AD0009D810496880F991FC80FD91F688179814D
:101AE0000F2EF1EBEF2EF4E0FF2EF02D21E030E091
:101AF0008CE096E00E94B61973C14A895B89EC813B
:101B0000FD813496EE0FFF1FEC0FFD1F6081718188
:101B100008E010E021E030E08CE096E00E946719D8
:101B20004A895B89EC81FD813496EE0FFF1FEC0F33
:101B3000FD1F608171810F2EF9EDEF2EF4E0FF2E75
:101B4000F02D21E030E08CE096E00E94B6194A8941
:101B50005B894E5F5F4FEC81FD813496EE0FFF1F76
:101B6000EC0FFD1F608171810F2EF9EAEF2EF4E07A
:101B7000FF2EF02D21E030E08CE096E00E94B619B7
:101B80004A895B89415051098C819D810496880F57
:101B9000991FC80FD91F688179810F2EF1EBEF2EA5
:101BA000F4E0FF2EF02D21E030E08CE096E00E9482
:101BB000B61916C14A895B89EC81FD813496EE0F16
:101BC000FF1FEC0FFD1F6081718108E010E021E034
:101BD00030E08CE096E00E9467194A895B89EC81CD
:101BE000FD813496EE0FFF1FEC0FFD1F60817181A8
:101BF0000F2EF1EDEF2EF4E0FF2EF02D21E030E07E
:101C00008CE096E00E94B6194A895B894E5F5F4F6F
:101C1000EC81FD813496EE0FFF1FEC0FFD1F6081FC
:101C200071810F2EF9EAEF2EF4E0FF2EF02D21E066
:101C300030E08CE096E00E94B6194A895B894150F9
:101C400051098C819D810496880F991FC80FD91F57
:101C5000688179810F2EF1EBEF2EF4E0FF2EF02D4D
:101C600021E030E08CE096E00E94B619B9C04A89C4
:101C70005B89EC81FD813496EE0FFF1FEC0FFD1F99
:101C80006081718108E010E021E030E08CE096E0B6
:101C90000E9467194A895B89EC81FD813496EE0FB9
:101CA000FF1FEC0FFD1F608171810F2EF9ECEF2EED
:101CB000F4E0FF2EF02D21E030E08CE096E00E9471
:101CC000B6194A895B894E5F5F4FEC81FD8134967E
:101CD000EE0FFF1FEC0FFD1F608171810F2EF9EADF
:101CE000EF2EF4E0FF2EF02D21E030E08CE096E0C6
:101CF0000E94B6194A895B89415051098C819D81A6
:101D00000496880F991FC80FD91F688179810F2EFB
:101D1000F1EBEF2EF4E0FF2EF02D21E030E08CE02F
:101D200096E00E94B6195CC04A895B89EC81FD810E
:101D30003496EE0FFF1FEC0FFD1F6081718108E0EC
:101D400010E021E030E08CE096E00E9467194A89BB
:101D50005B89EC81FD813496EE0FFF1FEC0FFD1FB8
:101D6000608171810F2EF9EBEF2EF4E0FF2EF02D44
:101D700021E030E08CE096E00E94B6194A895B8948
:101D80004E5F5F4FEC81FD813496EE0FFF1FEC0F2D
:101D9000FD1F608171810F2EF9EAEF2EF4E0FF2E16
:101DA000F02D21E030E08CE096E00E94B6194A89DF
:101DB0005B89415051098C819D810496880F991F40
:101DC000C80FD91F688179810F2EF1EBEF2EF4E057
:101DD000FF2EF02D21E030E08CE096E00E94B61955
:101DE000DF91CF911F910F91FF90EF900895EF92A7
:101DF000FF920F931F93CF93DF93EC014A895B8986
:101E00004F5F5F4F688579850F2EF1ECEF2EF4E080
:101E1000FF2EF02D08E010E021E030E08CE096E0AD
:101E20000E94B6194A895B894F5F5F4F6A857B853F
:101E300021E030E08CE096E00E94B6194A895B8987
:101E40004F5F5F4F6C857D8521E030E08CE096E050
:101E50000E94B6194A895B894F5F5F4F6E857F8507
:101E600021E030E08CE096E00E94B6194A895B8957
:101E70004F5F5F4F6889798921E030E08CE096E020
:101E80000E94B619DF91CF911F910F91FF90EF90B3
:101E90000895EF92FF920F931F93FC018481958127
:101EA00081309105D9F18230910509F454C0892B14
:101EB00009F06DC000E210E024E030E042E050E0C4
:101EC00062E370E08CE096E00E946719809108065A
:101ED000882389F00F2EF9E7EF2EF2E0FF2EF02D88
:101EE00024E030E042E050E062E370E08CE096E015
:101EF0000E94B6194CC00F2EF9E0EF2EF3E0FF2E32
:101F0000F02D00E210E024E030E042E050E062E337
:101F100070E08CE096E00E94B61939C000E210E053
:101F200024E030E042E050E062E370E08CE096E0D4
:101F30000E9467190F2EF9E1EF2EF4E0FF2EF02D2D
:101F400024E030E042E050E062E370E08CE096E0B4
:101F50000E94B6191CC000E210E024E030E042E02C
:101F600050E062E370E08CE096E00E9467190F2E6B
:101F7000F9E8EF2EF3E0FF2EF02D24E030E042E010
:101F800050E062E370E08CE096E00E94B6191F9189
:101F90000F91FF90EF900895EF92FF920F931F9390
:101FA0000F2EF9E6EF2EF2E0FF2EF02D00E110E00B
:101FB00021E030E043E050E06EE170E08CE096E03C
:101FC0000E94B6190F2EF9EFEF2EF2E0FF2EF02D42
:101FD00021E030E043E050E06AE670E08CE096E01B
:101FE0000E94B6191F910F91FF90EF900895FC0188
:101FF000158214821092090681E0809300018CE022
:1020000096E00C94D6180895FC0115821482109263
:102010000A0681E0809300018CE096E00C94D618CB
:102020000895FC011582148210920B0681E08093C2
:1020300000018CE096E00C94D61808958CE096E0B0
:102040000C94D61808951F920F920FB60F92112478
:102050000BB60F92EF92FF920F931F932F933F9324
:102060004F935F936F937F938F939F93AF93BF93A0
:10207000EF93FF93F89480B182FB992790F981E068
:1020800089279091CD059817F8F408E010E021E039
:1020900030E040E050E060E070E08CE096E00E94CC
:1020A00067190F2EF9E0EF2EF5E0FF2EF02D21E05D
:1020B00030E040E050E060E070E08CE096E00E94AC
:1020C000B61981E08093CD0580B183FB992790F903
:1020D00081E089279091CC059817F8F408E010E08A
:1020E00021E030E040E050E060E070E08CE096E01D
:1020F0000E9467190F2EF1E0EF2EF5E0FF2EF02D74
:1021000021E030E040E050E060E070E08CE096E0FC
:102110000E94B61981E08093CC0580B182958170D0
:1021200091E089279091CF059817F8F408E010E026
:1021300021E030E040E050E060E070E08CE096E0CC
:102140000E9467190F2EF9EFEF2EF4E0FF2EF02D0D
:1021500021E030E040E050E060E070E08CE096E0AC
:102160000E94B61981E08093CF0580B185FB992745
:1021700090F981E089279091CE059817F8F408E04E
:1021800010E021E030E040E050E060E070E08CE002
:1021900096E00E9467190F2EF1EFEF2EF4E0FF2E6C
:1021A000F02D21E030E040E050E060E070E08CE0B5
:1021B00096E00E94B61981E08093CE052FE986E86B
:1021C00091E0215080409040E1F700C000007894F9
:1021D000FF91EF91BF91AF919F918F917F916F91FF
:1021E0005F914F913F912F911F910F91FF90EF9031
:1021F0000F900BBE0F900FBE0F901F901895AF92CF
:10220000BF92CF92DF92EF92FF920F931F93CF93E3
:10221000DF935091CF059091CE0581E0392F38277B
:102220002091CD05622F6827A32FA623752F7A232F
:10223000B091CC05FB2FF72349F08093CB055827AD
:102240008B2795239223B91748F0F9C481E05827CA
:1022500095238B27422F4923B41740F491E09093A4
:10226000CA05F091CB0540E0E1E0D9C0E091CA0594
:1022700041E04E27F091CB05C82FC4237C23F717EC
:1022800008F09DC008E010E021E030E040E050E0C0
:1022900060E070E08CE096E00E9467190F2EF1E19B
:1022A000EF2EF5E0FF2EF02D21E030E040E050E091
:1022B00060E070E08CE096E00E94B61980910B0619
:1022C0008823E1F08091DC059091DD0501972AF0EB
:1022D0009093DD058093DC0506C08AE090E0909342
:1022E000DD058093DC05E091D605F091D7050088E7
:1022F000F189E02D86ED95E0099594C48091000167
:102300008823E1F08091D4059091D50501972AF0BA
:102310009093D5058093D40506C082E090E0909319
:10232000D5058093D405E091D005F091D1050088C2
:10233000F189E02D80ED95E0099574C480910A063D
:102340008823E1F08091EE059091EF0501972AF046
:102350009093EF058093EE0506C083E090E09093A4
:10236000EF058093EE05E091EA05F091EB0500881A
:10237000F189E02D8AEE95E0099554C48091090613
:10238000882309F44FC48091FE059091FF050197C1
:102390002AF09093FF058093FE0506C082E090E04E
:1023A0009093FF058093FE05E091FA05F091FB05FF
:1023B0000088F189E02D8AEF95E0099533C49823D0
:1023C00096239423F91758F508E010E021E030E057
:1023D00040E050E060E070E08CE096E078D70F2EAF
:1023E000F9E0EF2EF5E0FF2EF02D21E030E040E0A7
:1023F00050E060E070E08CE096E0B8D7809108068D
:10240000811110C480E88BB92FEB86EC9DE221503E
:1024100080409040E1F700C000001BB803C43523A2
:10242000982F942329232323F21758F508E010E06E
:1024300021E030E040E050E060E070E08CE096E0C9
:1024400046D70F2EF1E0EF2EF5E0FF2EF02D21E024
:1024500030E040E050E060E070E08CE096E086D74D
:10246000809108068111DEC380E88BB9EFEBF6ECB2
:102470002DE2E150F0402040E1F700C000001BB821
:10248000D1C36B2364233623F31708F09BC008E005
:1024900010E021E030E040E050E060E070E08CE0EF
:1024A00096E015D70F2EF9EFEF2EF4E0FF2EF02D6A
:1024B00021E030E040E050E060E070E08CE096E049
:1024C00055D780910B068823E1F08091DC0590912F
:1024D000DD0501968B3091052CF49093DD058093FA
:1024E000DC0504C01092DD051092DC05E091D605F4
:1024F000F091D7050088F189E02D86ED95E00995EA
:1025000091C3809100018823E1F08091D4059091DE
:10251000D5050196833091052CF49093D5058093D1
:10252000D40504C01092D5051092D405E091D005D1
:10253000F091D1050088F189E02D80ED95E00995B5
:1025400071C380910A068823E1F08091EE05909195
:10255000EF050196843091052CF49093EF0580935C
:10256000EE0504C01092EF051092EE05E091EA0529
:10257000F091EB050088F189E02D8AEE95E0099550
:1025800051C380910906882309F44CC38091FE054C
:102590009091FF050196833091052CF49093FF05EF
:1025A0008093FE0504C01092FF051092FE05E09195
:1025B000FA05F091FB050088F189E02D8AEF95E09E
:1025C000099530C35823E523FE1758F508E010E0BD
:1025D00021E030E040E050E060E070E08CE096E028
:1025E00076D60F2EF1EFEF2EF4E0FF2EF02D21E046
:1025F00030E040E050E060E070E08CE096E0B6D67D
:102600008091080681110EC380E88BB98FEB96ECA0
:10261000EDE281509040E040E1F700C000001BB8BF
:1026200001C34A2309F4FEC2FF2309F4FBC208E0F8
:1026300010E021E030E040E050E060E070E08CE04D
:1026400096E045D60F2EF9EEEF2EF4E0FF2EF02D9A
:1026500021E030E040E050E060E070E08CE096E0A7
:1026600085D680910B06882309F472C2E091DC05BF
:10267000F091DD05EB30F10508F046C2E45AFF4F5A
:102680003DC7E6EDF5E084819581019695838483CD
:10269000181619060CF038C20F2EFEEDCF2EF5E0FD
:1026A000DF2EF02DE12CF12CEF0156014A895B89D8
:1026B0004E5F5F4FF601619171916F0108E010E08C
:1026C00021E030E08CE096E002D64A895B894150F7
:1026D0005109F5016081718121E030E08CE096E0E4
:1026E000F6D5FFEFEF1AFF0A8C819D81E816F906F7
:1026F000E4F20AC2E6EDF5E08481958101969583C6
:102700008483181619060CF0FFC10F2EFEEDCF2E94
:10271000F5E0DF2EF02DE12CF12CEF0156014A8976
:102720005B894E5F5F4FF601619171916F0108E027
:1027300010E021E030E08CE096E0C9D54A895B8961
:1027400041505109F5016081718121E030E08CE058
:1027500096E0BDD5FFEFEF1AFF0A8C819D81E81648
:10276000F906E4F2D1C1E6EDF5E0848195810196A8
:1027700095838483181619060CF0C6C10F2EFEED42
:10278000CF2EF5E0DF2EF02DE12CF12CEF015601DC
:102790004A895B894E5F5F4FF601619171916F01CC
:1027A00008E010E021E030E08CE096E090D54A8926
:1027B0005B8941505109F5016081718121E030E070
:1027C0008CE096E084D5FFEFEF1AFF0A8C819D81A3
:1027D000E816F906E4F298C1E6EDF5E0848195810A
:1027E000019695838483181619060CF08DC10F2E5F
:1027F000FEEDCF2EF5E0DF2EF02DE12CF12CEF01D8
:1028000056014A895B894E5F5F4FF6016191719174
:102810006F0108E010E021E030E08CE096E057D551
:102820004A895B8941505109F5016081718121E03C
:1028300030E08CE096E04BD5FFEFEF1AFF0A8C8179
:102840009D81E816F906E4F25FC1E6EDF5E08481CA
:102850009581019695838483181619060CF054C14E
:102860000F2EFEEDCF2EF5E0DF2EF02DE12CF12C1A
:10287000EF0156014A895B894E5F5F4FF601619116
:1028800071916F0108E010E021E030E08CE096E00B
:102890001ED54A895B8941505109F50160817181DA
:1028A00021E030E08CE096E012D5FFEFEF1AFF0A4E
:1028B0008C819D81E816F906E4F226C1E6EDF5E08B
:1028C00084819581019695838483181619060CF0EE
:1028D0001BC10F2EFEEDCF2EF5E0DF2EF02DE12CEB
:1028E000F12CEF0156014A895B894E5F5F4FF6017B
:1028F000619171916F0108E010E021E030E08CE01F
:1029000096E0E5D44A895B8941505109F50160811F
:10291000718121E030E08CE096E0D9D4FFEFEF1A2E
:10292000FF0A8C819D81E816F906E4F2EDC0E6ED20
:10293000F5E08481958101969583848318161906A4
:102940000CF0E2C00F2EFEEDCF2EF5E0DF2EF02DC5
:10295000E12CF12CEF0156014A895B894E5F5F4FF4
:10296000F601619171916F0108E010E021E030E023
:102970008CE096E0ACD44A895B8941505109F5015D
:102980006081718121E030E08CE096E0A0D4FFEF1F
:10299000EF1AFF0A8C819D81E816F906E4F2B4C0B3
:1029A000E6EDF5E084819581019695838483181680
:1029B00019060CF0A9C00F2EFEEDCF2EF5E0DF2E8C
:1029C000F02DE12CF12CEF0156014A895B894E5F15
:1029D0005F4FF601619171916F0108E010E021E015
:1029E00030E08CE096E073D44A895B89415051090C
:1029F000F5016081718121E030E08CE096E067D4E0
:102A0000FFEFEF1AFF0A8C819D81E816F906E4F2C8
:102A10007BC0E6EDF5E08481958101969583848302
:102A2000181619060CF070C00F2EFEEDCF2EF5E033
:102A3000DF2EF02DE12CF12CEF0156014A895B8944
:102A40004E5F5F4FF601619171916F0108E010E0F8
:102A500021E030E08CE096E03AD44A895B8941502D
:102A60005109F5016081718121E030E08CE096E050
:102A70002ED4FFEFEF1AFF0A8C819D81E816F9062C
:102A8000E4F242C0E6EDF5E08481958101969583FC
:102A9000848318161906C4F50F2EFEEDCF2EF5E02F
:102AA000DF2EF02DE12CF12CEF0156014A895B89D4
:102AB0004E5F5F4FF601619171916F0108E010E088
:102AC00021E030E08CE096E002D44A895B894150F5
:102AD0005109F5016081718121E030E08CE096E0E0
:102AE000F6D3FFEFEF1AFF0A8C819D81E816F906F5
:102AF000E4F20AC0E091D605F091D7050484F5858B
:102B0000E02D86ED95E009958091DA059091DB0541
:102B1000059784F081E08093000110920B06E0910C
:102B2000D605F091D7050480F581E02D86ED95E07E
:102B3000099578C0E6EDF5E0178216820190F081E4
:102B4000E02D0088F189E02D86ED95E009956AC0B9
:102B5000809100018823E9F18091D4059091D505F9
:102B600081309105B1F08230910519F1892B09F07E
:102B700059C01092000181E080930B06E091D005CE
:102B8000F091D1050480F581E02D80ED95E0099567
:102B900049C01092000181E080930A06E091D005BF
:102BA000F091D1050480F581E02D80ED95E0099547
:102BB00039C01092000181E080930906E091D005B0
:102BC000F091D1050480F581E02D80ED95E0099527
:102BD00029C080910A06882389F08091EE059091A2
:102BE000EF050397F9F4E091EA05F091EB05048411
:102BF000F585E02D8AEE95E0099514C080910906CF
:102C0000882381F08091FE059091FF05029751F491
:102C1000E091FA05F091FB050484F585E02D8AEF3B
:102C200095E009951092CF051092CE051092CD0532
:102C30001092CC051092CB051092CA0505C0E09108
:102C4000CA0541E04E27EBCBDF91CF911F910F9149
:102C5000FF90EF90DF90CF90BF90AF900895EF92EC
:102C6000FF920F931F93CF93DF93EC01888199819B
:102C7000892B89F40F2EF9E2EF2EF2E0FF2EF02DD2
:102C800008E010E024E030E040E050E060E670E072
:102C90008CE096E06BD388819981019789F40F2E9F
:102CA000F9E0EF2EF2E0FF2EF02D08E010E024E036
:102CB00030E040E050E060E670E08CE096E056D313
:102CC00088819981029789F40F2EF9EEEF2EF1E0B9
:102CD000FF2EF02D08E010E024E030E040E050E06E
:102CE00060E670E08CE096E041D38881998103979B
:102CF00089F40F2EF9ECEF2EF1E0FF2EF02D08E015
:102D000010E024E030E040E050E060E670E08CE06D
:102D100096E02CD388819981049789F40F2EF9EAE3
:102D2000EF2EF1E0FF2EF02D08E010E024E030E07F
:102D300040E050E060E670E08CE096E017D3DF9171
:102D4000CF911F910F91FF90EF90089580E18093B4
:102D5000C4001092C500E1ECF0E0808188698083B6
:102D600086E08093C2000895E0ECF0E0908195FF4A
:102D7000FDCF8093C6000895CF93DF93EC01888147
:102D8000882329F02196F0DF89918111FCCFDF9112
:102D9000CF91089578948CE096E0EFD18FEF81B9D0
:102DA00012B880E88AB98CE380936B00E8E6F0E023
:102DB000808181608083CADF2FE38DE093E0215022
:102DC00080409040E1F700C00000AFE3BDE023E0A9
:102DD000A150B0402040E1F700C0000081E395E041
:102DE000CBDF8DE0C1DF8FE39DE0A3E08150904019
:102DF000A040E1F700C0000084E395E0BDDF8DE076
:102E0000B3DFBFE32DE083E0B15020408040E1F725
:102E100000C000008EE395E0AFDF8DE0A5DF9FE30B
:102E2000ADE0B3E09150A040B040E1F700C0000039
:102E300084E595E0A1DF2FE38DE093E02150804011
:102E40009040E1F700C000008AE18EDFAFE3BDE013
:102E500023E0A150B0402040E1F700C000000F2E59
:102E6000FAEF6F2EF5E07F2EF02D0F2EFAEE8F2E5B
:102E7000F5E09F2EF02D0F2EF0EDAF2EF5E0BF2EDA
:102E8000F02D0F2EF6EDCF2EF5E0DF2EF02D7894FD
:102E9000B6D980910B06882389F0D601ED91FC917B
:102EA0000190F081E02DC6010995D601ED91FC91CC
:102EB0000088F189E02DC60109953EC0809100018E
:102EC000882389F0D501ED91FC910190F081E02DEE
:102ED000C5010995D501ED91FC910088F189E02D9E
:102EE000C501099529C080910A06882389F0D4017B
:102EF000ED91FC910190F081E02DC4010995D40180
:102F0000ED91FC910088F189E02DC401099514C070
:102F100080910906882381F0D301ED91FC91019005
:102F2000F081E02DC3010995D301ED91FC9100885A
:102F3000F189E02DC301099583B18170C82FB0E0FC
:102F4000DB2FCE01199901961A9901961B990196CA
:102F50009093C9058093C805892B89F40F2EF9E257
:102F6000EF2EF2E0FF2EF02D08E010E024E030E03C
:102F700040E050E060E670E08CE096E0F7D18091B0
:102F8000C8059091C905019789F40F2EF9E0EF2E3D
:102F9000F2E0FF2EF02D08E010E024E030E040E009
:102FA00050E060E670E08CE096E0E0D18091C805EA
:102FB0009091C905029789F40F2EF9EEEF2EF1E0FA
:102FC000FF2EF02D08E010E024E030E040E050E07B
:102FD00060E670E08CE096E0C9D18091C8059091E0
:102FE000C905039789F40F2EF9ECEF2EF1E0FF2EBF
:102FF000F02D08E010E024E030E040E050E060E632
:1030000070E08CE096E0B2D18091C8059091C9053E
:10301000049789F40F2EF9EAEF2EF1E0FF2EF02D40
:1030200008E010E024E030E040E050E060E670E0CE
:103030008CE096E09BD10F2EF9E9EF2EF1E0FF2E08
:10304000F02D08E010E022E030E040E050E060E5E4
:1030500070E08CE096E08AD18CE096E08ED017CFBD
:103060000F931F93CF93DF938DE09AE02CD260E013
:103070008CE096E0A2D0CAEFD5E085EB95E099838D
:1030800088831D821C8286E0E9E1F5E0A0E0B6E0DD
:1030900001900D928A95E1F784E090E09D878C87FE
:1030A000CAEED5E02FE935E0398328831D821C82E2
:1030B00028E0EFE1F5E0A0EFB5E001900D922A9550
:1030C000E1F79F878E87C6EDD5E089E895E0998383
:1030D00088831D821C821F821E828AE0E7E2F5E05F
:1030E000AEEDB5E001900D928A95E1F782E090E0B7
:1030F0009B8B8A8BE0EDF5E083E795E091838083FD
:103100001582148214B88FEF85B983B1082F01702E
:1031100010E0C801199901961A9901961B99019618
:103120009093C9058093C80588EC95E098DDDF9100
:10313000CF911F910F91089580E88093BB0084E8A0
:103140008093BC00ECEBF0E080818823ECF7609387
:10315000BB0084E88093BC00ECEBF0E08081882326
:10316000ECF708956093BB0084E88093BC00ECEB1F
:10317000F0E080818823ECF70895EF92FF920F939F
:103180001F93CF93DF938C01EC017C018CEFF81A35
:10319000699170E0C801E6DFCE15DF05C9F7DF9160
:1031A000CF911F910F91FF90EF900895FC019C5FCC
:1031B0001192E817F907E1F708950F931F93CF9342
:1031C000DF93EC018C011C5FC8017DD1C8017CD16B
:1031D000C8018BD1C8017DD168EA70E0CE01ACDFB7
:1031E0006FE370E0CE01A8DF63ED70E0CE01A4DFF5
:1031F00060E070E0CE01A0DF60E470E0CE019CDF13
:1032000061EA70E0CE0198DF68EC70E0CE0194DFF7
:103210006AED70E0CE0190DF62E170E0CE018CDFFC
:1032200061E870E0CE0188DF6FEF70E0CE0184DFEF
:1032300064EA70E0CE0180DF66EA70E0CE017CDFF8
:1032400065ED70E0CE0178DF60E870E0CE0174DFFC
:103250006DE870E0CE0170DF64E170E0CE016CDFFC
:103260006FEA70E0CE0168DF60E270E0CE0164DFFB
:1032700060E070E0CE0160DF61E270E0CE015CDF13
:1032800060E070E0CE0158DF6FE770E0CE0154DF00
:1032900062E270E0CE0150DF60E070E0CE014CDF12
:1032A00067E070E0CE0148DF80E48093BB0084E8F3
:1032B0008093BC00CE017ADF60E070E0CE0152DF87
:1032C000CE015BDFDF91CF911F910F910895CF92D7
:1032D000DF92EF92FF920F931F93CF93DF93EC0156
:1032E0007B016A01B90110161106BCF520E030E03F
:1032F000AB01440F551F440F551F440F551F4E0D72
:103300005F1D1616170624F5C90133230CF4079622
:103310009595879595958795959587958C0D9D1D88
:103320009695982F882797958795FC01EE0DFF1DA0
:10333000EC0FFD1F840F951F8C0F9D1FDF0118964A
:103340001192EA17FB07E1F7FD018A179B07B1F716
:103350002F5F3F4F02171307A1F6DF91CF911F9107
:103360000F91FF90EF90DF90CF9008952F923F92B2
:103370004F925F926F927F928F929F92AF92BF9285
:10338000CF92DF92EF92FF920F931F93CF93DF9331
:1033900000D000D000D0CDB7DEB79E838D833A0138
:1033A00029011801101611060CF074C03C832B8300
:1033B0008E2C9F2CC12CD12C0F2EF7E0AF2EB12CD0
:1033C000F02DC901880F991F880F991F880F991F29
:1033D0009B01280F391F3A832983141415040CF01C
:1033E0004EC0C60187709078992324F40197886FA6
:1033F0009F6F01968501081B190B7601DD201CF4D7
:1034000097E0E90EF11CF594E794F594E794F594B0
:10341000E794E60CF71CF694FE2CEE24F794E79460
:10342000AB014E0D5F1D2D813E81420F531F8981DF
:103430009A81E80EF91EE20EF31ED401FA0120E093
:1034400030E08C9190E0022E02C0880F991F0A9400
:10345000E2F780789927002E02C0959587950A9407
:10346000E2F79081892B81932F5F3F4F2830310500
:1034700041F7485F5F4F11964E155F05F9F63FEF34
:10348000C31AD30A8B819C81880E991E2C143D048B
:1034900009F0A3CF26960FB6F894DEBF0FBECDBFBE
:1034A000DF91CF911F910F91FF90EF90DF90CF9020
:1034B000BF90AF909F908F907F906F905F904F9054
:1034C0003F902F90089508951092B8001092B9007F
:1034D000089588E78093BB0084E88093BC00ECEB00
:1034E000F0E080818823ECF7089584EA8093BC00A3
:1034F000ECEBF0E080818823ECF70895EE0FFF1FDE
:103500000024001C0BBE0790F691E02D0994F8945E
:02351000FFCFEB
:1035120001010003E003F0011818180E7003C00047
:1035220000004242425A5A240000424242242418D5
:10353200000042424242423C00007E18181818180D
:1035420000003E403C02027C00007C42427C44423D
:1035520000003C664242663C00004262524A4642D9
:1035620000003C181818183C000042427E424242B9
:1035720000003E604040663E00007E407E4040408B
:1035820000007E407E40407E000078444242447803
:1035920000003E604040603E00007C427C42427C33
:1035A2000000183C667E666600E000A000AE00AE39
:1035B20000AEE0AEE0AEEEEEEE3FFFFFFC2000001C
:1035C200042F0000042F0000042F0000042F00002D
:1035D20004200000043FFFFFFC3FFFFFFC2000002F
:1035E200042F7800042F7800042F7800042F78002D
:1035F20004200000043FFFFFFC3FFFFFFC2000000F
:10360200042F7BC0042F7BC0042F7BC0042F7BC000
:1036120004200000043FFFFFFC3FFFFFFC200000EE
:10362200042F7BDE042F7BDE042F7BDE042F7BDE68
:1036320004200000043FFFFFFC3FFFFFFC200000CE
:10364200042F7BDEF42F7BDEF42F7BDEF42F7BDE78
:10365200F4200000043FFFFFFCFFFF7FFE3FFC1F42
:10366200F80FF007E003C00180018003C007E00FFC
:10367200F01FF83FFC7FFEFFFF0103070F1F3F7F94
:10368200FFFF7F3F1F0F07030100000000000180C2
:10369200000007E000001C380000700E0000E00788
:1036A2000001C0038001C0038001C0038001C00388
:1036B2008001C0038001C0038000800380000003FA
:1036C200800000038003FFFFC003FFFFC003FFFF72
:1036D200C003FE7FC003FC3FC003FC3FC003FE7F6C
:1036E200C003FE7FC003FC7FC003FE7FC003FFFF59
:1036F200C003FFFFC0000000000000000000000047
:1037020000000000000000000080C0E0F0F8FCFEB5
:10371200FFFFFEFCF8F0E0C08000000000000000A7
:10372200000000000000000000000180000007E02F
:1037320000001C380000700E0000E0070001C0030A
:103742008001C0038001C0038001C0038001C00367
:103752008001C0038003FFFFC003FFFFC003FFFF20
:10376200C003FE7FC003FC3FC003FC3FC003FE7FDB
:10377200C003FE7FC003FC7FC003FE7FC003FFFFC8
:10378200C003FFFFC00000000000000000000000B6
:103792000000000000000000000000000000000027
:1037A20000000FF000000FF000000FF000000FF01B
:1037B20000000FF000000FF000000FF000000FF00B
:1037C2000000000000000000000007E0000007E029
:1037D200000007E0000007E0000007E0000007E04B
:1037E200000007E0000007E0000007E0000007E03B
:1037F200000007E0000007E0000007E0000007E02B
:10380200000007E0000007E0000007E0000007E01A
:103812000000FFFF0000FFFF0000FFFF0000FFFFAE
:10382200000000000000000000000180000003C052
:10383200000007E0001E0FF0781F9E79F81FFC3F82
:10384200F81FE007F80F0000F80E07E070060E7090
:1038520060061818600C300C301C6186383CC3C3FB
:103862003C7987E19EF18E719FF18E719F7987E19C
:103872009E3CC3C33C1C6186380C300C30061818C1
:1038820060060E70600E07E0700F0000F81FE00780
:10389200F81FFC3FF81F9E79F81E0FF0780007E032
:1038A200000003C000000000000000000000000053
:1038B20000000000000001800000FF7E3C180000B4
:1038C20000183C7EFF0000000000207E7E260600DD
:1038D2000000007E0000000000003C24243C043C68
:1038E20000003C243C24243C00003C04081020201E
:1038F20000003C203C24243C00003C203C04043CCE
:1039020000002424243C040400003C043C04043C45
:1039120000003C040418303C000018380808083C39
:1039220000003C242424243C001800200036000817
:103932000010001C0038000C0024003C0054006CF5
:103942000041540041542B434D47463D3100415400
:103952002B434D47533D22383932363037353537D0
:1039620032352200535441525445442C2052454191
:10397200445920544F20434F4E54524F4C4C000058
:10398200000000CC0F93001E10A600C000DA000D4C
:10399200010E01490F00000000F70E0F0111102265
:1039A200013C0121027C045601DC0A00000000A84F
:1039B2000A570104106A0184019E01AD01BB012B6B
:1039C2000700000000F706BC01F70FCF01E9010371
:0839D2000212022002DC0400D5
:00000001FF
