:1000000072C000009AC0000098C0000096C00000B6
:100010000C94280992C0000090C000008EC000001F
:100020008CC000008AC0000088C0000086C00000AC
:1000300084C0000082C0000080C000007EC00000BC
:100040007CC000007AC0000078C0000076C00000CC
:1000500074C0000072C0000070C000006EC00000DC
:100060006CC000006AC0000068C0000066C00000EC
:1000700064C0000062C0000060C000005EC00000FC
:100080005CC000005AC0000058C0000057018D013C
:10009000C301F9012F0265029B02D10207033D0350
:1000A000720313047004CD042A058705E405410694
:1000B0009E06FB065807B507540A8D0AC60AFF0AB2
:1000C000380B710BAA0BE30B1C0C550C8D0CA90DF6
:1000D000E20D1B0E540E8D0EC60EFF0E380F710F63
:1000E000AA0FE20F991011241FBECFEFD0E4DEBF9C
:1000F000CDBF13E0A0E0B1E0E8E6F5E200E00BBF21
:1001000002C007900D92A83FB107D9F728E0A8EFE9
:10011000B3E001C01D92AC31B207E1F710E0C3E7D4
:10012000D0E004C02197FE010E94A912C237D10776
:10013000C9F70E9446100C94B21262CFCF93DF939E
:10014000EC01E881F9810190F081E02D0995E881C9
:10015000F9810088F189E02DCE010995DF91CF91D9
:100160000895DC0114962D913C9115972F5F3F4F18
:10017000233031052CF415963C932E93149703C02D
:10018000FC0115821482DC01ED91FC910088F1895B
:10019000E02D09950895DC0114962D913C91159759
:1001A000215031092AF015963C932E93149705C0DF
:1001B00022E030E0FC0135832483DC01ED91FC91E9
:1001C0000088F189E02D09950895DC0114962D91A0
:1001D0003C911597232B59F41092000121E02093B4
:1001E0001904ED91FC910480F581E02D09950895A5
:1001F00008950895CF93DF93EC01E881F981019090
:10020000F081E02D0995E881F9810088F189E02DE0
:10021000CE010995DF91CF910895DC0116962D91BD
:100220003C9117972F5F3F4F2B3031052CF41796D9
:100230003C932E93169703C0FC0117821682DC01B3
:10024000ED91FC910088F189E02D09950895DC017C
:1002500016962D913C911797215031092AF0179647
:100260003C932E93169705C02AE030E0FC013783BB
:100270002683DC01ED91FC910088F189E02D099540
:1002800008950895AF92BF92CF92DF92EF92FF92BE
:100290000F931F93CF93DF93EC01EE81FF81EB303F
:1002A000F10508F025C2EA5BFF4F0C94A9128C817E
:1002B0009D8101969D838C83181619060CF018C237
:1002C0006E0188E0C80ED11CE12CF12C56014A8940
:1002D0005B894E5F5F4FF601619171916F0108E09C
:1002E00010E021E030E08AE194E00E9492114A8916
:1002F0005B8941505109F5016081718121E030E055
:100300008AE194E00E949211FFEFEF1AFF0A8C81BC
:100310009D81E816F906D4F2EBC18C819D8101968E
:100320009D838C83181619060CF0E2C16E0188E0DB
:10033000C80ED11CE12CF12C56014A895B894E5F15
:100340005F4FF601619171916F0108E010E021E0CB
:1003500030E08AE194E00E9492114A895B89415021
:100360005109F5016081718121E030E08AE194E07A
:100370000E949211FFEFEF1AFF0A8C819D81E8160F
:10038000F906D4F2B5C18C819D8101969D838C8341
:10039000181619060CF0ACC16E0188E0C80ED11C0D
:1003A000E12CF12C56014A895B894E5F5F4FF601C3
:1003B000619171916F0108E010E021E030E08AE185
:1003C00094E00E9492114A895B8941505109F501DC
:1003D0006081718121E030E08AE194E00E94921115
:1003E000FFEFEF1AFF0A8C819D81E816F906D4F21F
:1003F0007FC18C819D8101969D838C83181619067F
:100400000CF076C16E0188E0C80ED11CE12CF12CF5
:1004100056014A895B894E5F5F4FF6016191719188
:100420006F0108E010E021E030E08AE194E00E94F2
:1004300092114A895B8941505109F50160817181AE
:1004400021E030E08AE194E00E949211FFEFEF1A80
:10045000FF0A8C819D81E816F906D4F249C18C818E
:100460009D8101969D838C83181619060CF040C15E
:100470006E0188E0C80ED11CE12CF12C56014A898E
:100480005B894E5F5F4FF601619171916F0108E0EA
:1004900010E021E030E08AE194E00E9492114A8964
:1004A0005B8941505109F5016081718121E030E0A3
:1004B0008AE194E00E949211FFEFEF1AFF0A8C810B
:1004C0009D81E816F906D4F213C18C819D810196B5
:1004D0009D838C83181619060CF00AC16E0188E002
:1004E000C80ED11CE12CF12C56014A895B894E5F64
:1004F0005F4FF601619171916F0108E010E021E01A
:1005000030E08AE194E00E9492114A895B8941506F
:100510005109F5016081718121E030E08AE194E0C8
:100520000E949211FFEFEF1AFF0A8C819D81E8165D
:10053000F906D4F2DDC08C819D8101969D838C8368
:10054000181619060CF0D4C06E0188E0C80ED11C34
:10055000E12CF12C56014A895B894E5F5F4FF60111
:10056000619171916F0108E010E021E030E08AE1D3
:1005700094E00E9492114A895B8941505109F5012A
:100580006081718121E030E08AE194E00E94921163
:10059000FFEFEF1AFF0A8C819D81E816F906D4F26D
:1005A000A7C08C819D8101969D838C8318161906A6
:1005B0000CF09EC06E0188E0C80ED11CE12CF12C1D
:1005C00056014A895B894E5F5F4FF60161917191D7
:1005D0006F0108E010E021E030E08AE194E00E9441
:1005E00092114A895B8941505109F50160817181FD
:1005F00021E030E08AE194E00E949211FFEFEF1ACF
:10060000FF0A8C819D81E816F906D4F271C08C81B5
:100610009D8101969D838C83181619060CF068C085
:100620006E0188E0C80ED11CE12CF12C56014A89DC
:100630005B894E5F5F4FF601619171916F0108E038
:1006400010E021E030E08AE194E00E9492114A89B2
:100650005B8941505109F5016081718121E030E0F1
:100660008AE194E00E949211FFEFEF1AFF0A8C8159
:100670009D81E816F906D4F23BC08C819D810196DC
:100680009D838C83181619069CF56E0188E0C80EB0
:10069000D11CE12CF12C56014A895B894E5F5F4FDA
:1006A000F601619171916F0108E010E021E030E006
:1006B0008AE194E00E9492114A895B894150510974
:1006C000F5016081718121E030E08AE194E00E94CF
:1006D0009211FFEFEF1AFF0A8C819D81E816F9064F
:1006E000D4F206C0E881F9810484F585E02D0995EE
:1006F0008C819D8105976CF081E0809300011092C0
:100700001904E881F9810480F581E02DCE01099575
:1007100009C01F821E82E881F9810088F189E02DDD
:10072000CE010995DF91CF911F910F91FF90EF902E
:10073000DF90CF90BF90AF9008950F931F93CF930A
:10074000DF93EC014A895B89EC81FD813496EE0FE1
:10075000FF1FE80FF91F6081718108E010E021E0C0
:1007600030E08AE194E00E9492114A895B894E5FF1
:100770005F4FEC81FD813496EE0FFF1FEC0FFD1FE4
:100780006081718121E030E08AE194E00E94921161
:100790004A895B8941505109EC81FD813496EE0F05
:1007A000FF1FEC0FFD1F6081718121E030E08AE1C5
:1007B00094E00E9492118C819D8101979D838C838E
:1007C00099237CF41092190481E080930001E88160
:1007D000F9810480F581E02DCE0109951D821C82EE
:1007E00007C0E881F9810088F189E02DCE010995E3
:1007F000DF91CF911F910F910895EF92FF920F9388
:100800001F93CF93DF93EC0190911904992309F47E
:1008100008C4EE81FF81EB30F10508F002C4EF5A05
:10082000FF4F0C94A9124A895B89EC81FD813496B3
:10083000EE0FFF1FEC0FFD1F6081718108E010E0DB
:1008400021E030E08AE194E00E9492114A895B89BC
:10085000EC81FD813496EE0FFF1FEC0FFD1F6081D0
:1008600071810F2EF9EBEF2EF3E0FF2EF02D21E03A
:1008700030E08AE194E00E94E1114A895B894E5F91
:100880005F4FEC81FD813496EE0FFF1FEC0FFD1FD3
:10089000608171810F2EF1E5EF2EF3E0FF2EF02D38
:1008A00021E030E08AE194E00E94E1114A895B890D
:1008B000415051098C819D810496880F991FC80F62
:1008C000D91F688179810F2EF9E5EF2EF3E0FF2E15
:1008D000F02D21E030E08AE194E00E94E111A1C313
:1008E0004A895B89EC81FD813496EE0FFF1FEC0F86
:1008F000FD1F6081718108E010E021E030E08AE1B5
:1009000094E00E9492114A895B89EC81FD813496C2
:10091000EE0FFF1FEC0FFD1F608171810F2EF1EBB9
:10092000EF2EF3E0FF2EF02D21E030E08AE194E09D
:100930000E94E1114A895B894E5F5F4FEC81FD8126
:100940003496EE0FFF1FEC0FFD1F608171810F2E9B
:10095000F1E5EF2EF3E0FF2EF02D21E030E08AE10B
:1009600094E00E94E1114A895B89415051098C81D0
:100970009D810496880F991FC80FD91F68817981BE
:100980000F2EF9E5EF2EF3E0FF2EF02D21E030E001
:100990008AE194E00E94E11144C34A895B89EC81B9
:1009A000FD813496EE0FFF1FEC0FFD1F60817181FA
:1009B00008E010E021E030E08AE194E00E9492112A
:1009C0004A895B89EC81FD813496EE0FFF1FEC0FA5
:1009D000FD1F608171810F2EF9EAEF2EF3E0FF2EEB
:1009E000F02D21E030E08AE194E00E94E1114A8993
:1009F0005B894E5F5F4FEC81FD813496EE0FFF1FE8
:100A0000EC0FFD1F608171810F2EF1E5EF2EF3E0F9
:100A1000FF2EF02D21E030E08AE194E00E94E11108
:100A20004A895B89415051098C819D810496880FC8
:100A3000991FC80FD91F688179810F2EF9E5EF2E14
:100A4000F3E0FF2EF02D21E030E08AE194E00E94F7
:100A5000E111E7C24A895B89EC81FD813496EE0F92
:100A6000FF1FEC0FFD1F6081718108E010E021E0A5
:100A700030E08AE194E00E9492114A895B89EC811E
:100A8000FD813496EE0FFF1FEC0FFD1F6081718119
:100A90000F2EF1EAEF2EF3E0FF2EF02D21E030E0F3
:100AA0008AE194E00E94E1114A895B894E5F5F4FC1
:100AB000EC81FD813496EE0FFF1FEC0FFD1F60816E
:100AC00071810F2EF1E5EF2EF3E0FF2EF02D21E0E6
:100AD00030E08AE194E00E94E1114A895B8941504B
:100AE00051098C819D810496880F991FC80FD91FC9
:100AF000688179810F2EF9E5EF2EF3E0FF2EF02DBE
:100B000021E030E08AE194E00E94E1118AC24A8942
:100B10005B89EC81FD813496EE0FFF1FEC0FFD1F0A
:100B20006081718108E010E021E030E08AE194E02A
:100B30000E9492114A895B89EC81FD813496EE0F07
:100B4000FF1FEC0FFD1F608171810F2EF9E9EF2E61
:100B5000F3E0FF2EF02D21E030E08AE194E00E94E6
:100B6000E1114A895B894E5F5F4FEC81FD813496CC
:100B7000EE0FFF1FEC0FFD1F608171810F2EF1E55D
:100B8000EF2EF3E0FF2EF02D21E030E08AE194E03B
:100B90000E94E1114A895B89415051098C819D81F4
:100BA0000496880F991FC80FD91F688179810F2E6D
:100BB000F9E5EF2EF3E0FF2EF02D21E030E08AE1A1
:100BC00094E00E94E1112DC24A895B89EC81FD818C
:100BD0003496EE0FFF1FEC0FFD1F6081718108E05E
:100BE00010E021E030E08AE194E00E9492114A890D
:100BF0005B89EC81FD813496EE0FFF1FEC0FFD1F2A
:100C0000608171810F2EF1E9EF2EF3E0FF2EF02DC0
:100C100021E030E08AE194E00E94E1114A895B8999
:100C20004E5F5F4FEC81FD813496EE0FFF1FEC0F9E
:100C3000FD1F608171810F2EF1E5EF2EF3E0FF2E95
:100C4000F02D21E030E08AE194E00E94E1114A8930
:100C50005B89415051098C819D810496880F991FB1
:100C6000C80FD91F688179810F2EF9E5EF2EF3E0C7
:100C7000FF2EF02D21E030E08AE194E00E94E111A6
:100C8000D0C14A895B89EC81FD813496EE0FFF1F4C
:100C9000EC0FFD1F6081718108E010E021E030E081
:100CA0008AE194E00E9492114A895B89EC81FD817E
:100CB0003496EE0FFF1FEC0FFD1F608171810F2E28
:100CC000F9E8EF2EF3E0FF2EF02D21E030E08AE18D
:100CD00094E00E94E1114A895B894E5F5F4FEC818D
:100CE000FD813496EE0FFF1FEC0FFD1F60817181B7
:100CF0000F2EF1E5EF2EF3E0FF2EF02D21E030E096
:100D00008AE194E00E94E1114A895B8941505109CE
:100D10008C819D810496880F991FC80FD91F688107
:100D200079810F2EF9E5EF2EF3E0FF2EF02D21E073
:100D300030E08AE194E00E94E11173C14A895B8945
:100D4000EC81FD813496EE0FFF1FEC0FFD1F6081DB
:100D5000718108E010E021E030E08AE194E00E9437
:100D600092114A895B89EC81FD813496EE0FFF1F59
:100D7000EC0FFD1F608171810F2EF1E8EF2EF3E083
:100D8000FF2EF02D21E030E08AE194E00E94E11195
:100D90004A895B894E5F5F4FEC81FD813496EE0F8F
:100DA000FF1FEC0FFD1F608171810F2EF1E5EF2E0B
:100DB000F3E0FF2EF02D21E030E08AE194E00E9484
:100DC000E1114A895B89415051098C819D810496CA
:100DD000880F991FC80FD91F688179810F2EF9E5F7
:100DE000EF2EF3E0FF2EF02D21E030E08AE194E0D9
:100DF0000E94E11116C14A895B89EC81FD8134961C
:100E0000EE0FFF1FEC0FFD1F6081718108E010E005
:100E100021E030E08AE194E00E9492114A895B89E6
:100E2000EC81FD813496EE0FFF1FEC0FFD1F6081FA
:100E300071810F2EF9E7EF2EF3E0FF2EF02D21E068
:100E400030E08AE194E00E94E1114A895B894E5FBB
:100E50005F4FEC81FD813496EE0FFF1FEC0FFD1FFD
:100E6000608171810F2EF1E5EF2EF3E0FF2EF02D62
:100E700021E030E08AE194E00E94E1114A895B8937
:100E8000415051098C819D810496880F991FC80F8C
:100E9000D91F688179810F2EF9E5EF2EF3E0FF2E3F
:100EA000F02D21E030E08AE194E00E94E111B9C028
:100EB0004A895B89EC81FD813496EE0FFF1FEC0FB0
:100EC000FD1F6081718108E010E021E030E08AE1DF
:100ED00094E00E9492114A895B89EC81FD813496ED
:100EE000EE0FFF1FEC0FFD1F608171810F2EF1E7E8
:100EF000EF2EF3E0FF2EF02D21E030E08AE194E0C8
:100F00000E94E1114A895B894E5F5F4FEC81FD8150
:100F10003496EE0FFF1FEC0FFD1F608171810F2EC5
:100F2000F1E5EF2EF3E0FF2EF02D21E030E08AE135
:100F300094E00E94E1114A895B89415051098C81FA
:100F40009D810496880F991FC80FD91F68817981E8
:100F50000F2EF9E5EF2EF3E0FF2EF02D21E030E02B
:100F60008AE194E00E94E1115CC04A895B89EC81CE
:100F7000FD813496EE0FFF1FEC0FFD1F6081718124
:100F800008E010E021E030E08AE194E00E94921154
:100F90004A895B89EC81FD813496EE0FFF1FEC0FCF
:100FA000FD1F608171810F2EF1E6EF2EF3E0FF2E21
:100FB000F02D21E030E08AE194E00E94E1114A89BD
:100FC0005B894E5F5F4FEC81FD813496EE0FFF1F12
:100FD000EC0FFD1F608171810F2EF1E5EF2EF3E024
:100FE000FF2EF02D21E030E08AE194E00E94E11133
:100FF0004A895B89415051098C819D810496880FF3
:10100000991FC80FD91F688179810F2EF9E5EF2E3E
:10101000F3E0FF2EF02D21E030E08AE194E00E9421
:10102000E111DF91CF911F910F91FF90EF90089503
:10103000EF92FF920F931F93CF93DF93EC014A89B6
:101040005B894F5F5F4F688579850F2EF9E6EF2E3C
:10105000F3E0FF2EF02D08E010E021E030E08AE11F
:1010600094E00E94E1114A895B894F5F5F4F6A8576
:101070007B8521E030E08AE194E00E94E1114A8919
:101080005B894F5F5F4F6C857D8521E030E08AE1B1
:1010900094E00E94E1114A895B894F5F5F4F6E8542
:1010A0007F8521E030E08AE194E00E94E1114A89E5
:1010B0005B894F5F5F4F6889798921E030E08AE181
:1010C00094E00E94E111DF91CF911F910F91FF9069
:1010D000EF900895EF92FF920F931F93FC0184818C
:1010E000958181309105D9F18230910509F454C080
:1010F000892B09F06DC000E210E024E030E042E00E
:1011000050E062E370E08AE194E00E9492118091E5
:101110001804882389F00F2EF1E2EF2EF1E0FF2E64
:10112000F02D24E030E042E050E062E370E08AE13C
:1011300094E00E94E1114CC00F2EF1EBEF2EF1E094
:10114000FF2EF02D00E210E024E030E042E050E01D
:1011500062E370E08AE194E00E94E11139C000E2AC
:1011600010E024E030E042E050E062E370E08AE129
:1011700094E00E9492110F2EF1ECEF2EF2E0FF2E80
:10118000F02D24E030E042E050E062E370E08AE1DC
:1011900094E00E94E1111CC000E210E024E030E085
:1011A00042E050E062E370E08AE194E00E94921134
:1011B0000F2EF1E3EF2EF2E0FF2EF02D24E030E0D1
:1011C00042E050E062E370E08AE194E00E94E111C5
:1011D0001F910F91FF90EF900895EF92FF920F9360
:1011E0001F930F2EF1E1EF2EF1E0FF2EF02D00E125
:1011F00010E021E030E043E050E06EE170E08AE191
:1012000094E00E94E1110F2EF1EAEF2EF1E0FF2EA3
:10121000F02D21E030E043E050E06AE670E08AE142
:1012200094E00E94E1111F910F91FF90EF900895BB
:10123000FC01158214821092190481E08093000150
:101240008AE194E0DEC708958AE194E0DAC7089560
:101250001F920F920FB60F9211248F939F93F894C1
:1012600090B181E0943009F080E09091FD039817EF
:1012700018F481E08093FD0390B181E0983009F08B
:1012800080E09091FC03981718F481E08093FC03B0
:1012900090B181E0903109F080E09091FB039817C4
:1012A00018F481E08093FB0390B181E0903209F063
:1012B00080E09091FA03981718F481E08093FA0384
:1012C00090B181E0983109F080E09091F90398178E
:1012D00018F481E08093F90390B181E0943209F031
:1012E00080E09091F803981718F481E08093F80358
:1012F00078949F918F910F900FBE0F901F9018952B
:10130000AF92BF92CF92DF92EF92FF920F931F9313
:10131000CF93DF934091FD038091FC0391E0382F40
:1013200039272091FB03522F5927F32FF523742FD0
:101330007F23B091FA03AB2FA72361F071E0709384
:10134000F903E42FE7279B2F97278E238223B817D3
:1013500050F08CC691E0E42FE9278E239B27422F83
:101360004823B41740F481E08093F803A091F90377
:1013700040E061E01CC36091F80341E04627A09182
:10138000F903C92FC4237C23A71708F05CC008E029
:1013900010E021E030E040E050E060E070E08AE101
:1013A00094E0C0D70F2EF9EBEF2EF3E0FF2EF02DD7
:1013B00021E030E040E050E060E070E08AE194E05D
:1013C0000E94E111809119048823E1F080910A04C0
:1013D00090910B0401972AF090930B0480930A04D8
:1013E00006C08AE090E090930B0480930A04E09199
:1013F0000404F09105040088F189E02D84E094E074
:10140000099527C680910001882309F422C680919E
:1014100002049091030401972AF0909303048093AF
:10142000020406C082E090E09093030480930204DB
:10143000E091FE03F091FF030088F189E02D8EEF2B
:1014400093E0099506C6892385238423A81708F00D
:10145000AEC208E010E021E030E040E050E060E0A3
:1014600070E08AE194E05ED70F2EF1EBEF2EF3E00F
:10147000FF2EF02D21E030E040E050E060E070E031
:101480008AE194E09ED780911904882309F473C2FD
:10149000E0910A04F0910B04EB30F10508F047C22B
:1014A000E45AFF4F0C94A912E4E0F4E084819581A2
:1014B000019695838483181619060CF038C20F2EF6
:1014C000FCE0CF2EF4E0DF2EF02DE12CF12CEF012B
:1014D00056014A895B894E5F5F4FF60161917191B8
:1014E0006F0108E010E021E030E08AE194E01AD7D3
:1014F0004A895B8941505109F5016081718121E080
:1015000030E08AE194E00ED7FFEFEF1AFF0A8C81FA
:101510009D81E816F906E4F20AC2E4E0F4E0848171
:101520009581019695838483181619060CF0FFC1E6
:101530000F2EFCE0CF2EF4E0DF2EF02DE12CF12C6D
:10154000EF0156014A895B894E5F5F4FF601619159
:1015500071916F0108E010E021E030E08AE194E051
:10156000E1D64A895B8941505109F5016081718159
:1015700021E030E08AE194E0D5D6FFEFEF1AFF0AD0
:101580008C819D81E816F906E4F2D1C1E4E0F4E033
:1015900084819581019695838483181619060CF031
:1015A000C6C10F2EFCE0CF2EF4E0DF2EF02DE12C93
:1015B000F12CEF0156014A895B894E5F5F4FF601BE
:1015C000619171916F0108E010E021E030E08AE163
:1015D00094E0A8D64A895B8941505109F5016081A0
:1015E000718121E030E08AE194E09CD6FFEFEF1AB0
:1015F000FF0A8C819D81E816F906E4F298C1E4E0C7
:10160000F4E08481958101969583848318161906E8
:101610000CF08DC10F2EFCE0CF2EF4E0DF2EF02D6C
:10162000E12CF12CEF0156014A895B894E5F5F4F37
:10163000F601619171916F0108E010E021E030E066
:101640008AE194E06FD64A895B8941505109F501DE
:101650006081718121E030E08AE194E063D6FFEFA0
:10166000EF1AFF0A8C819D81E816F906E4F25FC14A
:10167000E4E0F4E0848195810196958384831816D3
:1016800019060CF054C10F2EFCE0CF2EF4E0DF2E33
:10169000F02DE12CF12CEF0156014A895B894E5F58
:1016A0005F4FF601619171916F0108E010E021E058
:1016B00030E08AE194E036D64A895B89415051098D
:1016C000F5016081718121E030E08AE194E02AD661
:1016D000FFEFEF1AFF0A8C819D81E816F906E4F20C
:1016E00026C1E4E0F4E084819581019695838483AA
:1016F000181619060CF01BC10F2EFCE0CF2EF4E0DB
:10170000DF2EF02DE12CF12CEF0156014A895B8987
:101710004E5F5F4FF601619171916F0108E010E03B
:1017200021E030E08AE194E0FDD54A895B894150AF
:101730005109F5016081718121E030E08AE194E096
:10174000F1D5FFEFEF1AFF0A8C819D81E816F906AB
:10175000E4F2EDC0E4E0F4E08481958101969583A4
:101760008483181619060CF0E2C00F2EFCE0CF2E71
:10177000F4E0DF2EF02DE12CF12CEF0156014A8927
:101780005B894E5F5F4FF601619171916F0108E0D7
:1017900010E021E030E08AE194E0C4D54A895B8919
:1017A00041505109F5016081718121E030E08AE109
:1017B00094E0B8D5FFEFEF1AFF0A8C819D81E816FF
:1017C000F906E4F2B4C0E4E0F4E084819581019686
:1017D00095838483181619060CF0A9C00F2EFCE01F
:1017E000CF2EF4E0DF2EF02DE12CF12CEF0156018D
:1017F0004A895B894E5F5F4FF601619171916F017C
:1018000008E010E021E030E08AE194E08BD54A89DD
:101810005B8941505109F5016081718121E030E01F
:101820008AE194E07FD5FFEFEF1AFF0A8C819D815A
:10183000E816F906E4F27BC0E4E0F4E084819581E7
:10184000019695838483181619060CF070C00F2E2C
:10185000FCE0CF2EF4E0DF2EF02DE12CF12CEF0197
:1018600056014A895B894E5F5F4FF6016191719124
:101870006F0108E010E021E030E08AE194E052D509
:101880004A895B8941505109F5016081718121E0EC
:1018900030E08AE194E046D5FFEFEF1AFF0A8C8131
:1018A0009D81E816F906E4F242C0E4E0F4E08481A8
:1018B000958101969583848318161906C4F50F2E19
:1018C000FCE0CF2EF4E0DF2EF02DE12CF12CEF0127
:1018D00056014A895B894E5F5F4FF60161917191B4
:1018E0006F0108E010E021E030E08AE194E01AD5D1
:1018F0004A895B8941505109F5016081718121E07C
:1019000030E08AE194E00ED5FFEFEF1AFF0A8C81F8
:101910009D81E816F906E4F20AC0E0910404F09112
:1019200005040484F585E02D84E094E00995809118
:10193000080490910904059784F081E080930001E8
:1019400010921904E0910404F09105040480F581DB
:10195000E02D84E094E009957CC3E4E0F4E0178294
:1019600016820190F081E02D0088F189E02D84E05D
:1019700094E009956EC380910001882309F469C33E
:101980008091020490910304892B09F062C31092A4
:10199000000181E080931904E091FE03F091FF03C0
:1019A0000480F581E02D8EEF93E0099552C33E232C
:1019B000892F842328232323A217D8F408E010E0DA
:1019C00021E030E040E050E060E070E08AE194E047
:1019D000A9D40F2EF9EAEF2EF3E0FF2EF02D21E02F
:1019E00030E040E050E060E070E08AE194E0E9D46B
:1019F00030C35B2354233523A31708F05BC008E0F2
:101A000010E021E030E040E050E060E070E08AE18A
:101A100094E088D40F2EF1EAEF2EF3E0FF2EF02DA4
:101A200021E030E040E050E060E070E08AE194E0E6
:101A3000C8D4809119048823E1F080910A04909120
:101A40000B0401968B3091052CF490930B0480933A
:101A50000A0404C010920B0410920A04E0910404DA
:101A6000F09105040088F189E02D84E094E0099567
:101A7000F0C280910001882309F4EBC28091020436
:101A8000909103040196833091052CF49093030404
:101A90008093020404C01092030410920204E091A7
:101AA000FE03F091FF030088F189E02D8EEF93E0B3
:101AB0000995CFC296239E23A917D8F408E010E019
:101AC00021E030E040E050E060E070E08AE194E046
:101AD00029D40F2EF9E9EF2EF3E0FF2EF02D21E0AF
:101AE00030E040E050E060E070E08AE194E069D4EA
:101AF000B0C2FA2309F4ADC2442309F4AAC208E033
:101B000010E021E030E040E050E060E070E08AE189
:101B100094E008D40F2EF1E9EF2EF3E0FF2EF02D24
:101B200021E030E040E050E060E070E08AE194E0E5
:101B300048D480911904882309F472C2E0910A0400
:101B4000F0910B04EB30F10508F046C2E959FF4F64
:101B500000C5E4E0F4E08481958101969583848357
:101B6000181619060CF038C20F2EFCE0CF2EF4E048
:101B7000DF2EF02DE12CF12CEF0156014A895B8913
:101B80004E5F5F4FF601619171916F0108E010E0C7
:101B900021E030E08AE194E0C5D34A895B89415075
:101BA0005109F5016081718121E030E08AE194E022
:101BB000B9D3FFEFEF1AFF0A8C819D81E816F90671
:101BC000E4F20AC2E4E0F4E0848195810196958311
:101BD0008483181619060CF0FFC10F2EFCE0CF2EDF
:101BE000F4E0DF2EF02DE12CF12CEF0156014A89B3
:101BF0005B894E5F5F4FF601619171916F0108E063
:101C000010E021E030E08AE194E08CD34A895B89DE
:101C100041505109F5016081718121E030E08AE194
:101C200094E080D3FFEFEF1AFF0A8C819D81E816C4
:101C3000F906E4F2D1C1E4E0F4E0848195810196F3
:101C400095838483181619060CF0C6C10F2EFCE08C
:101C5000CF2EF4E0DF2EF02DE12CF12CEF01560118
:101C60004A895B894E5F5F4FF601619171916F0107
:101C700008E010E021E030E08AE194E053D34A89A3
:101C80005B8941505109F5016081718121E030E0AB
:101C90008AE194E047D3FFEFEF1AFF0A8C819D8120
:101CA000E816F906E4F298C1E4E0F4E08481958155
:101CB000019695838483181619060CF08DC10F2E9A
:101CC000FCE0CF2EF4E0DF2EF02DE12CF12CEF0123
:101CD00056014A895B894E5F5F4FF60161917191B0
:101CE0006F0108E010E021E030E08AE194E01AD3CF
:101CF0004A895B8941505109F5016081718121E078
:101D000030E08AE194E00ED3FFEFEF1AFF0A8C81F6
:101D10009D81E816F906E4F25FC1E4E0F4E0848115
:101D20009581019695838483181619060CF054C189
:101D30000F2EFCE0CF2EF4E0DF2EF02DE12CF12C65
:101D4000EF0156014A895B894E5F5F4FF601619151
:101D500071916F0108E010E021E030E08AE194E049
:101D6000E1D24A895B8941505109F5016081718155
:101D700021E030E08AE194E0D5D2FFEFEF1AFF0ACC
:101D80008C819D81E816F906E4F226C1E4E0F4E0D6
:101D900084819581019695838483181619060CF029
:101DA0001BC10F2EFCE0CF2EF4E0DF2EF02DE12C36
:101DB000F12CEF0156014A895B894E5F5F4FF601B6
:101DC000619171916F0108E010E021E030E08AE15B
:101DD00094E0A8D24A895B8941505109F50160819C
:101DE000718121E030E08AE194E09CD2FFEFEF1AAC
:101DF000FF0A8C819D81E816F906E4F2EDC0E4E06B
:101E0000F4E08481958101969583848318161906E0
:101E10000CF0E2C00F2EFCE0CF2EF4E0DF2EF02D10
:101E2000E12CF12CEF0156014A895B894E5F5F4F2F
:101E3000F601619171916F0108E010E021E030E05E
:101E40008AE194E06FD24A895B8941505109F501DA
:101E50006081718121E030E08AE194E063D2FFEF9C
:101E6000EF1AFF0A8C819D81E816F906E4F2B4C0EE
:101E7000E4E0F4E0848195810196958384831816CB
:101E800019060CF0A9C00F2EFCE0CF2EF4E0DF2ED7
:101E9000F02DE12CF12CEF0156014A895B894E5F50
:101EA0005F4FF601619171916F0108E010E021E050
:101EB00030E08AE194E036D24A895B894150510989
:101EC000F5016081718121E030E08AE194E02AD25D
:101ED000FFEFEF1AFF0A8C819D81E816F906E4F204
:101EE0007BC0E4E0F4E0848195810196958384834E
:101EF000181619060CF070C00F2EFCE0CF2EF4E07F
:101F0000DF2EF02DE12CF12CEF0156014A895B897F
:101F10004E5F5F4FF601619171916F0108E010E033
:101F200021E030E08AE194E0FDD14A895B894150AB
:101F30005109F5016081718121E030E08AE194E08E
:101F4000F1D1FFEFEF1AFF0A8C819D81E816F906A7
:101F5000E4F242C0E4E0F4E0848195810196958347
:101F6000848318161906C4F50F2EFCE0CF2EF4E07A
:101F7000DF2EF02DE12CF12CEF0156014A895B890F
:101F80004E5F5F4FF601619171916F0108E010E0C3
:101F900021E030E08AE194E0C5D14A895B89415073
:101FA0005109F5016081718121E030E08AE194E01E
:101FB000B9D1FFEFEF1AFF0A8C819D81E816F9066F
:101FC000E4F20AC0E0910404F09105040484F5856C
:101FD000E02D84E094E00995809108049091090433
:101FE000059784F081E08093000110921904E0913C
:101FF0000404F09105040480F581E02D84E094E070
:10200000099527C0E4E0F4E0178216820190F08180
:10201000E02D0088F189E02D84E094E0099519C055
:10202000809100018823A9F080910204909103041B
:10203000892B79F41092000181E080931904E091DA
:10204000FE03F091FF030480F581E02D8EEF93E015
:1020500009951092FD031092FC031092FB0310925D
:10206000FA031092F9031092F80305C06091F80387
:1020700041E046279CCCDF91CF911F910F91FF90BB
:10208000EF90DF90CF90BF90AF9008958AE194E0F9
:102090009FD011B812B88CE380936B00E8E6F0E0B3
:1020A00080818160808378940F2EFEEFCF2EF3E045
:1020B000DF2EF02DC4E0D4E023D9809119048823C9
:1020C00079F0E881F9810190F081E02DCE01099548
:1020D000E881F9810088F189E02DCE01099514C0CD
:1020E00080910001882381F0D601ED91FC9101904F
:1020F000F081E02DC6010995D601ED91FC91008893
:10210000F189E02DC60109950F2EF1E0EF2EF1E0E7
:10211000FF2EF02D08E010E022E030E040E050E03B
:1021200060E570E08AE194E04CD18AE194E050D01F
:10213000C3CFCF93DF938BE198E0F0D160E08AE1E9
:1021400094E066D0C4E0D4E085EE93E09983888380
:102150001D821C821F821E828AE0E1ECF3E0ACE06B
:10216000B4E001900D928A95E1F782E090E09B8BBC
:102170008A8BEEEFF3E08FEC93E0918380831582FE
:10218000148214B88FEF85B9DF91CF91089580E85C
:102190008093BB0084E88093BC00ECEBF0E080818E
:1021A0008823ECF76093BB0084E88093BC00ECEBE1
:1021B000F0E080818823ECF708956093BB0084E809
:1021C0008093BC00ECEBF0E080818823ECF708956D
:1021D000EF92FF920F931F93CF93DF938C01EC014B
:1021E0007C018CEFF81A699170E0C801E6DFCE152A
:1021F000DF05C9F7DF91CF911F910F91FF90EF900D
:102200000895FC019C5F1192E817F907E1F7089522
:102210000F931F93CF93DF93EC018C011C5FC801D8
:102220007DD1C8017CD1C8018BD1C8017DD168EABC
:1022300070E0CE01ACDF6FE370E0CE01A8DF63EDAC
:1022400070E0CE01A4DF60E070E0CE01A0DF60E4CA
:1022500070E0CE019CDF61EA70E0CE0198DF68ECAF
:1022600070E0CE0194DF6AED70E0CE0190DF62E1B4
:1022700070E0CE018CDF61E870E0CE0188DF6FEFA7
:1022800070E0CE0184DF64EA70E0CE0180DF66EAB0
:1022900070E0CE017CDF65ED70E0CE0178DF60E8B4
:1022A00070E0CE0174DF6DE870E0CE0170DF64E1B4
:1022B00070E0CE016CDF6FEA70E0CE0168DF60E2B3
:1022C00070E0CE0164DF60E070E0CE0160DF61E2CB
:1022D00070E0CE015CDF60E070E0CE0158DF6FE7B8
:1022E00070E0CE0154DF62E270E0CE0150DF60E0CA
:1022F00070E0CE014CDF67E070E0CE0148DF80E4A3
:102300008093BB0084E88093BC00CE017ADF60E05C
:1023100070E0CE0152DFCE015BDFDF91CF911F91E4
:102320000F910895CF92DF92EF92FF920F931F9338
:10233000CF93DF93EC017B016A01B90110161106FE
:10234000BCF520E030E0AB01440F551F440F551F92
:10235000440F551F4E0D5F1D1616170624F5C901B3
:1023600033230CF4079695958795959587959595C4
:1023700087958C0D9D1D9695982F88279795879505
:10238000FC01EE0DFF1DEC0FFD1F840F951F8C0F40
:102390009D1FDF0118961192EA17FB07E1F7FD0177
:1023A0008A179B07B1F72F5F3F4F02171307A1F65C
:1023B000DF91CF911F910F91FF90EF90DF90CF9021
:1023C00008952F923F924F925F926F927F928F92D9
:1023D0009F92AF92BF92CF92DF92EF92FF920F93B4
:1023E0001F93CF93DF9300D000D000D0CDB7DEB7DE
:1023F0009E838D833A0129011801101611060CF0F5
:1024000074C03C832B838E2C9F2CC12CD12C0F2E7F
:10241000F7E0AF2EB12CF02DC901880F991F880F5E
:10242000991F880F991F9B01280F391F3A83298311
:10243000141415040CF04EC0C601877090789923CF
:1024400024F40197886F9F6F01968501081B190B73
:102450007601DD201CF497E0E90EF11CF594E79479
:10246000F594E794F594E794E60CF71CF694FE2CAB
:10247000EE24F794E794AB014E0D5F1D2D813E8154
:10248000420F531F89819A81E80EF91EE20EF31E56
:10249000D401FA0120E030E08C9190E0022E02C0DD
:1024A000880F991F0A94E2F780789927002E02C0BE
:1024B000959587950A94E2F79081892B81932F5FF8
:1024C0003F4F2830310541F7485F5F4F11964E1559
:1024D0005F05F9F63FEFC31AD30A8B819C81880E02
:1024E000991E2C143D0409F0A3CF26960FB6F8943C
:1024F000DEBF0FBECDBFDF91CF911F910F91FF9037
:10250000EF90DF90CF90BF90AF909F908F907F9093
:102510006F905F904F903F902F9008950895109284
:10252000B8001092B900089588E78093BB0084E852
:102530008093BC00ECEBF0E080818823ECF70895F9
:1025400084EA8093BC00ECEBF0E080818823ECF718
:102550000895EE0FFF1F0024001C0BBE0790F6919C
:08256000E02D0994F894FFCF6F
:1025680001E000A00AAE04AA0AAAE0AAA0AAAEEE58
:10257800AE0103070F1F3F7FFFFF7F3F1F0F0703BA
:102588000100000000000180000007E000001C3886
:102598000000700E0000E0070001C0038001C003C6
:1025A8008001C0038001C0038001C0038001C00313
:1025B8008000800380000003800000038003FFFF89
:1025C800C003FFFFC003FFFFC003FE7FC003FC3F43
:1025D800C003FC3FC003FE7FC003FE7FC003FC7F37
:1025E800C003FE7FC003FFFFC003FFFFC000000061
:1025F80000000000000000000000000000000000D3
:102608000080C0E0F0F8FCFEFFFFFEFCF8F0E0C040
:102618008000000000000000000000000000000032
:1026280000000180000007E000001C380000700E68
:102638000000E0070001C0038001C0038001C0035F
:102648008001C0038001C0038001C0038003FFFF35
:10265800C003FFFFC003FFFFC003FE7FC003FC3FB2
:10266800C003FC3FC003FE7FC003FE7FC003FC7FA6
:10267800C003FE7FC003FFFFC003FFFFC0000000D0
:102688000000000000000000000000000000000042
:10269800000000000000000000000FF000000FF034
:1026A80000000FF000000FF000000FF000000FF026
:1026B80000000FF000000FF0000000000000000014
:1026C800000007E0000007E0000007E0000007E066
:1026D800000007E0000007E0000007E0000007E056
:1026E800000007E0000007E0000007E0000007E046
:1026F800000007E0000007E0000007E0000007E036
:10270800000007E0000007E00000FFFF0000FFFFF7
:102718000000FFFF0000FFFF0000000000000000B5
:1027280000000180000003C0000007E0001E0FF059
:10273800781F9E79F81FFC3FF81FE007F80F00008C
:10274800F80E07E070060E7060061818600C300C62
:10275800301C6186383CC3C33C7987E19EF18E7199
:102768009FF18E719F7987E19E3CC3C33C1C6186B3
:10277800380C300C3006181860060E70600E07E032
:10278800700F0000F81FE007F81FFC3FF81F9E7944
:10279800F81E0FF0780007E0000003C000000000FA
:1027A80000000000000000000000000000000180A0
:1027B8000000FF7E3C18000000183C7EFF0000006F
:1027C8000000207E7E2606000000007E000000003B
:1027D80000003C24243C043C00003C243C24243CD1
:1027E80000003C040810202000003C203C24243C2D
:1027F80000003C203C04043C00002424243C040445
:1028080000003C043C04043C00003C040418303C38
:10281800000018380808083C00003C242424243C04
:10282800000C0024003C0054006C0000000000ED87
:10283800089E002409B100CB00E500F800F9006A01
:1028480008000000001808FA0018090D01270142C5
:08285800019D034101FD030095
:00000001FF
