S0110000536D6172744C6F636B2E7372656383
S11300007DC00000A5C00000A3C00000A1C0000086
S1130010A0C000009DC000009BC0000099C000006B
S113002097C0000095C0000093C0000091C000007C
S11300308FC000008DC000008BC0000089C000008C
S113004087C0000085C0000083C0000081C000009C
S11300507FC000007DC000007BC0000079C00000AC
S113006077C0000075C0000073C0000071C00000BC
S11300706FC000006DC000006BC0000069C00000CC
S113008067C0000065C0000063C0000079029202EE
S1130090AB02C402DD02F6020F03280341035A0334
S11300A073030A0523053C0555056E058705A00560
S11300B0B905D205EB050406D506EE0607072007A9
S11300C0390752076B0784079D07B607CE0738091F
S11300D04F0966097D099409AB09C209D909F009D8
S11300E0070A1E0A470D5E0D750D8C0DA30DBA0D82
S11300F0D10DE80DFF0D160E2D0E9E0C11241FBE02
S1130100CFEFD0E4DEBFCDBF13E0A0E0B1E0E0EB81
S1130110F1E200E00BBF02C007900D92AA3DB107C7
S1130120D9F727E0AAEDB3E001C01D92AD3FB207B5
S1130130E1F710E0CEE7D0E004C02197FE010E9471
S1130140CD10CD37D107C9F70E94FA0B0C94D61005
S113015057CF1F920F920FB60F9211248F939F9334
S1130160F89490B181E0943009F080E09091E1033B
S1130170981718F481E08093E10390B181E09830FE
S113018009F080E09091E003981718F481E08093DF
S1130190E00390B181E0903109F080E09091DF03B9
S11301A0981718F481E08093DF0390B181E09032D6
S11301B009F080E09091DE03981718F481E08093B1
S11301C0DE0390B181E0983109F080E09091DD0385
S11301D0981718F481E08093DD0390B181E09432A4
S11301E009F080E09091DC03981718F481E0809383
S11301F0DC0378949F918F910F900FBE0F901F9006
S11302001895AF92BF92CF92DF92EF92FF920F9325
S11302101F93CF93DF935091E1039091E00381E02A
S1130220392F38272091DF03622F6827A32FA623B5
S1130230752F7A23B091DE03FB2FF72351F08093BF
S1130240DD0358278B2795239223B91750F00C947C
S1130250670A81E0582795238B27422F4923B41737
S113026040F491E09093DC03F091DD0340E0E1E0A1
S113027075C2E091DC0341E04E27F091DD03C82F05
S1130280C4237C23F71708F047C208E010E021E0FC
S113029030E040E050E060E070E08BEF93E00E94DB
S11302A0B60F0F2EF8ECEF2EF3E0FF2EF02D21E029
S11302B030E040E050E060E070E08BEF93E00E94BB
S11302C005108091FA0381116FC0E2EEF3E08281A0
S11302D09381019693838283833091053CF013824A
S11302E01282C680D780C481D58110C0E2EEF3E0CB
S11302F0C680D780C481D5818130910509F18230CF
S11303009105C1F1892B11F00C945A0A00E210E016
S113031024E030E0A601BE018BEF93E00E94B60F0B
S11303200F2EF0EDEF2EF2E0FF2EF02D24E030E062
S1130330A601BE018BEF93E00E9405100C945A0AAB
S113034000E210E024E030E0A601BE018BEF93E070
S11303500E94B60F0F2EF0E5EF2EF2E0FF2EF02DE7
S113036024E030E0A601BE018BEF93E00E9405106B
S11303700C945A0A00E210E024E030E0A601BE0129
S11303808BEF93E00E94B60F0F2EF0ECEF2EF1E00E
S1130390FF2EF02D24E030E0A601BE018BEF93E0A8
S11303A00E9405100C945A0ACAEED3E04E855F856C
S11303B04F5F5F4F6C817D810F2EF8E7EF2EF3E0E6
S11303C0FF2EF02D08E010E021E030E08BEF93E009
S11303D00E9405104E855F854F5F5F4F6E817F8160
S11303E021E030E08BEF93E00E9405104E855F859D
S11303F04F5F5F4F6885798521E030E08BEF93E0B4
S11304000E9405104E855F854F5F5F4F6A857B852F
S113041021E030E08BEF93E00E9405104E855F856C
S11304204F5F5F4F6C857D8521E030E08BEF93E07B
S11304300E9405104E855F854E5F5F4FE881F9810C
S1130440EE0FFF1FE251FC4F608171810F2EF0E629
S1130450EF2EF3E0FF2EF02D21E030E08BEF93E060
S11304600E9405104E855F8541505109E881F9814C
S1130470EE0FFF1FE251FC4F608171810F2EF8E6F1
S1130480EF2EF3E0FF2EF02D21E030E08BEF93E030
S11304900E940510EA81FB813196FB83EA83EB30ED
S11304A0F10584F0FE011B821A820E84DF85C02DC3
S11304B00190F081E02DEE0FFF1FE251FC4FC08050
S11304C0D18017C0AAEEB3E01E96CD91DC911F97A0
S11304D00D90BC91A02DAA0FBB1FA251BC4FCD9073
S11304E0DC90EB30F10508F0E5C7EA5BFF4F0C94B4
S11304F0CD1008E010E021E030E0AE01B6018BEF52
S113050093E00E94B60F0F2EF8ECEF2EF3E0FF2ECF
S1130510F02D21E030E0AE01B6018BEF93E00E94B4
S11305200510C8C708E010E021E030E0AE01B601D4
S11305308BEF93E00E94B60F0F2EF0ECEF2EF3E05A
S1130540FF2EF02D21E030E0AE01B6018BEF93E0F9
S11305500E940510AFC708E010E021E030E0AE01D2
S1130560B6018BEF93E00E94B60F0F2EF8EBEF2E3F
S1130570F3E0FF2EF02D21E030E0AE01B6018BEF69
S113058093E00E94051096C708E010E021E030E0F7
S1130590AE01B6018BEF93E00E94B60F0F2EF0EB85
S11305A0EF2EF3E0FF2EF02D21E030E0AE01B60196
S11305B08BEF93E00E9405107DC708E010E021E076
S11305C030E0AE01B6018BEF93E00E94B60F0F2E20
S11305D0F8EAEF2EF3E0FF2EF02D21E030E0AE013B
S11305E0B6018BEF93E00E94051064C708E010E0A9
S11305F021E030E0AE01B6018BEF93E00E94B60F2C
S11306000F2EF0EAEF2EF3E0FF2EF02D21E030E084
S1130610AE01B6018BEF93E00E9405104BC708E0D2
S113062010E021E030E0AE01B6018BEF93E00E94D0
S1130630B60F0F2EF8E9EF2EF3E0FF2EF02D21E098
S113064030E0AE01B6018BEF93E00E94051032C793
S113065008E010E021E030E0AE01B6018BEF93E05A
S11306600E94B60F0F2EF0E9EF2EF3E0FF2EF02DCF
S113067021E030E0AE01B6018BEF93E00E9405105B
S113068019C708E010E021E030E0AE01B6018BEFBD
S113069093E00E94B60F0F2EF8E8EF2EF3E0FF2E42
S11306A0F02D21E030E0AE01B6018BEF93E00E9423
S11306B0051000C708E010E021E030E0AE01B6010B
S11306C08BEF93E00E94B60F0F2EF0E8EF2EF3E0CD
S11306D0FF2EF02D21E030E0AE01B6018BEF93E068
S11306E00E940510E7C608E010E021E030E0AE010A
S11306F0B6018BEF93E00E94B60F0F2EF0E7EF2EBA
S1130700F3E0FF2EF02D21E030E0AE01B6018BEFD7
S113071093E00E940510CEC6982396239423F917DC
S1130720E8F408E010E021E030E040E050E060E070
S113073070E08BEF93E00E94B60F0F2EF0ECEF2EDB
S1130740F3E0FF2EF02D21E030E040E050E060E0E7
S113075070E08BEF93E00E940510ACC63523982F10
S1130760942329232323F217E8F408E010E021E07E
S113077030E040E050E060E070E08BEF93E00E94F6
S1130780B60F0F2EF8EBEF2EF3E0FF2EF02D21E045
S113079030E040E050E060E070E08BEF93E00E94D6
S11307A0051088C66B2364233623F31708F045C26B
S11307B008E010E021E030E040E050E060E070E06C
S11307C08BEF93E00E94B60F0F2EF0EBEF2EF3E0C9
S11307D0FF2EF02D21E030E040E050E060E070E0DA
S11307E08BEF93E00E9405108091FA0381116CC095
S11307F0E2EEF3E0828193810197938382839923CC
S11308004CF482E090E093838283C680D780C481D5
S1130810D58141C0E2EEF3E0C680D780C481D581A2
S113082081309105F9F082309105A9F1892B09F005
S113083041C600E210E024E030E0A601BE018BEFE7
S113084093E00E94B60F0F2EF0EDEF2EF2E0FF2E94
S1130850F02D24E030E0A601BE018BEF93E00E946E
S1130860051028C600E210E024E030E0A601BE0135
S11308708BEF93E00E94B60F0F2EF0E5EF2EF2E01F
S1130880FF2EF02D24E030E0A601BE018BEF93E0B3
S11308900E9405100FC600E210E024E030E0A6013B
S11308A0BE018BEF93E00E94B60F0F2EF0ECEF2EFB
S11308B0F1E0FF2EF02D24E030E0A601BE018BEF25
S11308C093E00E940510F6C5CAEED3E04E855F851D
S11308D04F5F5F4F6C817D810F2EF8E7EF2EF3E0C1
S11308E0FF2EF02D08E010E021E030E08BEF93E0E4
S11308F00E9405104E855F854F5F5F4F6E817F813B
S113090021E030E08BEF93E00E9405104E855F8577
S11309104F5F5F4F6885798521E030E08BEF93E08E
S11309200E9405104E855F854F5F5F4F6A857B850A
S113093021E030E08BEF93E00E9405104E855F8547
S11309404F5F5F4F6C857D8521E030E08BEF93E056
S11309500E9405104E855F854E5F5F4FE881F981E7
S1130960EE0FFF1FE251FC4F608171810F2EF0E604
S1130970EF2EF3E0FF2EF02D21E030E08BEF93E03B
S11309800E9405104E855F8541505109E881F98127
S1130990EE0FFF1FE251FC4F608171810F2EF8E6CC
S11309A0EF2EF3E0FF2EF02D21E030E08BEF93E00B
S11309B00E940510EA81FB813197FB83EA83FF23C0
S11309C094F4FE018AE090E09B838A830E84DF85A1
S11309D0C02D0190F081E02DEE0FFF1FE251FC4F7E
S11309E0C080D18011C1AAEEB3E01E96CD91DC91F6
S11309F01F970D90BC91A02DAA0FBB1FA251BC4FF5
S1130A00CD90DC90EB30F10508F054C5EF5AFF4F60
S1130A100C94CD1008E010E021E030E0AE01B60106
S1130A208BEF93E00E94B60F0F2EF8ECEF2EF3E05D
S1130A30FF2EF02D21E030E0AE01B6018BEF93E004
S1130A400E94051037C508E010E021E030E0AE0157
S1130A50B6018BEF93E00E94B60F0F2EF0ECEF2E51
S1130A60F3E0FF2EF02D21E030E0AE01B6018BEF74
S1130A7093E00E9405101EC508E010E021E030E07C
S1130A80AE01B6018BEF93E00E94B60F0F2EF8EB88
S1130A90EF2EF3E0FF2EF02D21E030E0AE01B601A1
S1130AA08BEF93E00E94051005C508E010E021E0FB
S1130AB030E0AE01B6018BEF93E00E94B60F0F2E2B
S1130AC0F0EBEF2EF3E0FF2EF02D21E030E0AE014D
S1130AD0B6018BEF93E00E940510ECC408E010E02F
S1130AE021E030E0AE01B6018BEF93E00E94B60F37
S1130AF00F2EF8EAEF2EF3E0FF2EF02D21E030E088
S1130B00AE01B6018BEF93E00E940510D3C408E058
S1130B1010E021E030E0AE01B6018BEF93E00E94DB
S1130B20B60F0F2EF0EAEF2EF3E0FF2EF02D21E0AA
S1130B3030E0AE01B6018BEF93E00E940510BAC419
S1130B4008E010E021E030E0AE01B6018BEF93E065
S1130B500E94B60F0F2EF8E9EF2EF3E0FF2EF02DD2
S1130B6021E030E0AE01B6018BEF93E00E94051066
S1130B70A1C408E010E021E030E0AE01B6018BEF43
S1130B8093E00E94B60F0F2EF0E9EF2EF3E0FF2E54
S1130B90F02D21E030E0AE01B6018BEF93E00E942E
S1130BA0051088C408E010E021E030E0AE01B60191
S1130BB08BEF93E00E94B60F0F2EF8E8EF2EF3E0D0
S1130BC0FF2EF02D21E030E0AE01B6018BEF93E073
S1130BD00E9405106FC408E010E021E030E0AE018F
S1130BE0B6018BEF93E00E94B60F0F2EF0E8EF2EC4
S1130BF0F3E0FF2EF02D21E030E0AE01B6018BEFE3
S1130C0093E00E94051056C408E010E021E030E0B3
S1130C10AE01B6018BEF93E00E94B60F0F2EF0E702
S1130C20EF2EF3E0FF2EF02D21E030E0AE01B6010F
S1130C308BEF93E00E9405103DC45823E523FE1773
S1130C4008F0EAC108E010E021E030E040E050E0C4
S1130C5060E070E08BEF93E00E94B60F0F2EF8EA8D
S1130C60EF2EF3E0FF2EF02D21E030E040E050E0E5
S1130C7060E070E08BEF93E00E9405108091FA032E
S1130C8081110FC08091E4039091E503892B09F051
S1130C9011C48BEF93E00E94250F81E08093FA0347
S1130CA009C4CAEED3E04E855F854F5F5F4F6C8108
S1130CB07D810F2EF8E7EF2EF3E0FF2EF02D08E0F4
S1130CC010E021E030E08BEF93E00E9405104E85A8
S1130CD05F854F5F5F4F6E817F8121E030E08BEF56
S1130CE093E00E9405104E855F854F5F5F4F6885D6
S1130CF0798521E030E08BEF93E00E9405104E856A
S1130D005F854F5F5F4F6A857B8521E030E08BEF25
S1130D1093E00E9405104E855F854F5F5F4F6C85A1
S1130D207D8521E030E08BEF93E00E9405104E8535
S1130D305F854E5F5F4FE881F981EE0FFF1FE2513F
S1130D40FC4F608171810F2EF0E6EF2EF3E0FF2E51
S1130D50F02D21E030E08BEF93E00E9405104E85EA
S1130D605F8541505109E881F981EE0FFF1FE2517F
S1130D70FC4F608171810F2EF8E6EF2EF3E0FF2E19
S1130D80F02D21E030E08BEF93E00E940510888184
S1130D9099810196853091050CF49EC384E090E01E
S1130DA09093EB038093EA039BC308E010E021E0F7
S1130DB030E0A601B5018BEF93E00E94B60F0F2E31
S1130DC0F8ECEF2EF3E0FF2EF02D21E030E0A60149
S1130DD0B5018BEF93E00E940510F7C008E010E026
S1130DE021E030E0A601B5018BEF93E00E94B60F3D
S1130DF00F2EF0ECEF2EF3E0FF2EF02D21E030E08B
S1130E00A601B5018BEF93E00E940510DEC008E057
S1130E1010E021E030E0A601B5018BEF93E00E94E1
S1130E20B60F0F2EF8EBEF2EF3E0FF2EF02D21E09E
S1130E3030E0A601B5018BEF93E00E940510C5C018
S1130E4008E010E021E030E0A601B5018BEF93E06B
S1130E500E94B60F0F2EF0EBEF2EF3E0FF2EF02DD5
S1130E6021E030E0A601B5018BEF93E00E9405106C
S1130E70ACC008E010E021E030E0A601B5018BEF42
S1130E8093E00E94B60F0F2EF8EAEF2EF3E0FF2E48
S1130E90F02D21E030E0A601B5018BEF93E00E9434
S1130EA0051093C008E010E021E030E0A601B50190
S1130EB08BEF93E00E94B60F0F2EF0EAEF2EF3E0D3
S1130EC0FF2EF02D21E030E0A601B5018BEF93E079
S1130ED00E9405107AC008E010E021E030E0A6018D
S1130EE0B5018BEF93E00E94B60F0F2EF8E9EF2EB9
S1130EF0F3E0FF2EF02D21E030E0A601B5018BEFE9
S1130F0093E00E94051061C008E010E021E030E0A9
S1130F10A601B5018BEF93E00E94B60F0F2EF0E906
S1130F20EF2EF3E0FF2EF02D21E030E0A601B50115
S1130F308BEF93E00E94051048C008E010E021E028
S1130F4030E0A601B5018BEF93E00E94B60F0F2E9F
S1130F50F8E8EF2EF3E0FF2EF02D21E030E0A601BB
S1130F60B5018BEF93E00E9405102FC008E010E05C
S1130F7021E030E0A601B5018BEF93E0F7D70F2E07
S1130F80F0E8EF2EF3E0FF2EF02D21E030E0A60193
S1130F90B5018BEF93E00E94051017C008E010E044
S1130FA021E030E0A601B5018BEF93E0DFD70F2EEF
S1130FB0F0E7EF2EF3E0FF2EF02D21E030E0A60164
S1130FC0B5018BEF93E00E940510CAEED3E04E8585
S1130FD05F854E5F5F4FE881F981EE0FFF1FE4519B
S1130FE0FC4F6081718108E010E021E030E08BEF7C
S1130FF093E0BCD74E855F8541505109E881F98162
S1131000EE0FFF1FE451FC4F6081718121E030E05D
S11310108BEF93E0ABD74EC24A2309F44BC2FF23B4
S113102009F448C208E010E021E030E040E050E07C
S113103060E070E08BEF93E099D70F2EF0EAEF2E8B
S1131040F3E0FF2EF02D21E030E040E050E060E0DE
S113105070E08BEF93E0D9D78091FA0381118FC0B0
S11310608091E2039091E30301972AF09093E303C4
S11310708093E20306C082E090E09093E3038093C0
S1131080E203C2EED3E04E815F814F5F5F4F6C811C
S11310907D81645171090F2EF0EBEF2EF1E0FF2EEC
S11310A0F02D00E110E021E030E08BEF93E0ADD7CC
S11310B04E815F814F5F5F4F6C817D816C5C7F4FA0
S11310C00F2EF0E4EF2EF2E0FF2EF02D21E030E0C1
S11310D08BEF93E09AD7AE80BF80CC80DD808A818D
S11310E09B8181309105E9F08230910589F1892B4A
S11310F009F0E0C100E210E024E030E0A501B6010F
S11311008BEF93E033D70F2EF0EDEF2EF2E0FF2EAE
S1131110F02D24E030E0A501B6018BEF93E075D704
S1131120C9C100E210E024E030E0A501B6018BEF74
S113113093E01CD70F2EF0E5EF2EF2E0FF2EF02DFA
S113114024E030E0A501B6018BEF93E05ED7B2C195
S113115000E210E024E030E0A501B6018BEF93E05B
S113116005D70F2EF0ECEF2EF1E0FF2EF02D24E04A
S113117030E0A501B6018BEF93E047D79BC1CAEEDF
S1131180D3E04E855F854F5F5F4F6C817D810F2E6D
S1131190F8E7EF2EF3E0FF2EF02D08E010E021E059
S11311A030E08BEF93E031D74E855F854F5F5F4F23
S11311B06E817F8121E030E08BEF93E026D74E856E
S11311C05F854F5F5F4F6885798521E030E08BEF65
S11311D093E01BD74E855F854F5F5F4F6A857B85A4
S11311E021E030E08BEF93E010D74E855F854F5FB1
S11311F05F4F6C857D8521E030E08BEF93E005D770
S11312004E855F854E5F5F4FE881F981EE0FFF1FCA
S1131210E251FC4F608171810F2EF0E6EF2EF3E076
S1131220FF2EF02D21E030E08BEF93E0EED64E85DB
S11312305F8541505109E881F981EE0FFF1FE251AA
S1131240FC4F608171810F2EF8E6EF2EF3E0FF2E44
S1131250F02D21E030E08BEF93E0D7D6888199819F
S113126001970AF0BFC11092EB031092EA03BEC1CA
S113127008E010E021E030E0A601B5018BEF93E037
S113128075D60F2EF8ECEF2EF3E0FF2EF02D21E0B3
S113129030E0A601B5018BEF93E0B7D6E5C008E0D6
S11312A010E021E030E0A601B5018BEF93E05ED6BB
S11312B00F2EF0ECEF2EF3E0FF2EF02D21E030E0C6
S11312C0A601B5018BEF93E0A0D6CEC008E010E0F4
S11312D021E030E0A601B5018BEF93E047D60F2E55
S11312E0F8EBEF2EF3E0FF2EF02D21E030E0A60125
S11312F0B5018BEF93E089D6B7C008E010E021E098
S113130030E0A601B5018BEF93E030D60F2EF0EB61
S1131310EF2EF3E0FF2EF02D21E030E0A601B50121
S11313208BEF93E072D6A0C008E010E021E030E03B
S1131330A601B5018BEF93E019D60F2EF8EAEF2E34
S1131340F3E0FF2EF02D21E030E0A601B5018BEF94
S113135093E05BD689C008E010E021E030E0A6010C
S1131360B5018BEF93E002D60F2EF0EAEF2EF3E0F7
S1131370FF2EF02D21E030E0A601B5018BEF93E0C4
S113138044D672C008E010E021E030E0A601B501C7
S11313908BEF93E0EBD50F2EF8E9EF2EF3E0FF2E61
S11313A0F02D21E030E0A601B5018BEF93E02DD6BE
S11313B05BC008E010E021E030E0A601B5018BEF4E
S11313C093E0D4D50F2EF0E9EF2EF3E0FF2EF02DAD
S11313D021E030E0A601B5018BEF93E016D644C0BE
S11313E008E010E021E030E0A601B5018BEF93E0C6
S11313F0BDD50F2EF8E8EF2EF3E0FF2EF02D21E0FF
S113140030E0A601B5018BEF93E0FFD52DC008E0D5
S113141010E021E030E0A601B5018BEF93E0A6D502
S11314200F2EF0E8EF2EF3E0FF2EF02D21E030E058
S1131430A601B5018BEF93E0E8D516C008E010E0F3
S113144021E030E0A601B5018BEF93E08FD50F2E9C
S1131450F0E7EF2EF3E0FF2EF02D21E030E0A601BF
S1131460B5018BEF93E0D1D5CAEED3E04E855F850D
S11314704E5F5F4FE881F981EE0FFF1FE051FC4F93
S11314806081718108E010E021E030E08BEF93E0AF
S11314906DD54E855F8541505109E881F981EE0F84
S11314A0FF1FE051FC4F6081718121E030E08BEF40
S11314B093E05CD51092E1031092E0031092DF03F5
S11314C01092DE031092DD031092DC0311C1E0914F
S11314D0DC0341E04E2742C99093EB038093EA0377
S11314E0CAEED3E04E855F854F5F5F4F6C817D818F
S11314F00F2EF8E7EF2EF3E0FF2EF02D08E010E0BA
S113150021E030E08BEF93E080D54E855F854F5F1F
S11315105F4F6E817F8121E030E08BEF93E075D5E2
S11315204E855F854F5F5F4F6885798521E030E0A8
S11315308BEF93E06AD54E855F854F5F5F4F6A8579
S11315407B8521E030E08BEF93E05FD54E855F85AE
S11315504F5F5F4F6C857D8521E030E08BEF93E03A
S113156054D54E855F854E5F5F4FE881F981EE0F5C
S1131570FF1FE251FC4F608171810F2EF0E6EF2EC8
S1131580F3E0FF2EF02D21E030E08BEF93E03DD52A
S11315904E855F8541505109E881F981EE0FFF1FA7
S11315A0E251FC4F608171810F2EF8E6EF2EF3E0DB
S11315B0FF2EF02D21E030E08BEF93E026D5CE8492
S11315C0DF84E881F981EE0FFF1FE251FC4FA08018
S11315D0B180EA81FB81EB30F10508F0F6CCE45AE6
S11315E0FF4FDBC59093EB038093EA03CAEED3E08D
S11315F04E855F854F5F5F4F6C817D810F2EF8E7CD
S1131600EF2EF3E0FF2EF02D08E010E021E030E0B3
S11316108BEF93E0FAD44E855F854F5F5F4F6E8109
S11316207F8121E030E08BEF93E0EFD44E855F853E
S11316304F5F5F4F6885798521E030E08BEF93E061
S1131640E4D44E855F854F5F5F4F6A857B8521E0DB
S113165030E08BEF93E0D9D44E855F854F5F5F4FC9
S11316606C857D8521E030E08BEF93E0CED44E8510
S11316705F854E5F5F4FE881F981EE0FFF1FE251F6
S1131680FC4F608171810F2EF0E6EF2EF3E0FF2E08
S1131690F02D21E030E08BEF93E0B7D44E855F85E9
S11316A041505109E881F981EE0FFF1FE251FC4FCF
S11316B0608171810F2EF8E6EF2EF3E0FF2EF02DFE
S11316C021E030E08BEF93E0A0D4CE84DF84E88186
S11316D0F981EE0FFF1FE251FC4FA080B180EA8137
S11316E0FB81EB30F10508F0BFCEE959FF4F55C53A
S11316F0DF91CF911F910F91FF90EF90DF90CF90EA
S1131700BF90AF900895EF92FF920F931F93CF93E2
S1131710DF93EC0188819981892B89F40F2EF0E9FC
S1131720EF2EF1E0FF2EF02D08E010E024E030E091
S113173040E050E060E670E08BEF93E066D488818F
S11317409981019789F40F2EF0E7EF2EF1E0FF2E37
S1131750F02D08E010E024E030E040E050E060E6E6
S113176070E08BEF93E051D488819981029789F4DA
S11317700F2EF0E5EF2EF1E0FF2EF02D08E010E043
S113178024E030E040E050E060E670E08BEF93E06E
S11317903CD488819981039789F40F2EF0E3EF2ECE
S11317A0F1E0FF2EF02D08E010E024E030E040E00E
S11317B050E060E670E08BEF93E027D48881998154
S11317C0049789F40F2EF0E1EF2EF1E0FF2EF02DB7
S11317D008E010E024E030E040E050E060E670E033
S11317E08BEF93E012D4DF91CF911F910F91FF9073
S11317F0EF9008958BEF93E00FD311B812B88CE3F8
S113180080936B00E8E6F0E08081816080837894C7
S113181083B18170C82F80E0D82FCE011999019629
S11318201A9901961B9901969093DB038093DA032E
S1131830892B89F40F2EF0E9EF2EF1E0FF2EF02D25
S113184008E010E024E030E040E050E060E670E0C2
S11318508BEF93E0DAD38091DA039091DB03019765
S113186089F40F2EF0E7EF2EF1E0FF2EF02D08E0C3
S113187010E024E030E040E050E060E670E08BEF00
S113188093E0C3D38091DA039091DB03029789F448
S11318900F2EF0E5EF2EF1E0FF2EF02D08E010E022
S11318A024E030E040E050E060E670E08BEF93E04D
S11318B0ACD38091DA039091DB03039789F40F2E64
S11318C0F0E3EF2EF1E0FF2EF02D08E010E024E02D
S11318D030E040E050E060E670E08BEF93E095D3B9
S11318E08091DA039091DB03049789F40F2EF0E1E1
S11318F0EF2EF1E0FF2EF02D08E010E024E030E0C0
S113190040E050E060E670E08BEF93E07ED30F2E72
S1131910F0E0EF2EF1E0FF2EF02D08E010E022E0E1
S113192030E040E050E060E570E08BEF93E06DD391
S11319308BEF93E071D20E9401016ACF8F929F9244
S1131940AF92BF92CF92DF92EF92FF920F931F93C9
S1131950CF93DF938CEF97E005D460E08BEF93E0B7
S11319607BD2CAEED3E0198218821B821A828AE0E3
S1131970E0EDF3E0AEEEB3E001900D928A95E1F76D
S113198084E090E09F878E878091FA03882309F48E
S11319907AC10F2EF8E7EF2EF3E0FF2EF02D08E0CA
S11319A010E021E030E045E050E06CE070E08BEFC7
S11319B093E02BD34E855F854F5F5F4F6E817F81B0
S11319C021E030E08BEF93E020D34E855F854F5FBD
S11319D05F4F6885798521E030E08BEF93E015D384
S11319E04E855F854F5F5F4F6A857B8521E030E0E0
S11319F08BEF93E00AD34E855F854F5F5F4F6C8515
S1131A007D8521E030E08BEF93E0FFD24E855F854A
S1131A104E5F5F4FE881F981EE0FFF1FE251FC4FEB
S1131A20608171810F2EF0E6EF2EF3E0FF2EF02D92
S1131A3021E030E08BEF93E0E8D24E855F854150A2
S1131A405109E881F981EE0FFF1FE251FC4F6081DB
S1131A5071810F2EF8E6EF2EF3E0FF2EF02D21E03A
S1131A6030E08BEF93E0D1D2AE84BF84E881F9817A
S1131A70EE0FFF1FE251FC4F80809180EA81FB81D1
S1131A80EB30F10508F0FFC0EE58FF4F86C308E0C5
S1131A9010E021E030E0A501B4018BEF93E066D2C1
S1131AA00F2EF8ECEF2EF3E0FF2EF02D21E030E0C6
S1131AB0A501B4018BEF93E0A8D2E5C008E010E0E3
S1131AC021E030E0A501B4018BEF93E04FD20F2E5B
S1131AD0F0ECEF2EF3E0FF2EF02D21E030E0A50135
S1131AE0B4018BEF93E091D2CEC008E010E021E086
S1131AF030E0A501B4018BEF93E038D20F2EF8EB60
S1131B00EF2EF3E0FF2EF02D21E030E0A501B4012B
S1131B108BEF93E07AD2B7C008E010E021E030E028
S1131B20A501B4018BEF93E021D20F2EF0EBEF2E41
S1131B30F3E0FF2EF02D21E030E0A501B4018BEF9E
S1131B4093E063D2A0C008E010E021E030E0A501FA
S1131B50B4018BEF93E00AD20F2EF8EAEF2EF3E0F4
S1131B60FF2EF02D21E030E0A501B4018BEF93E0CE
S1131B704CD289C008E010E021E030E0A501B401B6
S1131B808BEF93E0F3D10F2EF0EAEF2EF3E0FF2E6C
S1131B90F02D21E030E0A501B4018BEF93E035D2C4
S1131BA072C008E010E021E030E0A501B4018BEF41
S1131BB093E0DCD10F2EF8E9EF2EF3E0FF2EF02DA9
S1131BC021E030E0A501B4018BEF93E01ED25BC0AD
S1131BD008E010E021E030E0A501B4018BEF93E0D0
S1131BE0C5D10F2EF0E9EF2EF3E0FF2EF02D21E00A
S1131BF030E0A501B4018BEF93E007D244C008E0C4
S1131C0010E021E030E0A501B4018BEF93E0AED108
S1131C100F2EF8E8EF2EF3E0FF2EF02D21E030E058
S1131C20A501B4018BEF93E0F0D12DC008E010E0E2
S1131C3021E030E0A501B4018BEF93E097D10F2EA2
S1131C40F0E8EF2EF3E0FF2EF02D21E030E0A501C7
S1131C50B4018BEF93E0D9D116C008E010E021E085
S1131C6030E0A501B4018BEF93E080D10F2EF0E7B3
S1131C70EF2EF3E0FF2EF02D21E030E0A501B401BA
S1131C808BEF93E0C2D1C2EED3E0198218821B829B
S1131C901A8281E390E09D838C8382E090E09F83AD
S1131CA08E830F2EF0EBEF2EF1E0FF2EF02D00E1EE
S1131CB010E021E030E043E050E06DE170E08BEFB4
S1131CC093E0A3D14E815F814F5F5F4F6C817D8133
S1131CD06C5C7F4F0F2EF0E4EF2EF2E0FF2EF02D20
S1131CE021E030E08BEF93E090D18E809F80AC8038
S1131CF0BD808A819B8181309105E9F08230910514
S1131D0089F1892B09F044C000E210E024E030E0BE
S1131D10A401B5018BEF93E029D10F2EF0EDEF2E46
S1131D20F2E0FF2EF02D24E030E0A401B5018BEFAA
S1131D3093E06BD12DC000E210E024E030E0A40178
S1131D40B5018BEF93E012D10F2EF0E5EF2EF2E008
S1131D50FF2EF02D24E030E0A401B5018BEF93E0D9
S1131D6054D116C000E210E024E030E0A401B50133
S1131D708BEF93E0FBD00F2EF0ECEF2EF1E0FF2E73
S1131D80F02D24E030E0A401B5018BEF93E03DD1C8
S1131D9014B88FE085B983B180FBCC24C0F8D12C72
S1131DA0C601199901961A9901961B990196909367
S1131DB0DB038093DA038AED93E0A5DCDF91CF9116
S1131DC01F910F91FF90EF90DF90CF90BF90AF9055
S1131DD09F908F90089580E88093BB0084E880935F
S1131DE0BC00ECEBF0E080818823ECF76093BB004F
S1131DF084E88093BC00ECEBF0E080818823ECF76E
S1131E0008956093BB0084E88093BC00ECEBF0E0A1
S1131E1080818823ECF70895EF92FF920F931F932C
S1131E20CF93DF938C01EC017C018CEFF81A69915C
S1131E3070E0C801E6DFCE15DF05C9F7DF91CF9169
S1131E401F910F91FF90EF900895FC019C5F1192F8
S1131E50E817F907E1F708950F931F93CF93DF93E2
S1131E60EC018C011C5FC8017DD1C8017CD1C80183
S1131E708BD1C8017DD168EA70E0CE01ACDF6FE39D
S1131E8070E0CE01A8DF63ED70E0CE01A4DF60E076
S1131E9070E0CE01A0DF60E470E0CE019CDF61EA77
S1131EA070E0CE0198DF68EC70E0CE0194DF6AED5B
S1131EB070E0CE0190DF62E170E0CE018CDF61E87A
S1131EC070E0CE0188DF6FEF70E0CE0184DF64EA5A
S1131ED070E0CE0180DF66EA70E0CE017CDF65ED64
S1131EE070E0CE0178DF60E870E0CE0174DF6DE869
S1131EF070E0CE0170DF64E170E0CE016CDF6FEA68
S1131F0070E0CE0168DF60E270E0CE0164DF60E083
S1131F1070E0CE0160DF61E270E0CE015CDF60E082
S1131F2070E0CE0158DF6FE770E0CE0154DF62E26B
S1131F3070E0CE0150DF60E070E0CE014CDF67E07E
S1131F4070E0CE0148DF80E48093BB0084E8809396
S1131F50BC00CE017ADF60E070E0CE0152DFCE013A
S1131F605BDFDF91CF911F910F910895CF92DF92A4
S1131F70EF92FF920F931F93CF93DF93EC017B01BA
S1131F806A01B90110161106BCF520E030E0AB017E
S1131F90440F551F440F551F440F551F4E0D5F1D11
S1131FA01616170624F5C90133230CF407969595E4
S1131FB0879595958795959587958C0D9D1D9695F7
S1131FC0982F882797958795FC01EE0DFF1DEC0F40
S1131FD0FD1F840F951F8C0F9D1FDF011896119212
S1131FE0EA17FB07E1F7FD018A179B07B1F72F5F9B
S1131FF03F4F02171307A1F6DF91CF911F910F9165
S1132000FF90EF90DF90CF9008952F923F924F92E0
S11320105F926F927F928F929F92AF92BF92CF9274
S1132020DF92EF92FF920F931F93CF93DF9300D031
S113203000D000D0CDB7DEB79E838D833A0129014D
S11320401801101611060CF074C03C832B838E2CDF
S11320509F2CC12CD12C0F2EF7E0AF2EB12CF02DDC
S1132060C901880F991F880F991F880F991F9B0119
S1132070280F391F3A832983141415040CF04EC019
S1132080C60187709078992324F40197886F9F6F15
S113209001968501081B190B7601DD201CF497E0DD
S11320A0E90EF11CF594E794F594E794F594E7941C
S11320B0E60CF71CF694FE2CEE24F794E794AB019F
S11320C04E0D5F1D2D813E81420F531F89819A81E0
S11320D0E80EF91EE20EF31ED401FA0120E030E00E
S11320E08C9190E0022E02C0880F991F0A94E2F7A7
S11320F080789927002E02C0959587950A94E2F777
S11321009081892B81932F5F3F4F2830310541F710
S1132110485F5F4F11964E155F05F9F63FEFC31AFE
S1132120D30A8B819C81880E991E2C143D0409F0DE
S1132130A3CF26960FB6F894DEBF0FBECDBFDF91B6
S1132140CF911F910F91FF90EF90DF90CF90BF90B0
S1132150AF909F908F907F906F905F904F903F9043
S11321602F90089508951092B8001092B900089520
S113217088E78093BB0084E88093BC00ECEBF0E03C
S113218080818823ECF7089584EA8093BC00ECEB0B
S1132190F0E080818823ECF70895EE0FFF1F002400
S11321A0001C0BBE0790F691E02D0994F894FFCF24
S11321B0E000A00AAE04AA0AAAE0AAA0AAAEEEAE63
S11321C03FFFFFFC200000042F0000042F00000448
S11321D02F0000042F000004200000043FFFFFFC38
S11321E03FFFFFFC200000042F7800042F78000438
S11321F02F7800042F780004200000043FFFFFFC28
S11322003FFFFFFC200000042F7BC0042F7BC00491
S11322102F7BC0042F7BC004200000043FFFFFFC81
S11322203FFFFFFC200000042F7BDE042F7BDE0435
S11322302F7BDE042F7BDE04200000043FFFFFFC25
S11322403FFFFFFC200000042F7BDEF42F7BDEF435
S11322502F7BDEF42F7BDEF4200000043FFFFFFC25
S11322600103070F1F3F7FFFFF7F3F1F0F0703017E
S113227000000000000180000007E000001C38009E
S113228000700E0000E0070001C0038001C003805D
S113229001C0038001C0038001C0038001C003802A
S11322A000800380000003800000038003FFFFC060
S11322B003FFFFC003FFFFC003FE7FC003FC3FC05A
S11322C003FC3FC003FE7FC003FE7FC003FC7FC04E
S11322D003FE7FC003FFFFC003FFFFC00000000038
S11322E000000000000000000000000000000000EA
S11322F080C0E0F0F8FCFEFFFFFEFCF8F0E0C080D8
S113230000000000000000000000000000000000C9
S1132310000180000007E000001C380000700E007F
S113232000E0070001C0038001C0038001C00380F6
S113233001C0038001C0038001C0038003FFFFC00C
S113234003FFFFC003FFFFC003FE7FC003FC3FC0C9
S113235003FC3FC003FE7FC003FE7FC003FC7FC0BD
S113236003FE7FC003FFFFC003FFFFC000000000A7
S11323700000000000000000000000000000000059
S1132380000180000003C0000007E0001E0FF07889
S11323901F9E79F81FFC3FF81FE007F80F0000F8B4
S11323A00E07E070060E7060061818600C300C30D2
S11323B01C6186383CC3C33C7987E19EF18E719FD2
S11323C0F18E719F7987E19E3CC3C33C1C618638C2
S11323D00C300C3006181860060E70600E07E070A2
S11323E00F0000F81FE007F81FFC3FF81F9E79F864
S11323F01E0FF0780007E0000003C000000000009A
S11324000000000000000000000000000001800047
S113241000FF7E3C18000000183C7EFF0000000016
S113242000207E7E2606000000007E0000000000E2
S1132430003C24243C043C00003C243C24243C0078
S1132440003C040810202000003C203C24243C00D4
S1132450003C203C04043C00002424243C040400EC
S1132460003C043C04043C00003C040418303C00E0
S11324700018380808083C00003C242424243C00AC
S10D24800C0024003C0054006C0022
S9030000FC
