S0110000536D6172744C6F636B2E7372656383
S113000067C000008FC000008DC000008BC00000DE
S11300100C94C01587C0000085C0000083C0000098
S113002081C000007FC000007DC000007BC00000D4
S113003079C0000077C0000075C0000073C00000E4
S113004071C000006FC000006DC000006BC00000F4
S113005069C0000067C0000065C0000063C0000004
S113006061C000005FC000005DC000005BC0000014
S113007059C0000057C0000055C0000053C0000024
S113008051C000004FC000004DC00000AD02E302AB
S113009019034F038503BB03F10327045D04930491
S11300A0C804690BC60B230C800CDD0C3A0D970DAC
S11300B0F40D510EAE0E0B0FC119FA19331A6C1A46
S11300C0A51ADE1A171B501B891BC21BFA1B2B1FF8
S11300D011241FBECFEFD0E4DEBFCDBF16E0A0E0F9
S11300E0B1E0E0E4F3E400E00BBF02C007900D923E
S11300F0A431B107D9F72AE0A4E1B6E001C01D920A
S1130100A437B207E1F710E0C8E6D0E004C02197B5
S1130110FE010E949521C736D107C9F70E94861DAA
S11301200C949E216DCFCF93DF93EC01E881F9818C
S11301300190F081E02D0995E881F9810088F18929
S1130140E02DCE010995DF91CF910895DC0114963D
S11301502D913C9115972F5F3F4F233031052CF49F
S113016015963C932E93149703C0FC0115821482B8
S1130170DC01ED91FC910088F189E02D0995089549
S1130180DC0114962D913C911597215031092AF0E8
S113019015963C932E93149705C022E030E0FC01A1
S11301A035832483DC01ED91FC910088F189E02DF5
S11301B009950895DC0114962D913C9115972130F1
S11301C0310589F022303105D9F0232B29F510921D
S11301D0000121E020937106ED91FC910480F581EA
S11301E0E02D099508951092000121E020937006F6
S11301F0DC01ED91FC910480F581E02D09950895D1
S11302001092000121E020936F06DC01ED91FC9136
S11302100480F581E02D0995089508950895CF93FC
S1130220DF93EC01E881F9810190F081E02D0995DB
S1130230E881F9810088F189E02DCE010995DF91EB
S1130240CF910895DC0116962D913C9117972F5F5D
S11302503F4F2B3031052CF417963C932E93169771
S113026003C0FC0117821682DC01ED91FC91008829
S1130270F189E02D09950895DC0116962D913C91A4
S11302801797215031092AF017963C932E9316970D
S113029005C02AE030E0FC0137832683DC01ED91C0
S11302A0FC910088F189E02D099508950895CF9374
S11302B0DF93EC01E881F9810190F081E02D09954B
S11302C0E881F9810088F189E02DCE010995DF915B
S11302D0CF910895DC0114962D913C9115972F5FD1
S11302E03F4F243031052CF415963C932E931497EC
S11302F003C0FC0115821482DC01ED91FC9100889D
S1130300F189E02D09950895DC0114962D913C9115
S11303101597215031092AF015963C932E93149782
S113032005C023E030E0FC0135832483DC01ED913A
S1130330FC910088F189E02D09950895DC0114965B
S11303402D913C9115972330310531F4ED91FC91B9
S11303500484F585E02D09950895CF93DF93EC018E
S1130360E881F9810480F581E02D09951D821C82C4
S1130370DF91CF9108950895CF93DF93EC01E88145
S1130380F9810190F081E02D0995E881F9810088D7
S1130390F189E02DCE010995DF91CF910895DC011B
S11303A014962D913C9115972F5F3F4F23303105C3
S11303B02CF415963C932E93149703C0FC011582DC
S11303C01482DC01ED91FC910088F189E02D0995FE
S11303D00895DC0114962D913C9115972150310913
S11303E02AF015963C932E93149705C022E030E032
S11303F0FC0135832483DC01ED91FC910088F189B3
S1130400E02D09950895CF93DF93EC01E881F981FC
S11304100480F581E02D09951D821C82DF91CF9126
S1130420089508950895CF93DF93EC01E881F9814D
S11304300190F081E02D0995E881F9810088F18926
S1130440E02DCE010995DF91CF910895CF93DF93ED
S1130450EC01E881F9810480F581E02D0995E881BA
S1130460F9810088F189E02DCE010995DF91CF91C2
S11304700895CF93DF93EC01E881F9810480F5813D
S1130480E02D0995E881F9810088F189E02DCE01FC
S11304900995DF91CF910895DC01ED91FC910480E1
S11304A0F581E02D09950895CF93DF93EC01E88160
S11304B0F9810480F581E02D09951D821C82DF916C
S11304C0CF91089508950895CF93DF93EC01E881C7
S11304D0F9810190F081E02D0995E881F981008886
S11304E0F189E02DCE010995DF91CF910895DC01CA
S11304F0ED91FC910480F581E02D09950895DC01CE
S1130500ED91FC910480F581E02D09950895DC01BD
S1130510ED91FC910480F581E02D09950895DC01AD
S1130520ED91FC910480F581E02D099508950895DD
S1130530AF92BF92CF92DF92EF92FF920F931F93ED
S1130540CF93DF93EC01EE81FF81EB30F10508F0EE
S113055025C2EA5BFF4F0C9495218C819D81019605
S11305609D838C83181619060CF018C26E0188E05E
S1130570C80ED11CE12CF12C56014A895B894E5FCF
S11305805F4FF601619171916F0108E010E021E085
S113059030E082E796E00E947E204A895B894150E0
S11305A05109F5016081718121E030E082E796E034
S11305B00E947E20FFEFEF1AFF0A8C819D81E816CE
S11305C0F906D4F2EBC18C819D8101969D838C83C5
S11305D0181619060CF0E2C16E0188E0C80ED11C91
S11305E0E12CF12C56014A895B894E5F5F4FF6017D
S11305F0619171916F0108E010E021E030E082E741
S113060096E00E947E204A895B8941505109F50198
S11306106081718121E030E082E796E00E947E20D3
S1130620FFEFEF1AFF0A8C819D81E816F906D4F2D8
S1130630B5C18C819D8101969D838C831816190602
S11306400CF0ACC16E0188E0C80ED11CE12CF12C79
S113065056014A895B894E5F5F4FF6016191719142
S11306606F0108E010E021E030E082E796E00E94AC
S11306707E204A895B8941505109F501608171816D
S113068021E030E082E796E00E947E20FFEFEF1A3F
S1130690FF0A8C819D81E816F906D4F27FC18C8112
S11306A09D8101969D838C83181619060CF076C1E2
S11306B06E0188E0C80ED11CE12CF12C56014A8948
S11306C05B894E5F5F4FF601619171916F0108E0A4
S11306D010E021E030E082E796E00E947E204A8923
S11306E05B8941505109F5016081718121E030E05D
S11306F082E796E00E947E20FFEFEF1AFF0A8C81CA
S11307009D81E816F906D4F249C18C819D81019638
S11307109D838C83181619060CF040C16E0188E085
S1130720C80ED11CE12CF12C56014A895B894E5F1D
S11307305F4FF601619171916F0108E010E021E0D3
S113074030E082E796E00E947E204A895B8941502E
S11307505109F5016081718121E030E082E796E082
S11307600E947E20FFEFEF1AFF0A8C819D81E8161C
S1130770F906D4F213C18C819D8101969D838C83EB
S1130780181619060CF00AC16E0188E0C80ED11CB7
S1130790E12CF12C56014A895B894E5F5F4FF601CB
S11307A0619171916F0108E010E021E030E082E78F
S11307B096E00E947E204A895B8941505109F501E7
S11307C06081718121E030E082E796E00E947E2022
S11307D0FFEFEF1AFF0A8C819D81E816F906D4F227
S11307E0DDC08C819D8101969D838C83181619062A
S11307F00CF0D4C06E0188E0C80ED11CE12CF12CA1
S113080056014A895B894E5F5F4FF6016191719190
S11308106F0108E010E021E030E082E796E00E94FA
S11308207E204A895B8941505109F50160817181BB
S113083021E030E082E796E00E947E20FFEFEF1A8D
S1130840FF0A8C819D81E816F906D4F2A7C08C8139
S11308509D8101969D838C83181619060CF09EC009
S11308606E0188E0C80ED11CE12CF12C56014A8996
S11308705B894E5F5F4FF601619171916F0108E0F2
S113088010E021E030E082E796E00E947E204A8971
S11308905B8941505109F5016081718121E030E0AB
S11308A082E796E00E947E20FFEFEF1AFF0A8C8118
S11308B09D81E816F906D4F271C08C819D81019660
S11308C09D838C83181619060CF068C06E0188E0AD
S11308D0C80ED11CE12CF12C56014A895B894E5F6C
S11308E05F4FF601619171916F0108E010E021E022
S11308F030E082E796E00E947E204A895B8941507D
S11309005109F5016081718121E030E082E796E0D0
S11309100E947E20FFEFEF1AFF0A8C819D81E8166A
S1130920F906D4F23BC08C819D8101969D838C8312
S1130930181619069CF56E0188E0C80ED11CE12C2E
S1130940F12C56014A895B894E5F5F4FF601619134
S113095071916F0108E010E021E030E082E796E059
S11309600E947E204A895B8941505109F5016081CA
S1130970718121E030E082E796E00E947E20FFEF63
S1130980EF1AFF0A8C819D81E816F906D4F206C09D
S1130990E881F9810484F585E02D09958C819D8198
S11309A005976CF081E08093000110927106E88154
S11309B0F9810480F581E02DCE01099509C01F82DB
S11309C01E82E881F9810088F189E02DCE01099524
S11309D0DF91CF911F910F91FF90EF90DF90CF9017
S11309E0BF90AF9008950F931F93CF93DF93EC01C3
S11309F04A895B89EC81FD813496EE0FFF1FE80F75
S1130A00F91F6081718108E010E021E030E082E7A5
S1130A1096E00E947E204A895B894E5F5F4FEC819D
S1130A20FD813496EE0FFF1FEC0FFD1F6081718175
S1130A3021E030E082E796E00E947E204A895B89CB
S1130A4041505109EC81FD813496EE0FFF1FEC0FEC
S1130A50FD1F6081718121E030E082E796E00E9411
S1130A607E208C819D8101979D838C8399237CF4C6
S1130A701092710681E080930001E881F98104807D
S1130A80F581E02DCE0109951D821C8207C0E88105
S1130A90F9810088F189E02DCE010995DF91CF918C
S1130AA01F910F910895EF92FF920F931F93CF938D
S1130AB0DF93EC0190916F06992309F408C28C81AD
S1130AC09D818130910509F40CC18230910509F4AE
S1130AD0DBC1892B09F0FBC14C855D8508E010E082
S1130AE020E130E060E070E082E796E00E947E2042
S1130AF04C855D85EC81FD813396EE0FFF1FEC0F75
S1130B00FD1F608171810F2EF9E9EF2EF1E0FF2EB8
S1130B10F02D21E030E082E796E00E94CD204C8564
S1130B205D85EC81FD813396EE0FFF1FEC0FFD1FF9
S1130B3060817181685F7F4F0F2EF1E9EF2EF1E044
S1130B40FF2EF02D21E030E082E796E00E94CD20D8
S1130B504C855D85EC81FD813396EE0FFF1FEC0F14
S1130B60FD1F60817181605F7F4F0F2EF1E2EF2ED8
S1130B70F1E0FF2EF02D21E030E082E796E00E94C4
S1130B80CD204C855D85EC81FD813396EE0FFF1FF2
S1130B90EC0FFD1F60817181685E7F4F0F2EF1E7BE
S1130BA0EF2EF1E0FF2EF02D21E030E082E796E019
S1130BB00E94CD204C855D85EC81FD813396EE0F3E
S1130BC0FF1FEC0FFD1F60817181605E7F4F0F2E50
S1130BD0F1EAEF2EF1E0FF2EF02D21E030E082E784
S1130BE096E00E94CD204C855D85EC81FD81339695
S1130BF0EE0FFF1FEC0FFD1F60817181685D7F4F59
S1130C000F2EF1E9EF2EF1E0FF2EF02D21E030E080
S1130C1082E796E00E94CD204C855D85EC81FD81C4
S1130C203396EE0FFF1FEC0FFD1F60817181685C2E
S1130C307F4F0F2EF1E7EF2EF1E0FF2EF02D21E094
S1130C4030E082E796E00E94CD204C855D85EC8102
S1130C50FD813396EE0FFF1FEC0FFD1F6081718144
S1130C60605C7F4F0F2EF1E5EF2EF1E0FF2EF02DAB
S1130C7021E030E082E796E00E94CD204C855D853E
S1130C80EC81FD813396EE0FFF1FEC0FFD1F608199
S1130C907181685B7F4F0F2EF9E8EF2EF1E0FF2E94
S1130CA0F02D21E030E082E796E00E94CD204C85D3
S1130CB05D858C819D810396880F991FC80FD91F6C
S1130CC068817981605B7F4F0F2EF9E4EF2EF1E0AC
S1130CD0FF2EF02D21E030E082E796E00E94CD2047
S1130CE0F6C04C855D8508E010E020E130E060E06E
S1130CF070E082E796E00E947E204C855D85EC8161
S1130D00FD813396EE0FFF1FEC0FFD1F6081718193
S1130D100F2EF9E2EF2EF1E0FF2EF02D21E030E06E
S1130D2082E796E00E94CD204C855D85EC81FD81B3
S1130D303396EE0FFF1FEC0FFD1F60817181685F1A
S1130D407F4F0F2EF9E3EF2EF1E0FF2EF02D21E07F
S1130D5030E082E796E00E94CD204C855D85EC81F1
S1130D60FD813396EE0FFF1FEC0FFD1F6081718133
S1130D70605F7F4F0F2EF1E9EF2EF1E0FF2EF02D93
S1130D8021E030E082E796E00E94CD204C855D852D
S1130D90EC81FD813396EE0FFF1FEC0FFD1F608188
S1130DA07181685E7F4F0F2EF1E4EF2EF1E0FF2E8C
S1130DB0F02D21E030E082E796E00E94CD204C85C2
S1130DC05D85EC81FD813396EE0FFF1FEC0FFD1F57
S1130DD060817181685D7F4F0F2EF1E7EF2EF1E0A6
S1130DE0FF2EF02D21E030E082E796E00E94CD2036
S1130DF04C855D85EC81FD813396EE0FFF1FEC0F72
S1130E00FD1F60817181605D7F4F0F2EF1E5EF2E34
S1130E10F1E0FF2EF02D21E030E082E796E00E9421
S1130E20CD204C855D85EC81FD813396EE0FFF1F4F
S1130E30EC0FFD1F60817181685C7F4F0F2EF9E814
S1130E40EF2EF1E0FF2EF02D21E030E082E796E076
S1130E500E94CD204C855D858C819D810396880FF1
S1130E60991FC80FD91F68817981605C7F4F0F2E4D
S1130E70F9E4EF2EF1E0FF2EF02D21E030E082E7DF
S1130E8096E00E94CD2023C04C855D8508E010E0EB
S1130E9020E130E060E070E082E796E00E947E208E
S1130EA04C855D858C819D810396880F991FC80FA1
S1130EB0D91F688179810F2EF1E0EF2EF1E0FF2E2A
S1130EC0F02D22E030E082E796E00E94CD20DF9111
S1130ED0CF911F910F91FF90EF900895EF92FF92A1
S1130EE00F931F93CF93DF93EC014C855D854E5F89
S1130EF05F4F0F2EF9E6EF2EF2E0FF2EF02D08E003
S1130F0010E022E030E068E370E082E796E00E94BF
S1130F10CD204C855D85425051090F2EF9E7EF2E07
S1130F20F2E0FF2EF02D22E030E068E370E082E78B
S1130F3096E00E94CD20DF91CF911F910F91FF90F9
S1130F40EF900895EF92FF920F931F93CF93DF9347
S1130F50EC0190917006992309F46AC38C819D81F8
S1130F608130910509F456C11CF4892B49F060C302
S1130F708230910509F46CC2039709F436C358C34F
S1130F804E855F8508E010E020E130E060E070E02D
S1130F9082E796E00E947E204E855F85EC81FD818C
S1130FA03396EE0FFF1FEC0FFD1F608171810F2E32
S1130FB0F9E3EF2EF1E0FF2EF02D21E030E082E79F
S1130FC096E00E94CD204E855F85EC81FD813396AD
S1130FD0EE0FFF1FEC0FFD1F60817181685F7F4F73
S1130FE00F2EF1E9EF2EF1E0FF2EF02D21E030E09D
S1130FF082E796E00E94CD204E855F85EC81FD81DD
S11310003396EE0FFF1FEC0FFD1F60817181605F4F
S11310107F4F0F2EF1E3EF2EF1E0FF2EF02D21E0B4
S113102030E082E796E00E94CD204E855F85EC811A
S1131030FD813396EE0FFF1FEC0FFD1F6081718160
S1131040605E7F4F0F2EF9EAEF2EF1E0FF2EF02DB8
S113105021E030E082E796E00E94CD204E855F8556
S1131060EC81FD813396EE0FFF1FEC0FFD1F6081B5
S11310707181685D7F4F0F2EF1E4EF2EF1E0FF2EBA
S1131080F02D21E030E082E796E00E94CD204E85ED
S11310905F85EC81FD813396EE0FFF1FEC0FFD1F82
S11310A060817181605D7F4F0F2EF1E7EF2EF1E0DB
S11310B0FF2EF02D21E030E082E796E00E94CD2063
S11310C04E855F85EC81FD813396EE0FFF1FEC0F9B
S11310D0FD1F60817181685C7F4F0F2EF1E8EF2E58
S11310E0F1E0FF2EF02D21E030E082E796E00E944F
S11310F0CD204E855F85EC81FD813396EE0FFF1F79
S1131100EC0FFD1F60817181605C7F4F0F2EF9E74A
S1131110EF2EF1E0FF2EF02D21E030E082E796E0A3
S11311200E94CD204E855F85EC81FD813396EE0FC4
S1131130FF1FEC0FFD1F60817181685B7F4F0F2ED5
S1131140F1E3EF2EF1E0FF2EF02D21E030E082E715
S113115096E00E94CD204E855F85EC81FD8133961B
S1131160EE0FFF1FEC0FFD1F60817181605B7F4FED
S11311700F2EF1E5EF2EF1E0FF2EF02D21E030E00F
S113118082E796E00E94CD204E855F85EC81FD814B
S11311903396EE0FFF1FEC0FFD1F60817181685ABB
S11311A07F4F0F2EF1E9EF2EF1E0FF2EF02D21E01D
S11311B030E082E796E00E94CD204E855F85EC8189
S11311C0FD813396EE0FFF1FEC0FFD1F60817181CF
S11311D0605A7F4F0F2EF9E3EF2EF1E0FF2EF02D32
S11311E021E030E082E796E00E94CD204E855F85C5
S11311F08C819D810396880F991FC80FD91F688120
S1131200798168597F4F21E030E082E796E00E94BF
S1131210CD200EC24E855F8508E010E020E130E06D
S113122060E070E082E796E00E947E204E855F8554
S1131230EC81FD813396EE0FFF1FEC0FFD1F6081E3
S113124071810F2EF1E4EF2EF1E0FF2EF02D21E05D
S113125030E082E796E00E94CD204E855F85EC81E8
S1131260FD813396EE0FFF1FEC0FFD1F608171812E
S1131270685F7F4F0F2EF1E9EF2EF1E0FF2EF02D86
S113128021E030E082E796E00E94CD204E855F8524
S1131290EC81FD813396EE0FFF1FEC0FFD1F608183
S11312A07181605F7F4F0F2EF9E3EF2EF1E0FF2E87
S11312B0F02D21E030E082E796E00E94CD204E85BB
S11312C05F85EC81FD813396EE0FFF1FEC0FFD1F50
S11312D060817181685E7F4F0F2EF1E9EF2EF1E09E
S11312E0FF2EF02D21E030E082E796E00E94CD2031
S11312F04E855F85EC81FD813396EE0FFF1FEC0F69
S1131300FD1F60817181605E7F4F0F2EF1E3EF2E30
S1131310F1E0FF2EF02D21E030E082E796E00E941C
S1131320CD204E855F85EC81FD813396EE0FFF1F46
S1131330EC0FFD1F60817181605D7F4F0F2EF9E915
S1131340EF2EF1E0FF2EF02D21E030E082E796E071
S11313500E94CD204E855F85EC81FD813396EE0F92
S1131360FF1FEC0FFD1F60817181685C7F4F0F2EA2
S1131370F1E9EF2EF1E0FF2EF02D21E030E082E7DD
S113138096E00E94CD204E855F85EC81FD813396E9
S1131390EE0FFF1FEC0FFD1F60817181605C7F4FBA
S11313A00F2EF1E2EF2EF1E0FF2EF02D21E030E0E0
S11313B082E796E00E94CD204E855F85EC81FD8119
S11313C03396EE0FFF1FEC0FFD1F60817181685B88
S11313D07F4F0F2EF1E7EF2EF1E0FF2EF02D21E0ED
S11313E030E082E796E00E94CD204E855F85EC8157
S11313F0FD813396EE0FFF1FEC0FFD1F608171819D
S1131400605B7F4F0F2EF1EAEF2EF1E0FF2EF02DFF
S113141021E030E082E796E00E94CD204E855F8592
S11314208C819D810396880F991FC80FD91F6881ED
S11314307981685A7F4F0F2EF1E9EF2EF1E0FF2EEC
S1131440F02D21E030E082E796E00E94CD20F0C04C
S11314504E855F8508E010E020E130E060E070E058
S113146082E796E00E947E204E855F85EC81FD81B7
S11314703396EE0FFF1FEC0FFD1F608171810F2E5D
S1131480F1EBEF2EF1E0FF2EF02D21E030E082E7CA
S113149096E00E94CD204E855F85EC81FD813396D8
S11314A0EE0FFF1FEC0FFD1F60817181685F7F4F9E
S11314B00F2EF9E9EF2EF1E0FF2EF02D21E030E0C0
S11314C082E796E00E94CD204E855F85EC81FD8108
S11314D03396EE0FFF1FEC0FFD1F60817181605F7B
S11314E07F4F21E030E082E796E00E94CD204E85D8
S11314F05F85EC81FD813396EE0FFF1FEC0FFD1F1E
S113150060817181605E7F4F0F2EF9E4EF2EF1E070
S1131510FF2EF02D21E030E082E796E00E94CD20FE
S11315204E855F85EC81FD813396EE0FFF1FEC0F36
S1131530FD1F60817181685D7F4F0F2EF9E1EF2EF1
S1131540F1E0FF2EF02D21E030E082E796E00E94EA
S1131550CD204E855F85EC81FD813396EE0FFF1F14
S1131560EC0FFD1F60817181605D7F4F0F2EF1E5EF
S1131570EF2EF1E0FF2EF02D21E030E082E796E03F
S11315800E94CD204E855F85EC81FD813396EE0F60
S1131590FF1FEC0FFD1F60817181685C7F4F0F2E70
S11315A0F1E9EF2EF1E0FF2EF02D21E030E082E7AB
S11315B096E00E94CD204E855F858C819D810396A7
S11315C0880F991FC80FD91F68817981605C7F4F8C
S11315D00F2EF1E4EF2EF1E0FF2EF02D21E030E0AC
S11315E082E796E00E94CD2023C04E855F8508E007
S11315F010E020E130E060E070E082E796E00E94D5
S11316007E204E855F858C819D810396880F991F6E
S1131610C80FD91F688179810F2EF1E0EF2EF1E018
S1131620FF2EF02D22E030E082E796E00E94CD20EC
S1131630DF91CF911F910F91FF90EF900895EF925A
S1131640FF920F931F93CF93DF93EC014E855F8539
S11316504E5F5F4F0F2EF9E6EF2EF2E0FF2EF02DD6
S113166008E010E022E030E068E370E082E796E012
S11316700E94CD204E855F85425051090F2EF9E717
S1131680EF2EF2E0FF2EF02D22E030E068E370E070
S113169082E796E00E94CD20DF91CF911F910F91B8
S11316A0FF90EF900895EF92FF920F931F93CF93C3
S11316B0DF93EC0190917106992309F408C4EE813B
S11316C0FF81EB30F10508F002C4EF5AFF4F0C9490
S11316D095214A895B89EC81FD813496EE0FFF1FC9
S11316E0EC0FFD1F6081718108E010E021E030E023
S11316F082E796E00E947E204A895B89EC81FD8125
S11317003496EE0FFF1FEC0FFD1F608171810F2EC9
S1131710F1E3EF2EF5E0FF2EF02D21E030E082E73B
S113172096E00E94CD204A895B894E5F5F4FEC8131
S1131730FD813496EE0FFF1FEC0FFD1F6081718158
S11317400F2EF9ECEF2EF4E0FF2EF02D21E030E027
S113175082E796E00E94CD204A895B894150510975
S11317608C819D810496880F991FC80FD91F6881A9
S113177079810F2EF1EDEF2EF4E0FF2EF02D21E014
S113178030E082E796E00E94CD20A1C34A895B89BC
S1131790EC81FD813496EE0FFF1FEC0FFD1F60817D
S11317A0718108E010E021E030E082E796E00E94D9
S11317B07E204A895B89EC81FD813496EE0FFF1F00
S11317C0EC0FFD1F608171810F2EF9E2EF2EF5E021
S11317D0FF2EF02D21E030E082E796E00E94CD203C
S11317E04A895B894E5F5F4FEC81FD813496EE0F31
S11317F0FF1FEC0FFD1F608171810F2EF9ECEF2E9E
S1131800F4E0FF2EF02D21E030E082E796E00E9424
S1131810CD204A895B89415051098C819D81049670
S1131820880F991FC80FD91F688179810F2EF1ED98
S1131830EF2EF4E0FF2EF02D21E030E082E796E079
S11318400E94CD2044C34A895B89EC81FD81349692
S1131850EE0FFF1FEC0FFD1F6081718108E010E0A7
S113186021E030E082E796E00E947E204A895B898D
S1131870EC81FD813496EE0FFF1FEC0FFD1F60819C
S113188071810F2EF1E2EF2EF5E0FF2EF02D21E015
S113189030E082E796E00E94CD204A895B894E5F62
S11318A05F4FEC81FD813496EE0FFF1FEC0FFD1F9F
S11318B0608171810F2EF9ECEF2EF4E0FF2EF02DF4
S11318C021E030E082E796E00E94CD204A895B89DE
S11318D0415051098C819D810496880F991FC80F2E
S11318E0D91F688179810F2EF1EDEF2EF4E0FF2EE0
S11318F0F02D21E030E082E796E00E94CD20E7C29F
S11319004A895B89EC81FD813496EE0FFF1FEC0F51
S1131910FD1F6081718108E010E021E030E082E782
S113192096E00E947E204A895B89EC81FD81349691
S1131930EE0FFF1FEC0FFD1F608171810F2EF9E187
S1131940EF2EF5E0FF2EF02D21E030E082E796E067
S11319500E94CD204A895B894E5F5F4FEC81FD81F7
S11319603496EE0FFF1FEC0FFD1F608171810F2E67
S1131970F9ECEF2EF4E0FF2EF02D21E030E082E7C9
S113198096E00E94CD204A895B89415051098C819F
S11319909D810496880F991FC80FD91F688179818A
S11319A00F2EF1EDEF2EF4E0FF2EF02D21E030E0CC
S11319B082E796E00E94CD208AC24A895B89EC8145
S11319C0FD813496EE0FFF1FEC0FFD1F60817181C6
S11319D008E010E021E030E082E796E00E947E20FB
S11319E04A895B89EC81FD813496EE0FFF1FEC0F71
S11319F0FD1F608171810F2EF1E1EF2EF5E0FF2EC6
S1131A00F02D21E030E082E796E00E94CD204A8963
S1131A105B894E5F5F4FEC81FD813496EE0FFF1FB3
S1131A20EC0FFD1F608171810F2EF9ECEF2EF4E0B5
S1131A30FF2EF02D21E030E082E796E00E94CD20D9
S1131A404A895B89415051098C819D810496880F94
S1131A50991FC80FD91F688179810F2EF1EDEF2EE0
S1131A60F4E0FF2EF02D21E030E082E796E00E94C2
S1131A70CD202DC24A895B89EC81FD813496EE0F1D
S1131A80FF1FEC0FFD1F6081718108E010E021E071
S1131A9030E082E796E00E947E204A895B89EC81EF
S1131AA0FD813496EE0FFF1FEC0FFD1F60817181E5
S1131AB00F2EF9E0EF2EF5E0FF2EF02D21E030E0BF
S1131AC082E796E00E94CD204A895B894E5F5F4F92
S1131AD0EC81FD813496EE0FFF1FEC0FFD1F60813A
S1131AE071810F2EF9ECEF2EF4E0FF2EF02D21E0A2
S1131AF030E082E796E00E94CD204A895B8941501C
S1131B0051098C819D810496880F991FC80FD91F94
S1131B10688179810F2EF1EDEF2EF4E0FF2EF02D88
S1131B2021E030E082E796E00E94CD20D0C14A89CE
S1131B305B89EC81FD813496EE0FFF1FEC0FFD1FD6
S1131B406081718108E010E021E030E082E796E0F6
S1131B500E947E204A895B89EC81FD813496EE0FD8
S1131B60FF1FEC0FFD1F608171810F2EF1E0EF2E3E
S1131B70F5E0FF2EF02D21E030E082E796E00E94B0
S1131B80CD204A895B894E5F5F4FEC81FD8134969D
S1131B90EE0FFF1FEC0FFD1F608171810F2EF9EC1A
S1131BA0EF2EF4E0FF2EF02D21E030E082E796E006
S1131BB00E94CD204A895B89415051098C819D81C5
S1131BC00496880F991FC80FD91F688179810F2E39
S1131BD0F1EDEF2EF4E0FF2EF02D21E030E082E76E
S1131BE096E00E94CD2073C14A895B89EC81FD8116
S1131BF03496EE0FFF1FEC0FFD1F6081718108E02A
S1131C0010E021E030E082E796E00E947E204A89DD
S1131C105B89EC81FD813496EE0FFF1FEC0FFD1FF5
S1131C20608171810F2EF9EFEF2EF4E0FF2EF02D7D
S1131C3021E030E082E796E00E94CD204A895B896A
S1131C404E5F5F4FEC81FD813496EE0FFF1FEC0F6A
S1131C50FD1F608171810F2EF9ECEF2EF4E0FF2E51
S1131C60F02D21E030E082E796E00E94CD204A8901
S1131C705B89415051098C819D810496880F991F7D
S1131C80C80FD91F688179810F2EF1EDEF2EF4E092
S1131C90FF2EF02D21E030E082E796E00E94CD2077
S1131CA016C14A895B89EC81FD813496EE0FFF1FD2
S1131CB0EC0FFD1F6081718108E010E021E030E04D
S1131CC082E796E00E947E204A895B89EC81FD814F
S1131CD03496EE0FFF1FEC0FFD1F608171810F2EF4
S1131CE0F1EFEF2EF4E0FF2EF02D21E030E082E75B
S1131CF096E00E94CD204A895B894E5F5F4FEC815C
S1131D00FD813496EE0FFF1FEC0FFD1F6081718182
S1131D100F2EF9ECEF2EF4E0FF2EF02D21E030E051
S1131D2082E796E00E94CD204A895B89415051099F
S1131D308C819D810496880F991FC80FD91F6881D3
S1131D4079810F2EF1EDEF2EF4E0FF2EF02D21E03E
S1131D5030E082E796E00E94CD20B9C04A895B89D1
S1131D60EC81FD813496EE0FFF1FEC0FFD1F6081A7
S1131D70718108E010E021E030E082E796E00E9403
S1131D807E204A895B89EC81FD813496EE0FFF1F2A
S1131D90EC0FFD1F608171810F2EF9EEEF2EF4E040
S1131DA0FF2EF02D21E030E082E796E00E94CD2066
S1131DB04A895B894E5F5F4FEC81FD813496EE0F5B
S1131DC0FF1FEC0FFD1F608171810F2EF9ECEF2EC8
S1131DD0F4E0FF2EF02D21E030E082E796E00E944F
S1131DE0CD204A895B89415051098C819D8104969B
S1131DF0880F991FC80FD91F688179810F2EF1EDC3
S1131E00EF2EF4E0FF2EF02D21E030E082E796E0A3
S1131E100E94CD205CC04A895B89EC81FD813496A7
S1131E20EE0FFF1FEC0FFD1F6081718108E010E0D1
S1131E3021E030E082E796E00E947E204A895B89B7
S1131E40EC81FD813496EE0FFF1FEC0FFD1F6081C6
S1131E5071810F2EF9EDEF2EF4E0FF2EF02D21E02D
S1131E6030E082E796E00E94CD204A895B894E5F8C
S1131E705F4FEC81FD813496EE0FFF1FEC0FFD1FC9
S1131E80608171810F2EF9ECEF2EF4E0FF2EF02D1E
S1131E9021E030E082E796E00E94CD204A895B8908
S1131EA0415051098C819D810496880F991FC80F58
S1131EB0D91F688179810F2EF1EDEF2EF4E0FF2E0A
S1131EC0F02D21E030E082E796E00E94CD20DF9102
S1131ED0CF911F910F91FF90EF900895EF92FF9291
S1131EE00F931F93CF93DF93EC014A895B894F5F74
S1131EF05F4F688579850F2EF1EEEF2EF4E0FF2E0B
S1131F00F02D08E010E021E030E082E796E00E9446
S1131F10CD204A895B894F5F5F4F6A857B8521E0CD
S1131F2030E082E796E00E94CD204A895B894F5FCA
S1131F305F4F6C857D8521E030E082E796E00E946A
S1131F40CD204A895B894F5F5F4F6E857F8521E095
S1131F5030E082E796E00E94CD204A895B894F5F9A
S1131F605F4F6889798921E030E082E796E00E943A
S1131F70CD20DF91CF911F910F91FF90EF900895A5
S1131F80EF92FF920F931F93FC018481958181301E
S1131F909105D9F18230910509F454C0892B09F0D7
S1131FA06DC000E210E024E030E042E050E062E383
S1131FB070E082E796E00E947E2080916C06882380
S1131FC089F00F2EF9E9EF2EF2E0FF2EF02D24E038
S1131FD030E042E050E062E370E082E796E00E9485
S1131FE0CD204CC00F2EF9E2EF2EF3E0FF2EF02DA2
S1131FF000E210E024E030E042E050E062E370E010
S113200082E796E00E94CD2039C000E210E024E08F
S113201030E042E050E062E370E082E796E00E9444
S11320207E200F2EF9E3EF2EF4E0FF2EF02D24E0B6
S113203030E042E050E062E370E082E796E00E9424
S1132040CD201CC000E210E024E030E042E050E08B
S113205062E370E082E796E00E947E200F2EF9EAA8
S1132060EF2EF3E0FF2EF02D24E030E042E050E0CC
S113207062E370E082E796E00E94CD201F910F9109
S1132080FF90EF900895EF92FF920F931F930F2EFE
S1132090F9E8EF2EF2E0FF2EF02D00E110E021E050
S11320A030E043E050E06EE170E082E796E00E94A9
S11320B0CD200F2EF9E1EF2EF3E0FF2EF02D21E0DD
S11320C030E043E050E06AE670E082E796E00E9488
S11320D0CD201F910F91FF90EF900895EF92FF9202
S11320E00F931F93CF93DF93EC0190916E06992386
S11320F009F423C34C855D8508E010E020E130E05D
S113210060E070E082E796E00E947E204C855D8569
S11321106E817F810F2EF9E2EF2EF1E0FF2EF02D7C
S113212021E030E082E796E00E94CD204C855D8579
S11321306E817F81685F7F4F0F2EF9E6EF2EF1E00D
S1132140FF2EF02D21E030E082E796E00E94CD20C2
S11321504C855D856E817F81605F7F4F0F2EF1E539
S1132160EF2EF1E0FF2EF02D21E030E082E796E043
S11321700E94CD204C855D856E817F81685E7F4F96
S11321800F2EF9E4EF2EF1E0FF2EF02D21E030E0E8
S113219082E796E00E94CD204C855D856E817F812B
S11321A0605E7F4F0F2EF9EAEF2EF1E0FF2EF02D47
S11321B021E030E082E796E00E94CD204C855D85E9
S11321C06E817F81685D7F4F0F2EF9E2EF2EF1E083
S11321D0FF2EF02D21E030E082E796E00E94CD2032
S11321E04C855D856E817F81605D7F4F0F2EF1E3AD
S11321F0EF2EF1E0FF2EF02D21E030E082E796E0B3
S11322000E94CD204C855D856E817F81685C7F4F07
S11322100F2EF9E4EF2EF1E0FF2EF02D21E030E057
S113222082E796E00E94CD204C855D856E817F819A
S1132230605C7F4F0F2EF1E2EF2EF1E0FF2EF02DC8
S113224021E030E082E796E00E94CD204C855D8558
S11322506E817F81685B7F4F0F2EF9E3EF2EF1E0F3
S1132260FF2EF02D21E030E082E796E00E94CD20A1
S11322704C855D856E817F81605B7F4F0F2EF1E61B
S1132280EF2EF1E0FF2EF02D21E030E082E796E022
S11322900E94CD204C855D856E817F81685A7F4F79
S11322A00F2EF1EBEF2EF1E0FF2EF02D21E030E0C8
S11322B082E796E00E94CD204C855D856E817F810A
S11322C0605A7F4F0F2EF1E1EF2EF1E0FF2EF02D3B
S11322D021E030E082E796E00E94CD204C855D85C8
S11322E06E817F8168597F4F0F2EF1EBEF2EF1E065
S11322F0FF2EF02D21E030E082E796E00E94CD2011
S11323004C855D854F5F5F4F20E130E060E070E019
S113231082E796E00E947E204C855D854F5F5F4F8B
S1132320688579850F2EF1E0EF2EF5E0FF2EF02D74
S113233021E030E082E796E00E94CD204C855D8567
S11323404F5F5F4F68857985685F7F4F21E030E09C
S113235082E796E00E94CD204C855D854F5F5F4FFC
S113236068857985685E7F4F21E030E082E796E0FA
S11323700E94CD204C855D854F5F5F4F68857985D0
S1132380605E7F4F0F2EF9EEEF2EF4E0FF2EF02D5E
S113239021E030E082E796E00E94CD204C855D8507
S11323A04E5F5F4F20E130E060E070E082E796E04E
S11323B00E947E204C855D854E5F5F4F6A857B85DC
S11323C00F2EF9E9EF2EF1E0FF2EF02D21E030E0A1
S11323D082E796E00E94CD204C855D854E5F5F4F7D
S11323E06A857B85685F7F4F0F2EF9E5EF2EF1E05C
S11323F0FF2EF02D21E030E082E796E00E94CD2010
S11324004C855D854E5F5F4F6A857B85605F7F4F3E
S11324100F2EF1E7EF2EF1E0FF2EF02D21E030E05A
S113242082E796E00E94CD204C855D854E5F5F4F2C
S11324306A857B85685E7F4F0F2EF1E3EF2EF1E016
S1132440FF2EF02D21E030E082E796E00E94CD20BF
S11324504C855D854E5F5F4F6A857B85605E7F4FEF
S11324600F2EF1E4EF2EF1E0FF2EF02D21E030E00D
S113247082E796E00E94CD204C855D854E5F5F4FDC
S11324806A857B85685D7F4F0F2EF1E1EF2EF1E0C9
S1132490FF2EF02D21E030E082E796E00E94CD206F
S11324A04C855D854E5F5F4F6A857B85685C7F4F99
S11324B00F2EF9E9EF2EF1E0FF2EF02D21E030E0B0
S11324C082E796E00E94CD204C855D854E5F5F4F8C
S11324D06A857B85605C7F4F0F2EF9E2EF2EF1E079
S11324E0FF2EF02D21E030E082E796E00E94CD201F
S11324F04C855D854E5F5F4F6A857B85685B7F4F4A
S11325000F2EF9EAEF2EF1E0FF2EF02D21E030E05E
S113251082E796E00E94CD204C855D854E5F5F4F3B
S11325206A857B85605B7F4F0F2EF1E7EF2EF1E02C
S1132530FF2EF02D21E030E082E796E00E94CD20CE
S11325404C855D854E5F5F4F6A857B85685A7F4FFA
S11325500F2EF1E5EF2EF1E0FF2EF02D21E030E01B
S113256082E796E00E94CD204C855D854E5F5F4FEB
S11325706A857B85605A7F4F0F2EF1EBEF2EF1E0D9
S1132580FF2EF02D21E030E082E796E00E94CD207E
S11325904C855D854D5F5F4F20E130E060E070E089
S11325A082E796E00E947E206C857D85AB014D5FBD
S11325B05F4F0F2EF1EFEF2EF4E0FF2EF02D21E010
S11325C030E082E796E00E94CD206C857D85AB01EA
S11325D04D5F5F4F685F7F4F0F2EF9EEEF2EF4E0F3
S11325E0FF2EF02D21E030E082E796E00E94CD201E
S11325F06C857D85AB014D5F5F4F605F7F4F0F2E14
S1132600F1E2EF2EF5E0FF2EF02D21E030E082E73D
S113261096E00E94CD206C857D85AB014D5F5F4FB8
S1132620685E7F4F0F2EF1E0EF2EF5E0FF2EF02DC8
S113263021E030E082E796E00E94CD206C857D8524
S1132640AB014D5F5F4F605E7F4F0F2EF1E3EF2EC6
S1132650F5E0FF2EF02D21E030E082E796E00E94C5
S1132660CD206C857D85AB014D5F5F4F685D7F4FED
S11326700F2EF9EFEF2EF4E0FF2EF02D21E030E0E5
S113268082E796E00E94CD206C857D85AB014D5F8D
S11326905F4F605D7F4F0F2EF9E0EF2EF5E0FF2EC8
S11326A0F02D21E030E082E796E00E94CD206C8599
S11326B07D85AB014D5F5F4F685C7F4F21E030E06B
S11326C082E796E00E94CD206C857D85AB014D5F4D
S11326D05F4F605C7F4F0F2EF9EFEF2EF4E0FF2E7B
S11326E0F02D21E030E082E796E00E94CD206C8559
S11326F07D85AB014D5F5F4F685B7F4F0F2EF1E22D
S1132700EF2EF5E0FF2EF02D21E030E082E796E099
S11327100E94CD206C857D85AB014D5F5F4F605B72
S11327207F4F0F2EF9E0EF2EF5E0FF2EF02D21E084
S113273030E082E796E00E94CD20DF91CF911F9197
S11327400F91FF90EF900895EF92FF920F931F93D4
S1132750CF93DF93EC0190916D06992309F49AC10C
S11327604885598508E010E020E130E060E070E041
S113277082E796E00E947E20488559856C817D81A0
S11327800F2EF9E3EF2EF1E0FF2EF02D21E030E0E3
S113279082E796E00E94CD20488559856C817D8131
S11327A0685F7F4F0F2EF9E4EF2EF1E0FF2EF02D3E
S11327B021E030E082E796E00E94CD2048855985EB
S11327C06C817D81605F7F4F0F2EF9E8EF2EF1E081
S11327D0FF2EF02D21E030E082E796E00E94CD202C
S11327E0488559856C817D81685E7F4F0F2EF1E3AA
S11327F0EF2EF1E0FF2EF02D21E030E082E796E0AD
S11328000E94CD20488559856C817D81605E7F4F13
S11328100F2EF9E1EF2EF1E0FF2EF02D21E030E054
S113282082E796E00E94CD20488559856C817D81A0
S1132830685D7F4F0F2EF1EBEF2EF1E0FF2EF02DB0
S113284021E030E082E796E00E94CD20488559855A
S11328506C817D81605D7F4F0F2EF1E4EF2EF1E0FE
S1132860FF2EF02D21E030E082E796E00E94CD209B
S1132870488559856C817D81685C7F4F0F2EF1E915
S1132880EF2EF1E0FF2EF02D21E030E082E796E01C
S11328900E94CD20488559856C817D81685B7F4F7E
S11328A00F2EF1E2EF2EF1E0FF2EF02D21E030E0CB
S11328B082E796E00E94CD20488559856C817D8110
S11328C0605B7F4F0F2EF1E9EF2EF1E0FF2EF02D2C
S11328D021E030E082E796E00E94CD2048855985CA
S11328E06C817D81685A7F4F0F2EF1E4EF2EF1E069
S11328F0FF2EF02D21E030E082E796E00E94CD200B
S1132900488559856C817D81605A7F4F0F2EF9E38C
S1132910EF2EF1E0FF2EF02D21E030E082E796E08B
S11329200E94CD20488559856C817D8168597F4FEF
S11329300F2EF1E7EF2EF1E0FF2EF02D21E030E035
S113294082E796E00E94CD20488559856C817D817F
S113295060597F4F0F2EF9E4EF2EF1E0FF2EF02D9A
S113296021E030E082E796E00E94CD204885598539
S11329706C817D8168587F4F0F2EF1E5EF2EF1E0D9
S1132980FF2EF02D21E030E082E796E00E94CD207A
S1132990488559854F5F5F4F20E130E060E070E08B
S11329A082E796E00E947E20488559854F5F5F4FFD
S11329B06E817F810F2EF1E3EF2EF5E0FF2EF02DD7
S11329C021E030E082E796E00E94CD2048855985D9
S11329D04F5F5F4F6E817F81685F7F4F0F2EF9E2FB
S11329E0EF2EF5E0FF2EF02D21E030E082E796E0B7
S11329F00E94CD20488559854F5F5F4F6E817F814E
S1132A00685E7F4F0F2EF9EAEF2EF1E0FF2EF02DD6
S1132A1021E030E082E796E00E94CD204885598588
S1132A204F5F5F4F6E817F81605E7F4F0F2EF1E9B4
S1132A30EF2EF1E0FF2EF02D21E030E082E796E06A
S1132A400E94CD20488559854F5F5F4F6E817F81FD
S1132A50685D7F4F0F2EF1E3EF2EF1E0FF2EF02D96
S1132A6021E030E082E796E00E94CD204885598538
S1132A704F5F5F4F6E817F81605D7F4F0F2EF1EB63
S1132A80EF2EF1E0FF2EF02D21E030E082E796E01A
S1132A900E94CD20DF91CF911F910F91FF90EF9075
S1132AA00895DC0114962D913C9115972130310540
S1132AB079F022303105B1F0232BD9F410926F064E
S1132AC081E080936D0682E796E00C94ED1F0895F3
S1132AD010926F0681E080936E0682E796E00C9474
S1132AE0ED1F0895DC01ED91FC910484F585E02D42
S1132AF009950895FC011582148210926E0681E0F6
S1132B0080936F0682E796E00C94ED1F0895FC0114
S1132B101382128210926D0681E080936F0682E721
S1132B2096E00C94ED1F0895FC0115821482109216
S1132B306F0681E08093000182E796E00C94ED1F1C
S1132B400895FC01158214821092700681E080932E
S1132B50000182E796E00C94ED1F0895FC011582B4
S1132B6014821092710681E08093000182E796E05E
S1132B700C94ED1F089582E796E00C94ED1F0895E0
S1132B801F920F920FB60F9211240BB60F92EF9271
S1132B90FF920F931F932F933F934F935F936F93E2
S1132BA07F938F939F93AF93BF93EF93FF93F89487
S1132BB080B182FB992790F981E0892790911906C9
S1132BC09817F8F408E010E021E030E040E050E02D
S1132BD060E070E082E796E00E947E200F2EF9E22A
S1132BE0EF2EF5E0FF2EF02D21E030E040E050E044
S1132BF060E070E082E796E00E94CD2081E080935F
S1132C00190680B183FB992790F981E08927909177
S1132C1018069817F8F408E010E021E030E040E0EE
S1132C2050E060E070E082E796E00E947E200F2E84
S1132C30F1E2EF2EF5E0FF2EF02D21E030E040E050
S1132C4050E060E070E082E796E00E94CD2081E0F1
S1132C508093180680B18295817091E089279091C4
S1132C601B069817F8F408E010E021E030E040E09B
S1132C7050E060E070E082E796E00E947E200F2E34
S1132C80F9E1EF2EF5E0FF2EF02D21E030E040E0F9
S1132C9050E060E070E082E796E00E94CD2081E0A1
S1132CA080931B0680B185FB992790F981E08927E1
S1132CB090911A069817F8F408E010E021E030E04B
S1132CC040E050E060E070E082E796E00E947E2001
S1132CD00F2EF1E1EF2EF5E0FF2EF02D21E030E094
S1132CE040E050E060E070E082E796E00E94CD2092
S1132CF081E080931A062FE986E891E02150804014
S1132D009040E1F700C000007894FF91EF91BF91EB
S1132D10AF919F918F917F916F915F914F913F916F
S1132D202F911F910F91FF90EF900F900BBE0F907A
S1132D300FBE0F901F901895AF92BF92CF92DF9263
S1132D40EF92FF920F931F93CF93DF9350911B0643
S1132D5090911A0681E0392F382720911906622FA5
S1132D606827A32FA623752F7A23B0911806FB2F6B
S1132D70F72349F08093170658278B27952392232E
S1132D80B91748F018C681E0582795238B27422F9E
S1132D904923B41740F491E090931606F091170676
S1132DA040E0E1E032C1E091160641E04E27F091A7
S1132DB01706C82FC4237C23F71708F0C1C008E006
S1132DC010E021E030E040E050E060E070E082E7B5
S1132DD096E00E947E200F2EF1E3EF2EF5E0FF2E09
S1132DE0F02D21E030E040E050E060E070E082E768
S1132DF096E00E94CD20809171068823E1F08091B5
S1132E0040069091410601972AF0909341068093E1
S1132E10400606C08AE090E0909341068093400605
S1132E20E0913A06F0913B060088F189E02D8AE3AF
S1132E3096E00995B3C5809100018823E1F0809163
S1132E4038069091390601972AF0909339068093B9
S1132E50380606C082E090E09093390680933806E5
S1132E60E0913406F09135060088F189E02D84E381
S1132E7096E0099593C5809170068823E1F08091CE
S1132E8052069091530601972AF09093530680932B
S1132E90520606C083E090E0909353068093520656
S1132EA0E0914E06F0914F060088F189E02D8EE402
S1132EB096E0099573C580916F068823E1F08091AF
S1132EC062069091630601972AF0909363068093BB
S1132ED0620606C082E090E09093630680936206E7
S1132EE0E0915E06F0915F060088F189E02D8EE5A1
S1132EF096E0099553C580916E06882371F010926F
S1132F002B0610922A0610926E0681E080936F06BB
S1132F1082E796E00E94ED1F41C580916D068823EB
S1132F2009F43CC510921F0610921E0610926D06FD
S1132F3081E080936F0682E796E00E94ED1F2EC524
S1132F40982396239423F91708F05FC008E010E053
S1132F5021E030E040E050E060E070E082E796E09D
S1132F600E947E200F2EF9E2EF2EF5E0FF2EF02DC9
S1132F7021E030E040E050E060E070E082E796E07D
S1132F800E94CD208091710681112EC08091000194
S1132F9081112AC080917006811126C080916F062C
S1132FA0811122C080916E06882371F010922B0645
S1132FB010922A0610926E0681E080936F0682E7D3
S1132FC096E00E94ED1F10C080916D06882361F089
S1132FD010921F0610921E0610926D0681E08093D7
S1132FE06F0682E796E0F9D780916C068111D6C40A
S1132FF080E88BB92FEB86EC9DE221508040904015
S1133000E1F700C000001BB8C9C43523982F9423EE
S113301029232323F21708F05EC008E010E021E022
S113302030E040E050E060E070E082E796E00E942B
S11330307E200F2EF1E2EF2EF5E0FF2EF02D21E0A1
S113304030E040E050E060E070E082E796E00E940B
S1133050CD208091710681112DC0809100018111D4
S113306029C080917006811125C080916F0681115D
S113307021C080916E06882369F010922B0610926D
S11330802A0610926E0681E080936F0682E796E02E
S1133090A4D710C080916D06882361F010921F069A
S11330A010921E0610926D0681E080936F0682E7EF
S11330B096E093D780916C06811170C480E88BB937
S11330C0EFEBF6EC2DE2E150F0402040E1F700C0D8
S11330D000001BB863C46B2364233623F31708F082
S11330E0BFC008E010E021E030E040E050E060E0E4
S11330F070E082E796E00E947E200F2EF9E1EF2E29
S1133100F5E0FF2EF02D21E030E040E050E060E0FB
S113311070E082E796E00E94CD20809171068823BA
S1133120E1F0809140069091410601968B30910523
S11331302CF4909341068093400604C010924106FB
S113314010924006E0913A06F0913B060088F1891E
S1133150E02D8AE396E0099521C48091000188233B
S1133160E1F08091380690913906019683309105FB
S11331702CF4909339068093380604C010923906D3
S113318010923806E0913406F09135060088F189F2
S1133190E02D84E396E0099501C4809170068823AC
S11331A0E1F0809152069091530601968430910586
S11331B02CF4909353068093520604C01092530645
S11331C010925206E0914E06F0914F060088F18964
S11331D0E02D8EE496E00995E1C380916F06882383
S11331E0E1F0809162069091630601968330910527
S11331F02CF4909363068093620604C010926306D5
S113320010926206E0915E06F0915F060088F189F3
S1133210E02D8EE596E00995C1C380916E06882362
S113322069F010922B0610922A0610926E0681E025
S113323080936F0682E796E0D0D6B0C380916D0686
S1133240882309F4ABC310921F0610921E06109235
S11332506D0681E080936F0682E796E0BED69EC33A
S11332605823E523FE1708F05CC008E010E021E0D5
S113327030E040E050E060E070E082E796E03ED766
S11332800F2EF1E1EF2EF5E0FF2EF02D21E030E0DE
S113329040E050E060E070E082E796E07ED7809105
S11332A0710681112DC080910001811129C0809186
S11332B07006811125C080916F06811121C0809113
S11332C06E06882369F010922B0610922A0610923B
S11332D06E0681E080936F0682E796E07ED610C08A
S11332E080916D06882361F010921F0610921E06CD
S11332F010926D0681E080936F0682E796E06DD6AA
S113330080916C0681114AC380E88BB98FEB96ECEF
S1133310EDE281509040E040E1F700C000001BB8AE
S11333203DC34A2309F43AC3FF2309F437C308E031
S113333010E021E030E040E050E060E070E082E73F
S113334096E0DCD60F2EF9E0EF2EF5E0FF2EF02DFF
S113335021E030E040E050E060E070E082E796E099
S11333601CD780917106882309F472C2E09140064B
S1133370F0914106EB30F10508F046C2E45AFF4FE4
S1133380D4C7EAE3F6E0848195810196958384832A
S1133390181619060CF038C20F2EF2E4CF2EF6E000
S11333A0DF2EF02DE12CF12CEF0156014A895B89C7
S11333B04E5F5F4FF601619171916F0108E010E07B
S11333C021E030E082E796E099D64A895B89415052
S11333D05109F5016081718121E030E082E796E0D6
S11333E08DD6FFEFEF1AFF0A8C819D81E816F9064E
S11333F0E4F20AC2EAE3F6E08481958101969583BA
S11334008483181619060CF0FFC10F2EF2E4CF2E98
S1133410F6E0DF2EF02DE12CF12CEF0156014A8964
S11334205B894E5F5F4FF601619171916F0108E016
S113343010E021E030E082E796E060D64A895B89BB
S113344041505109F5016081718121E030E082E74A
S113345096E054D6FFEFEF1AFF0A8C819D81E8169F
S1133460F906E4F2D1C1EAE3F6E08481958101969C
S113347095838483181619060CF0C6C10F2EF2E446
S1133480CF2EF6E0DF2EF02DE12CF12CEF015601CA
S11334904A895B894E5F5F4FF601619171916F01BB
S11334A008E010E021E030E082E796E027D64A8980
S11334B05B8941505109F5016081718121E030E05F
S11334C082E796E01BD6FFEFEF1AFF0A8C819D81FD
S11334D0E816F906E4F298C1EAE3F6E084819581FE
S11334E0019695838483181619060CF08DC10F2E4E
S11334F0F2E4CF2EF6E0DF2EF02DE12CF12CEF01DB
S113350056014A895B894E5F5F4FF6016191719163
S11335106F0108E010E021E030E082E796E0EED5AC
S11335204A895B8941505109F5016081718121E02B
S113353030E082E796E0E2D5FFEFEF1AFF0A8C81D4
S11335409D81E816F906E4F25FC1EAE3F6E08481BE
S11335509581019695838483181619060CF054C13D
S11335600F2EF2E4CF2EF6E0DF2EF02DE12CF12C1D
S1133570EF0156014A895B894E5F5F4FF601619105
S113358071916F0108E010E021E030E082E796E0FD
S1133590B5D54A895B8941505109F5016081718132
S11335A021E030E082E796E0A9D5FFEFEF1AFF0AA9
S11335B08C819D81E816F906E4F226C1EAE3F6E07F
S11335C084819581019695838483181619060CF0DD
S11335D01BC10F2EF2E4CF2EF6E0DF2EF02DE12CEE
S11335E0F12CEF0156014A895B894E5F5F4FF6016A
S11335F0619171916F0108E010E021E030E082E711
S113360096E07CD54A895B8941505109F501608176
S1133610718121E030E082E796E070D5FFEFEF1A88
S1133620FF0A8C819D81E816F906E4F2EDC0EAE315
S1133630F6E0848195810196958384831816190692
S11336400CF0E2C00F2EF2E4CF2EF6E0DF2EF02DC8
S1133650E12CF12CEF0156014A895B894E5F5F4FE3
S1133660F601619171916F0108E010E021E030E012
S113367082E796E043D54A895B8941505109F501B7
S11336806081718121E030E082E796E037D5FFEF79
S1133690EF1AFF0A8C819D81E816F906E4F2B4C0A2
S11336A0EAE3F6E084819581019695838483181674
S11336B019060CF0A9C00F2EF2E4CF2EF6E0DF2E8F
S11336C0F02DE12CF12CEF0156014A895B894E5F04
S11336D05F4FF601619171916F0108E010E021E004
S11336E030E082E796E00AD54A895B894150510966
S11336F0F5016081718121E030E082E796E0FED43B
S1133700FFEFEF1AFF0A8C819D81E816F906E4F2B7
S11337107BC0EAE3F6E084819581019695838483F6
S1133720181619060CF070C00F2EF2E4CF2EF6E036
S1133730DF2EF02DE12CF12CEF0156014A895B8933
S11337404E5F5F4FF601619171916F0108E010E0E7
S113375021E030E082E796E0D1D44A895B89415088
S11337605109F5016081718121E030E082E796E042
S1133770C5D4FFEFEF1AFF0A8C819D81E816F90684
S1133780E4F242C0EAE3F6E08481958101969583F0
S1133790848318161906C4F50F2EF2E4CF2EF6E032
S11337A0DF2EF02DE12CF12CEF0156014A895B89C3
S11337B04E5F5F4FF601619171916F0108E010E077
S11337C021E030E082E796E099D44A895B89415050
S11337D05109F5016081718121E030E082E796E0D2
S11337E08DD4FFEFEF1AFF0A8C819D81E816F9064C
S11337F0E4F20AC0E0913A06F0913B060484F585B0
S1133800E02D8AE396E0099580913E0690913F066B
S1133810059784F081E08093000110927106E09195
S11338203A06F0913B060480F581E02D8AE396E0A8
S11338300995B4C0EAE3F6E0178216820190F0819C
S1133840E02D0088F189E02D8AE396E00995A6C071
S1133850809100018823E9F180913806909139061E
S113386081309105B1F08230910519F1892B09F06D
S113387095C01092000181E080937106E0913406B6
S1133880F09135060480F581E02D84E396E00995F6
S113389085C01092000181E080937006E0913406A7
S11338A0F09135060480F581E02D84E396E00995D6
S11338B075C01092000181E080936F06E091340698
S11338C0F09135060480F581E02D84E396E00995B6
S11338D065C080917006882391F080915206909182
S11338E05306039709F05AC0E0914E06F0914F0633
S11338F00484F585E02D8EE496E009954FC080910F
S11339006F06882351F1809162069091630681309D
S1133910910579F082309105A9F0892B09F03EC018
S113392010926F0681E080936D0682E796E055D38E
S113393035C010926F0681E080936E0682E796E0B0
S11339404CD32CC0E0915E06F0915F060484F585AB
S1133950E02D8EE596E0099521C080916E068823BE
S113396069F010922B0610922A0610926E0681E0DE
S113397080936F0682E796E030D310C080916D0685
S1133980882361F010921F0610921E0610926D0695
S113399081E080936F0682E796E01FD310921B06A6
S11339A010921A0610921906109218061092170611
S11339B01092160605C0E091160641E04E2725CB6D
S11339C0DF91CF911F910F91FF90EF90DF90CF90F7
S11339D0BF90AF900895EF92FF920F931F93CF93F0
S11339E0DF93EC0188819981892B89F40F2EF9E406
S11339F0EF2EF2E0FF2EF02D08E010E024E030E09E
S1133A0040E050E060E670E082E796E0C6D388814B
S1133A109981019789F40F2EF9E2EF2EF2E0FF2E3F
S1133A20F02D08E010E024E030E040E050E060E6F3
S1133A3070E082E796E0B1D388819981029789F496
S1133A400F2EF9E0EF2EF2E0FF2EF02D08E010E04B
S1133A5024E030E040E050E060E670E082E796E089
S1133A609CD388819981039789F40F2EF9EEEF2E68
S1133A70F1E0FF2EF02D08E010E024E030E040E01B
S1133A8050E060E670E082E796E087D38881998110
S1133A90049789F40F2EF9ECEF2EF1E0FF2EF02DB0
S1133AA008E010E024E030E040E050E060E670E040
S1133AB082E796E072D3DF91CF911F910F91FF902F
S1133AC0EF90089580E18093C4001092C500E1EC6A
S1133AD0F0E080818869808386E08093C200089545
S1133AE0E0ECF0E0908195FFFDCF8093C60008954F
S1133AF0CF93DF93EC018881882329F02196F0DFAE
S1133B0089918111FCCFDF91CF910895789482E758
S1133B1096E04AD28FEF81B912B880E88AB98CE373
S1133B2080936B00E8E6F0E0808181608083CADFE7
S1133B302FE38DE093E0215080409040E1F700C0F6
S1133B400000AFE3BDE023E0A150B0402040E1F726
S1133B5000C0000081E595E0CBDF8DE0C1DF8FE39D
S1133B609DE0A3E081509040A040E1F700C0000038
S1133B7084E595E0BDDF8DE0B3DFBFE32DE083E0B6
S1133B80B15020408040E1F700C000008EE595E090
S1133B90AFDF8DE0A5DF9FE3ADE0B3E09150A0403F
S1133BA0B040E1F700C0000084E795E0A1DF2FE317
S1133BB08DE093E0215080409040E1F700C0000088
S1133BC08AE18EDFAFE3BDE023E0A150B0402040A6
S1133BD0E1F700C000000F2EFCE12F2EF6E03F2E8F
S1133BE0F02D0F2EF6E24F2EF6E05F2EF02D0F2E65
S1133BF0FEE56F2EF6E07F2EF02D0F2EFEE48F2EC5
S1133C00F6E09F2EF02D0F2EF4E3AF2EF6E0BF2E3C
S1133C10F02D0F2EFAE3CF2EF6E0DF2EF02D789460
S1133C208BD880917106882389F0D601ED91FC919F
S1133C300190F081E02DC6010995D601ED91FC912A
S1133C400088F189E02DC601099568C080910001C2
S1133C50882389F0D501ED91FC910190F081E02D4C
S1133C60C5010995D501ED91FC910088F189E02DFC
S1133C70C501099553C080917006882389F0D40149
S1133C80ED91FC910190F081E02DC4010995D401DE
S1133C90ED91FC910088F189E02DC40109953EC0A5
S1133CA080916F06882389F0D301ED91FC910190F6
S1133CB0F081E02DC3010995D301ED91FC910088B9
S1133CC0F189E02DC301099529C080916E068823EE
S1133CD089F0D201ED91FC910190F081E02DC201B7
S1133CE00995D201ED91FC910088F189E02DC20182
S1133CF0099514C080916D06882381F0D101ED915E
S1133D00FC910190F081E02DC1010995D101ED9163
S1133D10FC910088F189E02DC101099583B181707E
S1133D20C82FB0E0DB2FCE01199901961A9901969C
S1133D301B9901969093150680931406892B89F498
S1133D400F2EF9E4EF2EF2E0FF2EF02D08E010E044
S1133D5024E030E040E050E060E670E082E796E086
S1133D601CD28091140690911506019789F40F2EA8
S1133D70F9E2EF2EF2E0FF2EF02D08E010E024E04F
S1133D8030E040E050E060E670E082E796E005D283
S1133D908091140690911506029789F40F2EF9E08C
S1133DA0EF2EF2E0FF2EF02D08E010E024E030E0EA
S1133DB040E050E060E670E082E796E0EED180916A
S1133DC0140690911506039789F40F2EF9EEEF2E41
S1133DD0F1E0FF2EF02D08E010E024E030E040E0B8
S1133DE050E060E670E082E796E0D7D18091140657
S1133DF090911506049789F40F2EF9ECEF2EF1E05B
S1133E00FF2EF02D08E010E024E030E040E050E028
S1133E1060E670E082E796E0C0D10F2EF9EBEF2E5A
S1133E20F1E0FF2EF02D08E010E022E030E040E069
S1133E3050E060E570E082E796E0AFD182E796E07B
S1133E40B3D02FE38DE093E0215080409040E1F720
S1133E5000C00000E4CE0F931F93CF93DF9383E75A
S1133E609AE048D260E082E796E0BED0CEE5D6E0A4
S1133E7085ED95E0998388831D821C8286E0E9E3C1
S1133E80F5E0A4E6B6E001900D928A95E1F784E0AE
S1133E9090E09D878C87CEE4D6E02FEB35E0398324
S1133EA028831D821C8228E0EFE3F5E0A4E5B6E058
S1133EB001900D922A95E1F79F878E87CAE3D6E099
S1133EC089EA95E0998388831D821C821F821E8261
S1133ED08AE0E7E4F5E0A2E4B6E001900D928A9569
S1133EE0E1F782E090E09B8B8A8BE4E3F6E023E940
S1133EF035E03183208315821482E6E2F6E02BEE6E
S1133F0035E031832083158214821782168211864C
S1133F1010861386128695878487ECE1F6E021E00B
S1133F2036E03183208315821482178216829187AA
S1133F30808714B88FEF85B983B1082F017010E022
S1133F40C801199901961A9901961B9901969093A3
S1133F5015068093140684E196E03DDDDF91CF9150
S1133F601F910F91089580E88093BB0084E88093AB
S1133F70BC00ECEBF0E080818823ECF76093BB009D
S1133F8084E88093BC00ECEBF0E080818823ECF7BC
S1133F9008956093BB0084E88093BC00ECEBF0E0F0
S1133FA080818823ECF70895EF92FF920F931F937B
S1133FB0CF93DF938C01EC017C018CEFF81A6991AB
S1133FC070E0C801E6DFCE15DF05C9F7DF91CF91B8
S1133FD01F910F91FF90EF900895FC019C5F119247
S1133FE0E817F907E1F708950F931F93CF93DF9331
S1133FF0EC018C011C5FC8017DD1C8017CD1C801D2
S11340008BD1C8017DD168EA70E0CE01ACDF6FE3EB
S113401070E0CE01A8DF63ED70E0CE01A4DF60E0C4
S113402070E0CE01A0DF60E470E0CE019CDF61EAC5
S113403070E0CE0198DF68EC70E0CE0194DF6AEDA9
S113404070E0CE0190DF62E170E0CE018CDF61E8C8
S113405070E0CE0188DF6FEF70E0CE0184DF64EAA8
S113406070E0CE0180DF66EA70E0CE017CDF65EDB2
S113407070E0CE0178DF60E870E0CE0174DF6DE8B7
S113408070E0CE0170DF64E170E0CE016CDF6FEAB6
S113409070E0CE0168DF60E270E0CE0164DF60E0D2
S11340A070E0CE0160DF61E270E0CE015CDF60E0D1
S11340B070E0CE0158DF6FE770E0CE0154DF62E2BA
S11340C070E0CE0150DF60E070E0CE014CDF67E0CD
S11340D070E0CE0148DF80E48093BB0084E88093E5
S11340E0BC00CE017ADF60E070E0CE0152DFCE0189
S11340F05BDFDF91CF911F910F910895CF92DF92F3
S1134100EF92FF920F931F93CF93DF93EC017B0108
S11341106A01B90110161106BCF520E030E0AB01CC
S1134120440F551F440F551F440F551F4E0D5F1D5F
S11341301616170624F5C90133230CF40796959532
S1134140879595958795959587958C0D9D1D969545
S1134150982F882797958795FC01EE0DFF1DEC0F8E
S1134160FD1F840F951F8C0F9D1FDF011896119260
S1134170EA17FB07E1F7FD018A179B07B1F72F5FE9
S11341803F4F02171307A1F6DF91CF911F910F91B3
S1134190FF90EF90DF90CF9008952F923F924F922F
S11341A05F926F927F928F929F92AF92BF92CF92C3
S11341B0DF92EF92FF920F931F93CF93DF9300D080
S11341C000D000D0CDB7DEB79E838D833A0129019C
S11341D01801101611060CF074C03C832B838E2C2E
S11341E09F2CC12CD12C0F2EF7E0AF2EB12CF02D2B
S11341F0C901880F991F880F991F880F991F9B0168
S1134200280F391F3A832983141415040CF04EC067
S1134210C60187709078992324F40197886F9F6F63
S113422001968501081B190B7601DD201CF497E02B
S1134230E90EF11CF594E794F594E794F594E7946A
S1134240E60CF71CF694FE2CEE24F794E794AB01ED
S11342504E0D5F1D2D813E81420F531F89819A812E
S1134260E80EF91EE20EF31ED401FA0120E030E05C
S11342708C9190E0022E02C0880F991F0A94E2F7F5
S113428080789927002E02C0959587950A94E2F7C5
S11342909081892B81932F5F3F4F2830310541F75F
S11342A0485F5F4F11964E155F05F9F63FEFC31A4D
S11342B0D30A8B819C81880E991E2C143D0409F02D
S11342C0A3CF26960FB6F894DEBF0FBECDBFDF9105
S11342D0CF911F910F91FF90EF90DF90CF90BF90FF
S11342E0AF909F908F907F906F905F904F903F9092
S11342F02F90089508951092B8001092B90008956F
S113430088E78093BB0084E88093BC00ECEBF0E08A
S113431080818823ECF7089584EA8093BC00ECEB59
S1134320F0E080818823ECF70895EE0FFF1F00244E
S1134330001C0BBE0790F691E02D0994F894FFCF72
S113434001010003E003F0011818180E7003C00007
S1134350000042241818181800004242425A5A24F5
S11343600000424242242418000042424242423C9D
S113437000007E181818181800003E403C02027C09
S113438000007C42427C444200003C664242663C5F
S113439000004262524A4642000042665A42424289
S11343A00000444870704844000006060606663C57
S11343B000003C181818183C000042427E42424259
S11343C000003E604040663E00007E407E4040402B
S11343D000007E407E40407E0000784442424478A3
S11343E000003E604040603E00007C427C42427CD3
S11343F00000183C667E666600E000A000AE00AED9
S113440000AEE0AEE0AEEEEEEE3FFFFFFC200000BB
S1134410042F0000042F0000042F0000042F0000CC
S113442004200000043FFFFFFC3FFFFFFC200000CE
S1134430042F7800042F7800042F7800042F7800CC
S113444004200000043FFFFFFC3FFFFFFC200000AE
S1134450042F7BC0042F7BC0042F7BC0042F7BC0A0
S113446004200000043FFFFFFC3FFFFFFC2000008E
S1134470042F7BDE042F7BDE042F7BDE042F7BDE08
S113448004200000043FFFFFFC3FFFFFFC2000006E
S1134490042F7BDEF42F7BDEF42F7BDEF42F7BDE18
S11344A0F4200000043FFFFFFCFFFF7FFE3FFC1FE2
S11344B0F80FF007E003C00180018003C007E00F9C
S11344C0F01FF83FFC7FFEFFFF0103070F1F3F7F34
S11344D0FFFF7F3F1F0F0703010000000000018062
S11344E0000007E000001C380000700E0000E00728
S11344F00001C0038001C0038001C0038001C00328
S11345008001C0038001C003800080038000000399
S1134510800000038003FFFFC003FFFFC003FFFF11
S1134520C003FE7FC003FC3FC003FC3FC003FE7F0B
S1134530C003FE7FC003FC7FC003FE7FC003FFFFF8
S1134540C003FFFFC00000000000000000000000E6
S113455000000000000000000080C0E0F0F8FCFE55
S1134560FFFFFEFCF8F0E0C0800000000000000047
S1134570000000000000000000000180000007E0CF
S113458000001C380000700E0000E0070001C003AA
S11345908001C0038001C0038001C0038001C00307
S11345A08001C0038003FFFFC003FFFFC003FFFFC0
S11345B0C003FE7FC003FC3FC003FC3FC003FE7F7B
S11345C0C003FE7FC003FC7FC003FE7FC003FFFF68
S11345D0C003FFFFC0000000000000000000000056
S11345E000000000000000000000000000000000C7
S11345F000000FF000000FF000000FF000000FF0BB
S113460000000FF000000FF000000FF000000FF0AA
S11346100000000000000000000007E0000007E0C8
S1134620000007E0000007E0000007E0000007E0EA
S1134630000007E0000007E0000007E0000007E0DA
S1134640000007E0000007E0000007E0000007E0CA
S1134650000007E0000007E0000007E0000007E0BA
S11346600000FFFF0000FFFF0000FFFF0000FFFF4E
S1134670000000000000000000000180000003C0F2
S1134680000007E0001E0FF0781F9E79F81FFC3F22
S1134690F81FE007F80F0000F80E07E070060E7030
S11346A060061818600C300C301C6186383CC3C39B
S11346B03C7987E19EF18E719FF18E719F7987E13C
S11346C09E3CC3C33C1C6186380C300C3006181861
S11346D060060E70600E07E0700F0000F81FE00720
S11346E0F81FFC3FF81F9E79F81E0FF0780007E0D2
S11346F0000003C0000000000000000000000000F3
S113470000000000000001800000FF7E3C18000053
S113471000183C7EFF0000000000207E7E2606007C
S11347200000007E0000000000003C24243C043C07
S113473000003C243C24243C00003C0408102020BD
S113474000003C203C24243C00003C203C04043C6D
S113475000002424243C040400003C043C04043CE5
S113476000003C040418303C000018380808083CD9
S113477000003C242424243C0018002000360008B7
S11347800010001C0038000C0024003C0054006C95
S11347900041540041542B434D47463D31004154A0
S11347A02B434D47533D2238393236303735353770
S11347B032352200535441525445442C2052454131
S11347C0445920544F20434F4E54524F4C4C0000F8
S11347D000000043109300BB15A600C000DA000DD2
S11347E0010E01C00F000000006E0F0F01AE152274
S11347F0013C019802F3045601530B000000001F12
S11348000B5701A1156A0184019E01AD01BB01A2F0
S113481007000000006E07BC019415CF01E90151A7
S11348201503021102530500000000120213027A5C
S113483015260239024C02540262026E1000000076
S11348400063026402871577027F0287028F029752
S107485002A41300A7
S9030000FC
