:100000005CC0000084C0000082C0000080C000000E
:100010000C940D0D7CC000007AC0000078C0000078
:1000200076C0000074C0000072C0000070C0000004
:100030006EC000006CC000006AC0000068C0000014
:1000400066C0000064C0000062C0000060C0000024
:100050005EC000005CC000005AC0000058C0000034
:1000600056C0000054C0000052C0000050C0000044
:100070004EC000004CC000004AC0000048C0000054
:1000800046C0000044C0000042C00000B901EF01BA
:1000900025025B029102C702FD02330369039F033D
:1000A000D40326087F08D80831098A09E3093C0AE5
:1000B000950AEE0A470BA00B9A0E11241FBECFEF34
:1000C000D0E4DEBFCDBF15E0A0E0B1E0E0ECF1E2AE
:1000D00000E00BBF02C007900D92AE34B107D9F714
:1000E00029E0AEE4B5E001C01D92A338B207E1F704
:1000F00010E0CDE5D0E004C02197FE010E94D510AC
:10010000CC35D107C9F70E94690E0C94DE1078CF68
:10011000CF93DF93EC01E881F9810190F081E02D2C
:100120000995E881F9810088F189E02DCE010995D2
:10013000DF91CF910895DC0114962D913C91159794
:100140002F5F3F4F233031052CF415963C932E93AF
:10015000149703C0FC0115821482DC01ED91FC911F
:100160000088F189E02D09950895DC0114962D9100
:100170003C911597215031092AF015963C932E9306
:10018000149705C022E030E0FC0135832483DC01B4
:10019000ED91FC910088F189E02D09950895DC012D
:1001A00014962D913C9115972115310521F02130A0
:1001B000310571F008951092000121E0209380052F
:1001C000DC01ED91FC910480F581E02D0995089505
:1001D0001092000121E020937F05DC01ED91FC915C
:1001E0000480F581E02D0995089508950895CF9331
:1001F000DF93EC01E881F9810190F081E02D099510
:10020000E881F9810088F189E02DCE010995DF911F
:10021000CF910895DC0116962D913C9117972F5F91
:100220003F4F2B3031052CF417963C932E931697A5
:1002300003C0FC0117821682DC01ED91FC9100885D
:10024000F189E02D09950895DC0116962D913C91D8
:100250001797215031092AF017963C932E93169741
:1002600005C02AE030E0FC0137832683DC01ED91F4
:10027000FC910088F189E02D099508950895CF93A8
:10028000DF93EC01E881F9810190F081E02D09957F
:10029000E881F9810088F189E02DCE010995DF918F
:1002A000CF910895DC0114962D913C9115972F5F05
:1002B0003F4F253031052CF415963C932E9314971F
:1002C00003C0FC0115821482DC01ED91FC910088D1
:1002D000F189E02D09950895DC0114962D913C914A
:1002E0001597215031092AF015963C932E931497B7
:1002F00005C024E030E0FC0135832483DC01ED916E
:10030000FC910088F189E02D09950895DC0114968F
:100310002D913C9115972330310531F4ED91FC91ED
:100320000484F585E02D09950895CF93DF93EC01C2
:10033000E881F9810480F581E02D09951D821C82F8
:10034000DF91CF9108950895AF92BF92CF92DF923F
:10035000EF92FF920F931F93CF93DF93EC01EE8107
:10036000FF81EB30F10508F025C2EA5BFF4F0C94EA
:10037000D5108C819D8101969D838C83181619065A
:100380000CF018C26E0188E0C80ED11CE12CF12CD3
:1003900056014A895B894E5F5F4FF6016191719109
:1003A0006F0108E010E021E030E081E895E00E9474
:1003B000BE0F4A895B8941505109F5016081718105
:1003C00021E030E081E895E00E94BE0FFFEFEF1AD8
:1003D000FF0A8C819D81E816F906D4F2EBC18C816D
:1003E0009D8101969D838C83181619060CF0E2C13D
:1003F0006E0188E0C80ED11CE12CF12C56014A890F
:100400005B894E5F5F4FF601619171916F0108E06A
:1004100010E021E030E081E895E00E94BE0F4A89BB
:100420005B8941505109F5016081718121E030E023
:1004300081E895E00E94BE0FFFEFEF1AFF0A8C8162
:100440009D81E816F906D4F2B5C18C819D81019693
:100450009D838C83181619060CF0ACC16E0188E0E0
:10046000C80ED11CE12CF12C56014A895B894E5FE4
:100470005F4FF601619171916F0108E010E021E09A
:1004800030E081E895E00E94BE0F4A895B894150C7
:100490005109F5016081718121E030E081E895E04A
:1004A0000E94BE0FFFEFEF1AFF0A8C819D81E816B4
:1004B000F906D4F27FC18C819D8101969D838C8346
:1004C000181619060CF076C16E0188E0C80ED11C12
:1004D000E12CF12C56014A895B894E5F5F4FF60192
:1004E000619171916F0108E010E021E030E081E856
:1004F00095E00E94BE0F4A895B8941505109F50180
:100500006081718121E030E081E895E00E94BE0FBA
:10051000FFEFEF1AFF0A8C819D81E816F906D4F2ED
:1005200049C18C819D8101969D838C831816190683
:100530000CF040C16E0188E0C80ED11CE12CF12CFA
:1005400056014A895B894E5F5F4FF6016191719157
:100550006F0108E010E021E030E081E895E00E94C2
:10056000BE0F4A895B8941505109F5016081718153
:1005700021E030E081E895E00E94BE0FFFEFEF1A26
:10058000FF0A8C819D81E816F906D4F213C18C8193
:100590009D8101969D838C83181619060CF00AC163
:1005A0006E0188E0C80ED11CE12CF12C56014A895D
:1005B0005B894E5F5F4FF601619171916F0108E0B9
:1005C00010E021E030E081E895E00E94BE0F4A890A
:1005D0005B8941505109F5016081718121E030E072
:1005E00081E895E00E94BE0FFFEFEF1AFF0A8C81B1
:1005F0009D81E816F906D4F2DDC08C819D810196BB
:100600009D838C83181619060CF0D4C06E0188E007
:10061000C80ED11CE12CF12C56014A895B894E5F32
:100620005F4FF601619171916F0108E010E021E0E8
:1006300030E081E895E00E94BE0F4A895B89415015
:100640005109F5016081718121E030E081E895E098
:100650000E94BE0FFFEFEF1AFF0A8C819D81E81602
:10066000F906D4F2A7C08C819D8101969D838C836D
:10067000181619060CF09EC06E0188E0C80ED11C39
:10068000E12CF12C56014A895B894E5F5F4FF601E0
:10069000619171916F0108E010E021E030E081E8A4
:1006A00095E00E94BE0F4A895B8941505109F501CE
:1006B0006081718121E030E081E895E00E94BE0F09
:1006C000FFEFEF1AFF0A8C819D81E816F906D4F23C
:1006D00071C08C819D8101969D838C8318161906AB
:1006E0000CF068C06E0188E0C80ED11CE12CF12C22
:1006F00056014A895B894E5F5F4FF60161917191A6
:100700006F0108E010E021E030E081E895E00E9410
:10071000BE0F4A895B8941505109F50160817181A1
:1007200021E030E081E895E00E94BE0FFFEFEF1A74
:10073000FF0A8C819D81E816F906D4F23BC08C81BA
:100740009D8101969D838C83181619069CF56E0178
:1007500088E0C80ED11CE12CF12C56014A895B8936
:100760004E5F5F4FF601619171916F0108E010E0FB
:1007700021E030E081E895E00E94BE0F4A895B8964
:1007800041505109F5016081718121E030E081E83B
:1007900095E00E94BE0FFFEFEF1AFF0A8C819D814A
:1007A000E816F906D4F206C0E881F9810484F585DB
:1007B000E02D09958C819D8105976CF081E08093F7
:1007C000000110928005E881F9810480F581E02D17
:1007D000CE01099509C01F821E82E881F981008837
:1007E000F189E02DCE010995DF91CF911F910F91F5
:1007F000FF90EF90DF90CF90BF90AF9008950F9350
:100800001F93CF93DF93EC014A895B89EC81FD81D3
:100810003496EE0FFF1FE80FF91F6081718108E029
:1008200010E021E030E081E895E00E94BE0F4A89A7
:100830005B894E5F5F4FEC81FD813496EE0FFF1FA9
:10084000EC0FFD1F6081718121E030E081E895E0CF
:100850000E94BE0F4A895B8941505109EC81FD819C
:100860003496EE0FFF1FEC0FFD1F6081718121E0B8
:1008700030E081E895E00E94BE0F8C819D81019758
:100880009D838C8399237CF41092800581E0809372
:100890000001E881F9810480F581E02DCE01099500
:1008A0001D821C8207C0E881F9810088F189E02D52
:1008B000CE010995DF91CF911F910F910895EF928D
:1008C000FF920F931F93CF93DF93EC0190917F05DD
:1008D000992309F46AC38C819D818130910509F4C3
:1008E00056C11CF4892B49F060C38230910509F48C
:1008F0006CC2039709F436C358C34E855F8508E080
:1009000010E020E130E060E070E081E895E00E94D6
:10091000BE0F4E855F85EC81FD813396EE0FFF1F84
:10092000EC0FFD1F608171810F2EF9E2EF2EF1E0D7
:10093000FF2EF02D21E030E081E895E00E940D10BF
:100940004E855F85EC81FD813396EE0FFF1FEC0F26
:10095000FD1F60817181685F7F4F0F2EF1E6EF2EE2
:10096000F1E0FF2EF02D21E030E081E895E00E94DB
:100970000D104E855F85EC81FD813396EE0FFF1FD4
:10098000EC0FFD1F60817181605F7F4F0F2EF1E2E0
:10099000EF2EF1E0FF2EF02D21E030E081E895E030
:1009A0000E940D104E855F85EC81FD813396EE0F20
:1009B000FF1FEC0FFD1F60817181605E7F4F0F2E66
:1009C000F9E7EF2EF1E0FF2EF02D21E030E081E895
:1009D00095E00E940D104E855F85EC81FD81339678
:1009E000EE0FFF1FEC0FFD1F60817181685D7F4F6F
:1009F0000F2EF1E3EF2EF1E0FF2EF02D21E030E09D
:100A000081E895E00E940D104E855F85EC81FD81A7
:100A10003396EE0FFF1FEC0FFD1F60817181605D4B
:100A20007F4F0F2EF9E4EF2EF1E0FF2EF02D21E0A5
:100A300030E081E895E00E940D104E855F85EC81E5
:100A4000FD813396EE0FFF1FEC0FFD1F608171815A
:100A5000685C7F4F0F2EF9E5EF2EF1E0FF2EF02DB1
:100A600021E030E081E895E00E940D104E855F8521
:100A7000EC81FD813396EE0FFF1FEC0FFD1F6081AF
:100A80007181605C7F4F0F2EF1E5EF2EF1E0FF2EBC
:100A9000F02D21E030E081E895E00E940D104E85B8
:100AA0005F85EC81FD813396EE0FFF1FEC0FFD1F7C
:100AB00060817181685B7F4F0F2EF1E2EF2EF1E0D4
:100AC000FF2EF02D21E030E081E895E00E940D102E
:100AD0004E855F85EC81FD813396EE0FFF1FEC0F95
:100AE000FD1F60817181605B7F4F0F2EF1E4EF2E5F
:100AF000F1E0FF2EF02D21E030E081E895E00E944A
:100B00000D104E855F85EC81FD813396EE0FFF1F42
:100B1000EC0FFD1F60817181685A7F4F0F2EF1E647
:100B2000EF2EF1E0FF2EF02D21E030E081E895E09E
:100B30000E940D104E855F85EC81FD813396EE0F8E
:100B4000FF1FEC0FFD1F60817181605A7F4F0F2ED8
:100B5000F9E2EF2EF1E0FF2EF02D21E030E081E808
:100B600095E00E940D104E855F858C819D810396D6
:100B7000880F991FC80FD91F6881798168597F4FE5
:100B800021E030E081E895E00E940D100EC24E8514
:100B90005F8508E010E020E130E060E070E081E88F
:100BA00095E00E94BE0F4E855F85EC81FD813396F6
:100BB000EE0FFF1FEC0FFD1F608171810F2EF1E31F
:100BC000EF2EF1E0FF2EF02D21E030E081E895E0FE
:100BD0000E940D104E855F85EC81FD813396EE0FEE
:100BE000FF1FEC0FFD1F60817181685F7F4F0F2E2B
:100BF000F1E6EF2EF1E0FF2EF02D21E030E081E86C
:100C000095E00E940D104E855F85EC81FD81339645
:100C1000EE0FFF1FEC0FFD1F60817181605F7F4F42
:100C20000F2EF9E2EF2EF1E0FF2EF02D21E030E063
:100C300081E895E00E940D104E855F85EC81FD8175
:100C40003396EE0FFF1FEC0FFD1F60817181685E10
:100C50007F4F0F2EF1E6EF2EF1E0FF2EF02D21E079
:100C600030E081E895E00E940D104E855F85EC81B3
:100C7000FD813396EE0FFF1FEC0FFD1F6081718128
:100C8000605E7F4F0F2EF1E2EF2EF1E0FF2EF02D90
:100C900021E030E081E895E00E940D104E855F85EF
:100CA000EC81FD813396EE0FFF1FEC0FFD1F60817D
:100CB0007181605D7F4F0F2EF9E6EF2EF1E0FF2E80
:100CC000F02D21E030E081E895E00E940D104E8586
:100CD0005F85EC81FD813396EE0FFF1FEC0FFD1F4A
:100CE00060817181685C7F4F0F2EF1E6EF2EF1E09D
:100CF000FF2EF02D21E030E081E895E00E940D10FC
:100D00004E855F85EC81FD813396EE0FFF1FEC0F62
:100D1000FD1F60817181605C7F4F0F2EF9E1EF2E26
:100D2000F1E0FF2EF02D21E030E081E895E00E9417
:100D30000D104E855F85EC81FD813396EE0FFF1F10
:100D4000EC0FFD1F60817181685B7F4F0F2EF9E40E
:100D5000EF2EF1E0FF2EF02D21E030E081E895E06C
:100D60000E940D104E855F85EC81FD813396EE0F5C
:100D7000FF1FEC0FFD1F60817181605B7F4F0F2EA5
:100D8000F1E7EF2EF1E0FF2EF02D21E030E081E8D9
:100D900095E00E940D104E855F858C819D810396A4
:100DA000880F991FC80FD91F68817981685A7F4FB2
:100DB0000F2EF1E6EF2EF1E0FF2EF02D21E030E0D6
:100DC00081E895E00E940D10F0C04E855F8508E037
:100DD00010E020E130E060E070E081E895E00E9402
:100DE000BE0F4E855F85EC81FD813396EE0FFF1FB0
:100DF000EC0FFD1F608171810F2EF1E8EF2EF1E005
:100E0000FF2EF02D21E030E081E895E00E940D10EA
:100E10004E855F85EC81FD813396EE0FFF1FEC0F51
:100E2000FD1F60817181685F7F4F0F2EF9E6EF2E05
:100E3000F1E0FF2EF02D21E030E081E895E00E9406
:100E40000D104E855F85EC81FD813396EE0FFF1FFF
:100E5000EC0FFD1F60817181605F7F4F21E030E00A
:100E600081E895E00E940D104E855F85EC81FD8143
:100E70003396EE0FFF1FEC0FFD1F60817181605EE6
:100E80007F4F0F2EF9E3EF2EF1E0FF2EF02D21E042
:100E900030E081E895E00E940D104E855F85EC8181
:100EA000FD813396EE0FFF1FEC0FFD1F60817181F6
:100EB000685D7F4F0F2EF1E1EF2EF1E0FF2EF02D58
:100EC00021E030E081E895E00E940D104E855F85BD
:100ED000EC81FD813396EE0FFF1FEC0FFD1F60814B
:100EE0007181605D7F4F0F2EF1E4EF2EF1E0FF2E58
:100EF000F02D21E030E081E895E00E940D104E8554
:100F00005F85EC81FD813396EE0FFF1FEC0FFD1F17
:100F100060817181685C7F4F0F2EF1E6EF2EF1E06A
:100F2000FF2EF02D21E030E081E895E00E940D10C9
:100F30004E855F858C819D810396880F991FC80F10
:100F4000D91F68817981605C7F4F0F2EF1E3EF2E0E
:100F5000F1E0FF2EF02D21E030E081E895E00E94E5
:100F60000D1023C04E855F8508E010E020E130E0E1
:100F700060E070E081E895E00E94BE0F4E855F85DD
:100F80008C819D810396880F991FC80FD91F688196
:100F900079810F2EF1E0EF2EF1E0FF2EF02D22E00F
:100FA00030E081E895E00E940D10DF91CF911F9114
:100FB0000F91FF90EF900895EF92FF920F931F9380
:100FC000CF93DF93EC014E855F854E5F5F4F0F2E11
:100FD000F9E2EF2EF2E0FF2EF02D08E010E022E023
:100FE00030E068E370E081E895E00E940D104E85E6
:100FF0005F85425051090F2EF9E3EF2EF2E0FF2EEC
:10100000F02D22E030E068E370E081E895E00E9496
:101010000D10DF91CF911F910F91FF90EF900895E8
:10102000EF92FF920F931F93CF93DF93EC01909178
:101030008005992309F4DCC3EE81FF81EB30F105D3
:1010400008F0D6C3EF5AFF4F0C94D5104A895B893C
:10105000EC81FD813496EE0FFF1FEC0FFD1F6081C8
:10106000718108E010E021E030E081E895E086D76A
:101070004A895B89EC81FD813496EE0FFF1FEC0FEE
:10108000FD1F608171810F2EF1EFEF2EF4E0FF2E36
:10109000F02D21E030E081E895E0BFD74A895B89F7
:1010A0004E5F5F4FEC81FD813496EE0FFF1FEC0F1A
:1010B000FD1F608171810F2EF9E8EF2EF4E0FF2E05
:1010C000F02D21E030E081E895E0A7D74A895B89DF
:1010D000415051098C819D810496880F991FC80F3A
:1010E000D91F688179810F2EF1E9EF2EF4E0FF2EF0
:1010F000F02D21E030E081E895E08FD779C34A896F
:101100005B89EC81FD813496EE0FFF1FEC0FFD1F14
:101110006081718108E010E021E030E081E895E035
:101120002DD74A895B89EC81FD813496EE0FFF1F34
:10113000EC0FFD1F608171810F2EF9EEEF2EF4E0B0
:10114000FF2EF02D21E030E081E895E066D74A8956
:101150005B894E5F5F4FEC81FD813496EE0FFF1F80
:10116000EC0FFD1F608171810F2EF9E8EF2EF4E086
:10117000FF2EF02D21E030E081E895E04ED74A893E
:101180005B89415051098C819D810496880F991F7C
:10119000C80FD91F688179810F2EF1E9EF2EF4E095
:1011A000FF2EF02D21E030E081E895E036D720C316
:1011B0004A895B89EC81FD813496EE0FFF1FEC0FAD
:1011C000FD1F6081718108E010E021E030E081E8DE
:1011D00095E0D4D64A895B89EC81FD813496EE0F87
:1011E000FF1FEC0FFD1F608171810F2EF1EEEF2EBE
:1011F000F4E0FF2EF02D21E030E081E895E00DD7FE
:101200004A895B894E5F5F4FEC81FD813496EE0F1A
:10121000FF1FEC0FFD1F608171810F2EF9E8EF2E8B
:10122000F4E0FF2EF02D21E030E081E895E0F5D6E6
:101230004A895B89415051098C819D810496880FB0
:10124000991FC80FD91F688179810F2EF1E9EF2E00
:10125000F4E0FF2EF02D21E030E081E895E0DDD6CE
:10126000C7C24A895B89EC81FD813496EE0FFF1F6E
:10127000EC0FFD1F6081718108E010E021E030E09B
:1012800081E895E07BD64A895B89EC81FD813496C3
:10129000EE0FFF1FEC0FFD1F608171810F2EF9ED26
:1012A000EF2EF4E0FF2EF02D21E030E081E895E014
:1012B000B4D64A895B894E5F5F4FEC81FD813496DD
:1012C000EE0FFF1FEC0FFD1F608171810F2EF9E8FB
:1012D000EF2EF4E0FF2EF02D21E030E081E895E0E4
:1012E0009CD64A895B89415051098C819D81049625
:1012F000880F991FC80FD91F688179810F2EF1E9D6
:10130000EF2EF4E0FF2EF02D21E030E081E895E0B3
:1013100084D66EC24A895B89EC81FD813496EE0FDA
:10132000FF1FEC0FFD1F6081718108E010E021E0DC
:1013300030E081E895E022D64A895B89EC81FD8125
:101340003496EE0FFF1FEC0FFD1F608171810F2E91
:10135000F1EDEF2EF4E0FF2EF02D21E030E081E8FA
:1013600095E05BD64A895B894E5F5F4FEC81FD81DA
:101370003496EE0FFF1FEC0FFD1F608171810F2E61
:10138000F9E8EF2EF4E0FF2EF02D21E030E081E8C7
:1013900095E043D64A895B89415051098C819D81F2
:1013A0000496880F991FC80FD91F688179810F2E65
:1013B000F1E9EF2EF4E0FF2EF02D21E030E081E89E
:1013C00095E02BD615C24A895B89EC81FD81349664
:1013D000EE0FFF1FEC0FFD1F6081718108E010E030
:1013E00021E030E081E895E0C9D54A895B89EC814C
:1013F000FD813496EE0FFF1FEC0FFD1F60817181A0
:101400000F2EF9ECEF2EF4E0FF2EF02D21E030E06E
:1014100081E895E002D64A895B894E5F5F4FEC8197
:10142000FD813496EE0FFF1FEC0FFD1F608171816F
:101430000F2EF9E8EF2EF4E0FF2EF02D21E030E042
:1014400081E895E0EAD54A895B89415051098C8150
:101450009D810496880F991FC80FD91F68817981D3
:101460000F2EF1E9EF2EF4E0FF2EF02D21E030E019
:1014700081E895E0D2D5BCC14A895B89EC81FD81C8
:101480003496EE0FFF1FEC0FFD1F6081718108E0A5
:1014900010E021E030E081E895E070D54A895B8971
:1014A000EC81FD813496EE0FFF1FEC0FFD1F608174
:1014B00071810F2EF1ECEF2EF4E0FF2EF02D21E0E4
:1014C00030E081E895E0A9D54A895B894E5F5F4F9E
:1014D000EC81FD813496EE0FFF1FEC0FFD1F608144
:1014E00071810F2EF9E8EF2EF4E0FF2EF02D21E0B0
:1014F00030E081E895E091D54A895B8941505109F6
:101500008C819D810496880F991FC80FD91F68810F
:1015100079810F2EF1E9EF2EF4E0FF2EF02D21E07E
:1015200030E081E895E079D563C14A895B89EC8137
:10153000FD813496EE0FFF1FEC0FFD1F608171815E
:1015400008E010E021E030E081E895E017D54A8915
:101550005B89EC81FD813496EE0FFF1FEC0FFD1FC0
:10156000608171810F2EF9EBEF2EF4E0FF2EF02D4C
:1015700021E030E081E895E050D54A895B894E5FF3
:101580005F4FEC81FD813496EE0FFF1FEC0FFD1FC6
:10159000608171810F2EF9E8EF2EF4E0FF2EF02D1F
:1015A00021E030E081E895E038D54A895B894150F7
:1015B00051098C819D810496880F991FC80FD91FEE
:1015C000688179810F2EF1E9EF2EF4E0FF2EF02DE6
:1015D00021E030E081E895E020D50AC14A895B89A5
:1015E000EC81FD813496EE0FFF1FEC0FFD1F608133
:1015F000718108E010E021E030E081E895E0BED4A0
:101600004A895B89EC81FD813496EE0FFF1FEC0F58
:10161000FD1F608171810F2EF1EBEF2EF4E0FF2EA4
:10162000F02D21E030E081E895E0F7D44A895B892C
:101630004E5F5F4FEC81FD813496EE0FFF1FEC0F84
:10164000FD1F608171810F2EF9E8EF2EF4E0FF2E6F
:10165000F02D21E030E081E895E0DFD44A895B8914
:10166000415051098C819D810496880F991FC80FA4
:10167000D91F688179810F2EF1E9EF2EF4E0FF2E5A
:10168000F02D21E030E081E895E0C7D4B1C04A896F
:101690005B89EC81FD813496EE0FFF1FEC0FFD1F7F
:1016A0006081718108E010E021E030E081E895E0A0
:1016B00065D44A895B89EC81FD813496EE0FFF1F6A
:1016C000EC0FFD1F608171810F2EF9EAEF2EF4E01F
:1016D000FF2EF02D21E030E081E895E09ED44A898C
:1016E0005B894E5F5F4FEC81FD813496EE0FFF1FEB
:1016F000EC0FFD1F608171810F2EF9E8EF2EF4E0F1
:10170000FF2EF02D21E030E081E895E086D44A8973
:101710005B89415051098C819D810496880F991FE6
:10172000C80FD91F688179810F2EF1E9EF2EF4E0FF
:10173000FF2EF02D21E030E081E895E06ED458C016
:101740004A895B89EC81FD813496EE0FFF1FEC0F17
:10175000FD1F6081718108E010E021E030E081E848
:1017600095E00CD44A895B89EC81FD813496EE0FBB
:10177000FF1FEC0FFD1F608171810F2EF9E9EF2E25
:10178000F4E0FF2EF02D21E030E081E895E045D433
:101790004A895B894E5F5F4FEC81FD813496EE0F85
:1017A000FF1FEC0FFD1F608171810F2EF9E8EF2EF6
:1017B000F4E0FF2EF02D21E030E081E895E02DD41B
:1017C0004A895B89415051098C819D810496880F1B
:1017D000991FC80FD91F688179810F2EF1E9EF2E6B
:1017E000F4E0FF2EF02D21E030E081E895E015D403
:1017F000DF91CF911F910F91FF90EF900895EF929D
:10180000FF920F931F93CF93DF93EC014A895B897B
:101810004F5F5F4F688579850F2EF1EAEF2EF4E078
:10182000FF2EF02D08E010E021E030E081E895E0A7
:10183000F4D34A895B894F5F5F4F6A857B8521E0DE
:1018400030E081E895E0E9D34A895B894F5F5F4FDB
:101850006C857D8521E030E081E895E0DED34A8922
:101860005B894F5F5F4F6E857F8521E030E081E8C7
:1018700095E0D3D34A895B894F5F5F4F6889798947
:1018800021E030E081E895E0C8D3DF91CF911F914E
:101890000F91FF90EF900895EF92FF920F931F9397
:1018A000FC018481958181309105C1F182309105DF
:1018B00009F44FC0892B09F066C000E210E024E073
:1018C00030E042E050E062E370E081E895E056D31A
:1018D00080917E05882381F00F2EF9E5EF2EF2E04E
:1018E000FF2EF02D24E030E042E050E062E370E0B3
:1018F00081E895E092D347C00F2EF9EEEF2EF2E08B
:10190000FF2EF02D00E210E024E030E042E050E055
:1019100062E370E081E895E080D335C000E210E03A
:1019200024E030E042E050E062E370E081E895E0DE
:1019300025D30F2EF9EFEF2EF3E0FF2EF02D24E04C
:1019400030E042E050E062E370E081E895E065D38A
:101950001AC000E210E024E030E042E050E062E330
:1019600070E081E895E00AD30F2EF9E6EF2EF3E060
:10197000FF2EF02D24E030E042E050E062E370E022
:1019800081E895E04AD31F910F91FF90EF90089561
:10199000EF92FF920F931F930F2EF9E4EF2EF2E0D8
:1019A000FF2EF02D00E110E021E030E043E050E0B8
:1019B0006EE170E081E895E030D30F2EF9EDEF2E67
:1019C000F2E0FF2EF02D21E030E043E050E06AE647
:1019D00070E081E895E021D31F910F91FF90EF9087
:1019E0000895FC011582148210927F0581E0809396
:1019F000000181E895E031C20895FC01158214824E
:101A00001092800581E08093000181E895E025C275
:101A1000089581E895E021C208951F920F920FB6B4
:101A20000F9211240BB60F92EF92FF920F931F9318
:101A30002F933F934F935F936F937F938F939F93D6
:101A4000AF93BF93EF93FF93F89480B182FB9927F4
:101A500090F981E08927909153059817E8F408E000
:101A600010E021E030E040E050E060E070E081E82C
:101A700095E084D20F2EF9EEEF2EF4E0FF2EF02D3C
:101A800021E030E040E050E060E070E081E895E087
:101A9000C4D281E08093530580B183FB992790F9EC
:101AA00081E08927909152059817E8F408E010E04A
:101AB00021E030E040E050E060E070E081E895E057
:101AC0005DD20F2EF1EEEF2EF4E0FF2EF02D21E08F
:101AD00030E040E050E060E070E081E895E09DD2C9
:101AE00081E08093520580B18295817091E08927D1
:101AF000909151059817E8F408E010E021E030E0FB
:101B000040E050E060E070E081E895E037D20F2ED1
:101B1000F9EDEF2EF4E0FF2EF02D21E030E040E073
:101B200050E060E070E081E895E077D281E080935A
:101B3000510580B185FB992790F981E08927909123
:101B400050059817E8F408E010E021E030E040E0AC
:101B500050E060E070E081E895E010D20F2EF1EDEA
:101B6000EF2EF4E0FF2EF02D21E030E040E050E0D9
:101B700060E070E081E895E050D281E0809350050C
:101B80007894FF91EF91BF91AF919F918F917F9149
:101B90006F915F914F913F912F911F910F91FF9006
:101BA000EF900F900BBE0F900FBE0F901F901895E7
:101BB000EF92FF920F931F93CF93DF93EC018881F5
:101BC0009981892B89F40F2EF9E0EF2EF2E0FF2E98
:101BD000F02D08E010E024E030E040E050E060E666
:101BE00070E081E895E019D288819981019789F4A4
:101BF0000F2EF9EEEF2EF1E0FF2EF02D08E010E0B1
:101C000024E030E040E050E060E670E081E895E0FC
:101C100004D288819981029789F40F2EF9ECEF2E76
:101C2000F1E0FF2EF02D08E010E024E030E040E08D
:101C300050E060E670E081E895E0EFD1888199811D
:101C4000039789F40F2EF9EAEF2EF1E0FF2EF02D25
:101C500008E010E024E030E040E050E060E670E0B2
:101C600081E895E0DAD188819981049789F40F2E73
:101C7000F9E8EF2EF1E0FF2EF02D08E010E024E06F
:101C800030E040E050E060E670E081E895E0C5D1EA
:101C9000DF91CF911F910F91FF90EF900895E4ECA9
:101CA000F0E081E890E09183808385E28093C50035
:101CB00080E8808388E18093C1008EE08093C20039
:101CC0000895E0ECF0E0908195FFFDCF8093C60091
:101CD000089581E895E0A8D011B812B880E88AB9D3
:101CE0001BB88CE380936B00E8E6F0E080818160B4
:101CF00080832FE78AE196E0215080409040E1F711
:101D000000C00000CCDF81E4DCDF84E5DADF8BE2B9
:101D1000D8DF87E4D6DF83E5D4DF8EE4D2DF2FE39C
:101D20008DE093E0215080409040E1F700C000003A
:101D30007894FECF0F931F93CF93DF9382E899E0BF
:101D400019D260E081E895E08FD0CEE6D5E08BE354
:101D500095E0998388831D821C8288E0E9EFF4E096
:101D6000A4E7B5E001900D928A95E1F784E090E058
:101D70009F878E87CAE5D5E085E295E099838883C1
:101D80001D821C821F821E828AE0E1E0F5E0A2E64D
:101D9000B5E001900D928A95E1F782E090E09B8B8F
:101DA0008A8BE4E5F5E08FE095E0918380831582EE
:101DB000148214B88FEF85B983B1082F017010E039
:101DC000C801199901961A9901961B990196909349
:101DD0004F0580934E058EE495E0EADEDF91CF91CA
:101DE0001F910F91089580E88093BB0084E8809351
:101DF000BC00ECEBF0E080818823ECF76093BB0043
:101E000084E88093BC00ECEBF0E080818823ECF761
:101E100008956093BB0084E88093BC00ECEBF0E095
:101E200080818823ECF70895EF92FF920F931F9320
:101E3000CF93DF938C01EC017C018CEFF81A699150
:101E400070E0C801E6DFCE15DF05C9F7DF91CF915D
:101E50001F910F91FF90EF900895FC019C5F1192EC
:101E6000E817F907E1F708950F931F93CF93DF93D6
:101E7000EC018C011C5FC8017DD1C8017CD1C80177
:101E80008BD1C8017DD168EA70E0CE01ACDF6FE391
:101E900070E0CE01A8DF63ED70E0CE01A4DF60E06A
:101EA00070E0CE01A0DF60E470E0CE019CDF61EA6B
:101EB00070E0CE0198DF68EC70E0CE0194DF6AED4F
:101EC00070E0CE0190DF62E170E0CE018CDF61E86E
:101ED00070E0CE0188DF6FEF70E0CE0184DF64EA4E
:101EE00070E0CE0180DF66EA70E0CE017CDF65ED58
:101EF00070E0CE0178DF60E870E0CE0174DF6DE85D
:101F000070E0CE0170DF64E170E0CE016CDF6FEA5B
:101F100070E0CE0168DF60E270E0CE0164DF60E077
:101F200070E0CE0160DF61E270E0CE015CDF60E076
:101F300070E0CE0158DF6FE770E0CE0154DF62E25F
:101F400070E0CE0150DF60E070E0CE014CDF67E072
:101F500070E0CE0148DF80E48093BB0084E880938A
:101F6000BC00CE017ADF60E070E0CE0152DFCE012E
:101F70005BDFDF91CF911F910F910895CF92DF9298
:101F8000EF92FF920F931F93CF93DF93EC017B01AE
:101F90006A01B90110161106BCF520E030E0AB0172
:101FA000440F551F440F551F440F551F4E0D5F1D05
:101FB0001616170624F5C90133230CF407969595D8
:101FC000879595958795959587958C0D9D1D9695EB
:101FD000982F882797958795FC01EE0DFF1DEC0F34
:101FE000FD1F840F951F8C0F9D1FDF011896119206
:101FF000EA17FB07E1F7FD018A179B07B1F72F5F8F
:102000003F4F02171307A1F6DF91CF911F910F9158
:10201000FF90EF90DF90CF9008952F923F924F92D4
:102020005F926F927F928F929F92AF92BF92CF9268
:10203000DF92EF92FF920F931F93CF93DF9300D025
:1020400000D000D0CDB7DEB79E838D833A01290141
:102050001801101611060CF074C03C832B838E2CD3
:102060009F2CC12CD12C0F2EF7E0AF2EB12CF02DD0
:10207000C901880F991F880F991F880F991F9B010D
:10208000280F391F3A832983141415040CF04EC00D
:10209000C60187709078992324F40197886F9F6F09
:1020A00001968501081B190B7601DD201CF497E0D1
:1020B000E90EF11CF594E794F594E794F594E79410
:1020C000E60CF71CF694FE2CEE24F794E794AB0193
:1020D0004E0D5F1D2D813E81420F531F89819A81D4
:1020E000E80EF91EE20EF31ED401FA0120E030E002
:1020F0008C9190E0022E02C0880F991F0A94E2F79B
:1021000080789927002E02C0959587950A94E2F76A
:102110009081892B81932F5F3F4F2830310541F704
:10212000485F5F4F11964E155F05F9F63FEFC31AF2
:10213000D30A8B819C81880E991E2C143D0409F0D2
:10214000A3CF26960FB6F894DEBF0FBECDBFDF91AA
:10215000CF911F910F91FF90EF90DF90CF90BF90A4
:10216000AF909F908F907F906F905F904F903F9037
:102170002F90089508951092B8001092B900089514
:1021800088E78093BB0084E88093BC00ECEBF0E030
:1021900080818823ECF7089584EA8093BC00ECEBFF
:1021A000F0E080818823ECF70895EE0FFF1F0024F4
:1021B000001C0BBE0790F691E02D0994F894FFCF18
:1021C00001010003E003F0011818180E7003C000AD
:1021D00000004242425A5A2400004242422424183B
:1021E00000007E181818181800003E403C02027CBF
:1021F00000007C42427C444200003C664242663C15
:1022000000004262524A464200003C181818183C2E
:10221000000042427E42424200003E604040663E34
:1022200000007E407E40407E000078444242447878
:1022300000003E604040603E00007C427C42427CA8
:102240000000183C667E6666003FFFFFFC20000031
:10225000042F0000042F0000042F0000042F0000B2
:1022600004200000043FFFFFFC3FFFFFFC200000B4
:10227000042F7800042F7800042F7800042F7800B2
:1022800004200000043FFFFFFC3FFFFFFC20000094
:10229000042F7BC0042F7BC0042F7BC0042F7BC086
:1022A00004200000043FFFFFFC3FFFFFFC20000074
:1022B000042F7BDE042F7BDE042F7BDE042F7BDEEE
:1022C00004200000043FFFFFFC3FFFFFFC20000054
:1022D000042F7BDEF42F7BDEF42F7BDEF42F7BDEFE
:1022E000F4200000043FFFFFFCFFFF7FFE3FFC1FC8
:1022F000F80FF007E003C00180018003C007E00F82
:10230000F01FF83FFC7FFEFFFF0103070F1F3F7F19
:10231000FFFF7F3F1F0F0703010000000000018047
:10232000000007E000001C380000700E0000E0070D
:102330000001C0038001C0038001C0038001C0030D
:102340008001C0038001C00380008003800000037F
:10235000800000038003FFFFC003FFFFC003FFFFF7
:10236000C003FE7FC003FC3FC003FC3FC003FE7FF1
:10237000C003FE7FC003FC7FC003FE7FC003FFFFDE
:10238000C003FFFFC00000000000000000000000CC
:1023900000000000000000000080C0E0F0F8FCFE3B
:1023A000FFFFFEFCF8F0E0C080000000000000002D
:1023B000000000000000000000000180000007E0B5
:1023C00000001C380000700E0000E0070001C00390
:1023D0008001C0038001C0038001C0038001C003ED
:1023E0008001C0038003FFFFC003FFFFC003FFFFA6
:1023F000C003FE7FC003FC3FC003FC3FC003FE7F61
:10240000C003FE7FC003FC7FC003FE7FC003FFFF4D
:10241000C003FFFFC000000000000000000000003B
:1024200000000000000000000000000000000000AC
:1024300000000FF000000FF000000FF000000FF0A0
:1024400000000FF000000FF000000FF000000FF090
:102450000000000000000000000007E0000007E0AE
:10246000000007E0000007E0000007E0000007E0D0
:10247000000007E0000007E0000007E0000007E0C0
:10248000000007E0000007E0000007E0000007E0B0
:10249000000007E0000007E0000007E0000007E0A0
:1024A0000000FFFF0000FFFF0000FFFF0000FFFF34
:1024B000000000000000000000000180000003C0D8
:1024C000000007E0001E0FF0781F9E79F81FFC3F08
:1024D000F81FE007F80F0000F80E07E070060E7016
:1024E00060061818600C300C301C6186383CC3C381
:1024F0003C7987E19EF18E719FF18E719F7987E122
:102500009E3CC3C33C1C6186380C300C3006181846
:1025100060060E70600E07E0700F0000F81FE00705
:10252000F81FFC3FF81F9E79F81E0FF0780007E0B7
:10253000000003C0000000000000000000000000D8
:1025400000000000000001800000FF7E3C18000039
:1025500000183C7EFF0000000000207E7E26060062
:102560000000007E0000000000003C24243C043CED
:1025700000003C243C24243C00003C0408102020A3
:1025800000003C203C24243C00003C203C04043C53
:1025900000002424243C040400003C043C04043CCB
:1025A00000003C040418303C000018380808083CBF
:1025B00000003C242424243C00080010001C0038A7
:1025C000000C0024003C0054006C0000000000C817
:1025D0000C8800090D9B00B500CF00F500F6004CFB
:1025E0000C00000000FF0BF700FD0C0A012401A401
:1025F00001FF033E01100800000000DC073F01F16D
:0E2600000C52016C0186019501A3015F0400DC
:00000001FF
