:100000005CC0000084C0000082C0000080C000000E
:100010000C94300D7CC000007AC0000078C0000055
:1000200076C0000074C0000072C0000070C0000004
:100030006EC000006CC000006AC0000068C0000014
:1000400066C0000064C0000062C0000060C0000024
:100050000C9406115CC000005AC0000058C000009B
:1000600056C0000054C0000052C0000050C0000044
:100070004EC000004CC000004AC0000048C0000054
:1000800046C0000044C0000042C00000B901EF01BA
:1000900025025B029102C702FD02330369039F033D
:1000A000D40326088308E0083D099A09F709540A91
:1000B000B10A0E0B6A0BC30BF81111241FBECFEF50
:1000C000D0E4DEBFCDBF16E0A0E0B1E0ECE7F8E29F
:1000D00000E00BBF02C007900D92A630B107D9F720
:1000E0002AE0A6E0B6E001C01D92A23AB207E1F70D
:1000F00010E0CDE5D0E004C02197FE010E9433144A
:10010000CC35D107C9F70E9440110C943C1478CF2C
:10011000CF93DF93EC01E881F9810190F081E02D2C
:100120000995E881F9810088F189E02DCE010995D2
:10013000DF91CF910895DC0114962D913C91159794
:100140002F5F3F4F233031052CF415963C932E93AF
:10015000149703C0FC0115821482DC01ED91FC911F
:100160000088F189E02D09950895DC0114962D9100
:100170003C911597215031092AF015963C932E9306
:10018000149705C022E030E0FC0135832483DC01B4
:10019000ED91FC910088F189E02D09950895DC012D
:1001A00014962D913C9115972115310521F02130A0
:1001B000310571F008951092000121E020939F060F
:1001C000DC01ED91FC910480F581E02D0995089505
:1001D0001092000121E020939E06DC01ED91FC913C
:1001E0000480F581E02D0995089508950895CF9331
:1001F000DF93EC01E881F9810190F081E02D099510
:10020000E881F9810088F189E02DCE010995DF911F
:10021000CF910895DC0116962D913C9117972F5F91
:100220003F4F2B3031052CF417963C932E931697A5
:1002300003C0FC0117821682DC01ED91FC9100885D
:10024000F189E02D09950895DC0116962D913C91D8
:100250001797215031092AF017963C932E93169741
:1002600005C02AE030E0FC0137832683DC01ED91F4
:10027000FC910088F189E02D099508950895CF93A8
:10028000DF93EC01E881F9810190F081E02D09957F
:10029000E881F9810088F189E02DCE010995DF918F
:1002A000CF910895DC0114962D913C9115972F5F05
:1002B0003F4F253031052CF415963C932E9314971F
:1002C00003C0FC0115821482DC01ED91FC910088D1
:1002D000F189E02D09950895DC0114962D913C914A
:1002E0001597215031092AF015963C932E931497B7
:1002F00005C024E030E0FC0135832483DC01ED916E
:10030000FC910088F189E02D09950895DC0114968F
:100310002D913C9115972330310531F4ED91FC91ED
:100320000484F585E02D09950895CF93DF93EC01C2
:10033000E881F9810480F581E02D09951D821C82F8
:10034000DF91CF9108950895AF92BF92CF92DF923F
:10035000EF92FF920F931F93CF93DF93EC01EE8107
:10036000FF81EB30F10508F025C2EA5BFF4F0C94EA
:1003700033148C819D8101969D838C8318161906F8
:100380000CF018C26E0188E0C80ED11CE12CF12CD3
:1003900056014A895B894E5F5F4FF6016191719109
:1003A0006F0108E010E021E030E080EA96E00E9472
:1003B0001C134A895B8941505109F50160817181A3
:1003C00021E030E080EA96E00E941C13FFEFEF1A74
:1003D000FF0A8C819D81E816F906D4F2EBC18C816D
:1003E0009D8101969D838C83181619060CF0E2C13D
:1003F0006E0188E0C80ED11CE12CF12C56014A890F
:100400005B894E5F5F4FF601619171916F0108E06A
:1004100010E021E030E080EA96E00E941C134A8957
:100420005B8941505109F5016081718121E030E023
:1004300080EA96E00E941C13FFEFEF1AFF0A8C81FE
:100440009D81E816F906D4F2B5C18C819D81019693
:100450009D838C83181619060CF0ACC16E0188E0E0
:10046000C80ED11CE12CF12C56014A895B894E5FE4
:100470005F4FF601619171916F0108E010E021E09A
:1004800030E080EA96E00E941C134A895B89415063
:100490005109F5016081718121E030E080EA96E048
:1004A0000E941C13FFEFEF1AFF0A8C819D81E81652
:1004B000F906D4F27FC18C819D8101969D838C8346
:1004C000181619060CF076C16E0188E0C80ED11C12
:1004D000E12CF12C56014A895B894E5F5F4FF60192
:1004E000619171916F0108E010E021E030E080EA55
:1004F00096E00E941C134A895B8941505109F5011D
:100500006081718121E030E080EA96E00E941C1356
:10051000FFEFEF1AFF0A8C819D81E816F906D4F2ED
:1005200049C18C819D8101969D838C831816190683
:100530000CF040C16E0188E0C80ED11CE12CF12CFA
:1005400056014A895B894E5F5F4FF6016191719157
:100550006F0108E010E021E030E080EA96E00E94C0
:100560001C134A895B8941505109F50160817181F1
:1005700021E030E080EA96E00E941C13FFEFEF1AC2
:10058000FF0A8C819D81E816F906D4F213C18C8193
:100590009D8101969D838C83181619060CF00AC163
:1005A0006E0188E0C80ED11CE12CF12C56014A895D
:1005B0005B894E5F5F4FF601619171916F0108E0B9
:1005C00010E021E030E080EA96E00E941C134A89A6
:1005D0005B8941505109F5016081718121E030E072
:1005E00080EA96E00E941C13FFEFEF1AFF0A8C814D
:1005F0009D81E816F906D4F2DDC08C819D810196BB
:100600009D838C83181619060CF0D4C06E0188E007
:10061000C80ED11CE12CF12C56014A895B894E5F32
:100620005F4FF601619171916F0108E010E021E0E8
:1006300030E080EA96E00E941C134A895B894150B1
:100640005109F5016081718121E030E080EA96E096
:100650000E941C13FFEFEF1AFF0A8C819D81E816A0
:10066000F906D4F2A7C08C819D8101969D838C836D
:10067000181619060CF09EC06E0188E0C80ED11C39
:10068000E12CF12C56014A895B894E5F5F4FF601E0
:10069000619171916F0108E010E021E030E080EAA3
:1006A00096E00E941C134A895B8941505109F5016B
:1006B0006081718121E030E080EA96E00E941C13A5
:1006C000FFEFEF1AFF0A8C819D81E816F906D4F23C
:1006D00071C08C819D8101969D838C8318161906AB
:1006E0000CF068C06E0188E0C80ED11CE12CF12C22
:1006F00056014A895B894E5F5F4FF60161917191A6
:100700006F0108E010E021E030E080EA96E00E940E
:100710001C134A895B8941505109F501608171813F
:1007200021E030E080EA96E00E941C13FFEFEF1A10
:10073000FF0A8C819D81E816F906D4F23BC08C81BA
:100740009D8101969D838C83181619069CF56E0178
:1007500088E0C80ED11CE12CF12C56014A895B8936
:100760004E5F5F4FF601619171916F0108E010E0FB
:1007700021E030E080EA96E00E941C134A895B8900
:1007800041505109F5016081718121E030E080EA3A
:1007900096E00E941C13FFEFEF1AFF0A8C819D81E7
:1007A000E816F906D4F206C0E881F9810484F585DB
:1007B000E02D09958C819D8105976CF081E08093F7
:1007C000000110929F06E881F9810480F581E02DF7
:1007D000CE01099509C01F821E82E881F981008837
:1007E000F189E02DCE010995DF91CF911F910F91F5
:1007F000FF90EF90DF90CF90BF90AF9008950F9350
:100800001F93CF93DF93EC014A895B89EC81FD81D3
:100810003496EE0FFF1FE80FF91F6081718108E029
:1008200010E021E030E080EA96E00E941C134A8943
:100830005B894E5F5F4FEC81FD813496EE0FFF1FA9
:10084000EC0FFD1F6081718121E030E080EA96E0CD
:100850000E941C134A895B8941505109EC81FD813A
:100860003496EE0FFF1FEC0FFD1F6081718121E0B8
:1008700030E080EA96E00E941C138C819D810197F4
:100880009D838C8399237CF410929F0681E0809352
:100890000001E881F9810480F581E02DCE01099500
:1008A0001D821C8207C0E881F9810088F189E02D52
:1008B000CE010995DF91CF911F910F910895EF928D
:1008C000FF920F931F93CF93DF93EC0190919E06BD
:1008D000992309F46AC38C819D818130910509F4C3
:1008E00056C11CF4892B49F060C38230910509F48C
:1008F0006CC2039709F436C358C34E855F8508E080
:1009000010E020E130E060E070E080EA96E00E94D4
:100910001C134E855F85EC81FD813396EE0FFF1F22
:10092000EC0FFD1F608171810F2EF9E5EF2EF1E0D4
:10093000FF2EF02D21E030E080EA96E00E946B135C
:100940004E855F85EC81FD813396EE0FFF1FEC0F26
:10095000FD1F60817181685F7F4F0F2EF9ECEF2ED4
:10096000F1E0FF2EF02D21E030E080EA96E00E94D9
:100970006B134E855F85EC81FD813396EE0FFF1F73
:10098000EC0FFD1F60817181605F7F4F0F2EF1E5DD
:10099000EF2EF1E0FF2EF02D21E030E080EA96E02E
:1009A0000E946B134E855F85EC81FD813396EE0FBF
:1009B000FF1FEC0FFD1F60817181605E7F4F0F2E66
:1009C000F1EEEF2EF1E0FF2EF02D21E030E080EA95
:1009D00096E00E946B134E855F85EC81FD81339616
:1009E000EE0FFF1FEC0FFD1F60817181685D7F4F6F
:1009F0000F2EF1E6EF2EF1E0FF2EF02D21E030E09A
:100A000080EA96E00E946B134E855F85EC81FD8144
:100A10003396EE0FFF1FEC0FFD1F60817181605D4B
:100A20007F4F0F2EF9EAEF2EF1E0FF2EF02D21E09F
:100A300030E080EA96E00E946B134E855F85EC8182
:100A4000FD813396EE0FFF1FEC0FFD1F608171815A
:100A5000685C7F4F0F2EF9EBEF2EF1E0FF2EF02DAB
:100A600021E030E080EA96E00E946B134E855F85BE
:100A7000EC81FD813396EE0FFF1FEC0FFD1F6081AF
:100A80007181605C7F4F0F2EF1EBEF2EF1E0FF2EB6
:100A9000F02D21E030E080EA96E00E946B134E8555
:100AA0005F85EC81FD813396EE0FFF1FEC0FFD1F7C
:100AB00060817181685B7F4F0F2EF1E5EF2EF1E0D1
:100AC000FF2EF02D21E030E080EA96E00E946B13CB
:100AD0004E855F85EC81FD813396EE0FFF1FEC0F95
:100AE000FD1F60817181605B7F4F0F2EF1E8EF2E5B
:100AF000F1E0FF2EF02D21E030E080EA96E00E9448
:100B00006B134E855F85EC81FD813396EE0FFF1FE1
:100B1000EC0FFD1F60817181685A7F4F0F2EF9EC39
:100B2000EF2EF1E0FF2EF02D21E030E080EA96E09C
:100B30000E946B134E855F85EC81FD813396EE0F2D
:100B4000FF1FEC0FFD1F60817181605A7F4F0F2ED8
:100B5000F9E5EF2EF1E0FF2EF02D21E030E080EA04
:100B600096E00E946B134E855F858C819D81039674
:100B7000880F991FC80FD91F6881798168597F4FE5
:100B800021E030E080EA96E00E946B130EC24E85B1
:100B90005F8508E010E020E130E060E070E080EA8E
:100BA00096E00E941C134E855F85EC81FD81339693
:100BB000EE0FFF1FEC0FFD1F608171810F2EF1E61C
:100BC000EF2EF1E0FF2EF02D21E030E080EA96E0FC
:100BD0000E946B134E855F85EC81FD813396EE0F8D
:100BE000FF1FEC0FFD1F60817181685F7F4F0F2E2B
:100BF000F9ECEF2EF1E0FF2EF02D21E030E080EA5D
:100C000096E00E946B134E855F85EC81FD813396E3
:100C1000EE0FFF1FEC0FFD1F60817181605F7F4F42
:100C20000F2EF9E5EF2EF1E0FF2EF02D21E030E060
:100C300080EA96E00E946B134E855F85EC81FD8112
:100C40003396EE0FFF1FEC0FFD1F60817181685E10
:100C50007F4F0F2EF9ECEF2EF1E0FF2EF02D21E06B
:100C600030E080EA96E00E946B134E855F85EC8150
:100C7000FD813396EE0FFF1FEC0FFD1F6081718128
:100C8000605E7F4F0F2EF1E5EF2EF1E0FF2EF02D8D
:100C900021E030E080EA96E00E946B134E855F858C
:100CA000EC81FD813396EE0FFF1FEC0FFD1F60817D
:100CB0007181605D7F4F0F2EF1EDEF2EF1E0FF2E81
:100CC000F02D21E030E080EA96E00E946B134E8523
:100CD0005F85EC81FD813396EE0FFF1FEC0FFD1F4A
:100CE00060817181685C7F4F0F2EF9ECEF2EF1E08F
:100CF000FF2EF02D21E030E080EA96E00E946B1399
:100D00004E855F85EC81FD813396EE0FFF1FEC0F62
:100D1000FD1F60817181605C7F4F0F2EF1E4EF2E2B
:100D2000F1E0FF2EF02D21E030E080EA96E00E9415
:100D30006B134E855F85EC81FD813396EE0FFF1FAF
:100D4000EC0FFD1F60817181685B7F4F0F2EF9EA08
:100D5000EF2EF1E0FF2EF02D21E030E080EA96E06A
:100D60000E946B134E855F85EC81FD813396EE0FFB
:100D7000FF1FEC0FFD1F60817181605B7F4F0F2EA5
:100D8000F9EDEF2EF1E0FF2EF02D21E030E080EACA
:100D900096E00E946B134E855F858C819D81039642
:100DA000880F991FC80FD91F68817981685A7F4FB2
:100DB0000F2EF9ECEF2EF1E0FF2EF02D21E030E0C8
:100DC00080EA96E00E946B13F0C04E855F8508E0D4
:100DD00010E020E130E060E070E080EA96E00E9400
:100DE0001C134E855F85EC81FD813396EE0FFF1F4E
:100DF000EC0FFD1F608171810F2EF9EEEF2EF1E0F7
:100E0000FF2EF02D21E030E080EA96E00E946B1387
:100E10004E855F85EC81FD813396EE0FFF1FEC0F51
:100E2000FD1F60817181685F7F4F0F2EF1EDEF2E06
:100E3000F1E0FF2EF02D21E030E080EA96E00E9404
:100E40006B134E855F85EC81FD813396EE0FFF1F9E
:100E5000EC0FFD1F60817181605F7F4F21E030E00A
:100E600080EA96E00E946B134E855F85EC81FD81E0
:100E70003396EE0FFF1FEC0FFD1F60817181605EE6
:100E80007F4F0F2EF9E7EF2EF1E0FF2EF02D21E03E
:100E900030E080EA96E00E946B134E855F85EC811E
:100EA000FD813396EE0FFF1FEC0FFD1F60817181F6
:100EB000685D7F4F0F2EF9E3EF2EF1E0FF2EF02D4E
:100EC00021E030E080EA96E00E946B134E855F855A
:100ED000EC81FD813396EE0FFF1FEC0FFD1F60814B
:100EE0007181605D7F4F0F2EF1E8EF2EF1E0FF2E54
:100EF000F02D21E030E080EA96E00E946B134E85F1
:100F00005F85EC81FD813396EE0FFF1FEC0FFD1F17
:100F100060817181685C7F4F0F2EF9ECEF2EF1E05C
:100F2000FF2EF02D21E030E080EA96E00E946B1366
:100F30004E855F858C819D810396880F991FC80F10
:100F4000D91F68817981605C7F4F0F2EF1E6EF2E0B
:100F5000F1E0FF2EF02D21E030E080EA96E00E94E3
:100F60006B1323C04E855F8508E010E020E130E080
:100F700060E070E080EA96E00E941C134E855F8579
:100F80008C819D810396880F991FC80FD91F688196
:100F900079810F2EF1E0EF2EF1E0FF2EF02D22E00F
:100FA00030E080EA96E00E946B13DF91CF911F91B1
:100FB0000F91FF90EF900895EF92FF920F931F9380
:100FC000CF93DF93EC014E855F854E5F5F4F0F2E11
:100FD000F1E9EF2EF2E0FF2EF02D08E010E022E024
:100FE00030E068E370E080EA96E00E946B134E8583
:100FF0005F85425051090F2EF1EAEF2EF2E0FF2EED
:10100000F02D22E030E068E370E080EA96E00E9494
:101010006B13DF91CF911F910F91FF90EF90089587
:10102000EF92FF920F931F93CF93DF93EC01909178
:101030009F06992309F4FFC3EE81FF81EB30F10590
:1010400008F0F9C3EF5AFF4F0C9433144A895B89B7
:10105000EC81FD813496EE0FFF1FEC0FFD1F6081C8
:10106000718108E010E021E030E080EA96E00E9423
:101070001C134A895B89EC81FD813496EE0FFF1FBA
:10108000EC0FFD1F608171810F2EF9E5EF2EF5E069
:10109000FF2EF02D21E030E080EA96E00E946B13F5
:1010A0004A895B894E5F5F4FEC81FD813496EE0F7C
:1010B000FF1FEC0FFD1F608171810F2EF1EFEF2EEE
:1010C000F4E0FF2EF02D21E030E080EA96E00E946F
:1010D0006B134A895B89415051098C819D8104962B
:1010E000880F991FC80FD91F688179810F2EF9EFDA
:1010F000EF2EF4E0FF2EF02D21E030E080EA96E0C4
:101100000E946B1398C34A895B89EC81FD813496F8
:10111000EE0FFF1FEC0FFD1F6081718108E010E0F2
:1011200021E030E080EA96E00E941C134A895B8946
:10113000EC81FD813496EE0FFF1FEC0FFD1F6081E7
:1011400071810F2EF1E5EF2EF5E0FF2EF02D21E05D
:1011500030E080EA96E00E946B134A895B894E5F1B
:101160005F4FEC81FD813496EE0FFF1FEC0FFD1FEA
:10117000608171810F2EF1EFEF2EF4E0FF2EF02D44
:1011800021E030E080EA96E00E946B134A895B8997
:10119000415051098C819D810496880F991FC80F79
:1011A000D91F688179810F2EF9EFEF2EF4E0FF2E21
:1011B000F02D21E030E080EA96E00E946B133BC303
:1011C0004A895B89EC81FD813496EE0FFF1FEC0F9D
:1011D000FD1F6081718108E010E021E030E080EACD
:1011E00096E00E941C134A895B89EC81FD8134964C
:1011F000EE0FFF1FEC0FFD1F608171810F2EF9E4D0
:10120000EF2EF5E0FF2EF02D21E030E080EA96E0B1
:101210000E946B134A895B894E5F5F4FEC81FD81B1
:101220003496EE0FFF1FEC0FFD1F608171810F2EB2
:10123000F1EFEF2EF4E0FF2EF02D21E030E080EA18
:1012400096E00E946B134A895B89415051098C8159
:101250009D810496880F991FC80FD91F68817981D5
:101260000F2EF9EFEF2EF4E0FF2EF02D21E030E00D
:1012700080EA96E00E946B13DEC24A895B89EC81AA
:10128000FD813496EE0FFF1FEC0FFD1F6081718111
:1012900008E010E021E030E080EA96E00E941C13B4
:1012A0004A895B89EC81FD813496EE0FFF1FEC0FBC
:1012B000FD1F608171810F2EF1E4EF2EF5E0FF2E0E
:1012C000F02D21E030E080EA96E00E946B134A891D
:1012D0005B894E5F5F4FEC81FD813496EE0FFF1FFF
:1012E000EC0FFD1F608171810F2EF1EFEF2EF4E006
:1012F000FF2EF02D21E030E080EA96E00E946B1393
:101300004A895B89415051098C819D810496880FDF
:10131000991FC80FD91F688179810F2EF9EFEF2E21
:10132000F4E0FF2EF02D21E030E080EA96E00E940C
:101330006B1381C24A895B89EC81FD813496EE0F83
:10134000FF1FEC0FFD1F6081718108E010E021E0BC
:1013500030E080EA96E00E941C134A895B89EC81A8
:10136000FD813496EE0FFF1FEC0FFD1F6081718130
:101370000F2EF9E3EF2EF5E0FF2EF02D21E030E007
:1013800080EA96E00E946B134A895B894E5F5F4F4B
:10139000EC81FD813496EE0FFF1FEC0FFD1F608185
:1013A00071810F2EF1EFEF2EF4E0FF2EF02D21E0F2
:1013B00030E080EA96E00E946B134A895B894150D5
:1013C00051098C819D810496880F991FC80FD91FE0
:1013D000688179810F2EF9EFEF2EF4E0FF2EF02DCA
:1013E00021E030E080EA96E00E946B1324C24A8933
:1013F0005B89EC81FD813496EE0FFF1FEC0FFD1F22
:101400006081718108E010E021E030E080EA96E040
:101410000E941C134A895B89EC81FD813496EE0F92
:10142000FF1FEC0FFD1F608171810F2EF1E3EF2E86
:10143000F5E0FF2EF02D21E030E080EA96E00E94FA
:101440006B134A895B894E5F5F4FEC81FD81349657
:10145000EE0FFF1FEC0FFD1F608171810F2EF1EF6A
:10146000EF2EF4E0FF2EF02D21E030E080EA96E050
:101470000E946B134A895B89415051098C819D817F
:101480000496880F991FC80FD91F688179810F2E84
:10149000F9EFEF2EF4E0FF2EF02D21E030E080EAAE
:1014A00096E00E946B13C7C14A895B89EC81FD817C
:1014B0003496EE0FFF1FEC0FFD1F6081718108E075
:1014C00010E021E030E080EA96E00E941C134A8997
:1014D0005B89EC81FD813496EE0FFF1FEC0FFD1F41
:1014E000608171810F2EF9E2EF2EF5E0FF2EF02DD5
:1014F00021E030E080EA96E00E946B134A895B8924
:101500004E5F5F4FEC81FD813496EE0FFF1FEC0FB5
:10151000FD1F608171810F2EF1EFEF2EF4E0FF2EA1
:10152000F02D21E030E080EA96E00E946B134A89BA
:101530005B89415051098C819D810496880F991FC8
:10154000C80FD91F688179810F2EF9EFEF2EF4E0D3
:10155000FF2EF02D21E030E080EA96E00E946B1330
:101560006AC14A895B89EC81FD813496EE0FFF1FC9
:10157000EC0FFD1F6081718108E010E021E030E098
:1015800080EA96E00E941C134A895B89EC81FD8108
:101590003496EE0FFF1FEC0FFD1F608171810F2E3F
:1015A000F1E2EF2EF5E0FF2EF02D21E030E080EAB1
:1015B00096E00E946B134A895B894E5F5F4FEC8116
:1015C000FD813496EE0FFF1FEC0FFD1F60817181CE
:1015D0000F2EF1EFEF2EF4E0FF2EF02D21E030E0A2
:1015E00080EA96E00E946B134A895B894150510959
:1015F0008C819D810496880F991FC80FD91F68811F
:1016000079810F2EF9EFEF2EF4E0FF2EF02D21E07F
:1016100030E080EA96E00E946B130DC14A895B8935
:10162000EC81FD813496EE0FFF1FEC0FFD1F6081F2
:10163000718108E010E021E030E080EA96E0FCD71C
:101640004A895B89EC81FD813496EE0FFF1FEC0F18
:10165000FD1F608171810F2EF9E1EF2EF5E0FF2E65
:10166000F02D21E030E080EA96E00E946B134A8979
:101670005B894E5F5F4FEC81FD813496EE0FFF1F5B
:10168000EC0FFD1F608171810F2EF1EFEF2EF4E062
:10169000FF2EF02D21E030E080EA96E00E946B13EF
:1016A0004A895B89415051098C819D810496880F3C
:1016B000991FC80FD91F688179810F2EF9EFEF2E7E
:1016C000F4E0FF2EF02D21E030E080EA96E00E9469
:1016D0006B13B1C04A895B89EC81FD813496EE0FB2
:1016E000FF1FEC0FFD1F6081718108E010E021E019
:1016F00030E080EA96E0A0D74A895B89EC81FD81E1
:101700003496EE0FFF1FEC0FFD1F608171810F2ECD
:10171000F1E1EF2EF5E0FF2EF02D21E030E080EA40
:1017200096E0D9D74A895B894E5F5F4FEC81FD8196
:101730003496EE0FFF1FEC0FFD1F608171810F2E9D
:10174000F1EFEF2EF4E0FF2EF02D21E030E080EA03
:1017500096E0C1D74A895B89415051098C819D81AE
:101760000496880F991FC80FD91F688179810F2EA1
:10177000F9EFEF2EF4E0FF2EF02D21E030E080EACB
:1017800096E0A9D758C04A895B89EC81FD813496DF
:10179000EE0FFF1FEC0FFD1F6081718108E010E06C
:1017A00021E030E080EA96E047D74A895B89EC8106
:1017B000FD813496EE0FFF1FEC0FFD1F60817181DC
:1017C0000F2EF1E0EF2EF5E0FF2EF02D21E030E0BE
:1017D00080EA96E080D74A895B894E5F5F4FEC8153
:1017E000FD813496EE0FFF1FEC0FFD1F60817181AC
:1017F0000F2EF1EFEF2EF4E0FF2EF02D21E030E080
:1018000080EA96E068D74A895B89415051098C810A
:101810009D810496880F991FC80FD91F688179810F
:101820000F2EF9EFEF2EF4E0FF2EF02D21E030E047
:1018300080EA96E050D7DF91CF911F910F91FF90F2
:10184000EF900895EF92FF920F931F93CF93DF9342
:10185000EC014A895B894F5F5F4F688579850F2E60
:10186000F9E0EF2EF5E0FF2EF02D08E010E021E08A
:1018700030E080EA96E02FD74A895B894F5F5F4F5F
:101880006A857B8521E030E080EA96E024D74A89AA
:101890005B894F5F5F4F6C857D8521E030E080EA9A
:1018A00096E019D74A895B894F5F5F4F6E857F85C8
:1018B00021E030E080EA96E00ED74A895B894F5FED
:1018C0005F4F6889798921E030E080EA96E003D7AC
:1018D000DF91CF911F910F91FF90EF900895EF92BC
:1018E000FF920F931F93FC018481958181309105B4
:1018F000C1F18230910509F44FC0892B09F066C00F
:1019000000E210E024E030E042E050E062E370E00A
:1019100080EA96E091D680919D06882381F00F2E73
:10192000F1ECEF2EF2E0FF2EF02D24E030E042E06B
:1019300050E062E370E080EA96E0CDD647C00F2E1B
:10194000F1E5EF2EF3E0FF2EF02D00E210E024E0B1
:1019500030E042E050E062E370E080EA96E0BBD61F
:1019600035C000E210E024E030E042E050E062E305
:1019700070E080EA96E060D60F2EF1E6EF2EF4E0FC
:10198000FF2EF02D24E030E042E050E062E370E012
:1019900080EA96E0A0D61AC000E210E024E030E031
:1019A00042E050E062E370E080EA96E045D60F2E18
:1019B000F1EDEF2EF3E0FF2EF02D24E030E042E0D9
:1019C00050E062E370E080EA96E085D61F910F91C7
:1019D000FF90EF900895EF92FF920F931F930F2EB9
:1019E000F1EBEF2EF2E0FF2EF02D00E110E021E010
:1019F00030E043E050E06EE170E080EA96E06BD6C4
:101A00000F2EF1E4EF2EF3E0FF2EF02D21E030E079
:101A100043E050E06AE670E080EA96E05CD61F9111
:101A20000F91FF90EF900895FC011582148210929F
:101A30009E0681E08093000180EA96E06CC50895DF
:101A4000FC011582148210929F0681E080930001B0
:101A500080EA96E060C5089580EA96E05CC5089546
:101A60001F920F920FB60F9211240BB60F92EF92A6
:101A7000FF920F931F932F933F934F935F936F9317
:101A80007F938F939F93AF93BF93EF93FF93F894BC
:101A900080B182FB992790F981E0892790917006A7
:101AA0009817E8F408E010E021E030E040E050E072
:101AB00060E070E080EA96E0BFD50F2EF1E5EF2EF2
:101AC000F5E0FF2EF02D21E030E040E050E060E056
:101AD00070E080EA96E0FFD581E08093700680B1E7
:101AE00083FB992790F981E0892790916F069817D9
:101AF000E8F408E010E021E030E040E050E060E091
:101B000070E080EA96E098D50F2EF9E4EF2EF5E02C
:101B1000FF2EF02D21E030E040E050E060E070E08A
:101B200080EA96E0D8D581E080936F0680B18295F7
:101B3000817091E08927909172069817E8F408E087
:101B400010E021E030E040E050E060E070E080EA4A
:101B500096E072D50F2EF1E4EF2EF5E0FF2EF02D7A
:101B600021E030E040E050E060E070E080EA96E0A4
:101B7000B2D581E08093720680B185FB992790F9F8
:101B800081E08927909171069817E8F408E010E049
:101B900021E030E040E050E060E070E080EA96E074
:101BA0004BD50F2EF9E3EF2EF5E0FF2EF02D21E0BF
:101BB00030E040E050E060E070E080EA96E08BD5F5
:101BC00081E0809371067894FF91EF91BF91AF917E
:101BD0009F918F917F916F915F914F913F912F9145
:101BE0001F910F91FF90EF900F900BBE0F900FBEC3
:101BF0000F901F901895EF92FF920F931F93CF9322
:101C0000DF93EC0188819981892B89F40F2EF1E70C
:101C1000EF2EF2E0FF2EF02D08E010E024E030E09F
:101C200040E050E060E670E080EA96E054D58881BC
:101C30009981019789F40F2EF1E5EF2EF2E0FF2E46
:101C4000F02D08E010E024E030E040E050E060E6F5
:101C500070E080EA96E03FD588819981029789F407
:101C60000F2EF1E3EF2EF2E0FF2EF02D08E010E052
:101C700024E030E040E050E060E670E080EA96E08A
:101C80002AD588819981039789F40F2EF1E1EF2EEF
:101C9000F2E0FF2EF02D08E010E024E030E040E01C
:101CA00050E060E670E080EA96E015D58881998181
:101CB000049789F40F2EF1EFEF2EF1E0FF2EF02DB7
:101CC00008E010E024E030E040E050E060E670E042
:101CD00080EA96E000D5DF91CF911F910F91FF90A0
:101CE000EF900895EF92FF920F931F93013471F4D8
:101CF0000F2EF9EEEF2EF1E0FF2EF02D89019A0163
:101D0000AB01BC0180EA96E0E6D457C2023471F41C
:101D10000F2EF1EEEF2EF1E0FF2EF02D89019A014A
:101D2000AB01BC0180EA96E0D6D447C2033471F41B
:101D30000F2EF9EDEF2EF1E0FF2EF02D89019A0123
:101D4000AB01BC0180EA96E0C6D437C2043471F41A
:101D50000F2EF1EDEF2EF1E0FF2EF02D89019A010B
:101D6000AB01BC0180EA96E0B6D427C2053471F419
:101D70000F2EF9ECEF2EF1E0FF2EF02D89019A01E4
:101D8000AB01BC0180EA96E0A6D417C2063471F418
:101D90000F2EF1ECEF2EF1E0FF2EF02D89019A01CC
:101DA000AB01BC0180EA96E096D407C2073471F417
:101DB0000F2EF9EBEF2EF1E0FF2EF02D89019A01A5
:101DC000AB01BC0180EA96E086D4F7C1083471F417
:101DD0000F2EF1EBEF2EF1E0FF2EF02D89019A018D
:101DE000AB01BC0180EA96E076D4E7C1093471F416
:101DF0000F2EF9EAEF2EF1E0FF2EF02D89019A0166
:101E0000AB01BC0180EA96E066D4D7C10A3471F414
:101E10000F2EF1EAEF2EF1E0FF2EF02D89019A014D
:101E2000AB01BC0180EA96E056D4C7C10B3471F413
:101E30000F2EF9E9EF2EF1E0FF2EF02D89019A0126
:101E4000AB01BC0180EA96E046D4B7C10C3471F412
:101E50000F2EF1E9EF2EF1E0FF2EF02D89019A010E
:101E6000AB01BC0180EA96E036D4A7C10D3471F411
:101E70000F2EF9E8EF2EF1E0FF2EF02D89019A01E7
:101E8000AB01BC0180EA96E026D497C10E3471F410
:101E90000F2EF1E8EF2EF1E0FF2EF02D89019A01CF
:101EA000AB01BC0180EA96E016D487C10F3471F40F
:101EB0000F2EF9E7EF2EF1E0FF2EF02D89019A01A8
:101EC000AB01BC0180EA96E006D477C1003571F41D
:101ED0000F2EF1E7EF2EF1E0FF2EF02D89019A0190
:101EE000AB01BC0180EA96E0F6D367C1013571F41D
:101EF0000F2EF9E6EF2EF1E0FF2EF02D89019A0169
:101F0000AB01BC0180EA96E0E6D357C1023571F41B
:101F10000F2EF1E6EF2EF1E0FF2EF02D89019A0150
:101F2000AB01BC0180EA96E0D6D347C1033571F41A
:101F30000F2EF9E5EF2EF1E0FF2EF02D89019A0129
:101F4000AB01BC0180EA96E0C6D337C1043571F419
:101F50000F2EF1E5EF2EF1E0FF2EF02D89019A0111
:101F6000AB01BC0180EA96E0B6D327C1053571F418
:101F70000F2EF9E4EF2EF1E0FF2EF02D89019A01EA
:101F8000AB01BC0180EA96E0A6D317C1063571F417
:101F90000F2EF1E4EF2EF1E0FF2EF02D89019A01D2
:101FA000AB01BC0180EA96E096D307C1073571F416
:101FB0000F2EF9E3EF2EF1E0FF2EF02D89019A01AB
:101FC000AB01BC0180EA96E086D3F7C0083571F416
:101FD0000F2EF1E3EF2EF1E0FF2EF02D89019A0193
:101FE000AB01BC0180EA96E076D3E7C0093571F415
:101FF0000F2EF9E2EF2EF1E0FF2EF02D89019A016C
:10200000AB01BC0180EA96E066D3D7C00A3571F413
:102010000F2EF1E2EF2EF1E0FF2EF02D89019A0153
:10202000AB01BC0180EA96E056D3C7C0003371F41F
:102030000F2EF9E5EF2EF5E0FF2EF02D89019A0124
:10204000AB01BC0180EA96E046D3B7C0013371F41E
:102050000F2EF1E5EF2EF5E0FF2EF02D89019A010C
:10206000AB01BC0180EA96E036D3A7C0023371F41D
:102070000F2EF9E4EF2EF5E0FF2EF02D89019A01E5
:10208000AB01BC0180EA96E026D397C0033371F41C
:102090000F2EF1E4EF2EF5E0FF2EF02D89019A01CD
:1020A000AB01BC0180EA96E016D387C0043371F41B
:1020B0000F2EF9E3EF2EF5E0FF2EF02D89019A01A6
:1020C000AB01BC0180EA96E006D377C0053371F41A
:1020D0000F2EF1E3EF2EF5E0FF2EF02D89019A018E
:1020E000AB01BC0180EA96E0F6D267C0063371F41A
:1020F0000F2EF9E2EF2EF5E0FF2EF02D89019A0167
:10210000AB01BC0180EA96E0E6D257C0073371F418
:102110000F2EF1E2EF2EF5E0FF2EF02D89019A014E
:10212000AB01BC0180EA96E0D6D247C0083371F417
:102130000F2EF9E1EF2EF5E0FF2EF02D89019A0127
:10214000AB01BC0180EA96E0C6D237C0093371F416
:102150000F2EF1E1EF2EF5E0FF2EF02D89019A010F
:10216000AB01BC0180EA96E0B6D227C0E02FF0E0D8
:10217000F595E795F595E795F595E795F595E79547
:10218000EF2B71F40F2EF1E1EF2EF1E0FF2EF02D89
:1021900089019A01AB01BC0180EA96E09CD20DC096
:1021A0000F2EF9E1EF2EF1E0FF2EF02D89019A01BB
:1021B000AB01BC0180EA96E08ED21F910F91FF9097
:1021C000EF90089580E18093C4001092C500E1EC87
:1021D000F0E080818869808386E08093C200089562
:1021E000E0ECF0E0908195FFFDCF8093C60008956C
:1021F000CF93DF93EC018881882329F02196F0DFCB
:1022000089918111FCCFDF91CF9108951F920F9298
:102210000FB60F9211240BB60F922F938F939F93AB
:10222000AF93BF93EF93FF93E0ECF0E080818823BE
:10223000ECF7E1ECF0E080818083809106069091DC
:1022400007062091C600DC01A75FB94F2C9321E05F
:1022500020930806019690930706809306068081D6
:1022600080698083FF91EF91BF91AF919F918F9192
:102270002F910F900BBE0F900FBE0F901F901895CF
:10228000789480EA96E02ED18FEF81B912B880E879
:102290008AB98CE380936B00E8E6F0E0808181608E
:1022A000808390DF2FE38DE093E0215080409040C9
:1022B000E1F700C00000EFE3FDE023E0E150F04073
:1022C0002040E1F700C0000083E795E091DF8DE05A
:1022D00087DF8FE39DE0E3E081509040E040E1F74D
:1022E00000C0000086E795E083DF8DE079DFFFE343
:1022F0002DE083E0F15020408040E1F700C0000075
:1023000080E895E075DF8DE06BDF9FE3EDE0F3E0C3
:102310009150E040F040E1F700C0000086E995E010
:1023200067DF2FE38DE093E0215080409040E1F79C
:1023300000C000008AE154DFEFE3FDE023E0E1505C
:10234000F0402040E1F700C0000081EB95E050DF55
:102350008DE046DF8FE39DE0E3E081509040E04078
:10236000E1F700C0000083E795E042DF8DE038DF51
:10237000809108068823B9F180910606909107069E
:102380001816190654F50F2EF9E0CF2EF6E0DF2EC1
:10239000F02DC0E0D0E0E12CF12C08E010E021E0CD
:1023A00030E041E050E0BE0180EA96E045D1F60120
:1023B00001916F0128E030E041E050E061E070E021
:1023C000CE0190DCFFEFEF1AFF0A289680910606F7
:1023D00090910706E816F90604F31092070610928A
:1023E000060610920806789480EA96E07BD0C0CF6B
:1023F0000F931F93CF93DF9381EA9AE019D260E0A5
:1024000080EA96E08FD0CDE8D6E083EF95E099831F
:1024100088831D821C8288E0E1E6F5E0A3E9B6E04E
:1024200001900D928A95E1F784E090E09F878E8776
:10243000C9E7D6E08DED95E0998388831D821C82E3
:102440001F821E828AE0E9E6F5E0A1E8B6E001908D
:102450000D928A95E1F782E090E09B8B8A8BE3E70F
:10246000F6E087EC95E0918380831582148214B89E
:102470008FEF85B983B1082F017010E0C801199959
:1024800001961A9901961B99019690936E06809376
:102490006D068DE696E0AFDBDF91CF911F910F9136
:1024A000089580E88093BB0084E88093BC00ECEB47
:1024B000F0E080818823ECF76093BB0084E8809390
:1024C000BC00ECEBF0E080818823ECF7089560938A
:1024D000BB0084E88093BC00ECEBF0E080818823B3
:1024E000ECF70895EF92FF920F931F93CF93DF9332
:1024F0008C01EC017C018CEFF81A699170E0C80145
:10250000E6DFCE15DF05C9F7DF91CF911F910F915F
:10251000FF90EF900895FC019C5F1192E817F90776
:10252000E1F708950F931F93CF93DF93EC018C0194
:102530001C5FC8017DD1C8017CD1C8018BD1C80105
:102540007DD168EA70E0CE01ACDF6FE370E0CE01D0
:10255000A8DF63ED70E0CE01A4DF60E070E0CE01A3
:10256000A0DF60E470E0CE019CDF61EA70E0CE01A4
:1025700098DF68EC70E0CE0194DF6AED70E0CE0188
:1025800090DF62E170E0CE018CDF61E870E0CE01A7
:1025900088DF6FEF70E0CE0184DF64EA70E0CE0187
:1025A00080DF66EA70E0CE017CDF65ED70E0CE0191
:1025B00078DF60E870E0CE0174DF6DE870E0CE0196
:1025C00070DF64E170E0CE016CDF6FEA70E0CE0195
:1025D00068DF60E270E0CE0164DF60E070E0CE01B1
:1025E00060DF61E270E0CE015CDF60E070E0CE01B0
:1025F00058DF6FE770E0CE0154DF62E270E0CE0199
:1026000050DF60E070E0CE014CDF67E070E0CE01AB
:1026100048DF80E48093BB0084E88093BC00CE0157
:102620007ADF60E070E0CE0152DFCE015BDFDF9148
:10263000CF911F910F910895CF92DF92EF92FF9269
:102640000F931F93CF93DF93EC017B016A01B901D4
:1026500010161106BCF520E030E0AB01440F551F09
:10266000440F551F440F551F4E0D5F1D16161706BC
:1026700024F5C90133230CF4079695958795959514
:102680008795959587958C0D9D1D9695982F8827F4
:1026900097958795FC01EE0DFF1DEC0FFD1F840F34
:1026A000951F8C0F9D1FDF0118961192EA17FB07EB
:1026B000E1F7FD018A179B07B1F72F5F3F4F021724
:1026C0001307A1F6DF91CF911F910F91FF90EF902B
:1026D000DF90CF9008952F923F924F925F926F922A
:1026E0007F928F929F92AF92BF92CF92DF92EF92A2
:1026F000FF920F931F93CF93DF9300D000D000D0B1
:10270000CDB7DEB79E838D833A01290118011016DB
:1027100011060CF074C03C832B838E2C9F2CC12C93
:10272000D12C0F2EF7E0AF2EB12CF02DC901880F60
:10273000991F880F991F880F991F9B01280F391F18
:102740003A832983141415040CF04EC0C601877017
:102750009078992324F40197886F9F6F01968501E3
:10276000081B190B7601DD201CF497E0E90EF11C23
:10277000F594E794F594E794F594E794E60CF71C48
:10278000F694FE2CEE24F794E794AB014E0D5F1DFA
:102790002D813E81420F531F89819A81E80EF91ED7
:1027A000E20EF31ED401FA0120E030E08C9190E0BB
:1027B000022E02C0880F991F0A94E2F780789927A9
:1027C000002E02C0959587950A94E2F79081892B97
:1027D00081932F5F3F4F2830310541F7485F5F4FAE
:1027E00011964E155F05F9F63FEFC31AD30A8B8198
:1027F0009C81880E991E2C143D0409F0A3CF2696C7
:102800000FB6F894DEBF0FBECDBFDF91CF911F9101
:102810000F91FF90EF90DF90CF90BF90AF909F907F
:102820008F907F906F905F904F903F902F90089582
:1028300008951092B8001092B900089588E7809327
:10284000BB0084E88093BC00ECEBF0E0808188233F
:10285000ECF7089584EA8093BC00ECEBF0E0808113
:102860008823ECF70895EE0FFF1F0024001C0BBE19
:0C2870000790F691E02D0994F894FFCF3A
:10287C0001010003E003F0011818180E7003C000EA
:10288C0000007C0C0C0C1E0C00007E441818001868
:10289C0000007E040810207E00004224181818182E
:1028AC00000042241818244200004242425A5A2482
:1028BC000000424242242418000042424242423C60
:1028CC0000007E181818181800003E403C02027CCC
:1028DC0000007C42427C444200003C424242423E68
:1028EC0001007C42427C404000003C664242663C17
:1028FC0000004262524A4642000042665A4242423C
:10290C00000040404040407E000044487070484405
:10291C00000006060606663C00003C181818183C19
:10292C00000042427E42424200003E604040663E11
:10293C0000007E407E40404000007E407E40407E55
:10294C00000078444242447800003E604040603EC3
:10295C0000007C427C42427C0000183C667E66662D
:10296C00003FFFFFFC200000042F0000042F00009C
:10297C00042F0000042F000004200000043FFFFF80
:10298C00FC3FFFFFFC200000042F7800042F780090
:10299C00042F7800042F780004200000043FFFFF70
:1029AC00FC3FFFFFFC200000042F7BC0042F7BC0EA
:1029BC00042F7BC0042F7BC004200000043FFFFFCA
:1029CC00FC3FFFFFFC200000042F7BDE042F7BDE8E
:1029DC00042F7BDE042F7BDE04200000043FFFFF6E
:1029EC00FC3FFFFFFC200000042F7BDEF42F7BDE7E
:1029FC00F42F7BDEF42F7BDEF4200000043FFFFF7E
:102A0C00FCFFFF7FFE3FFC1FF80FF007E003C00147
:102A1C0080018003C007E00FF01FF83FFC7FFEFF32
:102A2C00FF0103070F1F3F7FFFFF7F3F1F0F0703B0
:102A3C000100000000000180000007E000001C38CD
:102A4C000000700E0000E0070001C0038001C0030D
:102A5C008001C0038001C0038001C0038001C0035A
:102A6C008000800380000003800000038003FFFFD0
:102A7C00C003FFFFC003FFFFC003FE7FC003FC3F8A
:102A8C00C003FC3FC003FE7FC003FE7FC003FC7F7E
:102A9C00C003FE7FC003FFFFC003FFFFC0000000A8
:102AAC00000000000000000000000000000000001A
:102ABC000080C0E0F0F8FCFEFFFFFEFCF8F0E0C088
:102ACC00800000000000000000000000000000007A
:102ADC0000000180000007E000001C380000700EB0
:102AEC000000E0070001C0038001C0038001C003A7
:102AFC008001C0038001C0038001C0038003FFFF7D
:102B0C00C003FFFFC003FFFFC003FE7FC003FC3FF9
:102B1C00C003FC3FC003FE7FC003FE7FC003FC7FED
:102B2C00C003FE7FC003FFFFC003FFFFC000000017
:102B3C000000000000000000000000000000000089
:102B4C00000000000000000000000FF000000FF07B
:102B5C0000000FF000000FF000000FF000000FF06D
:102B6C0000000FF000000FF000000000000000005B
:102B7C00000007E0000007E0000007E0000007E0AD
:102B8C00000007E0000007E0000007E0000007E09D
:102B9C00000007E0000007E0000007E0000007E08D
:102BAC00000007E0000007E0000007E0000007E07D
:102BBC00000007E0000007E00000FFFF0000FFFF3F
:102BCC000000FFFF0000FFFF0000000000000000FD
:102BDC0000000180000003C0000007E0001E0FF0A1
:102BEC00781F9E79F81FFC3FF81FE007F80F0000D4
:102BFC00F80E07E070060E7060061818600C300CAA
:102C0C00301C6186383CC3C33C7987E19EF18E71E0
:102C1C009FF18E719F7987E19E3CC3C33C1C6186FA
:102C2C00380C300C3006181860060E70600E07E079
:102C3C00700F0000F81FE007F81FFC3FF81F9E798B
:102C4C00F81E0FF0780007E0000003C00000000041
:102C5C0000000000000000000000000000000180E7
:102C6C000000FF7E3C18000000183C7EFF000000B6
:102C7C000000207E7E2606000000007E0000000082
:102C8C0000003C24243C043C00003C243C24243C18
:102C9C0000003C040810202000003C203C24243C74
:102CAC0000003C203C04043C00002424243C04048C
:102CBC0000003C043C04043C00003C040418303C80
:102CCC00000018380808083C00003C242424243C4C
:102CDC0000080010001C0038000C0024003C0054BC
:102CEC00006C0041540041542B434D47463D31008C
:102CFC0041542B434D47533D22383932363037350A
:102D0C00353732352200535441525445442C20520D
:102D1C004541445920544F20434F4E54524F4C4C34
:102D2C000041542B434E4D493D312C322C302C302C
:102D3C002C300000000000EB0C88002C0D9B00B523
:102D4C0000CF00F500F6006F0C00000000220CF71D
:102D5C0000200D0A012401A401FF033E011008000C
:102D6C00000000DC073F01140D52016C0186019537
:062D7C0001A3015F040049
:00000001FF
